:020000040000FA
:060000009AEFB7F01200B8
:020006001200E6
:0600080090EF98F01200D9
:02000E001200DE
:06001000A51E01911E0176
:020016003200B6
:0600180033EF98F0120026
:02001E001000D0
:10002000B3460100FF03000001000000B9700100A9
:100030000905000002000000B5700100F70400008F
:1000400004000000B370010007050000020000007A
:10005000B17001000505000002000000AD70010054
:10006000F304000004000000AB7001000305000071
:100070000200000016000000FE0400000200000064
:10008000A7700100EF04000004000000B46F01003D
:1000900000030000F3000000B16F01000005000044
:1000A00003000000A96F0100E10400000800000047
:1000B0009F6F0100C50400000A0000009C6F010052
:1000C000FB04000003000000936F0100D80400004F
:1000D0000900000010000000E90400000600000014
:1000E000D9CFE6FFE1CFD9FFFE0EDB500501055D5C
:1000F00001E141D0FE0E055D1BE01C0EE66EE66AD6
:10010000290EE66E0F0EE66E05511C0DF3CF00F0C2
:10011000F4CF01F0000E0026010E012200C0E6FF20
:1001200001C0E6FF2CECACF0026E060EE15E025060
:10013000FE0EDBCF05F5DB50FE0801E11CD01C0EE6
:10014000E66EE66AFE0EDB501C0DF3CF00F0F4CF36
:1001500001F0000E0026010E012200C0E6FF01C0E2
:10016000E6FF290EE66E0F0EE66E2CECACF0026E8A
:10017000060EE15E0250E552E7CFD9FF12000501FD
:100180000551065D01E156D0FE0E065D35E0270EF5
:10019000E66EE66A010EE66E020EE66E0F0EE66E83
:1001A00006511C0DF3CFE9FFF4CFEAFF000EE9265C
:1001B000010EEA221B0EE926000EEA22EF50E66E3F
:1001C00006511C0DF3CFE9FFF4CFEAFF000EE9263C
:1001D000010EEA22EECF00F0EFCF01F0270E005E15
:1001E000000E015A00C0E6FF01C0E6FF5AEC2CF0F9
:1001F000026E080EE15E025005C506F5270EE66E9A
:10020000E66A44CFE6FF29CF00F02ACF01F0005E76
:10021000000E015A00C0E6FF01C0E6FF010EE66EC7
:10022000020EE66E0F0EE66E5AEC2CF0026E080E11
:10023000E15E02501200D9CFE6FFE1CFD9FF0B0EED
:10024000E126C00EF36E090EF3CFDBFF100EF36E46
:100250000A0EF3CFDBFF0F01005101110FE10AEC91
:1002600062F026C000FF27C001FFFF0E0F0100173C
:10027000070E0117000E0027040E01233C0EE66E48
:10028000E66AE66AAC0EE66E000EE66E7AECACF05C
:10029000006E050EE15E0050010EDB6ADF6ADF5082
:1002A000006E016A090E005C000E015801E33ED1A8
:1002B000DFCFE6FF15DFE552620E006E6E0E016EB7
:1002C000010E026EDFCF03F0046A056A060E2C6E83
:1002D0002D6A2E6A03C027F004C028F005C029F05B
:1002E00072ECB4F024C003F025C004F026C005F081
:1002F00000500324F36E01500420F46E02500520D8
:10030000F86EF4CFF7FFF3CFF6FFF62A000EF722D0
:10031000F8220800080EF5CFDBFF620E006E6E0EAD
:10032000016E010E026EDFCF03F0046A056A060E4D
:100330002C6E2D6A2E6A03C027F004C028F005C079
:1003400029F072ECB4F024C003F025C004F026C0FC
:1003500005F000500324F36E01500420F46E0250A7
:100360000520F86EF4CFF7FFF3CFF6FF020EF62666
:10037000000EF722F8220900020EF5CFDBFF0A007B
:10038000030EF5CFDBFF620E006E6E0E016E010EE6
:10039000026EDFCF03F0046A056A060E2C6E2D6A2A
:1003A0002E6A03C027F004C028F005C029F072ECC3
:1003B000B4F024C003F025C004F026C005F00050BE
:1003C0000324F36E01500420F46E02500520F86EF1
:1003D000F4CFF7FFF3CFF6FF040EF626000EF72258
:1003E000F8220900040EF5CFDBFF0A00050EF5CF59
:1003F000DBFF080EDB5001E098D0090EDBCF28F0C0
:100400000A0EDBCF29F0060E28C0DBFF070E29C03D
:10041000DBFF020EDBCF02F0030EDBCF03F0270E73
:100420000226000E0322010E0226000E0322040EF5
:10043000DB500224006E050EDB500320016E010E1E
:100440000026000E0122D950090FE96EDACFEAFF2B
:100450000050EE260150ED22090EDBCF00F00A0E0F
:10046000DBCF01F0026A036AD880FC0E00541F0E35
:100470000154000E0254000E035401E2EDD7080EA1
:10048000DBCF44FF060EDBCF29FF070EDBCF2AFFB1
:10049000270E0F012927000E2A23020EDB502925E3
:1004A0002B6F030EDB502A212C6F010E2B27000E21
:1004B0002C23040EDB502B252D6F050EDB502C2139
:1004C0002E6F0D0E3F6F40975ADE620E006E6E0E5D
:1004D000016E010E026EDFCF03F0046A056A060E9C
:1004E0002C6E2D6A2E6A03C027F004C028F005C0C8
:1004F00029F072ECB4F024C003F025C004F026C04B
:1005000005F000500324F36E01500420F46E0250F5
:100510000520F86EF4CFF7FFF3CFF6FF0800F5CF14
:1005200028FFCAEC1FF0DF2ABAD6FFD70B0EE15C1A
:1005300002E2E16AE552E16EE552E7CFD9FF12002F
:10054000D9CFE6FFE1CFD9FFE652DF6ADF50006E78
:10055000016A090E005C000E015801E3D1D0DFCF23
:10056000E6FFBEDDE5520D0E0F013F5D01E0C6D096
:1005700006DEF70EDB500F01285D01E0BFD0180E3C
:10058000256F020E266FFA0EDB5010E1F80EDBCF5E
:1005900012FFF90EDBCF13FF4087040E3F6FF80EFA
:1005A000DBCF42FFF90EDBCF43FFA6D0000E005D8C
:1005B000040E015906E3880ED8800055130E01552C
:1005C00003E2006B040E016F00CF12FF01CF13FF97
:1005D000002B000E0123F80EDBCF10FFF90EDBCF4E
:1005E00011FF8DECB1F026C037FF27C038FF28C0BF
:1005F00039FF29C03AFF0F014089FA0EDB50040A87
:1006000034E0070A01E078D0FB0EDBCF04F0FC0EEB
:10061000DBCF05F0FD0EDB500424026EFE0EDB5036
:100620000520036EF80EDB500224006EF90EDB503D
:100630000320016E00501219426F01501319436FCD
:10064000FB0EDBCF18FFFC0EDBCF19FFFD0EDBCF5F
:100650001AFFFE0EDBCF1BFF276B270E026F036B0B
:10066000046B056B020E3F6F47D0FB0EDBCFE9FF3B
:10067000FC0EDBCFEAFF020EE926000EEA22EECFE7
:1006800004F0EFCF05F0FB0EDBCFE9FFFC0EDBCF74
:10069000EAFF0450EE24026E0550EE20036EF80EC1
:1006A000DB500224006EF90EDB500320016E005077
:1006B0001219426F01501319436F0A0EE66EE66A73
:1006C000FB0EDBCFE6FFFC0EDBCFE6FF180EE66E7F
:1006D0000F0EE66E2CECACF0006E060EE15E0050E4
:1006E0000F01050E3F6F010EE66E020EE66EBAECCC
:1006F00017F0E552E55200D0DF5004D0DF2A26D7AC
:10070000FE0E00D0E552E552E7CFD9FF1200D9CF57
:10071000E6FFE1CFD9FFFE0EDBCFE6FFE1DCE552DD
:100720000F0141A903D04199010E02D0000E00D063
:10073000E552E7CFD9FF1200D9CFE6FFE1CFD9FFCD
:10074000FE0EDBCFE6FFCCDCE552070E0F013F5D6E
:1007500002E0000E01D0010E00D0E552E7CFD9FF34
:100760001200D9CFE6FFE1CFD9FFFE0EDBCFE6FFC7
:10077000B7DCE55233CF35FF34CF36FF0F013F51A1
:10078000080A47E0010A45E0050A43E0020A3EE0A4
:10079000050A26E00D0A0EE0010A0CE0070A07E050
:1007A000020A05E0010A03E0060A01E032D0CAECC1
:1007B0001FF039D0010EE66E110EE66EBAEC17F09E
:1007C000E552E5520F011451151101E106D00E5109
:1007D0002F1902E10F513019EDE1080E3F6F23D0C0
:1007E000010EE66E110EE66EBAEC17F0E552E55218
:1007F0000F011451151101E106D00E512F1902E11C
:100800000F513019EDE10C0E3F6F0DD00D0E3F6F03
:100810000AD0E66A140EE66EBAEC17F0E552E5521D
:10082000CAEC1FF000D0E552E7CFD9FF1200D9CFB4
:10083000E6FFE1CFD9FFFE0EDBCFE6FF51DCE5524C
:100840000F014097FE0EDBCFE6FF8BDFE552E5524E
:10085000E7CFD9FF1200D9CFE6FFE1CFD9FFFE0ED7
:10086000DBCFE6FF3DDCE5528ADC0A0EE66EE66A87
:10087000180EE66E0F0EE66E450EE66E0F0EE66E75
:100880002CECACF0006E060EE15E005010CF4FFF76
:1008900011CF50FF450E006E0F0E016E00C0F3FF2A
:1008A00001C0F4FF00D0E552E7CFD9FF1200D9CF45
:1008B000E6FFE1CFD9FFFE0EDBCFE6FF11DCE5520C
:1008C0005EDC0F010E512F1902E10F51301908E0C3
:1008D000010EE66E100EE66EBAEC17F0E552E55228
:1008E000E552E7CFD9FF1200D9CFE6FFE1CFD9FF1C
:1008F000E652FE0EDBCFE6FF70EC00F0E5523FCF94
:10090000DFFF070EDF5C06E00B0EDF5C03E0F36A3F
:10091000F46A2FD00F0131512F5D325130591BE352
:1009200029512B5D026E2C512A55036E0206000ED2
:10093000035A31512F5D046E30513255056E04500B
:10094000025C006E05500358016E00C0F3FF01C049
:10095000F4FF0FD00ED02F51315D006E3251305563
:10096000016E0006000E015A00C0F3FF01C0F4FF43
:1009700000D0E552E552E7CFD9FF1200D9CFE6FF0C
:10098000E1CFD9FF020EE126FE0EDBCFE6FF70ECD1
:1009900000F0E552FE0EDBCFE6FFA6DFE552F3CF17
:1009A000DEFFF4CFDDFFD9CFE9FFDACFEAFFEE506B
:1009B000ED1003E1000E75D00ED0D9CFE9FFDACFEC
:1009C000EAFF010EEE1801E1ED5005E1FE0EDBCF6E
:1009D000E6FF6DDFE5520F014151010B19E1DECF5A
:1009E00000F0DDCF01F029512B5D026E2C512A550C
:1009F000036ED890033202320050025C015003585B
:100A000007E3FE0EDBCFE6FF52DFE5520F01418127
:100A1000010EE66EE66AE66ED950FD0FE66EFF0E39
:100A2000DA20E66E44CFE6FF2FCFE6FF30CFE6FFB9
:100A30005AEC2CF0006E080EE15E00500F012F2BD7
:100A4000000E30232B512F5D2C51305904E329CF58
:100A50002FFF2ACF30FFD9CFE9FFDACFEAFF010E0F
:100A6000EE1801E1ED5006E1FE0EDBCFE6FF1FDFE1
:100A7000E55215D040BB13D0408B98ECB1F026C0A6
:100A800000F027C001F0026A036A060E0026000E7D
:100A900001220222032200C03BFF01C03CFF010EE5
:100AA00000D0006E020EE15C02E2E16AE552E16E06
:100AB0000050E552E7CFD9FF1200D9CFE6FFE1CFD2
:100AC000D9FF060EE126040EDB6A050EDB6AFE0E78
:100AD000DBCFE6FF70EC00F0E552FE0EDBCFE6FF69
:100AE00003DFE552020EF3CFDBFF030EF4CFDBFF93
:100AF000D950020FE96EDACFEAFFEE50ED1008E1AF
:100B0000FE0EDBCFE6FFD3DEE552F36AF46AEED0E9
:100B1000020EDBCFDEFFDBCFDDFFDBCF00F0030E0D
:100B2000DBCF01F0FA0EDBCF02F0FB0EDBCF03F0E0
:100B30000050025C0150035805E2FA0EDBCFDEFFE5
:100B4000DBCFDDFF0F014151010B1BE1020EDBCFBB
:100B500000F0030EDBCF01F029512B5D026E2C510A
:100B60002A55036ED890033202320050025C0150C5
:100B7000035807E3FE0EDBCFE6FF99DEE5520F01D7
:100B80004181DE502F250001006EDD500F01302124
:100B90000001016E0F012B51005C2C51015848E3FC
:100BA0002F512B5D006E2C513055016E040E00C08C
:100BB000DBFF050E01C0DBFF040EDBCFE6FF050EF9
:100BC000DBCFE6FF010EE66EFC0EDBCFE6FFFD0E8F
:100BD000DBCFE6FF44CFE6FF2FCFE6FF30CFE6FFC7
:100BE0005AEC2CF0006E080EE15E0050040EDBCFD4
:100BF00000F0050EDBCF01F0D950FC0FE96EFF0EBF
:100C0000DA20EA6E0050EE260150ED22040EDBCF12
:100C100000F0050EDBCF01F0D9CFE9FFDACFEAFF14
:100C20000050EE5E0150ED5A29CF2FFF2ACF30FF42
:100C3000DECFE6FFDDCFE6FF010EE66EFC0EDBCF7A
:100C4000E6FFFD0EDBCFE6FF44CFE6FF2FCFE6FF4A
:100C500030CFE6FF5AEC2CF0006E080EE15E00503B
:100C6000D9CFE9FFDACFEAFFEE500F012F27EE5080
:100C70003023020EDBCF00F0030EDBCF01F0FA0EC3
:100C8000DBCF02F0FB0EDBCF03F00050025C015023
:100C9000035806E3FE0EDBCFE6FF09DEE55215D072
:100CA00040BB13D0408B98ECB1F026C000F027C0B9
:100CB00001F0026A036A060E0026000E01220222DB
:100CC000032200C03BFF01C03CFF040EDBCF02F05B
:100CD000050EDBCF03F0DE500224006EDD50032052
:100CE000016E00C0F3FF01C0F4FF00D0060EE15C0E
:100CF00002E2E16AE552E16EE552E7CFD9FF120068
:100D0000D9CFE6FFE1CFD9FF060EE126040EDB6A5C
:100D1000050EDB6AFE0EDBCFE6FF70EC00F0E5525D
:100D2000FE0EDBCFE6FFE0DDE552020EF3CFDBFF88
:100D3000030EF4CFDBFFD950020FE96EDACFEAFFE2
:100D4000EE50ED1008E1FE0EDBCFE6FFB0DDE55220
:100D5000F36AF46AF3D00F014151010B1BE1020E5B
:100D6000DBCF00F0030EDBCF01F029512B5D026ECB
:100D70002C512A55036ED890033202320050025C87
:100D80000150035807E3FE0EDBCFE6FF90DDE5528E
:100D90000F014181020EDBCFDEFFDBCFDDFFDBCFBA
:100DA00000F0030EDBCF01F0F90EDBCF02F0FA0EFC
:100DB000DBCF03F00050025C0150035805E2F90E4E
:100DC000DBCFDEFFDBCFDDFFDE502F250001006E25
:100DD000DD500F0130210001016E0F012B51005C2D
:100DE0002C5101584CE32F512B5D006E2C51305586
:100DF000016E040E00C0DBFF050E01C0DBFF040E18
:100E0000DBCFE6FF050EDBCFE6FFFB0EDBCFE6FF19
:100E1000FC0EDBCFE6FFFD0EDBCFE6FF44CFE6FFA7
:100E20002FCFE6FF30CFE6FFFFEC2CF0006E080E70
:100E3000E15E0050040EDBCF00F0050EDBCF01F0C9
:100E4000026AD950FB0FE96EFF0EDA20EA6E0050FD
:100E5000EE260150EE220250EE22040EDBCF00F00F
:100E6000050EDBCF01F0D9CFE9FFDACFEAFF005062
:100E7000EE5E0150ED5A29CF2FFF2ACF30FFDECF93
:100E8000E6FFDDCFE6FFFB0EDBCFE6FFFC0EDBCFA0
:100E9000E6FFFD0EDBCFE6FF44CFE6FF2FCFE6FFF8
:100EA00030CFE6FFFFEC2CF0006E080EE15E005044
:100EB000D9CFE9FFDACFEAFFEE500F012F27EE502E
:100EC0003023020EDBCF00F0030EDBCF01F0F90E72
:100ED000DBCF02F0FA0EDBCF03F00050025C0150D2
:100EE000035806E3FE0EDBCFE6FFE1DCE55215D04A
:100EF00040BB13D0408B98ECB1F026C000F027C067
:100F000001F0026A036A060E0026000E0122022288
:100F1000032200C03BFF01C03CFF040EDBCF02F008
:100F2000050EDBCF03F0DE500224006EDD500320FF
:100F3000016E00C0F3FF01C0F4FF00D0060EE15CBB
:100F400002E2E16AE552E16EE552E7CFD9FF120015
:100F5000D9CFE6FFE1CFD9FFFC0EDBCF02F0FD0ECB
:100F6000DBCF03F002C0E6FF03C0E6FFFC0EDBCFE1
:100F7000E6FFFD0EDBCFE6FFF2ECACF0E552E5520A
:100F8000F3CF04F0F4CF05F004C0E6FF05C0E6FFA0
:100F9000FC0EDBCFE6FFFD0EDBCFE6FFFE0EDBCF68
:100FA000E6FF8BDD066E050EE15E0650E552E7CFEB
:100FB00003F0E552E7CF02F00250F324006E035035
:100FC000F420016E00C0F3FF01C0F4FF00D0E55231
:100FD000E7CFD9FF1200D9CFE6FFE1CFD9FFFB0E53
:100FE000DBCFE6FFFC0EDBCFE6FFFD0EDBCFE6FF3F
:100FF00000ECADF0E552E552E55227C006F028C0FE
:1010000007F006C0E6FF07C0E6FFFB0EDBCFE6FFFA
:10101000FC0EDBCFE6FFFD0EDBCFE6FFFE0EDBCFE7
:10102000E6FF6EDE086E060EE15E0850F3CF03F0B9
:10103000F4CF04F0056AD950FB0FE96EFF0EDA20F9
:10104000EA6EEE500324006EEE500420016EEE5066
:101050000520026E00C027F001C028F002C029F070
:1010600000D0E552E7CFD9FF1200D9CFE6FFE1CF9C
:10107000D9FF040EE126FE0EDBCFE6FF70EC00F098
:10108000E5520F0129512B5D006E2C512A55016E3E
:101090000006000E015A020E00C0DBFF030E01C065
:1010A000DBFFFE0EDBCFE6FF1FDCE552F3CFDEFFFA
:1010B000F4CFDDFF020EDBCF02F0030EDBCF03F037
:1010C000DE50025C006EDD500358016E00C0F3FF7D
:1010D00001C0F4FF040EE15C03E200D0E16AE552D6
:1010E000E16EE552E7CFD9FF1200D9CFE6FFE1CF9D
:1010F000D9FFFE0EDBCFE6FF1ED8E552F3CF00F09E
:10110000F4CF01F00050011012E0FE0EDBCFE6FF3D
:1011100070EC00F0E55233CF35FF34CF36FF010ECF
:10112000E66E100EE66EBAEC17F0E552E552E552A7
:10113000E7CFD9FF1200D9CFE6FFE1CFD9FFFE0EEE
:10114000DBCFE6FF70EC00F0E5520F013551335D67
:10115000365134590CE33551335D006E34513655F8
:10116000016E00C0F3FF01C0F4FF1CD01BD035514D
:101170002D5D026E2E513655036E010E0226000EB5
:1011800003222B51335D046E34512C55056E0250F1
:101190000424006E03500520016E00C0F3FF01C05F
:1011A000F4FF00D0E552E7CFD9FF1200D9CFE6FF18
:1011B000E1CFD9FF020EE126FE0EDBCFE6FFBBDF5B
:1011C000E552F3CFDEFFF4CFDDFFD9CFE9FFDACF71
:1011D000EAFFEE50ED1002E1000E54D0FE0EDBCF20
:1011E000E6FF70EC00F0E552D950FC0FE96EFF0EFF
:1011F000DA20EA6EEE50ED1016E0010EE66EE66AB9
:1012000044CFE6FF35CFE6FF36CFE6FFE66EFC0EB5
:10121000DBCFE6FFFD0EDBCFE6FF5AEC2CF0006ED5
:10122000080EE15E00500F01352B000E36233551BC
:101230002D5D36512E5904E22BCF35FF2CCF36FFD2
:10124000D9CFE9FFDACFEAFF010EEE1801E1ED5048
:1012500002E1418515D040BB13D0408B98ECB1F032
:1012600026C000F027C001F0026A036A1F0E0026A4
:10127000000E01220222032200C03BFF01C03CFFFE
:10128000010E00D0006E020EE15C02E2E16AE5525E
:10129000E16E0050E552E7CFD9FF1200D9CFE6FF4B
:1012A000E1CFD9FF040EE126020EDB6A030EDB6AF2
:1012B000FE0EDBCFE6FF3FDFE552F3CFDEFFF4CFDC
:1012C000DDFFD9CFE9FFDACFEAFFEE50ED1003E101
:1012D000F36AF46AFFD0FE0EDBCFE6FF70EC00F09D
:1012E000E552FA0EDBCF00F0FB0EDBCF01F0DECFD4
:1012F00002F0DDCF03F00050025C015003580AE217
:10130000D9CFE9FFDACFEAFFFA0EEECFDBFFFB0E13
:10131000EDCFDBFFFA0EDB500F0135250001006E2B
:10132000FB0EDB500F0136210001016E0F01005052
:101330002D5D01502E5957E235512D5D006E2E5115
:101340003655016E010E0026000E0122020E00C06D
:10135000DBFF030E01C0DBFFD950FC0FE96EFF0E6F
:10136000DA20EA6EEE50ED102AE0020EDBCFE6FF47
:10137000030EDBCFE6FF44CFE6FF35CFE6FF36CFE7
:10138000E6FF010EE66EFC0EDBCFE6FFFD0EDBCFC7
:10139000E6FF5AEC2CF0006E080EE15E0050020EE3
:1013A000DBCF00F0030EDBCF01F0D950FC0FE96E6C
:1013B000FF0EDA20EA6E0050EE260150ED22020EFA
:1013C000DBCF00F0030EDBCF01F0D950FA0FE96E4E
:1013D000FF0EDA20EA6E0050EE5E0150ED5A2BCF80
:1013E00035FF2CCF36FFD950FC0FE96EFF0EDA2007
:1013F000EA6EEE50ED101AE0FA0EDBCFE6FFFB0EC0
:10140000DBCFE6FF44CFE6FF35CFE6FF36CFE6FF82
:10141000010EE66EFC0EDBCFE6FFFD0EDBCFE6FF36
:101420005AEC2CF0006E080EE15E0050FA0EDBCF95
:1014300028F0FB0EDBCF29F028500F01352729506B
:101440003623020EDBCF00F0030EDBCF01F0D950C4
:10145000FA0FE96EFF0EDA20EA6E0050EE26015018
:10146000ED22DECF02F0DDCF03F0FA0EDB50025C9E
:10147000006EFB0EDB500358016EFA0EDBCF04F05A
:10148000FB0EDBCF05F00050045C0150055802E371
:10149000418515D040BB13D0408B98ECB1F026C0ED
:1014A00000F027C001F0026A036A1F0E0026000E3A
:1014B00001220222032200C03BFF01C03CFFFA0EC2
:1014C000DBCF00F0FB0EDBCF01F000C0F3FF01C06B
:1014D000F4FF00D0040EE15C02E2E16AE552E16E45
:1014E000E552E7CFD9FF1200D9CFE6FFE1CFD9FF10
:1014F000040EE126FE0EDBCFE6FF70EC00F0E552B5
:101500000F012B512D5D006E2E512C55016E020ED8
:1015100000C0DBFF030E01C0DBFFFE0EDBCFE6FFEA
:101520000ADEE552F3CFDEFFF4CFDDFF020EDBCFA4
:1015300002F0030EDBCF03F0DE50025C006EDD50E4
:101540000358016E00C0F3FF01C0F4FF040EE15C1C
:1015500003E200D0E16AE552E16EE552E7CFD9FF40
:101560001200D9CFE6FFE1CFD9FF060EE126D95010
:10157000FA0FE96EFF0EDA20EA6EEE50ED1003E18D
:10158000F36AF46AFDD0FE0EDBCFE6FF70EC00F0EC
:10159000E552FE0EDBCFE6FFCEDDE552020EF3CFC5
:1015A000DBFF030EF4CFDBFFFA0EDBCF02F0FB0E06
:1015B000DBCF03F0F80EDB500224006EF90EDB5097
:1015C0000320016E020EDBCF04F0030EDBCF05F02B
:1015D0000050045C0150055814E2020EDBCF02F00B
:1015E000030EDBCF03F0F80EDB50025C006EF90E49
:1015F000DB500358016EFA0E00C0DBFFFB0E01C08A
:10160000DBFFF80EDB500F0135250001006EF90EEF
:10161000DB500F0136210001016E00C0DEFF01C06A
:10162000DDFFDECF00F0DDCF01F00F0100502D5DBA
:1016300001502E5912E22B512D5D006E2E512C556A
:10164000016E010E0026000E0122D9CFE9FFDACF8C
:10165000EAFF0050EE5E0150ED5ADE502D5D006E47
:10166000DD502E59016E010E0026000E0122040EDF
:1016700000C0DBFF050E01C0DBFFFA0EDBCF00F080
:10168000FB0EDBCF01F0040EDBCF02F0050EDBCF4B
:1016900003F00050025C015003581BE3FA0EDBCF4D
:1016A000E6FFFB0EDBCFE6FF44CFE6FFDECFE6FF33
:1016B000DDCFE6FF010EE66EFC0EDBCFE6FFFD0E92
:1016C000DBCFE6FF5AEC2CF0006E080EE15E005016
:1016D0004CD0040EDBCFE6FF050EDBCFE6FF44CF98
:1016E000E6FFDECFE6FFDDCFE6FF010EE66EFC0E85
:1016F000DBCFE6FFFD0EDBCFE6FF5AEC2CF0006EF1
:10170000080EE15E0050FA0EDBCF02F0FB0EDBCFDD
:1017100003F0040EDB50025C006E050EDB50035834
:10172000016E00C0E6FF01C0E6FF44CFE6FF2BCF0D
:10173000E6FF2CCFE6FF010EE66E040EDBCF06F0CF
:10174000050EDBCF07F0FC0EDB500624046EFD0E09
:10175000DB500720056E04C0E6FF05C0E6FF5AEC2B
:101760002CF0086E080EE15E0850FA0EDBCF00F098
:10177000FB0EDBCF01F000C0F3FF01C0F4FF00D08F
:10178000060EE15C02E2E16AE552E16EE552E7CF66
:10179000D9FF1200D9CFE6FFE1CFD9FFE652FC0E08
:1017A000DBCFE6FFFD0EDBCFE6FF010EE66EE66A5D
:1017B000D9CFE6FFDACFE6FFFE0EDBCFE6FFD1DEC4
:1017C000006E070EE15E0050DF5000D0E552E5529A
:1017D000E7CFD9FF1200D9CFE6FFE1CFD9FF300E16
:1017E000E126D950FA0FE96EFF0EDA20EA6EEE50CC
:1017F000ED1003E1F36AF46AF2D2FE0EDBCFE6FFEE
:1018000070EC00F0E552FE0EDBCFE6FF94DCE55213
:10181000F3CF02F0F4CF03F0F80EDB50025C006E61
:10182000F90EDB500358016E020E00C0DBFF030E01
:1018300001C0DBFF020EDBCF00F0030EDBCF01F0B7
:10184000FA0EDBCF02F0FB0EDBCF03F00250005CA0
:101850000350015803E2F368F468C1D2D950F60F7F
:10186000E96EFF0EDA20EA6EEE50ED101DE0020E7A
:10187000DBCF00F0030EDBCF01F0F60EDBCF02F082
:10188000F70EDBCF03F00050025C015003580CE26E
:10189000F60EDBCF28F0F70EDBCF29F0020E28C0C2
:1018A000DBFF030E29C0DBFFF80EDB500F013525EF
:1018B0000001006EF90EDB500F0136210001016EB0
:1018C000060E00C0DBFF070E01C0DBFF060EDBCFFC
:1018D00000F0070EDBCF01F00F0100502D5D01502D
:1018E0002E5913E22B512D5D006E2E512C55016E99
:1018F000010E0026000E0122D950060FE96EDACF44
:10190000EAFF0050EE5E0150ED5A060EDBCFDEFF1F
:10191000DBCFDDFFDB502D5D0001006E070EDB50DD
:101920000F012E590001016E010E0026000E01224A
:10193000040E00C0DBFF050E01C0DBFFF80EDBCF9D
:1019400028F0F90EDBCF29F0060E28C0DBFF070ECA
:1019500029C0DBFFFA0EDBCF28F0FB0EDBCF29F02E
:10196000080E28C0DBFF090E29C0DBFFFC0EDBCF11
:1019700028F0FD0EDBCF29F00A0E28C0DBFF0B0E8E
:1019800029C0DBFFFC0EDBCFE9FFDB2AFD0EDBCF3E
:10199000EAFF01E3DB2A0D0EEFCFDBFF0F0EDB6A60
:1019A000F50EDB5016E0610EF36E0D0EDBCFF4FF8B
:1019B000F350F45C0EE30D0EDB507A080AE3E00E00
:1019C000006E0D0EDBCFE7FF0050E7260D0EE7CFD0
:1019D000DBFF200EF36E0E0EF3CFDBFFDBCF00F04C
:1019E000040EDBCF01F0050EDBCF02F00050015CEE
:1019F000000E025806E2040EDB50E76E0E0EE7CF33
:101A0000DBFF0E0EDBCF00F0020EDBCF01F0030E8A
:101A1000DBCF02F00050015C000E025806E2020E1D
:101A2000DB50E76E0E0EE7CFDBFF0E0EDBCFE6FFDF
:101A3000E66A44CFE6FFDECFE6FFDDCFE6FF010E2C
:101A4000E66ED950100FE66E000EDA20E66E5AEC04
:101A50002CF0006E080EE15E00500E0EDB50DE260C
:101A6000000EDD220E0EDB50006E016AD950040F0D
:101A7000E96EDACFEAFF0050EE5E0150ED5AD95020
:101A8000040FE96EDACFEAFFEE50ED1008E12BCF3C
:101A9000DEFF2CCFDDFF040EDB68050EDB68F50EE4
:101AA000DB5001E1E5D00C0EDB6A0E0EDB50F36E6D
:101AB0000C0EDBCFF4FFF350F45C01E3D8D0D95027
:101AC000100F016EDACF02F00C0EDB500F01012473
:101AD000E96E000E0220EA6EEFCF00F0610E005CAE
:101AE0001FE3D950100F036EDACF04F00C0EDB5059
:101AF0000324E96E000E0420EA6EEF507A0810E32A
:101B0000E00E026ED950100F006EDACF01F00C0E0D
:101B1000DB500024E96E000E0120EA6E0250EF2631
:101B2000D950100F006EDACF01F00C0EDB500024FC
:101B3000E96E000E0120EA6EEF50F36E0D0EDB50E1
:101B4000F35C53E1FA0EDB06DBCF00F0FB0E01E2A3
:101B5000DB06DBCF01F0005001101FE1060EDBCFEA
:101B600004F0070EDBCF05F0080EDB50045C026EBC
:101B7000090EDB500558036E0C0EDB5000010224E9
:101B8000006E000E0320016E010E0026000E0122E1
:101B900000C0F3FF01C0F4FF22D1FC0EDBCFE9FF50
:101BA000DB2AFD0EDBCFEAFF01E3DB2A0D0EEFCFD0
:101BB000DBFF010EF36E0F0EF3CFDBFF610EF36E52
:101BC0000D0EDBCFF4FFF350F45C0EE30D0EDB5093
:101BD0007A080AE3E00E006E0D0EDBCFE7FF00503F
:101BE000E7260D0EE7CFDBFF3FD0080EDBCF28F056
:101BF000090EDBCF29F0FA0E28C0DBFFFB0E29C04F
:101C0000DBFF0F0EDB5030E00A0EDBCF28F00B0EAF
:101C1000DBCF29F0FC0E28C0DBFFFD0E29C0DBFF67
:101C2000FC0EDBCFE9FFDB2AFD0EDBCFEAFF01E391
:101C3000DB2A0D0EEFCFDBFF610EF36E0D0EDBCF57
:101C4000F4FFF350F45C0EE30D0EDB507A080AE368
:101C5000E00E006E0D0EDBCFE7FF0050E7260D0E05
:101C6000E7CFDBFF0F0EDB6A0C0EDB2A1ED788D016
:101C70000C0EDB6A0E0EDB50F36E0C0EDBCFF4FFA6
:101C8000F350F45C01E37CD0D950100F006EDACF32
:101C900001F00C0EDB500F010024E96E000E012054
:101CA000EA6EEF50F36E0D0EDB50F35C3DE1FA0E81
:101CB000DB06DBCF00F0FB0E01E2DB06DBCF01F041
:101CC000005001101FE1060EDBCF04F0070EDBCF42
:101CD00005F0080EDB50045C026E090EDB5005585F
:101CE000036E0C0EDB5000010224006E000E032078
:101CF000016E010E0026000E012200C0F3FF01C09C
:101D0000F4FF6DD0FC0EDBCFE9FFDB2AFD0EDBCF4D
:101D1000EAFF01E3DB2A0D0EEFCFDBFF010EF36ECE
:101D20000F0EF3CFDBFF29D0080EDBCF28F0090E12
:101D3000DBCF29F0FA0E28C0DBFFFB0E29C0DBFF4A
:101D40000F0EDB501AE00A0EDBCF28F00B0EDBCFB4
:101D500029F0FC0E28C0DBFFFD0E29C0DBFFFC0EC6
:101D6000DBCFE9FFDB2AFD0EDBCFEAFF01E3DB2A55
:101D70000D0EEFCFDBFF0F0EDB6A0C0EDB2A7AD7DE
:101D80000E0EDB50006E016AD950020FE96EDACFF9
:101D9000EAFF0050EE5E0150ED5A020EDBCF00F07C
:101DA000030EDBCF01F0FA0EDBCF02F0FB0EDBCF30
:101DB00003F00250005C0350015803E2F368F4683A
:101DC0000ED00E0EDB50006E016AD950060FE96E80
:101DD000DACFEAFF0050EE260150ED22FAD5300EA0
:101DE000E15C02E2E16AE552E16EE552E7CFD9FF3C
:101DF0001200D9CFE6FFE1CFD9FF310EE126D9504D
:101E0000F90FE96EFF0EDA20EA6EEE50ED1003E1F5
:101E1000F36AF46A22D3FE0EDBCFE6FF70EC00F02B
:101E2000E552FE0EDBCFE6FF9BEC08F0E552F3CF68
:101E300002F0F4CF03F0F70EDB50025C006EF80EF8
:101E4000DB500358016E020E00C0DBFF030E01C021
:101E5000DBFF020EDBCF00F0030EDBCF01F0F90E4B
:101E6000DBCF02F0FA0EDBCF03F00250005C035030
:101E7000015803E2F368F468F0D2D950F50FE96E27
:101E8000FF0EDA20EA6EEE50ED101DE0020EDBCF01
:101E900000F0030EDBCF01F0F50EDBCF02F0F60E03
:101EA000DBCF03F00050025C015003580CE2F50E4A
:101EB000DBCF28F0F60EDBCF29F0020E28C0DBFFC7
:101EC000030E29C0DBFFF70EDB500F0135250001A3
:101ED000006EF80EDB500F0136210001016E060E78
:101EE00000C0DBFF070E01C0DBFF060EDBCF00F0FA
:101EF000070EDBCF01F00F0100502D5D01502E5970
:101F000013E22B512D5D006E2E512C55016E010EEA
:101F10000026000E0122D950060FE96EDACFEAFF43
:101F20000050EE5E0150ED5A060EDBCFDEFFDBCF38
:101F3000DDFFDB502D5D0001006E070EDB500F0151
:101F40002E590001016E010E0026000E0122040E22
:101F500000C0DBFF050E01C0DBFFF70EDBCF28F072
:101F6000F80EDBCF29F0060E28C0DBFF070E29C0D4
:101F7000DBFFF90EDBCF28F0FA0EDBCF29F0080EDD
:101F800028C0DBFF090E29C0DBFFD950FB0FE96E2B
:101F9000FF0EDA20EA6E0A0EEECFDBFF0B0EEECF5D
:101FA000DBFF0C0EEECFDBFFD950FB0FE96EFF0E0F
:101FB000DA20EA6EEFCFF6FFEE2AEFCFF7FF000E42
:101FC000EE22EFCFF8FFEE2208000E0EF5CFDBFF7A
:101FD000100EDB6AF40EDB5016E0610EF36E0E0E8F
:101FE000DBCFF4FFF350F45C0EE30E0EDB507A0807
:101FF0000AE3E00E006E0E0EDBCFE7FF0050E7268F
:102000000E0EE7CFDBFF200EF36E0F0EF3CFDBFFDC
:10201000DBCF00F0040EDBCF01F0050EDBCF02F0CA
:102020000050015C000E025806E2040EDB50E76E21
:102030000F0EE7CFDBFF0F0EDBCF00F0020EDBCF82
:1020400001F0030EDBCF02F00050015C000E0258DD
:1020500006E2020EDB50E76E0F0EE7CFDBFF0F0E3E
:10206000DBCFE6FFE66A44CFE6FFDECFE6FFDDCF5B
:10207000E6FF010EE66ED950110FE66E000EDA2073
:10208000E66E5AEC2CF0006E080EE15E00500F0E6A
:10209000DB50DE26000EDD220F0EDB50006E016AE3
:1020A000D950040FE96EDACFEAFF0050EE5E01501E
:1020B000ED5AD950040FE96EDACFEAFFEE50ED1079
:1020C00008E12BCFDEFF2CCFDDFF040EDB68050E11
:1020D000DB68F40EDB5001E1F7D00D0EDB6A0F0E6A
:1020E000DB50F36E0D0EDBCFF4FFF350F45C01E335
:1020F000EAD0D950110F016EDACF02F00D0EDB508D
:102100000F010124E96E000E0220EA6EEFCF00F00D
:10211000610E005C1FE3D950110F036EDACF04F09B
:102120000D0EDB500324E96E000E0420EA6EEF5022
:102130007A0810E3E00E026ED950110F006EDACF6C
:1021400001F00D0EDB500024E96E000E0120EA6E56
:102150000250EF26D950110F006EDACF01F00D0EAC
:10216000DB500024E96E000E0120EA6EEF50F36EA2
:102170000E0EDB50F35C5BE1F90EDB06DBCF00F00B
:10218000FA0E01E2DB06DBCF01F0005001101FE187
:10219000060EDBCF04F0070EDBCF05F0080EDB5098
:1021A000045C026E090EDB500558036E0D0EDB5009
:1021B00000010224006E000E0320016E010E0026B5
:1021C000000E012200C0F3FF01C0F4FF46D1D95038
:1021D000FB0FE96EFF0EDA20EA6EEFCFF6FFEE2A74
:1021E000EFCFF7FF000EEE22EFCFF8FFEE22080050
:1021F0000E0EF5CFDBFF010EF36E100EF3CFDBFFFB
:10220000610EF36E0E0EDBCFF4FFF350F45C0EE3C1
:102210000E0EDB507A080AE3E00E006E0E0EDBCFE6
:10222000E7FF0050E7260E0EE7CFDBFF49D0080E90
:10223000DBCF28F0090EDBCF29F0F90E28C0DBFF39
:10224000FA0E29C0DBFF100EDB503AE0D9500A0F1E
:10225000E96EDACFEAFFFB0EEECFDBFFFC0EEECF2E
:10226000DBFFFD0EEECFDBFFD950FB0FE96EFF0E5B
:10227000DA20EA6EEFCFF6FFEE2AEFCFF7FF000E7F
:10228000EE22EFCFF8FFEE2208000E0EF5CFDBFFB7
:10229000610EF36E0E0EDBCFF4FFF350F45C0EE331
:1022A0000E0EDB507A080AE3E00E006E0E0EDBCF56
:1022B000E7FF0050E7260E0EE7CFDBFF100EDB6ACC
:1022C0000D0EDB2A0CD79AD00D0EDB6A0F0EDB50F9
:1022D000F36E0D0EDBCFF4FFF350F45C01E38ED010
:1022E000D950110F006EDACF01F00D0EDB500F0147
:1022F0000024E96E000E0120EA6EEF50F36E0E0E20
:10230000DB50F35C45E1F90EDB06DBCF00F0FA0EA3
:1023100001E2DB06DBCF01F0005001101FE1060EE9
:10232000DBCF04F0070EDBCF05F0080EDB50045CBA
:10233000026E090EDB500558036E0D0EDB500001D6
:102340000224006E000E0320016E010E0026000E16
:10235000012200C0F3FF01C0F4FF7FD0D950FB0F72
:10236000E96EFF0EDA20EA6EEFCFF6FFEE2AEFCF2E
:10237000F7FF000EEE22EFCFF8FFEE2208000E0E60
:10238000F5CFDBFF010EF36E100EF3CFDBFF33D082
:10239000080EDBCF28F0090EDBCF29F0F90E28C09C
:1023A000DBFFFA0E29C0DBFF100EDB5024E0D95012
:1023B0000A0FE96EDACFEAFFFB0EEECFDBFFFC0E71
:1023C000EECFDBFFFD0EEECFDBFFD950FB0FE96E4A
:1023D000FF0EDA20EA6EEFCFF6FFEE2AEFCFF7FF1F
:1023E000000EEE22EFCFF8FFEE2208000E0EF5CF22
:1023F000DBFF100EDB6A0D0EDB2A68D70F0EDB50F9
:10240000006E016AD950020FE96EDACFEAFF005080
:10241000EE5E0150ED5A020EDBCF00F0030EDBCF73
:1024200001F0F90EDBCF02F0FA0EDBCF03F0025021
:10243000005C0350015803E2F368F4680ED00F0EFD
:10244000DB50006E016AD950060FE96EDACFEAFF61
:102450000050EE260150ED22D6D5310EE15C02E2AD
:10246000E16AE552E16EE552E7CFD9FF1200D9CF1C
:10247000E6FFE1CFD9FFF80EDBCFE6FFF90EDBCFA9
:10248000E6FFFA0EDBCFE6FFFB0EDBCFE6FFFC0E2E
:10249000DBCFE6FF010EE66EE66AD950FD0FE66E71
:1024A000FF0EDA20E66EFE0EDBCFE6FFEBEC0BF064
:1024B000006E0A0EE15E005000D0E552E7CFD9FF72
:1024C0001200D9CFE6FFE1CFD9FF060EE126DF6A81
:1024D000DF50006E016A090E005C000E015801E336
:1024E00077D3DFCFE6FF70EC00F0E552030EDB6A36
:1024F000010EDB6A020EDB6A0F014151020B03E1A0
:102500004151040B12E0C9EC78F000090EE0100E06
:10251000F36E030EF3CFDBFF0F014151040B01E01B
:10252000010EE76E010EE7CFDBFF0F0140AB15D0C8
:1025300098ECB1F00F0126503B5D006E27503C59DE
:10254000016E013404E200500008000E015405E35E
:10255000100EF36E030EF3CFDBFF40AD15D098ECF9
:10256000B1F00F0126503D5D006E27503E59016EBF
:10257000013404E200500008000E015405E3100E7F
:10258000F36E030EF3CFDBFF0B0E3F5D17E198EC0C
:10259000B1F00F0126503D5D006E27503E59016E8F
:1025A000013404E200500008000E015407E3110E4C
:1025B000F36E030EF3CFDBFF0C0E3F6F040E3F5D97
:1025C00001E02ED1040EDB6A050EDB6A040EDBCFC0
:1025D00000F0050EDBCF01F0030E005C000E015889
:1025E00001E31ED1040EDBCFE9FF050EDBCFEAFFCE
:1025F000140EEA02F3CFEAFFE902F3CFE9FFF45049
:10260000EA26AC0EE926000EEA22100EE926000E9C
:10261000EA22EE50ED1001E103D1040EDBCFE9FF19
:10262000050EDBCFEAFF140EEA02F3CFEAFFE90260
:10263000F3CFE9FFF450EA26AC0EE926000EEA22B9
:10264000100EE926000EEA22EECF00F0EFCF01F0E7
:102650004251001802E14351011801E0DBD0BFEC08
:1026600000F00A0EE66EE66A040EDBCFE9FF050E07
:10267000DBCFEAFF140EEA02F3CFEAFFE902F3CF61
:10268000E9FFF450EA26AC0EE926000EEA22E9CF73
:1026900000F0EACF01F000C0E6FF01C0E6FF180E2F
:1026A000E66E0F0EE66E2CECACF0026E060EE15EEE
:1026B0000250040EDBCFE9FF050EDBCFEAFF140E5C
:1026C000EA02F3CFEAFFE902F3CFE9FFF450EA268A
:1026D000AC0EE926000EEA220A0EE926000EEA22D6
:1026E000EECF10FFEDCF11FF040EDBCFE9FF050E9B
:1026F000DBCFEAFF140EEA02F3CFEAFFE902F3CFE1
:10270000E9FFF450EA26AC0EE926000EEA220C0E90
:10271000E926000EEA22EECF0AFFEECF0BFFEECF46
:102720000CFFEFCF0DFF0F010A2B0B230C230D2302
:102730001A511825026E1B511921036E02501025E3
:10274000006E03501121016E00501219426F0150AA
:102750001319436F120EF36E030EF3CFDBFF060E59
:102760003F6F040EDBCF00F0050EDBCF01F0020E51
:10277000D8800056000E0156140E0102F3CF01F06E
:102780000002F3CF00F0F450012600C0E6FF01C0C4
:10279000E6FF010EE66EE76E040EDBCF02F0050EDB
:1027A000DBCF03F0E7500226000E0322140E0302D3
:1027B000F3CF03F00202F3CF02F0F4500326AC0E85
:1027C0000226000E032202C0E6FF03C0E6FF010E50
:1027D000E66E040EDBCF04F0050EDBCF05F0140E21
:1027E0000502F3CF05F00402F3CF04F0F450052600
:1027F000AC0E0426000E052204C0E6FF05C0E6FF6D
:102800005AEC2CF0066E080EE15E06500001E46BF7
:10281000E56B06D0040EDB2A050E01E3DB2AD6D6D3
:10282000030EDB500DE0010EDB5002E0000E01D084
:10283000010EE66E030EDBCFE6FF9CDBE552E552B0
:102840000F0140B952D0070E3F5D4EE18DECB1F063
:102850000F013751265C006E38512758016E3951EF
:102860002858026E3A512958036E0001800E031455
:1028700001E0ACD10F014051070B060819E14051AE
:10288000080B01E0010EE76E030EE7CFDBFFDFCFA1
:10289000E6FFB1EC03F0E552DFCFE6FFB1EC03F069
:1028A000E552030EDB5003E10F010E0E3F6F8ED198
:1028B000BFEC00F0020EE66E100EE66E5BDBE5523A
:1028C000E5528DECB1F026C037FF27C038FF28C095
:1028D00039FF29C03AFF740E0F013727350E382310
:1028E000060E3923000E3A2371D18DECB1F00F01A1
:1028F0003751265C006E38512758016E39512858DF
:10290000026E3A512958036E0001800E031401E053
:102910005DD1BFEC00F00F013F510C0A01E1E0D0A6
:10292000060A01E1C6D0030A01E1B8D0010A01E1BB
:102930009ED00F0A01E187D00C0A01E184D00D0A74
:1029400063E0030A4CE0060A15E0010A01E0DFD06B
:1029500098ECB1F026C03BFF27C03CFF180EE66E96
:102960000F0EE66E12EC9DF0E552E5520F01030EDC
:102970003F6FCDD01C0EE66E0F0EE66E180EE66EA3
:102980000F0EE66E7FEC9DF0E552E552E552E55202
:1029900000091AE198ECB1F00F013B51265C006E82
:1029A0003C512758016E0050025D015003590BE263
:1029B000060E275D06E2272BD8900237033704372F
:1029C0000537020E3F6FA3D0020EF36E030EF3CF56
:1029D000DBFF010EDB6A0F01050E3F6F98D0020E80
:1029E000F36E030EF3CFDBFFDE52010EDD6E040E3D
:1029F000275D09E3040E276F200E026FEF0E036FB1
:102A0000090E046F056B83D0020E275D09E2120EDA
:102A1000F36E030EF3CFDBFFDE52010EDD6E12D03C
:102A200040A70BD0140EF36E030EF3CFDBFF010EA5
:102A3000F36E020EF3CFDBFF05D0020EF36E030E32
:102A4000F3CFDBFF64D0050E275D09E2100EF36EB5
:102A5000030EF3CFDBFFDE52010EDD6E07D0080E52
:102A60003F6F110EF36E030EF3CFDBFF50D0050E58
:102A7000275D09E2110EF36E030EF3CFDBFFDE528A
:102A8000010EDD6E0AD0140EF36E030EF3CFDBFFE2
:102A9000010EF36E020EF3CFDBFF39D0140EF36E8E
:102AA000030EF3CFDBFF010EF36E020EF3CFDBFF5D
:102AB0002ED0050E275D09E2100EF36E030EF3CF44
:102AC000DBFFDE52010EDD6E0AD0140EF36E030E34
:102AD000F3CFDBFF010EF36E020EF3CFDBFF17D057
:102AE000050E275D09E2110EF36E030EF3CFDBFF37
:102AF000DE52010EDD6E0AD0140EF36E030EF3CF1C
:102B0000DBFF010EF36E020EF3CFDBFF00D0030EEE
:102B1000DB5057E0010EDB504CE0272BD8900237FA
:102B200003370437053731510E5D006E0F513255B2
:102B3000016E040E00C0DBFF050E01C0DBFF31514A
:102B40000E5D32510F590FE229512B5D006E2C5151
:102B50002A55016ED950040FE96EDACFEAFF005012
:102B6000EE260150ED22040EDBCF00F0050EDBCF88
:102B700001F0026A036A0050065F0150075B0250D1
:102B8000085B0350095B040EDBCF28F0050EDBCF9A
:102B900029F0285014272950152331CF0EFF32CFAA
:102BA0000FFFE66A030EDBCFE6FFE4D9E552E552FC
:102BB00008D0010EE66E030EDBCFE6FFDBD9E5524F
:102BC000E552020EDB5002E0CAEC1FF0DF2A80D48F
:102BD000040EDB6A050EDB6A040EDBCF00F0050E87
:102BE000DBCF01F0030E005C000E015801E3B1D011
:102BF000040EDBCFE9FF050EDBCFEAFF140EEA027D
:102C0000F3CFEAFFE902F3CFE9FFF450EA26AC0E76
:102C1000E926000EEA22100EE926000EEA22EE5006
:102C2000ED1001E196D0040EDBCFE9FF050EDBCFFE
:102C3000EAFF140EEA02F3CFEAFFE902F3CFE9FF5D
:102C4000F450EA26AC0EE926000EEA22120EE9261E
:102C5000000EEA22EECF02F0EFCF03F002C0E6FF53
:102C600003C0E6FF98ECB1F0E552E7CF03F0E55280
:102C7000E7CF02F00250265C006E03502758016E29
:102C8000DC0ED8800054010E01545DE2040EDBCF4F
:102C900000F0050EDBCF01F0020ED8800056000ECA
:102CA0000156140E0102F3CF01F00002F3CF00F041
:102CB000F450012600C0E6FF01C0E6FF010EE66EFB
:102CC000E76E040EDBCF02F0050EDBCF03F0E7501A
:102CD0000226000E0322140E0302F3CF03F00202B9
:102CE000F3CF02F0F4500326AC0E0226000E0322AE
:102CF00002C0E6FF03C0E6FF010EE66E040EDBCF66
:102D000004F0050EDBCF05F0140E0502F3CF05F03D
:102D10000402F3CF04F0F4500526AC0E0426000E96
:102D2000052204C0E6FF05C0E6FF5AEC2CF0066E53
:102D3000080EE15E06500001E46BE56B040EDB0655
:102D4000050E01E2DB06040EDB2A050E01E3DB2A99
:102D500043D7060EE15C02E2E16AE552E16EE5521C
:102D6000E7CFD9FF1200D9CFE6FFE1CFD9FF250E7B
:102D7000E126FD0EDBCFE9FFFE0EDBCFEAFF140EEE
:102D8000EECFDBFF150EEECFDBFF160EEECFDBFF37
:102D9000170EEECFDBFFFB0EDBCFE9FFFC0EDBCF28
:102DA000EAFF180EEECFDBFF190EEECFDBFF1A0E97
:102DB000EECFDBFF1B0EEECFDBFF1C0EDB6A060E39
:102DC000F36E1D0EF3CFDBFFF90EDBCF28F0FA0E0A
:102DD000DBCF29F01E0E28C0DBFF1F0E29C0DBFF52
:102DE0001E0EDBCFE6FF1F0EDBCFE6FF3EEC67F0EB
:102DF000E552E5521E0EF3CFDBFF1F0EF4CFDBFFD3
:102E00000C0EE66EE66AD950140FE66E000EDA205C
:102E1000E66EBBEC67F0E552E552E552E552F3CFC2
:102E200000F0F4CF01F0001E011E200E00C0DBFFF9
:102E3000210E01C0DBFFF90EDBCFE6FFFA0EDBCF80
:102E4000E6FFF5EC7BF0E552E552220EF3CFDBFF17
:102E5000230EF4CFDBFF200EDBCF00F0210EDBCF03
:102E600001F0220EDB50001803E1230EDB500118A5
:102E700004E0E6EC78F0010E71D0000EE66EE66A32
:102E8000F6ECA6F0E552E552140EE66EE66AD9CFEE
:102E9000E6FFDACFE6FF39EC7EF0E552E552E55287
:102EA000E552D9CFE6FFDACFE6FFB2EC1EF0E552ED
:102EB000E552D9500C0FE96EDACFEAFFEF50F00B74
:102EC000E842E842E842E842040DF350006E016A2D
:102ED000140E005E000E015A240E00C0DBFFDB5012
:102EE000026E036AF90EDBCF28F0FA0EDBCF29F071
:102EF0000250285C006E03502958016E140E005ECB
:102F0000000E015AF90E00C0DBFFFA0E01C0DBFF14
:102F1000FD0EDBCFE6FFFE0EDBCFE6FFD9CFE6FFEF
:102F2000DACFE6FFA3EC1BF0E552E552E552E5529D
:102F3000000910E0F90EDBCFE6FFFA0EDBCFE6FF6B
:102F4000D9CFE6FFDACFE6FFC7EC20F0E552E55235
:102F5000E552E552E6EC78F0010E00D0006E250E49
:102F6000E15C02E2E16AE552E16E0050E552E7CF32
:102F7000D9FF1200D9CFE6FFE1CFD9FF280EE12615
:102F8000BFEC00F0FE0EDBA004D00F014187FE0E67
:102F9000DB900F01409B409D409F419341954191A3
:102FA000C9EC78F0000901E1FBD7FE0EDB50060BFF
:102FB00005E0260EDB6A270EDB6A57D10F010E51A2
:102FC0002F1902E10F51301905E1260EDB6A270E99
:102FD000DB6A2FD12F510E5D30510F5952E20E5145
:102FE0002F5D006E30510F55016E260E00C0DBFFC5
:102FF000270E01C0DBFF260EDBCF00F0270EDBCF54
:1030000001F00050145D0150155906E2260E14CF50
:10301000DBFF270E15CFDBFF260EDBCF00F0270EE0
:10302000DBCF01F00050255D0150265907E2260E46
:1030300025CFDBFF270E26CFDBFF4185260EDBCF1A
:10304000E6FF270EDBCFE6FF44CFE6FF0ECFE6FF1D
:103050000FCFE6FFE66A050EE66E0B0EE66E5AEC43
:103060002CF0006E080EE15E0050260EDBCF28F03B
:10307000270EDBCF29F028500F010E2729500F23F0
:10308000D8D00E512B5D006E2C510F55016E240EC1
:1030900000C0DBFF250E01C0DBFF240EDB502F2517
:1030A0000001026E250EDB500F0130210001036E7E
:1030B0000F012951025C006E2A510358016E260E41
:1030C00000C0DBFF270E01C0DBFF260EDBCF00F0C8
:1030D000270EDBCF01F00050145D0150155906E2B8
:1030E000260E14CFDBFF270E15CFDBFF260EDBCF1E
:1030F00000F0270EDBCF01F00050255D015026596E
:1031000007E2260E25CFDBFF270E26CFDBFF41850A
:10311000240EDBCF00F0250EDBCF01F0260EDBCF37
:1031200002F0270EDBCF03F00050025C0150035881
:103130000CE2260EDBCF28F0270EDBCF29F0240E81
:1031400028C0DBFF250E29C0DBFF240EDBCFE6FF06
:10315000250EDBCFE6FF44CFE6FF0ECFE6FF0FCF15
:10316000E6FFE66A050EE66E0B0EE66E5AEC2CF0F4
:10317000006E080EE15E0050260EDBCF02F0270E37
:10318000DBCF03F0240EDB50025C006E250EDB501B
:103190000358016E240E00C0DBFF250E01C0DBFFCB
:1031A000D950240FE96EDACFEAFFEE50ED1027E098
:1031B000240EDBCFE6FF250EDBCFE6FF44CFE6FF94
:1031C00029CFE6FF2ACFE6FFE66A0F010E512B5DFD
:1031D000006E2C510F55016E026A036A050E00261F
:1031E0000B0E0122000E0222032200C0E6FF01C0E6
:1031F000E6FF5AEC2CF0046E080EE15E0450260E39
:10320000DBCF28F0270EDBCF29F028500F010E2747
:1032100029500F232B510E5D2C510F590AE32951D0
:103220002B5D006E2C512A55016E00500E5F01502F
:103230000F5B41A71AD0260EDBCF00F0270EDBCFA5
:1032400001F01451001802E1155101180EE0260E8C
:10325000DBCF02F0270EDBCF03F02551021802E18D
:103260002651031802E0FE0EDB80D950260FE96ECE
:10327000DACFEAFFEE50ED1004E1FE0EDB50030B57
:1032800030E0260EDBCF28F0270EDBCF29F02850C8
:103290000F01145F2950155BD950260FE96EDACF64
:1032A000EAFFEE50ED1002E0FE0EDB86FD0EDBA025
:1032B00007D0276BF20E026F9E0E036F046B056B37
:1032C0008DECB1F026500F010225376F27500321F6
:1032D000386F28500421396F295005213A6F4089F1
:1032E0003ED0FD0EDBA21FD0400EE96E0F0EEA6E3F
:1032F000EF50070BE82AF36EF350070BF36EF46EF2
:10330000F80EEF14F310EF6EF4500F010607000EE5
:10331000075B085B095B010EF36E260EF3CFDBFF44
:10332000270EDB6A1CD00F0140A919D0DBB008D0F2
:10333000275106E02707D8900533043303330233BF
:103340008DECB1F026500F010225376F2750032175
:10335000386F28500421396F295005213A6F020E29
:1033600012CFDBFF030E13CFDBFF040E10CFDBFF0A
:10337000050E11CFDBFF060E06CFDBFF070E07CFD2
:10338000DBFF080E08CFDBFF090E09CFDBFF0A0EBB
:103390000ACFDBFF0B0E0BCFDBFF0C0E0CCFDBFFDE
:1033A0000D0E0DCFDBFF0F0EDB9CDB9E0E0EDB90B8
:1033B000DB92DB94DB96FE0EDB50E76E0F0EE7CF61
:1033C000DBFF140EDB6A150EDB6A260EDBCF00F086
:1033D000270EDBCF01F0000100500F01062700018E
:1033E00001500F010723000E08230923FE0EDBA264
:1033F0001DD0DBB808D00A0EDB6A0B0EDB6A0C0EA0
:10340000DB6A0D0EDB6A24A30BD0D950060FE96EE0
:10341000DACFEAFFEE06000EEE5AEE5AEE5A06D06A
:10342000062B000E0723082309232483FE0EDBA0AE
:1034300013D024A10BD0D950060FE96EDACFEAFFE2
:10344000EE06000EEE5AEE5AEE5A06D0062B000E8D
:1034500007230823092324813551335D365134591C
:1034600019E32B512D5D026E2E512C55036E3551F3
:10347000335D046E34513655056E0450025C006EA7
:1034800005500358016E100E00C0DBFF110E01C085
:10349000DBFF0FD03351355D006E36513455016E70
:1034A0000006000E015A100E00C0DBFF110E01C015
:1034B000DBFF2EEC79F0F3CF00F0F4CF01F0400EFB
:1034C000005E000E015A00C0DEFF01C0DDFFDECF4E
:1034D00000F0DDCF01F00001800E011402E0DE6A91
:1034E000DD6A100EDBCF00F0110EDBCF01F0DECF76
:1034F00002F0DDCF03F00050025C015003580AE2F5
:10350000D9CFE9FFDACFEAFF100EEECFDBFF110EC5
:10351000EDCFDBFFD950020FE66E000EDA20E66E2B
:10352000B2EC1EF0E552E552D950260FE96EDACF23
:10353000EAFF140EEE26000EED220E0EDB88DB9A5B
:10354000DB8CDB9EFE0EDBA236D0D950260FE96E57
:10355000DACFEAFF040EEE26000EED22020EF36E25
:10356000160EF3CFDBFF040EF36E170EF3CFDBFF67
:10357000020EF36E180EF3CFDBFFF36E190EF3CFCE
:10358000DBFF010E006ED9500E0FE96EDACFEAFFB5
:10359000EF50F00BE842E842E842E84200240F0B0B
:1035A000F36EF46EF346F346F346F3460F0EEF1454
:1035B000F310EF6EF4501A0E00C2DBFF1B0E01C2B7
:1035C000DBFF1C0E02C2DBFF1D0E03C2DBFF1E0E63
:1035D00018CFDBFF1F0E19CFDBFF200E1ACFDBFF4A
:1035E000210E1BCFDBFF220EDB6A060EF36E230ECD
:1035F000F3CFDBFF260EDBCF28F0270EDBCF29F041
:10360000240E28C0DBFF250E29C0DBFF240EDBCFF4
:10361000E6FF250EDBCFE6FF3EEC67F0E552E55214
:10362000240EF3CFDBFF250EF4CFDBFF0C0EE66E8E
:10363000E66AD9501A0FE66E000EDA20E66EBBEC91
:1036400067F0E552E552E552E552F3CF00F0F4CFD2
:1036500001F0001E011E120E00C0DBFF130E01C0A0
:10366000DBFFDD0EE66E0A0EE66E4EEC7BF0E552F9
:10367000E552260EDBCFE6FF270EDBCFE6FF060E78
:10368000E66E180EE66E0F0EE66E44ECA6F0006EC7
:10369000050EE15E0050140EE66EE66AD950020F88
:1036A000E66E000EDA20E66E96EC7EF0E552E5520C
:1036B000E552E552FE0EDBA20FD0040EE66EE66A7E
:1036C000D950160FE66E000EDA20E66E96EC7EF00C
:1036D000E552E552E552E552F10EE66E0A0EE66E4F
:1036E00071EC7BF0E552E552260EDBCFE6FF270EAC
:1036F000DBCFE6FFF5EC7BF0E552E552F3CFDEFFE2
:10370000F4CFDDFF010EE66E0B0EE66E4EEC7BF0A5
:10371000E552E552020EE66EE66AD9CFE6FFDACF51
:10372000E6FF96EC7EF0E552E552E552E552E0EC1C
:103730007AF0280EE15C02E2E16AE552E16EE552C0
:10374000E7CFD9FF1200D9CFE6FFE1CFD9FF060EB0
:10375000E126FD0EDBCFE9FFFE0EDBCFEAFF020E16
:10376000E926000EEA22EE50ED1002E1000EEED244
:10377000DE52FE0EDD6EFB0EDBCFE9FFFC0EDBCF73
:10378000EAFF020EE926000EEA22EECF06F0EFCFA6
:1037900007F0FB0EDBCFE9FFFC0EDBCFEAFF0650A4
:1037A000EE24046E0750EE20056EFD0EDBCFE9FF20
:1037B000FE0EDBCFEAFF0450EE24026E0550EE2031
:1037C000036EFD0EDBCFE9FFFE0EDBCFEAFF020E3C
:1037D000E926000EEA220250EE18006E0350EE18A1
:1037E000016E020E00C0DBFF030E01C0DBFFDF6ACB
:1037F000DF50006E016A090E005C000E015872E293
:10380000DFCFE6FF70EC00F0E5520D0E0F013F5DDB
:1038100002E166D029D0040E3F5D19E1FD0EDBCF39
:10382000E9FFFE0EDBCFEAFF020EE926000EEA22D8
:10383000EECF00F0EFCF01F00050421902E101504D
:10384000431903E1010EDFCFDBFF4AD00DD042CF99
:1038500000F043CF01F0020EDB50001803E1030E2D
:10386000DB50011801E03CD0BFEC00F0FD0EDBCFD7
:10387000E9FFFE0EDBCFEAFF020EE926000EEA2288
:10388000EECF00F0EFCF01F00F011251001802E16E
:103890001351011825E1FD0EDBCFE9FFFE0EDBCF52
:1038A000EAFFEECF02F0EFCF03F01051021802E171
:1038B0001151031815E1FB0EDBCFE9FFFC0EDBCF46
:1038C000EAFFEE50181909E1EE50191906E1EE5021
:1038D0001A1903E1EE501B1900E102E1010E36D284
:1038E000DF2A86D7010EDB50FE0843E0010EDBCF56
:1038F000E6FF70EC00F0E552BFEC00F0010EDB508B
:10390000FE0837E0020EDBCF42FF030EDBCF43FFA2
:103910000A0EE66EE66AFB0EDBCFE6FFFC0EDBCF9F
:10392000E6FF180EE66E0F0EE66E2CECACF0006EA5
:10393000060EE15E0050FD0EDBCFE9FFFE0EDBCF91
:10394000EAFFEECF10FFEDCF11FFFD0EDBCFE9FF59
:10395000FE0EDBCFEAFF020EE926000EEA22EECFD2
:1039600012FFEDCF13FF29CF0EFF2ACF0FFF010E5D
:10397000EDD1FD0EDBCFE9FFFE0EDBCFEAFF0D0E32
:10398000E926000EEA22EF50020B02E1000EDED122
:103990000001E451E51102E0000ED8D1040EDB6A0B
:1039A000050EDB6A040EDBCF00F0050EDBCF01F065
:1039B000030E005C000E015801E3CFD0040EDBCFF4
:1039C000E9FF050EDBCFEAFF140EEA02F3CFEAFFB0
:1039D000E902F3CFE9FFF450EA26AC0EE926000E27
:1039E000EA22100EE926000EEA22EE50ED1001E167
:1039F000B4D0040EDBCFE9FF050EDBCFEAFF140ED7
:103A0000EA02F3CFEAFFE902F3CFE9FFF450EA2636
:103A1000AC0EE926000EEA22100EE926000EEA227C
:103A2000EECF00F0EFCF01F0FD0EDBCFE9FFFE0E91
:103A3000DBCFEAFF020EE926000EEA22EECF02F00B
:103A4000EFCF03F00250001802E10350011801E02B
:103A50007ED0040EDBCFE9FF050EDBCFEAFF140EAC
:103A6000EA02F3CFEAFFE902F3CFE9FFF450EA26D6
:103A7000AC0EE926000EEA220A0EE926000EEA2222
:103A8000EECF00F0EFCF01F0FD0EDBCFE9FFFE0E31
:103A9000DBCFEAFFEECF02F0EFCF03F002500018C9
:103AA00002E10350011801E052D0FB0EDBCFE9FF29
:103AB000FC0EDBCFEAFFEECF00F0EECF01F0EECF51
:103AC00002F0EFCF03F0040EDBCFE9FF050EDBCFF2
:103AD000EAFF140EEA02F3CFEAFFE902F3CFE9FFAF
:103AE000F450EA26AC0EE926000EEA22EE50000160
:103AF000001809E1EE50011806E1EE50021803E14A
:103B0000EE50031800E101E022D098ECB1F026C09D
:103B100000F027C001F0040EDBCFE9FF050EDBCF7C
:103B2000EAFF140EEA02F3CFEAFFE902F3CFE9FF5E
:103B3000F450EA26AC0EE926000EEA22120EE9261F
:103B4000000EEA2200C0EEFF01C0EDFFFFD0040E20
:103B5000DB2A050E01E3DB2A25D7DF6ADF50006E82
:103B6000016A090E005C000E015801E3EDD0DFCFC1
:103B7000E6FF70EC00F0E5520F0140A7E3D0BFEC88
:103B800000F0FD0EDBCFE9FFFE0EDBCFEAFF020EF9
:103B9000E926000EEA22EECF00F0EFCF01F0005050
:103BA0000F01121902E10150131901E0CBD00A0EE6
:103BB000E66EE66AFB0EDBCFE6FFFC0EDBCFE6FF30
:103BC000040EDBCFE9FF050EDBCFEAFF140EEA029D
:103BD000F3CFEAFFE902F3CFE9FFF450EA26AC0E97
:103BE000E926000EEA22E9CF00F0EACF01F000C09A
:103BF000E6FF01C0E6FF2CECACF0026E060EE15EC3
:103C00000250FD0EDBCFE9FFFE0EDBCFEAFFEECF69
:103C100000F0EFCF01F0040EDBCFE9FF050EDBCFA4
:103C2000EAFF140EEA02F3CFEAFFE902F3CFE9FF5D
:103C3000F450EA26AC0EE926000EEA220A0EE92626
:103C4000000EEA2200C0EEFF01C0EDFFFD0EDBCF4B
:103C5000E9FFFE0EDBCFEAFF040EE926000EEA22A2
:103C6000EECF00F0EECF01F0EECF02F0EFCF03F099
:103C7000040EDBCFE9FF050EDBCFEAFF140EEA02EC
:103C8000F3CFEAFFE902F3CFE9FFF450EA26AC0EE6
:103C9000E926000EEA220C0EE926000EEA2200C0F8
:103CA000EEFF01C0EEFF02C0EEFF03C0EEFFFD0E0F
:103CB000DBCFE9FFFE0EDBCFEAFF020EE926000EA6
:103CC000EA22EECF00F0EFCF01F0040EDBCFE9FFE8
:103CD000050EDBCFEAFF140EEA02F3CFEAFFE9029A
:103CE000F3CFE9FFF450EA26AC0EE926000EEA22F3
:103CF000100EE926000EEA2200C0EEFF01C0EDFF23
:103D000098ECB1F026C000F027C001F0040EDBCF24
:103D1000E9FF050EDBCFEAFF140EEA02F3CFEAFF5C
:103D2000E902F3CFE9FFF450EA26AC0EE926000ED3
:103D3000EA22120EE926000EEA2200C0EEFF01C0C0
:103D4000EDFF04D0DF2A0AD7000E00D0006E060E69
:103D5000E15C02E2E16AE552E16E0050E552E7CF34
:103D6000D9FF1200D9CFE6FFE1CFD9FFFD0EDBCF9F
:103D7000E9FFFE0EDBCFEAFFEECFE6FFEFCFE6FF77
:103D80003EEC67F0E552E552F3CF00F0F4CF01F0DE
:103D9000FD0EDBCFE9FFFE0EDBCFEAFF00C0EEFF3A
:103DA00001C0EDFFFD0EDBCFE9FFFE0EDBCFEAFF2A
:103DB000020EE926000EEA22EECFE6FFEFCFE6FF85
:103DC0003EEC67F0E552E552F3CF00F0F4CF01F09E
:103DD000FD0EDBCFE9FFFE0EDBCFEAFF020EE92688
:103DE000000EEA2200C0EEFF01C0EDFFFD0EDBCFAA
:103DF000E9FFFE0EDBCFEAFF040EE926000EEA2201
:103E0000EECFE6FFEECFE6FFEECFE6FFEFCFE6FF29
:103E100068EC67F0E552E552E552E55226C000F045
:103E200027C001F028C002F029C003F0FD0EDBCF4F
:103E3000E9FFFE0EDBCFEAFF040EE926000EEA22C0
:103E400000C0EEFF01C0EEFF02C0EEFF03C0EEFFB8
:103E5000FD0EDBCFE9FFFE0EDBCFEAFF080EE92601
:103E6000000EEA22EECFE6FFEECFE6FFEECFE6FF52
:103E7000EFCFE6FF68EC67F0E552E552E552E55218
:103E800026C000F027C001F028C002F029C003F0CE
:103E9000FD0EDBCFE9FFFE0EDBCFEAFF080EE926C1
:103EA000000EEA2200C0EEFF01C0EEFF02C0EEFFEE
:103EB00003C0EEFFFD0EDBCFE9FFFE0EDBCFEAFF16
:103EC0000E0EE926000EEA22EECFE6FFEFCFE6FF68
:103ED0003EEC67F0E552E552F3CF00F0F4CF01F08D
:103EE000FD0EDBCFE9FFFE0EDBCFEAFF0E0EE9266B
:103EF000000EEA2200C0EEFF01C0EDFFFD0EDBCF99
:103F0000E9FFFE0EDBCFEAFF100EE926000EEA22E3
:103F1000EECFE6FFEFCFE6FF3EEC67F0E552E5526D
:103F2000F3CF00F0F4CF01F0FD0EDBCFE9FFFE0E82
:103F3000DBCFEAFF100EE926000EEA2200C0EEFFFA
:103F400001C0EDFFFD0EDBCFE9FFFE0EDBCFEAFF88
:103F5000120EE926000EEA22EECFE6FFEFCFE6FFD3
:103F60003EEC67F0E552E552F3CF00F0F4CF01F0FC
:103F7000FD0EDBCFE9FFFE0EDBCFEAFF120EE926D6
:103F8000000EEA2200C0EEFF01C0EDFFE552E7CFD0
:103F9000D9FF1200BFEC00F012CF42FF13CF43FF56
:103FA00029CF2FFF2ACF30FF29CF31FF2ACF32FF71
:103FB0002BCF33FF2CCF34FF2BCF35FF2CCF36FF49
:103FC0000F014051080B02E0040E01D00D0E3F6FAF
:103FD0004091409340954099409B409D409F419126
:103FE00041934195419741892491249324972499A1
:103FF00029CF0EFF2ACF0FFFC0EC61F0F3CF06FFF1
:10400000F4CF07FFC0EC61F0F3CF08FFF4CF09FF56
:104010000F0122692369010E146F156B1200D9CFAD
:10402000E6FFE1CFD9FF040EE1260C0EE66EE66A4C
:10403000F6ECA6F0E552E55236EC7EF0DF6EF00EBF
:10404000DF14E840E8403F0B006E016A140E005E8A
:10405000000E015A0050DF6EDF5005E1180EF36EBE
:10406000020EF46E8AD0070EE66EE66A000EE66E69
:10407000E66A39EC7EF0E552E552E552E552DF5052
:10408000DF06000975E036EC7EF0E76E010EE7CF43
:10409000DBFFDB5001E16CD0010EDB0401E1EFD767
:1040A000010EDB50020845E1030EDF5C01E260D047
:1040B000020EDB6A030EDB6A36EC7EF0E76E010E61
:1040C000E7CFDBFFDB5004080CE136EC7EF0E76E57
:1040D000030EE7CFDBFF36EC7EF0E76E020EE7CF94
:1040E000DBFF020EDBCF00F0030EDBCF01F0180E7A
:1040F000005C020E015801E23BD0D950020FE96E7C
:10410000DACFEAFFB40ED880EE54050EED5406E285
:10411000B40EF36E050EF46E30D029D0020EDBCF54
:1041200000F0030EDBCF01F000C0F3FF01C0F4FF8D
:1041300024D0020EDF5C01E21BD036EC7EF0E76E8D
:10414000010EE7CFDBFFDB50DF5C01E211D0010E97
:10415000DBCFE6FFE66A000EE66EE66A39EC7EF03B
:10416000E552E552E552E552010EDB50DF5E87D79E
:10417000180EF36E020EF46E00D0040EE15C02E243
:10418000E16AE552E16EE552E7CFD9FF1200D9CFDF
:10419000E6FFE1CFD9FF1C0EE126FD0EDBCFE9FFE4
:1041A000FE0EDBCFEAFF0D0EE926000EEA220E0E10
:1041B000EFCFDBFFFD0EDBCFE9FFFE0EDBCFEAFF2B
:1041C000080EE926000EEA220F0EEECFDBFF100EDE
:1041D000EECFDBFF110EEECFDBFF120EEECFDBFFDB
:1041E000FD0EDBCFE9FFFE0EDBCFEAFF040EE92672
:1041F000000EEA22130EEECFDBFF140EEECFDBFF34
:10420000150EEECFDBFF160EEECFDBFF0F01409158
:104210004093409540B913D08DECB1F026C037FFE4
:1042200027C038FF28C039FF29C03AFF740E0F019C
:104230003727350E3823060E3923000E3A233F5117
:10424000050A5CE0010A15E0FB0EDBCF28F0FC0E4E
:10425000DBCF29F0170E28C0DBFF180E29C0DBFFCB
:104260000E0EDBA0EAD0170EDB2A180E01E2E5D015
:10427000E3D00E0EDBA403D08DDEBBEF2AF0DBA86B
:1042800016D00F0EDBCF06FF100EDBCF07FF110E8F
:10429000DBCF08FF120EDBCF09FFE66A040EE66EE5
:1042A000BAEC17F0E552E55275DEBBEF2AF0DBA25F
:1042B00022D0130EDBCF0AFF140EDBCF0BFF150E3F
:1042C000DBCF0CFF160EDBCF0DFF0A2B000E0B23EE
:1042D0000C230D23A4DEF3CF25FFF4CF26FF010E20
:1042E000E66E120EE66EBAEC17F0E552E5520F01DB
:1042F000060E3F6F01D04EDEBBEF2AF00E0EDBA4A0
:1043000002D0BBEF2AF0DBA840D0D9500F0FE96EE6
:10431000DACFEAFFEE50061909E1EE50071906E17F
:10432000EE50081903E1EE50091900E12EE0130EDA
:1043300006CFDBFF140E07CFDBFF150E08CFDBFF28
:10434000160E09CFDBFF0F0EDBCF06FF100EDBCF03
:1043500007FF110EDBCF08FF120EDBCF09FF010EA6
:10436000E66E040EE66EBAEC17F0E552E552130E57
:10437000DBCF06FF140EDBCF07FF150EDBCF08FFE8
:10438000160EDBCF09FFBBEF2AF00E0EDBA252D0D8
:10439000130EDBCF0AFF140EDBCF0BFF150EDBCFA6
:1043A0000CFF160EDBCF0DFF0A2B000E0B230C2388
:1043B0000D23FD0EDBCFE9FFFE0EDBCFEAFF0E0E75
:1043C000E926000EEA22EECF14FFEDCF15FF27DE1F
:1043D000F3CF25FFF4CF26FF0E0EDBA820D0010E71
:1043E000E66E100EE66EBAEC17F0E552E5520F01DC
:1043F000070E3F6F8DECB1F026C037FF27C038FFA6
:1044000028C039FF29C03AFF740E0F013727350E37
:104410003823060E3923000E3A2340990BD0010EA3
:10442000E66E120EE66EBAEC17F0E552E5520F0199
:10443000060E3F6FBBEF2AF0DB2A0E0EDBA205D083
:10444000170EDB2A180E01E3DB2A3551335D365196
:10445000345919E32B512D5D026E2E512C55036EEC
:104460003551335D046E34513655056E0450025C8F
:10447000006E05500358016E0C0E00C0DBFF0D0EE0
:1044800001C0DBFF0FD03351355D006E365134551E
:10449000016E0006000E015A0C0E00C0DBFF0D0E6F
:1044A00001C0DBFFD950130FE96EDACFEAFF0A51E2
:1044B000EE5C006E0B51EE58016E0C51EE58026E20
:1044C0000D51EE58036E060E00C0DBFF070E01C053
:1044D000DBFF080E02C0DBFF090E03C0DBFF060E88
:1044E000DBCF28F0070EDBCF29F00A0E28C0DBFF58
:1044F0000B0E29C0DBFF190EDB6AD950170FE96ECE
:10450000DACFEAFFEE50ED1001E1C3D0D9500C0F25
:10451000E96EDACFEAFFEE50ED1001E1B9D0D950E3
:10452000060FE96EDACFEAFFD890030EEB50000ACF
:1045300008E6000EEE5C000EEE58000EEE58000E7F
:10454000EE581CE30C0EDBCF00F00D0EDBCF01F0BC
:10455000026A036AD950060FE96EDACFEAFF00500B
:10456000EE5C0150EE580250EE580350EE5806E251
:10457000010EF36E190EF3CFDBFF53D0170EDBCF16
:1045800000F0180EDBCF01F0026A036AD950060F63
:10459000E96EDACFEAFFEE500026EE500122EE502F
:1045A0000222EE5003220334000E031809E6D880DD
:1045B000000E0054000E0154000E0254000E03546D
:1045C00030E20C0EDBCF08F00D0EDBCF09F0170E3A
:1045D000DB50085C046E180EDB500958056E066A45
:1045E000076A05AE02D006680768D950060FE96E63
:1045F000DACFEAFF030EEBCFF3FF0750F318E8AE74
:1046000002D0F33408D0EE50045CEE500558EE5062
:104610000658EE50075805E3010EF36E190EF3CF5E
:10462000DBFF0C0EDBCF00F00D0EDBCF01F0026ADA
:10463000036AD950060FE96EDACFEAFF030EEB509A
:104640000318E8AE02D0033408D00050EE5C0150ED
:10465000EE580250EE580350EE581AE2170EDBCF18
:1046600006F0180EDBCF07F00A0EDB500624046EAE
:104670000B0EDB500720056E053404E204500008E1
:10468000000E055405E2010EF36E190EF3CFDBFFA9
:1046900045D0060EDBCF00F0070EDBCF01F0080E91
:1046A000DBCF02F0090EDBCF03F000500110021047
:1046B000031006E1010EF36E190EF3CFDBFF2ED0CF
:1046C000D950060FE96EDACFEAFFD890030EEB500F
:1046D000000A08E6000EEE5C000EEE58000EEE58E2
:1046E000000EEE581BE30C0EDBCF00F00D0EDBCFFF
:1046F00001F0026A036AD950060FE96EDACFEAFFC9
:104700000050EE5C0150EE580250EE580350EE5847
:1047100005E2010EF36E190EF3CFDBFF190EDB502D
:104720000DE10E0EDBB408D0010EE66E100EE66E43
:10473000BAEC17F0E552E552BBEF2AF00E0EDB5053
:10474000060B03E027DCBBEF2AF00E0EDBB802D02D
:10475000BBEF2AF03F510C0A01E1EED20B0A4DE00B
:104760000F0A4BE0010A49E0020A47E0010A45E06E
:104770000C0A01E0F7D2D9500F0FE96EDACFEAFF49
:10478000EE50061909E1EE50071906E1EE5008193E
:1047900003E1EE50091900E12EE0130E06CFDBFF16
:1047A000140E07CFDBFF150E08CFDBFF160E09CF67
:1047B000DBFF0F0EDBCF06FF100EDBCF07FF110E66
:1047C000DBCF08FF120EDBCF09FF010EE66E040EF1
:1047D000E66EBAEC17F0E552E552130EDBCF06FF9A
:1047E000140EDBCF07FF150EDBCF08FF160EDBCF55
:1047F00009FFBBEF2AF0070E3F6F0E512F5D006ED1
:1048000030510F55016E040E00C0DBFF050E01C0D4
:10481000DBFF040EDBCF00F0050EDBCF01F0000163
:10482000800E011410E00F0129512B5D006E2C51F8
:104830002A55016ED950040FE96EDACFEAFF005015
:10484000EE260150ED22040EDBCF00F0050EDBCF8B
:1048500001F0026A036A060EE96E0F0EEA6EEE5070
:104860000026EE500122EE500222EE50032200C03C
:10487000DFFF010E01C0DBFF020E02C0DBFF030EF3
:1048800003C0DBFF0F0EDBCF04F0100EDBCF05F013
:10489000110EDBCF06F0120EDBCF07F0D9CFE9FF08
:1048A000DACFEAFF0450EE5C006E0550EE58016E60
:1048B0000650EE58026E0750EE58036E0001800E4F
:1048C000031409E0E66A100EE66EBAEC17F0E55242
:1048D000E552BBEF2AF00F0131510E5D046E0F510E
:1048E0003255056E066A076A05AE02D0066807688B
:1048F0000450065D006E05500759016E06500859B8
:10490000026E07500959036E00C0DFFF010E01C09F
:10491000DBFF020E02C0DBFF030E03C0DBFF3151E1
:104920000E5D32510F5914E229512B5D006E2C514E
:104930002A55016E026A036AD9CFE9FFDACFEAFF8E
:104940000050EE5E0150EE5A0250EE5A0350EE5AFD
:104950000F0EDBCF04F0100EDBCF05F0110EDBCF16
:1049600006F0120EDBCF07F0D9CFE9FFDACFEAFF6E
:10497000EE50045C006EEE500558016EEE50065885
:10498000026EEE500758036E00C0DFFF010E01C03B
:10499000DBFF020E02C0DBFF030E03C0DBFFDECF36
:1049A00027F0DECF28F0DECF29F0DDCF2AF0DD5270
:1049B000DD522A34000E2A1809E6D880000E27544A
:1049C000000E2854000E2954000E2A5401E3A2D0F0
:1049D00029512B5D006E2C512A55016E026A036A23
:1049E000D9CFE9FFDACFEAFFEE50005CEE50015874
:1049F000EE500258EE50035801E28CD024972499CF
:104A00004191040E31CFDBFF050E32CFDBFFD9CF52
:104A1000E9FFDACFEAFFEE503127EE503223040EE1
:104A2000DBCF00F0050EDBCF01F000500E5D015032
:104A30000F591BE331510E5D32510F5915E20E51E2
:104A4000315D006E32510F55016E000100500F01B3
:104A50000627000101500F010723000E0823092338
:104A600031CF0EFF32CF0FFF36D029512B5D026EB2
:104A70002C512A55036E0E510224006E0F51032053
:104A8000016E040E00C0DBFF050E01C0DBFF040E4B
:104A9000DBCF00F0050EDBCF01F03151005C32516D
:104AA000015819E2040EDB50315D0001006E050E65
:104AB000DB500F0132590001016E00500F01062733
:104AC000000101500F010723000E0823092331CFF5
:104AD0000EFF32CF0FFF2B51315D2C5132590AE3BB
:104AE00029512B5D006E2C512A55016E0050315F0B
:104AF0000150325B2B510E5D2C510F590AE32951A5
:104B00002B5D006E2C512A55016E00500E5F015036
:104B10000F5B3ED00E51311902E10F51321938E0CE
:104B200024A735D024A932D031510E5D006E0F512B
:104B30003255016E026A036A01AE02D00268036850
:104B40000050065F0150075B0250085B0350095B91
:104B500031510E5D32510F5914E229512B5D006E17
:104B60002C512A55016E026A036A01AE02D0026816
:104B700003680050065F0150075B0250085B03505A
:104B8000095B31CF0EFF32CF0FFF41852489248787
:104B90002F51311902E1305132192EE141B715D0B0
:104BA0008DECB1F026C037FF27C038FF28C039FF91
:104BB00029C03AFF740E0F013727350E3823060E31
:104BC0003923000E3A23409917D0D9500F0FE96EC0
:104BD000DACFEAFF0651EE1809E10751EE1806E1B7
:104BE0000851EE1803E10951EE1800E105E12451E6
:104BF000010B02E040994197D9500F0FE96EDACFCF
:104C0000EAFFEE50065D026EEE500759036EEE505D
:104C10000859046EEE500959056EFD0EDBCFE9FF11
:104C2000FE0EDBCFEAFF0E0EE926000EEA2202504E
:104C3000EE5C006E0350EE58016E1A0E00C0DBFFF2
:104C40001B0E01C0DBFF1451151109E1D9501A0FD9
:104C5000E96EDACFEAFFEE50ED1001E041831A0E63
:104C6000DBCF14FF1B0EDBCF15FF080E3F5D2CE1E1
:104C7000D9500F0FE96EDACFEAFF0651EE1809E1BD
:104C80000751EE1806E10851EE1803E10951EE183C
:104C900000E119E12451010B16E08DECB1F026C0C2
:104CA00037FF27C038FF28C039FF29C03AFFBA0EA6
:104CB0000F0137271A0E3823030E3923000E3A232B
:104CC0004089090E3F6F37D0090E3F5D1BE10E0E84
:104CD000DBB017D00F0EDBCF06FF100EDBCF07FFC8
:104CE000110EDBCF08FF120EDBCF09FFE66A140EB0
:104CF000E66EBAEC17F0E552E552CAEC1FF0BBEFD6
:104D00002AF019D00A0E3F5D16E1D9500F0FE96E57
:104D1000DACFEAFF0651EE1809E10751EE1806E175
:104D20000851EE1803E10951EE1800E102E1CAEC66
:104D30001FF0BBEF2AF017D0D9500F0FE96EDACF72
:104D4000EAFF0651EE1809E10751EE1806E1085195
:104D5000EE1803E10951EE1800E102E1CAEC1FF080
:104D6000BBEF2AF000D00E0EDBAA02D0BBEF2AF078
:104D70000B0E3F5D02E1BBEF2AF00A0E3F5D02E140
:104D8000BBEF2AF00C0E3F5D02E1BBEF2AF0D950D9
:104D9000FB0FE96EFF0EDA20EA6EEE50ED1001E136
:104DA00031D30A0EDBCF00F00B0EDBCF01F0013464
:104DB00004E200500008000E015401E250D1FD0E43
:104DC000DBCFE9FFFE0EDBCFEAFF0C0EE926000E7B
:104DD000EA22EF50F00BE842E842E842E842040DD4
:104DE000F350026E036A0A0EDB50025C006E0B0E7B
:104DF000DB500358016E00C0E6FF01C0E6FFF6EC91
:104E0000A6F0E552E5520A0EDBCF00F00B0EDBCF29
:104E100001F0D950FB0FE96EFF0EDA20EA6E005068
:104E2000EE260150ED22FB0EDBCF00F0FC0EDBCFB7
:104E300001F00C0EDBCF02F00D0EDBCF03F00050C3
:104E4000025C015003580CE20C0EDBCF28F00D0E73
:104E5000DBCF29F0FB0E28C0DBFFFC0E29C0DBFFF7
:104E6000FB0EDBCF00F0FC0EDBCF01F000010050A9
:104E70000F010A27000101500F010B23000E0C2324
:104E80000D23FB0EDB5033250001006EFC0EDB50C2
:104E90000F0134210001016E0F0100502D5D015002
:104EA0002E595CE233512D5D006E2E513455016E4A
:104EB000010E0026000E0122040E00C0DBFF050ECD
:104EC00001C0DBFF040EDBCFE6FF050EDBCFE6FF04
:104ED000E66AE668E66844CFE6FF33CFE6FF34CF04
:104EE000E6FF5AEC2CF0006E080EE15E0050FB0E5F
:104EF000DBCF02F0FC0EDBCF03F0040EDB50025CD4
:104F0000006E050EDB500358016E00C0E6FF01C0C5
:104F1000E6FFE66AE668E66844CFE6FF2BCFE6FFE9
:104F20002CCFE6FF5AEC2CF0046E080EE15E045024
:104F3000FB0EDBCF02F0FC0EDBCF03F0040EDB50E8
:104F4000025C006E050EDB500358016E0F012B5101
:104F50000024336F2C510120346F20D0FB0EDBCFA7
:104F6000E6FFFC0EDBCFE6FFE66AE668E66844CFC4
:104F7000E6FF33CFE6FF34CFE6FF5AEC2CF0006EAD
:104F8000080EE15E0050FB0EDBCF28F0FC0EDBCFFD
:104F900029F028500F01332729503423221D01E125
:104FA000231D5CE0FB0EDBCF28F0FC0EDBCF29F0ED
:104FB0002850225F2950235B16512225006E17517D
:104FC0002321016E040E00C0DBFF050E01C0DBFFD4
:104FD000040EDBCF00F0050EDBCF01F00001800EE8
:104FE000011404E00F012269236938D00F01233531
:104FF00004E222510008000E235530E3040EDBCFFB
:1050000000F0050EDBCF01F0000100500F010A2770
:10501000000101500F010B23000E0C230D23040E81
:10502000DBCF28F0050EDBCF29F02850332729509D
:10503000342333512D5D34512E590EE22B512D5D09
:10504000006E2E512C55016E010E0026000E01221D
:105050000050335F0150345B22692369D3D10A0EBB
:10506000DBCF00F00B0EDBCF01F0013404E2005087
:105070000008000E015401E3C5D10A0EDBCF02F097
:105080000B0EDBCF03F0FB0EDB500224006EFC0E98
:10509000DB500320016E0C0EDBCF04F00D0EDBCFD6
:1050A00005F00050045C0150055814E20C0EDBCFF3
:1050B00002F00D0EDBCF03F00A0EDB50025C006E37
:1050C0000B0EDB500358016EFB0E00C0DBFFFC0E25
:1050D00001C0DBFFFD0EDBCFE9FFFE0EDBCFEAFFF9
:1050E0000C0EE926000EEA22EF50F00BE842E842EF
:1050F000E842E842040DF350E66EE66AF6ECA6F0EC
:10510000E552E5520A0EDB500F0133250001026E15
:105110000B0EDB500F0134210001036EFB0EDB5040
:105120000224006EFC0EDB500320016E0F010050C4
:105130002D5D01502E5901E395D033512D5D026E46
:105140002E513455036E010E0226000E03220A0E64
:10515000DB50025C006E0B0EDB500358016E040E38
:1051600000C0DBFF050E01C0DBFF040EDBCF00F04B
:10517000050EDBCF01F00001800E011441E1040EA9
:10518000DBCFE6FF050EDBCFE6FFE66AE668E66802
:1051900044CFE6FF0A0EDB500F0133250001006EFD
:1051A0000B0EDB500F0134210001016E00C0E6FF41
:1051B00001C0E6FF7FDB026E080EE15E0250FB0ECF
:1051C000DBCF02F0FC0EDBCF03F0040EDB50025C01
:1051D000006E050EDB500358016E00C0E6FF01C0F3
:1051E000E6FFE66AE668E66844CFE6FF2BCFE6FF17
:1051F0002CCFE6FF5FDB046E080EE15E045031D079
:10520000FB0EDBCFE6FFFC0EDBCFE6FFE66AE668CF
:10521000E66844CFE6FF0A0EDB500F01332500019C
:10522000026E0B0EDB500F0134210001036E0F01E3
:105230002B512D5D046E2E512C55056E010E04264A
:10524000000E05220450025C006E05500358016EEA
:1052500000C0E6FF01C0E6FF2DDB066E080EE15E32
:1052600006501FD0FB0EDBCFE6FFFC0EDBCFE6FFC8
:10527000E66AE668E66844CFE6FF0A0EDB503325AF
:105280000001006E0B0EDB500F0134210001016E96
:1052900000C0E6FF01C0E6FF0DDB026E080EE15E16
:1052A00002500F01221D01E1231D0DE10A0EDBCF8B
:1052B00022FF0B0EDBCF23FFFB0EDBCF16FFFC0E16
:1052C000DBCF17FF9FD00A0EDBCF00F00B0EDBCF3A
:1052D00001F02251005C235101584CE2FB0EDBCF60
:1052E00002F0FC0EDBCF03F00A0EDB500224006E4E
:1052F0000B0EDB500320016E22511625046E235144
:105300001721056E0050045C0150055813E3FB0E95
:10531000DBCF08F0FC0EDBCF09F00A0EDB500824CF
:10532000066E0B0EDB500920076E2251065C2351DE
:10533000075807E2FB0EDBCF16FFFC0EDBCF17FF93
:1053400012D022511625006E23511721016E0A0E2C
:10535000DB500001005C0F01166F0B0EDB500001EB
:1053600001580F01176F0A0EDBCF22FF0B0EDBCFA8
:1053700023FF48D0FB0EDBCF02F0FC0EDBCF03F0A7
:105380000A0EDB500224006E0B0EDB500320016E70
:1053900022511625046E23511721056E0050045C1E
:1053A000015005582FE20A0EDBCF00F00B0EDBCFC9
:1053B00001F022511625026E23511721036E005071
:1053C000025C015003581EE3FB0EDBCF06F0FC0E1F
:1053D000DBCF07F00A0EDB500624046E0B0EDB5009
:1053E0000720056E2251045C026E23510558036E9E
:1053F0001651025C006E17510358016E00501627BB
:1054000001501723D950170FE96EDACFEAFFEE509B
:10541000ED1023E0070E3F5D04E033CF35FF34CFBE
:1054200036FF40AF0BD0010EE66E100EE66EBAEC02
:1054300017F0E552E552BFEC00F00FD0408F40BDB1
:105440000CD0408D98ECB1F026C03DFF27C03EFF48
:105450000F0E0F013D27000E3E230E0EDBA08BD05A
:105460000ACF00F00BCF01F00CCF02F00DCF03F00C
:10547000002A000E012202220322170EDBCF04F0C5
:10548000180EDBCF05F0066A076AD950130FE96ED4
:10549000DACFEAFFEE500426EE500522EE50062247
:1054A000EE5007220050041809E10150051806E1EA
:1054B0000250061803E10350071800E15CE10F01F8
:1054C0000A2B000E0B230C230D233F51090A40E049
:1054D000010A1EE00F0A0EE0010A01E043D00C0EA3
:1054E0003F6F010EE66E110EE66EBAEC17F0E55254
:1054F000E55241D00B0E3F6F98ECB1F026C03DFF56
:1055000027C03EFF1F0E0F013D27000E3E232BD06C
:10551000D9500F0FE96EDACFEAFF0651EE1809E114
:105520000751EE1806E10851EE1803E10951EE1893
:1055300000E10BE1E66A100EE66EBAEC17F0E552F8
:10554000E552CAEC1FF017D002D00A0E3F6F0BD005
:10555000E66A100EE66EBAEC17F0E552E552CAECB8
:105560001FF009D000D0010EE66E100EE66EBAEC08
:1055700017F0E552E5521C0EE15C02E2E16AE552E9
:10558000E16EE552E7CFD9FF1200D9CFE6FFE1CFB8
:10559000D9FF060EE126FE0EDBCFE6FF70EC00F031
:1055A000E552D950FC0FE96EFF0EDA20EA6EEE509C
:1055B000ED1007E1010EF36EFC0EF3CFDBFFFD0EE5
:1055C000DB6A0F0129512D5D006E2E512A55016EA7
:1055D0000006000E015A00C0DEFF01C0DDFFFA0E1A
:1055E000DBCF02F0FB0EDBCF03F0FC0EDB5002241E
:1055F000006EFD0EDB500320016EDECF04F0DDCF28
:1056000005F00050045C0150055802E2000E46D13E
:10561000BFEC00F0F90EDB50030B03E1F90EDB8069
:10562000DB82FA0EDBCF28F0FB0EDBCF29F0040E75
:1056300028C0DBFF050E29C0DBFFFA0EDBCF02F02E
:10564000FB0EDBCF03F0FC0EDB500224006EFD0EE0
:10565000DB500320016ED9CFE9FFDACFEAFF00501B
:10566000EE5E0150ED5AF90EDBA220D0DBA011D086
:10567000DECF00F0DDCF01F0D89001320032D950FA
:10568000040FE96EDACFEAFF0050EE260150ED225A
:105690000DD0DECF00F0DDCF01F0D950040FE96E60
:1056A000DACFEAFF0050EE260150ED22040EDB5067
:1056B0000F0129250001006E050EDB500F012A2184
:1056C0000001016E010E0026000E012200C0DEFF67
:1056D00001C0DDFF020E33CFDBFF030E34CFDBFF53
:1056E0000F01221D01E1231D2DE022511625006E20
:1056F00023511721016ED950020FE96EDACFEAFF6C
:105700000050EE260150ED22020EDBCF00F0030E1A
:10571000DBCF01F000502D5D01502E5913E22B51CB
:105720002D5D006E2E512C55016E010E0026000ECF
:105730000122D950020FE96EDACFEAFF0050EE5E87
:105740000150ED5A020EDBCF00F0030EDBCF01F06B
:105750000050355D0150365918E2DECF00F0DDCF44
:1057600001F00050355D015036590EE2F90EDBA410
:1057700003D0000E93D008D0DECF35FFDDCF36FF4B
:10578000DECF33FFDDCF34FF2BD0020EDBCF00F0B6
:10579000030EDBCF01F03551005C3651015818E2A1
:1057A000DECF00F0DDCF01F000502B5D01502C5911
:1057B0000EE2F90EDBA403D0000E70D008D0DECFCD
:1057C00035FFDDCF36FFDECF33FFDDCF34FF08D02E
:1057D000DECF35FFDDCF36FFDECF33FFDDCF34FF49
:1057E000020EDBCF00F0030EDBCF01F00F013551CD
:1057F000005C3651015835E2F90EDB50040B31E004
:10580000020EDBCF28F0030EDBCF29F02B51285CF2
:10581000006E2C512958016E00C0E6FF01C0E6FF62
:1058200044CFE6FF2BCFE6FF2CCFE6FF44CFE6FFC9
:10583000DECFE6FFDDCFE6FF3DD8026E080EE15E6B
:1058400002500F013551335D365134590AE2DE50B2
:105850002B5D006EDD502C59016E0050335F0150FE
:10586000345BDECF2BFFDDCF2CFF29CF0EFF2ACFFD
:105870000FFF29CF31FF2ACF32FF29CF2FFF2ACFA9
:1058800030FF070E3F5D08E1010EE66E100EE66E7A
:10589000BAEC17F0E552E552010E00D0006E060E8C
:1058A000E15C02E2E16AE552E16E0050E552E7CFC9
:1058B000D9FF1200D9CFE6FFE1CFD9FFF90EDB50B7
:1058C0004CE0010A01E097D0FC0EDB501CE0010A1D
:1058D00001E042D0F70EDBCFE6FFF80EDBCFE6FFAC
:1058E000FA0EDBCFE6FFFB0EDBCFE6FFFD0EDBCFD4
:1058F000E6FFFE0EDBCFE6FF2CECACF0006E060EF2
:10590000E15E005029D0D950FD0FE96EFF0EDA207C
:10591000EA6EFF0EEE1802E1FF0EED180AE0FD0E32
:10592000DBCFE6FFFE0EDBCFE6FF4EEC7BF0E55271
:10593000E552F70EDBCFE6FFF80EDBCFE6FFFA0EFF
:10594000DBCFE6FFFB0EDBCFE6FF96EC7EF0E55209
:10595000E552E552E55200D04ED0FC0EDB502CE073
:10596000010A01E047D0D950FA0FE96EFF0EDA20A4
:10597000EA6EFF0EEE1802E1FF0EED180AE0FA0ED5
:10598000DBCFE6FFFB0EDBCFE6FF71EC7BF0E552F1
:10599000E552F70EDBCFE6FFF80EDBCFE6FFFD0E9C
:1059A000DBCFE6FFFE0EDBCFE6FF39EC7EF0E55203
:1059B000E552E552E5521ED0F70EDBCFE6FFF80EBA
:1059C000DBCFE6FFFA0EDBCFE6FFFB0EDBCFE6FF19
:1059D000FD0EDBCFE6FFFE0EDBCFE6FFF7EC7CF043
:1059E000006E060EE15E00502FEC7EF0000901E132
:1059F000FBD700D000D0E552E7CFD9FF1200D9CFB6
:105A0000E6FFE1CFD9FF120EE126FC0EDB501FE0CE
:105A1000010A01E0ACD0F70EDBCFE6FFF80EDBCFDA
:105A2000E6FFF90EDBCFE6FFFA0EDBCFE6FFFB0E5B
:105A3000DBCFE6FFFD0EDBCFE6FFFE0EDBCFE6FFA2
:105A400057ECACF0006E070EE15E005090D0D950DC
:105A5000FD0FE96EFF0EDA20EA6EFF0EEE1802E18E
:105A6000FF0EED180AE0FD0EDBCFE6FFFE0EDBCFEA
:105A7000E6FF4EEC7BF0E552E552100EF36EF3CFED
:105A8000DBFF110EDB6AD950F70FE96EFF0EDA204B
:105A9000EA6EEE50ED106AE0100EDBCF00F0110E52
:105AA000DBCF01F0F70EDBCF02F0F80EDBCF03F017
:105AB0000050025C015003580CE2F70EDBCF28F0D7
