:020000040000FA
:060000008CEF85F01200F8
:020006001200E6
:0600080064EF67F0120036
:02000E000004EC
:04001000A300000049
:03001400000000E9
:0600180007EF67F0120083
:02001E000B00D5
:100020009FFB0000C4020000010000005C0C010006
:10003000C202000002000000580C0100B8020000DB
:1000400004000000560C0100C00200000200000085
:10005000540C0100BE02000002000000500C010020
:10006000B4020000040000004E0C0100BC020000BD
:10007000020000005B0B0100000D0000F300000017
:10008000140000005D0F000003000000530B01008E
:10009000A6020000080000004A0B01009D020000BB
:0400A0000900000053
:0C00A400D9CFE6FFE1CFD9FFFE0EDB5004
:1000B0000201BE5D01E141D0FE0EBE5D1BE01C0EE3
:1000C000E66EE66A290EE66E0F0EE66EBE511C0D58
:1000D000F3CF14F0F4CF15F0000E1426010E152204
:1000E00014C0E6FF15C0E6FFE1EC7EF0166E060ECA
:1000F000E15E1650FE0EDBCFBEF2DB50FE0801E1E2
:100100001CD01C0EE66EE66AFE0EDB501C0DF3CF13
:1001100014F0F4CF15F0000E1426010E152214C0B1
:10012000E6FF15C0E6FF290EE66E0F0EE66EE1EC67
:100130007EF0166E060EE15E1650E552E7CFD9FF4F
:1001400012000201BE51BF5D01E156D0FE0EBF5D3F
:1001500035E0270EE66EE66A010EE66E020EE66EEA
:100160000F0EE66EBF511C0DF3CFE9FFF4CFEAFF8F
:10017000000EE926010EEA221B0EE926000EEA22F5
:10018000EF50E66EBF511C0DF3CFE9FFF4CFEAFF4D
:10019000000EE926010EEA22EECF14F0EFCF15F0A3
:1001A000270E145E000E155A14C0E6FF15C0E6FFB8
:1001B0003CEC2CF0166E080EE15E1650BEC2BFF28B
:1001C000270EE66EE66A44CFE6FF29CF14F02ACF69
:1001D00015F0145E000E155A14C0E6FF15C0E6FFB8
:1001E000010EE66E020EE66E0F0EE66E3CEC2CF093
:1001F000166E080EE15E16501200D9CFE6FFE1CF71
:10020000D9FF0B0EE126C00EF36E090EF3CFDBFF14
:10021000100EF36E0A0EF3CFDBFF0F010051011138
:100220000FE1D3EC4AF006C000FF07C001FFFF0E4C
:100230000F010017070E0117000E0027040E0123FF
:100240003C0EE66EE66AE66A9F0EE66E000EE66E0D
:100250002FEC7FF0146E050EE15E1450010EDB6A88
:10026000DF6ADF50146E156A090E145C000E155813
:1002700001E33ED1DFCFE6FF15DFE5526A0E146ED3
:100280000A0E156E010E166EDFCF17F0186A196A86
:10029000060E0C6E0D6A0E6A17C007F018C008F043
:1002A00019C009F059EC84F004C017F005C018F02B
:1002B00006C019F014501724F36E15501820F46E70
:1002C00016501920F86EF4CFF7FFF3CFF6FFF62A99
:1002D000000EF722F8220800080EF5CFDBFF6A0EA9
:1002E000146E0A0E156E010E166EDFCF17F0186A27
:1002F000196A060E0C6E0D6A0E6A17C007F018C058
:1003000008F019C009F059EC84F004C017F005C0DA
:1003100018F006C019F014501724F36E1550182069
:10032000F46E16501920F86EF4CFF7FFF3CFF6FFF6
:10033000020EF626000EF722F8220900020EF5CF73
:10034000DBFF0A00030EF5CFDBFF6A0E146E0A0E08
:10035000156E010E166EDFCF17F0186A196A060EB9
:100360000C6E0D6A0E6A17C007F018C008F019C0AD
:1003700009F059EC84F004C017F005C018F006C06D
:1003800019F014501724F36E15501820F46E1650FF
:100390001920F86EF4CFF7FFF3CFF6FF040EF62620
:1003A000000EF722F8220900040EF5CFDBFF0A0049
:1003B000050EF5CFDBFF080EDB5001E098D0090EEB
:1003C000DBCF08F00A0EDBCF09F0060E08C0DBFF1A
:1003D000070E09C0DBFF020EDBCF16F0030EDBCFEA
:1003E00017F0270E1626000E1722010E1626000EF5
:1003F0001722040EDB501624146E050EDB50172056
:10040000156E010E1426000E1522D950090FE96E43
:10041000DACFEAFF1450EE261550ED22090EDBCF9D
:1004200014F00A0EDBCF15F0166A176AD880FC0E9E
:1004300014541F0E1554000E1654000E175401E2EA
:10044000EDD7080EDBCF44FF060EDBCF29FF070EEA
:10045000DBCF2AFF270E0F012927000E2A23020EC9
:10046000DB5029252B6F030EDB502A212C6F010E48
:100470002B27000E2C23040EDB502B252D6F050E91
:10048000DB502C212E6F0D0E3F6F40975ADE6A0E07
:10049000146E0A0E156E010E166EDFCF17F0186A75
:1004A000196A060E0C6E0D6A0E6A17C007F018C0A6
:1004B00008F019C009F059EC84F004C017F005C029
:1004C00018F006C019F014501724F36E15501820B8
:1004D000F46E16501920F86EF4CFF7FFF3CFF6FF45
:1004E0000800F5CF28FFACEC1FF0DF2ABAD6FFD703
:1004F0000B0EE15C02E2E16AE552E16EE552E7CF04
:10050000D9FF1200D9CFE6FFE1CFD9FFE652DF6A6B
:10051000DF50146E156A090E145C000E155801E3C5
:10052000D1D0DFCFE6FFBEDDE5520D0E0F013F5DFE
:1005300001E0C6D006DEF70EDB500F01285D01E0BA
:10054000BFD0180E256F020E266FFA0EDB5010E199
:10055000F80EDBCF12FFF90EDBCF13FF4087040E3E
:100560003F6FF80EDBCF42FFF90EDBCF43FFA6D083
:10057000000E005D040E015906E3880ED880005578
:10058000130E015503E2006B040E016F00CF12FF42
:1005900001CF13FF002B000E0123F80EDBCF10FF5D
:1005A000F90EDBCF11FFC3EC82F006C037FF07C0A6
:1005B00038FF08C039FF09C03AFF0F014089FA0E21
:1005C000DB50040A34E0070A01E078D0FB0EDBCFF1
:1005D00018F0FC0EDBCF19F0FD0EDB501824166E60
:1005E000FE0EDB501920176EF80EDB501624146E29
:1005F000F90EDB501720156E14501219426F15506A
:100600001319436FFB0EDBCF18FFFC0EDBCF19FF76
:10061000FD0EDBCF1AFFFE0EDBCF1BFF276B270E75
:10062000026F036B046B056B020E3F6F47D0FB0E2E
:10063000DBCFE9FFFC0EDBCFEAFF020EE926000E5E
:10064000EA22EECF18F0EFCF19F0FB0EDBCFE9FF77
:10065000FC0EDBCFEAFF1850EE24166E1950EE2088
:10066000176EF80EDB501624146EF90EDB501720AF
:10067000156E14501219426F15501319436F0A0E5C
:10068000E66EE66AFB0EDBCFE6FFFC0EDBCFE6FF95
:10069000180EE66E0F0EE66EE1EC7EF0146E060E9E
:1006A000E15E14500F01050E3F6F010EE66E020E63
:1006B000E66E9CEC17F0E552E55200D0DF5004D016
:1006C000DF2A26D7FE0E00D0E552E552E7CFD9FF4C
:1006D0001200D9CFE6FFE1CFD9FFFE0EDBCFE6FF58
:1006E000E1DCE5520F0141A903D04199010E02D08E
:1006F000000E00D0E552E7CFD9FF1200D9CFE6FFB8
:10070000E1CFD9FFFE0EDBCFE6FFCCDCE552070ED2
:100710000F013F5D02E0000E01D0010E00D0E55256
:10072000E7CFD9FF1200D9CFE6FFE1CFD9FFFE0E08
:10073000DBCFE6FFB7DCE55233CF35FF34CF36FFF2
:100740000F013F51080A47E0010A45E0050A43E06E
:10075000020A3EE0050A26E00D0A0EE0010A0CE05E
:10076000070A07E0020A05E0010A03E0060A01E0C1
:1007700032D0ACEC1FF039D0010EE66E110EE66EF1
:100780009CEC17F0E552E5520F011451151101E1EF
:1007900006D00E512F1902E10F513019EDE1080E6C
:1007A0003F6F23D0010EE66E110EE66E9CEC17F043
:1007B000E552E5520F011451151101E106D00E5119
:1007C0002F1902E10F513019EDE10C0E3F6F0DD0E2
:1007D0000D0E3F6F0AD0E66A140EE66E9CEC17F021
:1007E000E552E552ACEC1FF000D0E552E7CFD9FF5F
:1007F0001200D9CFE6FFE1CFD9FFFE0EDBCFE6FF37
:1008000051DCE5520F014097FE0EDBCFE6FF8BDF98
:10081000E552E552E7CFD9FF1200D9CFE6FFE1CF8D
:10082000D9FFFE0EDBCFE6FF3DDCE5528ADC0A0E87
:10083000E66EE66A180EE66E0F0EE66E450EE66E82
:100840000F0EE66EE1EC7EF0146E060EE15E1450C3
:1008500010CF4FFF11CF50FF450E146E0F0E156EC7
:1008600014C0F3FF15C0F4FF00D0E552E7CFD9FF65
:100870001200D9CFE6FFE1CFD9FFFE0EDBCFE6FFB6
:1008800011DCE5525EDC0F010E512F1902E10F5110
:10089000301908E0010EE66E100EE66E9CEC17F0C3
:1008A000E552E552E552E7CFD9FF1200D9CFE6FF76
:1008B000E1CFD9FFE652FE0EDBCFE6FF52EC00F0AF
:1008C000E5523FCFDFFF070EDF5C06E00B0EDF5C7B
:1008D00003E0F36AF46A2FD00F0131512F5D3251DA
:1008E00030591BE329512B5D166E2C512A55176E7A
:1008F0001606000E175A31512F5D186E30513255C1
:10090000196E1850165C146E19501758156E14C0D5
:10091000F3FF15C0F4FF0FD00ED02F51315D146ED0
:1009200032513055156E1406000E155A14C0F3FFDF
:1009300015C0F4FF00D0E552E552E7CFD9FF120011
:10094000D9CFE6FFE1CFD9FF020EE126FE0EDBCFC5
:10095000E6FF52EC00F0E552FE0EDBCFE6FFA6DF2D
:10096000E552F3CFDEFFF4CFDDFFD9CFE9FFDACFD9
:10097000EAFFEE50ED1003E1000E75D00ED0D9CF96
:10098000E9FFDACFEAFF010EEE1801E1ED5005E1D3
:10099000FE0EDBCFE6FF6DDFE5520F014151010B8B
:1009A00019E1DECF14F0DDCF15F029512B5D166E65
:1009B0002C512A55176ED890173216321450165CE7
:1009C0001550175807E3FE0EDBCFE6FF52DFE55266
:1009D0000F014181010EE66EE66AE66ED950FD0F09
:1009E000E66EFF0EDA20E66E44CFE6FF2FCFE6FF7D
:1009F00030CFE6FF3CEC2CF0146E080EE15E145094
:100A00000F012F2B000E30232B512F5D2C5130590D
:100A100004E329CF2FFF2ACF30FFD9CFE9FFDACF68
:100A2000EAFF010EEE1801E1ED5006E1FE0EDBCF0C
:100A3000E6FF1FDFE55215D040BB13D0408BCEEC54
:100A400082F006C014F007C015F0166A176A060E89
:100A50001426000E15221622172214C03BFF15C0C3
:100A60003CFF010E00D0146E020EE15C02E2E16A6E
:100A7000E552E16E1450E552E7CFD9FF1200D9CF0D
:100A8000E6FFE1CFD9FF060EE126040EDB6A050E74
:100A9000DB6AFE0EDBCFE6FF52EC00F0E552FE0E05
:100AA000DBCFE6FF03DFE552020EF3CFDBFF030EE1
:100AB000F4CFDBFFD950020FE96EDACFEAFFEE5038
:100AC000ED1008E1FE0EDBCFE6FFD3DEE552F36A60
:100AD000F46AEED0020EDBCFDEFFDBCFDDFFDBCF33
:100AE00014F0030EDBCF15F0FA0EDBCF16F0FB0E81
:100AF000DBCF17F01450165C1550175805E2FA0EAC
:100B0000DBCFDEFFDBCFDDFF0F014151010B1BE12E
:100B1000020EDBCF14F0030EDBCF15F029512B5D55
:100B2000166E2C512A55176ED89017321632145063
:100B3000165C1550175807E3FE0EDBCFE6FF99DE73
:100B4000E5520F014181DE502F250001146EDD506A
:100B50000F0130210001156E0F012B51145C2C5137
:100B6000155848E32F512B5D146E2C513055156EDE
:100B7000040E14C0DBFF050E15C0DBFF040EDBCF37
:100B8000E6FF050EDBCFE6FF010EE66EFC0EDBCFC7
:100B9000E6FFFD0EDBCFE6FF44CFE6FF2FCFE6FFFB
:100BA00030CFE6FF3CEC2CF0146E080EE15E1450E2
:100BB000040EDBCF14F0050EDBCF15F0D950FC0F7F
:100BC000E96EFF0EDA20EA6E1450EE261550ED2283
:100BD000040EDBCF14F0050EDBCF15F0D9CFE9FF03
:100BE000DACFEAFF1450EE5E1550ED5A29CF2FFFF1
:100BF0002ACF30FFDECFE6FFDDCFE6FF010EE66E47
:100C0000FC0EDBCFE6FFFD0EDBCFE6FF44CFE6FFB9
:100C10002FCFE6FF30CFE6FF3CEC2CF0146E080E31
:100C2000E15E1450D9CFE9FFDACFEAFFEE500F01B1
:100C30002F27EE503023020EDBCF14F0030EDBCF54
:100C400015F0FA0EDBCF16F0FB0EDBCF17F01450C9
:100C5000165C1550175806E3FE0EDBCFE6FF09DEE3
:100C6000E55215D040BB13D0408BCEEC82F006C0CD
:100C700014F007C015F0166A176A060E1426000E47
:100C800015221622172214C03BFF15C03CFF040E8C
:100C9000DBCF16F0050EDBCF17F0DE501624146EF6
:100CA000DD501720156E14C0F3FF15C0F4FF00D0FF
:100CB000060EE15C02E2E16AE552E16EE552E7CF41
:100CC000D9FF1200D9CFE6FFE1CFD9FF060EE1260A
:100CD000040EDB6A050EDB6AFE0EDBCFE6FF52EC8C
:100CE00000F0E552FE0EDBCFE6FFE0DDE552020E3E
:100CF000F3CFDBFF030EF4CFDBFFD950020FE96E19
:100D0000DACFEAFFEE50ED1008E1FE0EDBCFE6FF92
:100D1000B0DDE552F36AF46AF3D00F014151010BE3
:100D20001BE1020EDBCF14F0030EDBCF15F02951CF
:100D30002B5D166E2C512A55176ED890173216322D
:100D40001450165C1550175807E3FE0EDBCFE6FF74
:100D500090DDE5520F014181020EDBCFDEFFDBCFDC
:100D6000DDFFDBCF14F0030EDBCF15F0F90EDBCF88
:100D700016F0FA0EDBCF17F01450165C155017580A
:100D800005E2F90EDBCFDEFFDBCFDDFFDE502F25E6
:100D90000001146EDD500F0130210001156E0F01AE
:100DA0002B51145C2C5115584CE32F512B5D146EB4
:100DB0002C513055156E040E14C0DBFF050E15C006
:100DC000DBFF040EDBCFE6FF050EDBCFE6FFFB0EFD
:100DD000DBCFE6FFFC0EDBCFE6FFFD0EDBCFE6FF51
:100DE00044CFE6FF2FCFE6FF30CFE6FFE1EC2CF05B
:100DF000146E080EE15E1450040EDBCF14F0050EE5
:100E0000DBCF15F0166AD950FB0FE96EFF0EDA2022
:100E1000EA6E1450EE261550EE221650EE22040E05
:100E2000DBCF14F0050EDBCF15F0D9CFE9FFDACF19
:100E3000EAFF1450EE5E1550ED5A29CF2FFF2ACF4E
:100E400030FFDECFE6FFDDCFE6FFFB0EDBCFE6FFB8
:100E5000FC0EDBCFE6FFFD0EDBCFE6FF44CFE6FF67
:100E60002FCFE6FF30CFE6FFE1EC2CF0146E080E3A
:100E7000E15E1450D9CFE9FFDACFEAFFEE500F015F
:100E80002F27EE503023020EDBCF14F0030EDBCF02
:100E900015F0F90EDBCF16F0FA0EDBCF17F0145079
:100EA000165C1550175806E3FE0EDBCFE6FFE1DCBB
:100EB000E55215D040BB13D0408BCEEC82F006C07B
:100EC00014F007C015F0166A176A060E1426000EF5
:100ED00015221622172214C03BFF15C03CFF040E3A
:100EE000DBCF16F0050EDBCF17F0DE501624146EA4
:100EF000DD501720156E14C0F3FF15C0F4FF00D0AD
:100F0000060EE15C02E2E16AE552E16EE552E7CFEE
:100F1000D9FF1200D9CFE6FFE1CFD9FFFC0EDBCF1E
:100F200016F0FD0EDBCF17F016C0E6FF17C0E6FF88
:100F3000FC0EDBCFE6FFFD0EDBCFE6FF62EC7FF0C1
:100F4000E552E552F3CF18F0F4CF19F018C0E6FFE0
:100F500019C0E6FFFC0EDBCFE6FFFD0EDBCFE6FFA0
:100F6000FE0EDBCFE6FF8BDD1A6E050EE15E1A503A
:100F7000E552E7CF17F0E552E7CF16F01650F3240D
:100F8000146E1750F420156E14C0F3FF15C0F4FF53
:100F900000D0E552E7CFD9FF1200D9CFE6FFE1CF6D
:100FA000D9FFFB0EDBCFE6FFFC0EDBCFE6FFFD0E2D
:100FB000DBCFE6FF70EC7FF0E552E552E55207C06B
:100FC0001AF008C01BF01AC0E6FF1BC0E6FFFB0EBC
:100FD000DBCFE6FFFC0EDBCFE6FFFD0EDBCFE6FF4F
:100FE000FE0EDBCFE6FF6EDE1C6E060EE15E1C50D1
:100FF000F3CF17F0F4CF18F0196AD950FB0FE96E50
:10100000FF0EDA20EA6EEE501724146EEE50182010
:10101000156EEE501920166E14C007F015C008F0BA
:1010200016C009F000D0E552E7CFD9FF1200D9CFA2
:10103000E6FFE1CFD9FF040EE126FE0EDBCFE6FF8F
:1010400052EC00F0E5520F0129512B5D146E2C512A
:101050002A55156E1406000E155A020E14C0DBFF39
:10106000030E15C0DBFFFE0EDBCFE6FF1FDCE552F3
:10107000F3CFDEFFF4CFDDFF020EDBCF16F0030E61
:10108000DBCF17F0DE50165C146EDD501758156E6E
:1010900014C0F3FF15C0F4FF040EE15C03E200D0BE
:1010A000E16AE552E16EE552E7CFD9FF1200D9CFF0
:1010B000E6FFE1CFD9FFFE0EDBCFE6FF1ED8E552FB
:1010C000F3CF14F0F4CF15F01450151012E0FE0E0B
:1010D000DBCFE6FF52EC00F0E55233CF35FF34CFE3
:1010E00036FF010EE66E100EE66E9CEC17F0E55230
:1010F000E552E552E7CFD9FF1200D9CFE6FFE1CFA5
:10110000D9FFFE0EDBCFE6FF52EC00F0E5520F01F7
:101110003551335D365134590CE33551335D146E1E
:1011200034513655156E14C0F3FF15C0F4FF1CD0B2
:101130001BD035512D5D166E2E513655176E010E92
:101140001626000E17222B51335D186E34512C5584
:10115000196E16501824146E17501920156E14C0ED
:10116000F3FF15C0F4FF00D0E552E7CFD9FF12001E
:10117000D9CFE6FFE1CFD9FF020EE126FE0EDBCF8D
:10118000E6FFBBDFE552F3CFDEFFF4CFDDFFD9CFC3
:10119000E9FFDACFEAFFEE50ED1002E1000E54D085
:1011A000FE0EDBCFE6FF52EC00F0E552D950FC0F0B
:1011B000E96EFF0EDA20EA6EEE50ED1016E0010E39
:1011C000E66EE66A44CFE6FF35CFE6FF36CFE6FFB0
:1011D000E66EFC0EDBCFE6FFFD0EDBCFE6FF3CEC60
:1011E0002CF0146E080EE15E14500F01352B000E2A
:1011F000362335512D5D36512E5904E22BCF35FF64
:101200002CCF36FFD9CFE9FFDACFEAFF010EEE1877
:1012100001E1ED5002E1418515D040BB13D0408B78
:10122000CEEC82F006C014F007C015F0166A176AFB
:101230001F0E1426000E15221622172214C03BFF83
:1012400015C03CFF010E00D0146E020EE15C02E2FC
:10125000E16AE552E16E1450E552E7CFD9FF120082
:10126000D9CFE6FFE1CFD9FF040EE126020EDB6AFB
:10127000030EDB6AFE0EDBCFE6FF3FDFE552F3CF66
:10128000DEFFF4CFDDFFD9CFE9FFDACFEAFFEE5082
:10129000ED1003E1F36AF46AFFD0FE0EDBCFE6FF48
:1012A00052EC00F0E552FA0EDBCF14F0FB0EDBCF70
:1012B00015F0DECF16F0DDCF17F01450165C155088
:1012C00017580AE2D9CFE9FFDACFEAFFFA0EEECFDC
:1012D000DBFFFB0EEDCFDBFFFA0EDB500F013525F8
:1012E0000001146EFB0EDB500F0136210001156E5C
:1012F0000F0114502D5D15502E5957E235512D5DBB
:10130000146E2E513655156E010E1426000E152240
:10131000020E14C0DBFF030E15C0DBFFD950FC0F1B
:10132000E96EFF0EDA20EA6EEE50ED102AE0020EB2
:10133000DBCFE6FF030EDBCFE6FF44CFE6FF35CF82
:10134000E6FF36CFE6FF010EE66EFC0EDBCFE6FFD2
:10135000FD0EDBCFE6FF3CEC2CF0146E080EE15ED8
:101360001450020EDBCF14F0030EDBCF15F0D95072
:10137000FC0FE96EFF0EDA20EA6E1450EE261550CF
:10138000ED22020EDBCF14F0030EDBCF15F0D950A7
:10139000FA0FE96EFF0EDA20EA6E1450EE5E155079
:1013A000ED5A2BCF35FF2CCF36FFD950FC0FE96E0D
:1013B000FF0EDA20EA6EEE50ED101AE0FA0EDBCFE7
:1013C000E6FFFB0EDBCFE6FF44CFE6FF35CFE6FFBF
:1013D00036CFE6FF010EE66EFC0EDBCFE6FFFD0E1C
:1013E000DBCFE6FF3CEC2CF0146E080EE15E1450EF
:1013F000FA0EDBCF08F0FB0EDBCF09F008500F012F
:10140000352709503623020EDBCF14F0030EDBCF55
:1014100015F0D950FA0FE96EFF0EDA20EA6E14507B
:10142000EE261550ED22DECF16F0DDCF17F0FA0EC6
:10143000DB50165C146EFB0EDB501758156EFA0E5F
:10144000DBCF18F0FB0EDBCF19F01450185C1550F1
:10145000195802E3418515D040BB13D0408BCEEC28
:1014600082F006C014F007C015F0166A176A1F0E46
:101470001426000E15221622172214C03BFF15C099
:101480003CFFFA0EDBCF14F0FB0EDBCF15F014C0DF
:10149000F3FF15C0F4FF00D0040EE15C02E2E16A44
:1014A000E552E16EE552E7CFD9FF1200D9CFE6FF52
:1014B000E1CFD9FF040EE126FE0EDBCFE6FF52ECB2
:1014C00000F0E5520F012B512D5D146E2E512C555D
:1014D000156E020E14C0DBFF030E15C0DBFFFE0EFF
:1014E000DBCFE6FF0ADEE552F3CFDEFFF4CFDDFF10
:1014F000020EDBCF16F0030EDBCF17F0DE50165CCA
:10150000146EDD501758156E14C0F3FF15C0F4FFAC
:10151000040EE15C03E200D0E16AE552E16EE552BF
:10152000E7CFD9FF1200D9CFE6FFE1CFD9FF060EF2
:10153000E126D950FA0FE96EFF0EDA20EA6EEE507E
:10154000ED1003E1F36AF46AFDD0FE0EDBCFE6FF97
:1015500052EC00F0E552FE0EDBCFE6FFCEDDE552A9
:10156000020EF3CFDBFF030EF4CFDBFFFA0EDBCF6F
:1015700016F0FB0EDBCF17F0F80EDB501624146EBE
:10158000F90EDB501720156E020EDBCF18F0030E9C
:10159000DBCF19F01450185C1550195814E2020EE4
:1015A000DBCF16F0030EDBCF17F0F80EDB50165C26
:1015B000146EF90EDB501758156EFA0E14C0DBFFCF
:1015C000FB0E15C0DBFFF80EDB500F0135250001C7
:1015D000146EF90EDB500F0136210001156E14C098
:1015E000DEFF15C0DDFFDECF14F0DDCF15F00F01FB
:1015F00014502D5D15502E5912E22B512D5D146E95
:101600002E512C55156E010E1426000E1522D9CF21
:10161000E9FFDACFEAFF1450EE5E1550ED5ADE50C6
:101620002D5D146EDD502E59156E010E1426000E20
:101630001522040E14C0DBFF050E15C0DBFFFA0EE9
:10164000DBCF14F0FB0EDBCF15F0040EDBCF16F072
:10165000050EDBCF17F01450165C155017581BE31E
:10166000FA0EDBCFE6FFFB0EDBCFE6FF44CFE6FF53
:10167000DECFE6FFDDCFE6FF010EE66EFC0EDBCF30
:10168000E6FFFD0EDBCFE6FF3CEC2CF0146E080EFF
:10169000E15E14504CD0040EDBCFE6FF050EDBCF2D
:1016A000E6FF44CFE6FFDECFE6FFDDCFE6FF010E2B
:1016B000E66EFC0EDBCFE6FFFD0EDBCFE6FF3CEC7B
:1016C0002CF0146E080EE15E1450FA0EDBCF16F00B
:1016D000FB0EDBCF17F0040EDB50165C146E050E0C
:1016E000DB501758156E14C0E6FF15C0E6FF44CF57
:1016F000E6FF2BCFE6FF2CCFE6FF010EE66E040ED1
:10170000DBCF1AF0050EDBCF1BF0FC0EDB501A24EA
:10171000186EFD0EDB501B20196E18C0E6FF19C0B5
:10172000E6FF3CEC2CF01C6E080EE15E1C50FA0E3D
:10173000DBCF14F0FB0EDBCF15F014C0F3FF15C0A8
:10174000F4FF00D0060EE15C02E2E16AE552E16ED0
:10175000E552E7CFD9FF1200D9CFE6FFE1CFD9FF9D
:10176000E652FC0EDBCFE6FFFD0EDBCFE6FF010EFF
:10177000E66EE66AD9CFE6FFDACFE6FFFE0EDBCFF4
:10178000E6FFD1DE146E070EE15E1450DF5000D08C
:10179000E552E552E7CFD9FF1200D9CFE6FFE1CFFE
:1017A000D9FF300EE126D950FA0FE96EFF0EDA208C
:1017B000EA6EEE50ED1003E1F36AF46AF2D2FE0E27
:1017C000DBCFE6FF52EC00F0E552FE0EDBCFE6FF8A
:1017D00094DCE552F3CF16F0F4CF17F0F80EDB509F
:1017E000165C146EF90EDB501758156E020E14C0FD
:1017F000DBFF030E15C0DBFF020EDBCF14F0030E80
:10180000DBCF15F0FA0EDBCF16F0FB0EDBCF17F0B7
:101810001650145C1750155803E2F368F468C1D2EF
:10182000D950F60FE96EFF0EDA20EA6EEE50ED1099
:101830001DE0020EDBCF14F0030EDBCF15F0F60E29
:10184000DBCF16F0F70EDBCF17F01450165C1550F7
:1018500017580CE2F60EDBCF08F0F70EDBCF09F0DD
:10186000020E08C0DBFF030E09C0DBFFF80EDB50E1
:101870000F0135250001146EF90EDB500F013621E2
:101880000001156E060E14C0DBFF070E15C0DBFF4E
:10189000060EDBCF14F0070EDBCF15F00F0114504E
:1018A0002D5D15502E5913E22B512D5D146E2E51C6
:1018B0002C55156E010E1426000E1522D950060F58
:1018C000E96EDACFEAFF1450EE5E1550ED5A060EBF
:1018D000DBCFDEFFDBCFDDFFDB502D5D0001146EC3
:1018E000070EDB500F012E590001156E010E142654
:1018F000000E1522040E14C0DBFF050E15C0DBFF21
:10190000F80EDBCF08F0F90EDBCF09F0060E08C0A9
:10191000DBFF070E09C0DBFFFA0EDBCF08F0FB0E82
:10192000DBCF09F0080E08C0DBFF090E09C0DBFFA2
:10193000FC0EDBCF08F0FD0EDBCF09F00A0E08C06D
:10194000DBFF0B0E09C0DBFFFC0EDBCFE9FFDB2A60
:10195000FD0EDBCFEAFF01E3DB2A0D0EEFCFDBFF4D
:101960000F0EDB6AF50EDB5016E0610EF36E0D0E06
:10197000DBCFF4FFF350F45C0EE30D0EDB507A087E
:101980000AE3E00E146E0D0EDBCFE7FF1450E726DE
:101990000D0EE7CFDBFF200EF36E0E0EF3CFDBFF55
:1019A000DBCF14F0040EDBCF15F0050EDBCF16F005
:1019B0001450155C000E165806E2040EDB50E76E5C
:1019C0000E0EE7CFDBFF0E0EDBCF14F0020EDBCFE7
:1019D00015F0030EDBCF16F01450155C000E1658F0
:1019E00006E2020EDB50E76E0E0EE7CFDBFF0E0EB7
:1019F000DBCFE6FFE66A44CFE6FFDECFE6FFDDCFD2
:101A0000E6FF010EE66ED950100FE66E000EDA20EA
:101A1000E66E3CEC2CF0146E080EE15E14500E0ED7
:101A2000DB50DE26000EDD220E0EDB50146E156A32
:101A3000D950040FE96EDACFEAFF1450EE5E15506C
:101A4000ED5AD950040FE96EDACFEAFFEE50ED10EF
:101A500008E12BCFDEFF2CCFDDFF040EDB68050E87
:101A6000DB68F50EDB5001E1E5D00C0EDB6A0E0EF3
:101A7000DB50F36E0C0EDBCFF4FFF350F45C01E3AC
:101A8000D8D0D950100F156EDACF16F00C0EDB50EF
:101A90000F011524E96E000E1620EA6EEFCF14F048
:101AA000610E145C1FE3D950100F176EDACF18F0D7
:101AB0000C0EDB501724E96E000E1820EA6EEF5072
:101AC0007A0810E3E00E166ED950100F146EDACFBC
:101AD00015F00C0EDB501424E96E000E1520EA6E92
:101AE0001650EF26D950100F146EDACF15F00C0EE9
:101AF000DB501424E96E000E1520EA6EEF50F36EF1
:101B00000D0EDB50F35C53E1FA0EDB06DBCF14F075
:101B1000FB0E01E2DB06DBCF15F0145015101FE1C0
:101B2000060EDBCF18F0070EDBCF19F0080EDB50E6
:101B3000185C166E090EDB501958176E0C0EDB5030
:101B400000011624146E000E1720156E010E1426C7
:101B5000000E152214C0F3FF15C0F4FF22D1FC0EB5
:101B6000DBCFE9FFDB2AFD0EDBCFEAFF01E3DB2A57
:101B70000D0EEFCFDBFF010EF36E0F0EF3CFDBFF89
:101B8000610EF36E0D0EDBCFF4FFF350F45C0EE349
:101B90000D0EDB507A080AE3E00E146E0D0EDBCF5B
:101BA000E7FF1450E7260D0EE7CFDBFF3FD0080E0E
:101BB000DBCF08F0090EDBCF09F0FA0E08C0DBFF1F
:101BC000FB0E09C0DBFF0F0EDB5030E00A0EDBCF4F
:101BD00008F00B0EDBCF09F0FC0E08C0DBFFFD0E9A
:101BE00009C0DBFFFC0EDBCFE9FFDB2AFD0EDBCFFC
:101BF000EAFF01E3DB2A0D0EEFCFDBFF610EF36E90
:101C00000D0EDBCFF4FFF350F45C0EE30D0EDB5052
:101C10007A080AE3E00E146E0D0EDBCFE7FF1450D6
:101C2000E7260D0EE7CFDBFF0F0EDB6A0C0EDB2A7B
:101C30001ED788D00C0EDB6A0E0EDB50F36E0C0E36
:101C4000DBCFF4FFF350F45C01E37CD0D950100FEC
:101C5000146EDACF15F00C0EDB500F011424E96E70
:101C6000000E1520EA6EEF50F36E0D0EDB50F35CA4
:101C70003DE1FA0EDB06DBCF14F0FB0E01E2DB06E2
:101C8000DBCF15F0145015101FE1060EDBCF18F056
:101C9000070EDBCF19F0080EDB50185C166E090E2C
:101CA000DB501958176E0C0EDB5000011624146E11
:101CB000000E1720156E010E1426000E152214C0FA
:101CC000F3FF15C0F4FF6DD0FC0EDBCFE9FFDB2A7C
:101CD000FD0EDBCFEAFF01E3DB2A0D0EEFCFDBFFCA
:101CE000010EF36E0F0EF3CFDBFF29D0080EDBCF12
:101CF00008F0090EDBCF09F0FA0E08C0DBFFFB0E7F
:101D000009C0DBFF0F0EDB501AE00A0EDBCF08F034
:101D10000B0EDBCF09F0FC0E08C0DBFFFD0E09C087
:101D2000DBFFFC0EDBCFE9FFDB2AFD0EDBCFEAFF9A
:101D300001E3DB2A0D0EEFCFDBFF0F0EDB6A0C0E8B
:101D4000DB2A7AD70E0EDB50146E156AD950020FBB
:101D5000E96EDACFEAFF1450EE5E1550ED5A020E2E
:101D6000DBCF14F0030EDBCF15F0FA0EDBCF16F04D
:101D7000FB0EDBCF17F01650145C1750155803E21A
:101D8000F368F4680ED00E0EDB50146E156AD9504D
:101D9000060FE96EDACFEAFF1450EE261550ED2259
:101DA000FAD5300EE15C02E2E16AE552E16EE552FD
:101DB000E7CFD9FF1200D9CFE6FFE1CFD9FF310E2F
:101DC000E126D950F90FE96EFF0EDA20EA6EEE50E7
:101DD000ED1003E1F36AF46A22D3FE0EDBCFE6FFD7
:101DE00052EC00F0E552FE0EDBCFE6FF7DEC08F092
:101DF000E552F3CF16F0F4CF17F0F70EDB50165C78
:101E0000146EF80EDB501758156E020E14C0DBFF6F
:101E1000030E15C0DBFF020EDBCF14F0030EDBCF89
:101E200015F0F90EDBCF16F0FA0EDBCF17F01650D7
:101E3000145C1750155803E2F368F468F0D2D950D7
:101E4000F50FE96EFF0EDA20EA6EEE50ED101DE0A0
:101E5000020EDBCF14F0030EDBCF15F0F50EDBCF57
:101E600016F0F60EDBCF17F01450165C155017580D
:101E70000CE2F50EDBCF08F0F60EDBCF09F0020E18
:101E800008C0DBFF030E09C0DBFFF70EDB500F01BC
:101E900035250001146EF80EDB500F0136210001CC
:101EA000156E060E14C0DBFF070E15C0DBFF060E15
:101EB000DBCF14F0070EDBCF15F00F0114502D5DB2
:101EC00015502E5913E22B512D5D146E2E512C55A9
:101ED000156E010E1426000E1522D950060FE96E5C
:101EE000DACFEAFF1450EE5E1550ED5A060EDBCF46
:101EF000DEFFDBCFDDFFDB502D5D0001146E070E32
:101F0000DB500F012E590001156E010E1426000E34
:101F10001522040E14C0DBFF050E15C0DBFFF70E03
:101F2000DBCF08F0F80EDBCF09F0060E08C0DBFFB0
:101F3000070E09C0DBFFF90EDBCF08F0FA0EDBCF8E
:101F400009F0080E08C0DBFF090E09C0DBFFD950FD
:101F5000FB0FE96EFF0EDA20EA6E0A0EEECFDBFF12
:101F60000B0EEECFDBFF0C0EEECFDBFFD950FB0FDD
:101F7000E96EFF0EDA20EA6EEFCFF6FFEE2AEFCF22
:101F8000F7FF000EEE22EFCFF8FFEE2208000E0E54
:101F9000F5CFDBFF100EDB6AF40EDB5016E0610EAE
:101FA000F36E0E0EDBCFF4FFF350F45C0EE30E0E77
:101FB000DB507A080AE3E00E146E0E0EDBCFE7FF6B
:101FC0001450E7260E0EE7CFDBFF200EF36E0F0E48
:101FD000F3CFDBFFDBCF14F0040EDBCF15F0050EE3
:101FE000DBCF16F01450155C000E165806E2040EF6
:101FF000DB50E76E0F0EE7CFDBFF0F0EDBCF14F0E9
:10200000020EDBCF15F0030EDBCF16F01450155C7B
:10201000000E165806E2020EDB50E76E0F0EE7CFF9
:10202000DBFF0F0EDBCFE6FFE66A44CFE6FFDECF35
:10203000E6FFDDCFE6FF010EE66ED950110FE66E2A
:10204000000EDA20E66E3CEC2CF0146E080EE15E19
:1020500014500F0EDB50DE26000EDD220F0EDB507B
:10206000146E156AD950040FE96EDACFEAFF1450E6
:10207000EE5E1550ED5AD950040FE96EDACFEAFF43
:10208000EE50ED1008E12BCFDEFF2CCFDDFF040E6C
:10209000DB68050EDB68F40EDB5001E1F7D00D0EB6
:1020A000DB6A0F0EDB50F36E0D0EDBCFF4FFF35047
:1020B000F45C01E3EAD0D950110F156EDACF16F0B7
:1020C0000D0EDB500F011524E96E000E1620EA6E8E
:1020D000EFCF14F0610E145C1FE3D950110F176E8F
:1020E000DACF18F00D0EDB501724E96E000E182021
:1020F000EA6EEF507A0810E3E00E166ED950110F19
:10210000146EDACF15F00D0EDB501424E96E000EBC
:102110001520EA6E1650EF26D950110F146EDACF43
:1021200015F00D0EDB501424E96E000E1520EA6E3A
:10213000EF50F36E0E0EDB50F35C5BE1F90EDB0645
:10214000DBCF14F0FA0E01E2DB06DBCF15F0145002
:1021500015101FE1060EDBCF18F0070EDBCF19F0CC
:10216000080EDB50185C166E090EDB501958176EFE
:102170000D0EDB5000011624146E000E1720156E94
:10218000010E1426000E152214C0F3FF15C0F4FF33
:1021900046D1D950FB0FE96EFF0EDA20EA6EEFCF81
:1021A000F6FFEE2AEFCFF7FF000EEE22EFCFF8FF9B
:1021B000EE2208000E0EF5CFDBFF010EF36E100EBF
:1021C000F3CFDBFF610EF36E0E0EDBCFF4FFF350A7
:1021D000F45C0EE30E0EDB507A080AE3E00E146E98
:1021E0000E0EDBCFE7FF1450E7260E0EE7CFDBFF26
:1021F00049D0080EDBCF08F0090EDBCF09F0F90E4D
:1022000008C0DBFFFA0E09C0DBFF100EDB503AE01E
:10221000D9500A0FE96EDACFEAFFFB0EEECFDBFFF3
:10222000FC0EEECFDBFFFD0EEECFDBFFD950FB0F38
:10223000E96EFF0EDA20EA6EEFCFF6FFEE2AEFCF5F
:10224000F7FF000EEE22EFCFF8FFEE2208000E0E91
:10225000F5CFDBFF610EF36E0E0EDBCFF4FFF35014
:10226000F45C0EE30E0EDB507A080AE3E00E146E07
:102270000E0EDBCFE7FF1450E7260E0EE7CFDBFF95
:10228000100EDB6A0D0EDB2A0CD79AD00D0EDB6A1E
:102290000F0EDB50F36E0D0EDBCFF4FFF350F45C4A
:1022A00001E38ED0D950110F146EDACF15F00D0E58
:1022B000DB500F011424E96E000E1520EA6EEF507A
:1022C000F36E0E0EDB50F35C45E1F90EDB06DBCF5F
:1022D00014F0FA0E01E2DB06DBCF15F014501510F6
:1022E0001FE1060EDBCF18F0070EDBCF19F0080E4A
:1022F000DB50185C166E090EDB501958176E0D0E68
:10230000DB5000011624146E000E1720156E010E0E
:102310001426000E152214C0F3FF15C0F4FF7FD061
:10232000D950FB0FE96EFF0EDA20EA6EEFCFF6FF11
:10233000EE2AEFCFF7FF000EEE22EFCFF8FFEE22EE
:1023400008000E0EF5CFDBFF010EF36E100EF3CF7B
:10235000DBFF33D0080EDBCF08F0090EDBCF09F02E
:10236000F90E08C0DBFFFA0E09C0DBFF100EDB50D0
:1023700024E0D9500A0FE96EDACFEAFFFB0EEECF68
:10238000DBFFFC0EEECFDBFFFD0EEECFDBFFD95007
:10239000FB0FE96EFF0EDA20EA6EEFCFF6FFEE2AB2
:1023A000EFCFF7FF000EEE22EFCFF8FFEE2208008E
:1023B0000E0EF5CFDBFF100EDB6A0D0EDB2A68D7A1
:1023C0000F0EDB50146E156AD950020FE96EDACF8A
:1023D000EAFF1450EE5E1550ED5A020EDBCF14F0FA
:1023E000030EDBCF15F0F90EDBCF16F0FA0EDBCFC4
:1023F00017F01650145C1750155803E2F368F46890
:102400000ED00F0EDB50146E156AD950060FE96E10
:10241000DACFEAFF1450EE261550ED22D6D5310E54
:10242000E15C02E2E16AE552E16EE552E7CFD9FFF5
:102430001200D9CFE6FFE1CFD9FFF80EDBCFE6FFE0
:10244000F90EDBCFE6FFFA0EDBCFE6FFFB0EDBCFAC
:10245000E6FFFC0EDBCFE6FF010EE66EE66AD95022
:10246000FD0FE66EFF0EDA20E66EFE0EDBCFE6FF16
:10247000CDEC0BF0146E0A0EE15E145000D0E55264
:10248000E7CFD9FF1200D9CFE6FFE1CFD9FF060E83
:10249000E126DF6ADF50146E156A090E145C000E27
:1024A000155801E377D3DFCFE6FF52EC00F0E55299
:1024B000030EDB6A010EDB6A020EDB6A0F0141517B
:1024C000020B03E14151040B12E016EC5AF0000933
:1024D0000EE0100EF36E030EF3CFDBFF0F01415140
:1024E000040B01E0010EE76E010EE7CFDBFF0F01E9
:1024F00040AB15D0CEEC82F00F0106503B5D146E60
:1025000007503C59156E153404E214500008000EB3
:10251000155405E3100EF36E030EF3CFDBFF40AD51
:1025200015D0CEEC82F00F0106503D5D146E0750C1
:102530003E59156E153404E214500008000E15546F
:1025400005E3100EF36E030EF3CFDBFF0B0E3F5DC2
:1025500017E1CEEC82F00F0106503D5D146E07507E
:102560003E59156E153404E214500008000E15543F
:1025700007E3110EF36E030EF3CFDBFF0C0E3F6F7C
:10258000040E3F5D01E02ED1040EDB6A050EDB6A0E
:10259000040EDBCF14F0050EDBCF15F0030E145C38
:1025A000000E155801E31ED1040EDBCFE9FF050E26
:1025B000DBCFEAFF140EEA02F3CFEAFFE902F3CF22
:1025C000E9FFF450EA269F0EE926000EEA22100EDB
:1025D000E926000EEA22EE50ED1001E103D1040ECF
:1025E000DBCFE9FF050EDBCFEAFF140EEA02F3CFE3
:1025F000EAFFE902F3CFE9FFF450EA269F0EE9264D
:10260000000EEA22100EE926000EEA22EECF14F0A8
:10261000EFCF15F04251141802E14351151801E0B3
:10262000DBD0A1EC00F00A0EE66EE66A040EDBCF0A
:10263000E9FF050EDBCFEAFF140EEA02F3CFEAFF53
:10264000E902F3CFE9FFF450EA269F0EE926000ED7
:10265000EA22E9CF14F0EACF15F014C0E6FF15C066
:10266000E6FF180EE66E0F0EE66EE1EC7EF0166EDB
:10267000060EE15E1650040EDBCFE9FF050EDBCF40
:10268000EAFF140EEA02F3CFEAFFE902F3CFE9FF13
:10269000F450EA269F0EE926000EEA220A0EE926E9
:1026A000000EEA22EECF10FFEDCF11FF040EDBCFBC
:1026B000E9FF050EDBCFEAFF140EEA02F3CFEAFFD3
:1026C000E902F3CFE9FFF450EA269F0EE926000E57
:1026D000EA220C0EE926000EEA22EECF0AFFEECF28
:1026E0000BFFEECF0CFFEFCF0DFF0F010A2B0B23DB
:1026F0000C230D231A511825166E1B511921176E24
:1027000016501025146E17501121156E1450121901
:10271000426F15501319436F120EF36E030EF3CF71
:10272000DBFF060E3F6F040EDBCF14F0050EDBCF90
:1027300015F0020ED8801456000E1556140E150210
:10274000F3CF15F01402F3CF14F0F450152614C093
:10275000E6FF15C0E6FF010EE66EE76E040EDBCF66
:1027600016F0050EDBCF17F0E7501626000E1722E5
:10277000140E1702F3CF17F01602F3CF16F0F45031
:1027800017269F0E1626000E172216C0E6FF17C04A
:10279000E6FF010EE66E040EDBCF18F0050EDBCF70
:1027A00019F0140E1902F3CF19F01802F3CF18F034
:1027B000F45019269F0E1826000E192218C0E6FFA5
:1027C00019C0E6FF3CEC2CF01A6E080EE15E1A50C0
:1027D0000001D76BD86B06D0040EDB2A050E01E38F
:1027E000DB2AD6D6030EDB500DE0010EDB5002E0F3
:1027F000000E01D0010EE66E030EDBCFE6FF9CDB80
:10280000E552E5520F0140B952D0070E3F5D4EE14F
:10281000C3EC82F00F013751065C146E3851075833
:10282000156E39510858166E3A510958176E000145
:10283000800E171401E0ACD10F014051070B0608C0
:1028400019E14051080B01E0010EE76E030EE7CFDE
:10285000DBFFDFCFE6FF93EC03F0E552DFCFE6FFCF
:1028600093EC03F0E552030EDB5003E10F010E0E73
:102870003F6F8ED1A1EC00F0020EE66E100EE66EF8
:102880005BDBE552E552C3EC82F006C037FF07C0C0
:1028900038FF08C039FF09C03AFF740E0F0137270F
:1028A000350E3823060E3923000E3A2371D1C3ECBE
:1028B00082F00F013751065C146E38510758156EBF
:1028C00039510858166E3A510958176E0001800E9A
:1028D000171401E05DD1A1EC00F00F013F510C0A8B
:1028E00001E1E0D0060A01E1C6D0030A01E1B8D057
:1028F000010A01E19ED00F0A01E187D00C0A01E133
:1029000084D00D0A63E0030A4CE0060A15E0010AD0
:1029100001E0DFD0CEEC82F006C03BFF07C03CFFF9
:10292000180EE66E0F0EE66EEFEC72F0E552E55211
:102930000F01030E3F6FCDD01C0EE66E0F0EE66E3C
:10294000180EE66E0F0EE66E5CEC73F0E552E55283
:10295000E552E55200091AE1CEEC82F00F013B513D
:10296000065C146E3C510758156E1450025D1550EC
:1029700003590BE2060E275D06E2272BD89002379B
:10298000033704370537020E3F6FA3D0020EF36EF4
:10299000030EF3CFDBFF010EDB6A0F01050E3F6F65
:1029A00098D0020EF36E030EF3CFDBFFDE52010E62
:1029B000DD6E040E275D09E3040E276F200E026F03
:1029C000EF0E036F090E046F056B83D0020E275DB7
:1029D00009E2120EF36E030EF3CFDBFFDE52010E9F
:1029E000DD6E12D040A70BD0140EF36E030EF3CFA2
:1029F000DBFF010EF36E020EF3CFDBFF05D0020EFC
:102A0000F36E030EF3CFDBFF64D0050E275D09E202
:102A1000100EF36E030EF3CFDBFFDE52010EDD6E00
:102A200007D0080E3F6F110EF36E030EF3CFDBFFDE
:102A300050D0050E275D09E2110EF36E030EF3CFA1
:102A4000DBFFDE52010EDD6E0AD0140EF36E030EB4
:102A5000F3CFDBFF010EF36E020EF3CFDBFF39D0B5
:102A6000140EF36E030EF3CFDBFF010EF36E020EB6
:102A7000F3CFDBFF2ED0050E275D09E2100EF36EBB
:102A8000030EF3CFDBFFDE52010EDD6E0AD0140E13
:102A9000F36E030EF3CFDBFF010EF36E020EF3CFE6
:102AA000DBFF17D0050E275D09E2110EF36E030E52
:102AB000F3CFDBFFDE52010EDD6E0AD0140EF36E93
:102AC000030EF3CFDBFF010EF36E020EF3CFDBFF3D
:102AD00000D0030EDB5057E0010EDB504CE0272BFB
:102AE000D890023703370437053731510E5D146E25
:102AF0000F513255156E040E14C0DBFF050E15C0C4
:102B0000DBFF31510E5D32510F590FE229512B5D20
:102B1000146E2C512A55156ED950040FE96EDACF78
:102B2000EAFF1450EE261550ED22040EDBCF14F010
:102B3000050EDBCF15F0166A176A1450065F1550A4
:102B4000075B1650085B1750095B040EDBCF08F0DB
:102B5000050EDBCF09F0085014270950152331CF9B
:102B60000EFF32CF0FFFE66A030EDBCFE6FFE4D99C
:102B7000E552E55208D0010EE66E030EDBCFE6FF0C
:102B8000DBD9E552E552020EDB5002E0ACEC1FF05F
:102B9000DF2A80D4040EDB6A050EDB6A040EDBCF6D
:102BA00014F0050EDBCF15F0030E145C000E155863
:102BB00001E3B1D0040EDBCFE9FF050EDBCFEAFF66
:102BC000140EEA02F3CFEAFFE902F3CFE9FFF45073
:102BD000EA269F0EE926000EEA22100EE926000ED4
:102BE000EA22EE50ED1001E196D0040EDBCFE9FFB2
:102BF000050EDBCFEAFF140EEA02F3CFEAFFE9028B
:102C0000F3CFE9FFF450EA269F0EE926000EEA22F0
:102C1000120EE926000EEA22EECF16F0EFCF17F0E3
:102C200016C0E6FF17C0E6FFCEEC82F0E552E7CF14
:102C300017F0E552E7CF16F01650065C146E1750E9
:102C40000758156EDC0ED8801454010E15545DE241
:102C5000040EDBCF14F0050EDBCF15F0020ED8808A
:102C60001456000E1556140E1502F3CF15F014026B
:102C7000F3CF14F0F450152614C0E6FF15C0E6FF9C
:102C8000010EE66EE76E040EDBCF16F0050EDBCF0D
:102C900017F0E7501626000E1722140E1702F3CF76
:102CA00017F01602F3CF16F0F45017269F0E1626D3
:102CB000000E172216C0E6FF17C0E6FF010EE66EF3
:102CC000040EDBCF18F0050EDBCF19F0140E19023D
:102CD000F3CF19F01802F3CF18F0F45019269F0E15
:102CE0001826000E192218C0E6FF19C0E6FF3CECBA
:102CF0002CF01A6E080EE15E1A500001D76BD86BEB
:102D0000040EDB06050E01E2DB06040EDB2A050ECF
:102D100001E3DB2A43D7060EE15C02E2E16AE552F9
:102D2000E16EE552E7CFD9FF1200D9CFE6FFE1CF40
:102D3000D9FF250EE126FD0EDBCFE9FFFE0EDBCF2E
:102D4000EAFF140EEECFDBFF150EEECFDBFF160E03
:102D5000EECFDBFF170EEECFDBFFFB0EDBCFE9FF85
:102D6000FC0EDBCFEAFF180EEECFDBFF190EEECF25
:102D7000DBFF1A0EEECFDBFF1B0EEECFDBFF1C0ED0
:102D8000DB6A060EF36E1D0EF3CFDBFFF90EDBCF11
:102D900008F0FA0EDBCF09F01E0E08C0DBFF1F0E95
:102DA00009C0DBFF1E0EDBCFE6FF1F0EDBCFE6FF09
:102DB00007EC50F0E552E5521E0EF3CFDBFF1F0E7D
:102DC000F4CFDBFF0C0EE66EE66AD950140FE66E08
:102DD000000EDA20E66E84EC50F0E552E552E55242
:102DE000E552F3CF14F0F4CF15F0141E151E200E8B
:102DF00014C0DBFF210E15C0DBFFF90EDBCFE6FFB1
:102E0000FA0EDBCFE6FF42EC5DF0E552E552220E12
:102E1000F3CFDBFF230EF4CFDBFF200EDBCF14F06C
:102E2000210EDBCF15F0220EDB50141803E1230E28
:102E3000DB50151804E033EC5AF0010E71D0000E8F
:102E4000E66EE66A01EC78F0E552E552140EE66EA5
:102E5000E66AD9CFE6FFDACFE6FF86EC5FF0E5520F
:102E6000E552E552E552D9CFE6FFDACFE6FF94EC22
:102E70001EF0E552E552D9500C0FE96EDACFEAFFA9
:102E8000EF50F00BE842E842E842E842040DF3500C
:102E9000146E156A140E145E000E155A240E14C01A
:102EA000DBFFDB50166E176AF90EDBCF08F0FA0E67
:102EB000DBCF09F01650085C146E17500958156ED8
:102EC000140E145E000E155AF90E14C0DBFFFA0E34
:102ED00015C0DBFFFD0EDBCFE6FFFE0EDBCFE6FF0E
:102EE000D9CFE6FFDACFE6FF85EC1BF0E552E552DD
:102EF000E552E552000910E0F90EDBCFE6FFFA0ECD
:102F0000DBCFE6FFD9CFE6FFDACFE6FFA9EC20F072
:102F1000E552E552E552E55233EC5AF0010E00D08D
:102F2000146E250EE15C02E2E16AE552E16E145096
:102F3000E552E7CFD9FF1200D9CFE6FFE1CFD9FFA5
:102F4000280EE126A1EC00F0FE0EDBA004D00F015C
:102F50004187FE0EDB900F01409B409D409F4193B7
:102F60004195419116EC5AF0000901E1FBD7FE0EA4
:102F7000DB50060B05E0260EDB6A270EDB6A57D115
:102F80000F010E512F1902E10F51301905E1260EE4
:102F9000DB6A270EDB6A2FD12F510E5D30510F599E
:102FA00052E20E512F5D146E30510F55156E260EE4
:102FB00014C0DBFF270E15C0DBFF260EDBCF14F09D
:102FC000270EDBCF15F01450145D1550155906E28D
:102FD000260E14CFDBFF270E15CFDBFF260EDBCF2F
:102FE00014F0270EDBCF15F01450255D155026592F
:102FF00007E2260E25CFDBFF270E26CFDBFF41851C
:10300000260EDBCFE6FF270EDBCFE6FF44CFE6FF41
:103010000ECFE6FF0FCFE6FFE66A050EE66E0B0E5B
:10302000E66E3CEC2CF0146E080EE15E1450260E99
:10303000DBCF08F0270EDBCF09F008500F010E2779
:1030400009500F23D8D00E512B5D146E2C510F5503
:10305000156E240E14C0DBFF250E15C0DBFF240EF9
:10306000DB502F250001166E250EDB500F0130219D
:103070000001176E0F012951165C146E2A51175862
:10308000156E260E14C0DBFF270E15C0DBFF260EC3
:10309000DBCF14F0270EDBCF15F01450145D155064
:1030A000155906E2260E14CFDBFF270E15CFDBFFE6
:1030B000260EDBCF14F0270EDBCF15F01450255D64
:1030C0001550265907E2260E25CFDBFF270E26CF07
:1030D000DBFF4185240EDBCF14F0250EDBCF15F08E
:1030E000260EDBCF16F0270EDBCF17F01450165C40
:1030F000155017580CE2260EDBCF08F0270EDBCF59
:1031000009F0240E08C0DBFF250E09C0DBFF240EEA
:10311000DBCFE6FF250EDBCFE6FF44CFE6FF0ECF89
:10312000E6FF0FCFE6FFE66A050EE66E0B0EE66ED3
:103130003CEC2CF0146E080EE15E1450260EDBCF32
:1031400016F0270EDBCF17F0240EDB50165C146E42
:10315000250EDB501758156E240E14C0DBFF250E0C
:1031600015C0DBFFD950240FE96EDACFEAFFEE502D
:10317000ED1027E0240EDBCFE6FF250EDBCFE6FFC8
:1031800044CFE6FF29CFE6FF2ACFE6FFE66A0F012C
:103190000E512B5D146E2C510F55156E166A176A61
:1031A000050E14260B0E1522000E1622172214C02F
:1031B000E6FF15C0E6FF3CEC2CF0186E080EE15E51
:1031C0001850260EDBCF08F0270EDBCF09F0085091
:1031D0000F010E2709500F232B510E5D2C510F5953
:1031E0000AE329512B5D146E2C512A55156E14508B
:1031F0000E5F15500F5B41A71AD0260EDBCF14F0DF
:10320000270EDBCF15F01451141802E115511518D3
:103210000EE0260EDBCF16F0270EDBCF17F0255180
:10322000161802E12651171802E0FE0EDB80D95075
:10323000260FE96EDACFEAFFEE50ED1004E1FE0E44
:10324000DB50030B30E0260EDBCF08F0270EDBCF80
:1032500009F008500F01145F0950155BD950260F73
:10326000E96EDACFEAFFEE50ED1002E0FE0EDB86EB
:10327000FD0EDBA007D0276BF20E026F9E0E036FD0
:10328000046B056BC3EC82F006500F010225376F0B
:1032900007500321386F08500421396F0950052168
:1032A0003A6F40893ED0FD0EDBA21FD0400EE96E82
:1032B0000F0EEA6EEF50070BE82AF36EF350070B80
:1032C000F36EF46EF80EEF14F310EF6EF4500F017E
:1032D0000607000E075B085B095B010EF36E260E06
:1032E000F3CFDBFF270EDB6A1CD00F0140A919D0FA
:1032F000DBB008D0275106E02707D8900533043308
:1033000003330233C3EC82F006500F010225376FFE
:1033100007500321386F08500421396F09500521E7
:103320003A6F020E12CFDBFF030E13CFDBFF040E4A
:1033300010CFDBFF050E11CFDBFF060E06CFDBFF44
:10334000070E07CFDBFF080E08CFDBFF090E09CF02
:10335000DBFF0A0E0ACFDBFF0B0E0BCFDBFF0C0EE1
:103360000CCFDBFF0D0E0DCFDBFF0F0EDB9CDB9ECA
:103370000E0EDB90DB92DB94DB96FE0EDB50E76EED
:103380000F0EE7CFDBFF140EDB6A150EDB6A260E8D
:10339000DBCF14F0270EDBCF15F0000114500F0126
:1033A0000627000115500F010723000E08230923EB
:1033B000FE0EDBA21DD0DBB808D00A0EDB6A0B0EB6
:1033C000DB6A0C0EDB6A0D0EDB6A24A30BD0D9502E
:1033D000060FE96EDACFEAFFEE06000EEE5AEE5A5D
:1033E000EE5A06D0062B000E072308230923248358
:1033F000FE0EDBA013D024A10BD0D950060FE96E2E
:10340000DACFEAFFEE06000EEE5AEE5AEE5A06D07A
:10341000062B000E07230823092324813551335D31
:103420003651345919E32B512D5D166E2E512C5502
:10343000176E3551335D186E34513655196E18506C
:10344000165C146E19501758156E100E14C0DBFF61
:10345000110E15C0DBFF0FD03351355D146E3651A0
:103460003455156E1406000E155A100E14C0DBFFED
:10347000110E15C0DBFF7BEC5AF0F3CF14F0F4CF44
:1034800015F0400E145E000E155A14C0DEFF15C074
:10349000DDFFDECF14F0DDCF15F00001800E151436
:1034A00002E0DE6ADD6A100EDBCF14F0110EDBCF16
:1034B00015F0DECF16F0DDCF17F01450165C155066
:1034C00017580AE2D9CFE9FFDACFEAFF100EEECFA4
:1034D000DBFF110EEDCFDBFFD950020FE66E000EC1
:1034E000DA20E66E94EC1EF0E552E552D950260F34
:1034F000E96EDACFEAFF140EEE26000EED220E0E74
:10350000DB88DB9ADB8CDB9EFE0EDBA236D0D9504B
:10351000260FE96EDACFEAFF040EEE26000EED224A
:10352000020EF36E160EF3CFDBFF040EF36E170ED2
:10353000F3CFDBFF020EF36E180EF3CFDBFFF36E5B
:10354000190EF3CFDBFF010E146ED9500E0FE96E8A
:10355000DACFEAFFEF50F00BE842E842E842E842F7
:1035600014240F0BF36EF46EF346F346F346F34662
:103570000F0EEF14F310EF6EF4501A0E60C0DBFF65
:103580001B0E61C0DBFF1C0E62C0DBFF1D0E63C0A3
:10359000DBFF1E0E18CFDBFF1F0E19CFDBFF200E47
:1035A0001ACFDBFF210E1BCFDBFF220EDB6A060EDC
:1035B000F36E230EF3CFDBFF260EDBCF08F0270ED2
:1035C000DBCF09F0240E08C0DBFF250E09C0DBFFAE
:1035D000240EDBCFE6FF250EDBCFE6FF07EC50F035
:1035E000E552E552240EF3CFDBFF250EF4CFDBFFCF
:1035F0000C0EE66EE66AD9501A0FE66E000EDA205F
:10360000E66E84EC50F0E552E552E552E552F3CF18
:1036100014F0F4CF15F0141E151E120E14C0DBFFAB
:10362000130E15C0DBFFDD0EE66E0A0EE66E9BEC98
:103630005CF0E552E552260EDBCFE6FF270EDBCF2E
:10364000E6FF060EE66E180EE66E0F0EE66E4FEC07
:1036500077F0146E050EE15E1450140EE66EE66A05
:10366000D950020FE66E000EDA20E66EE3EC5FF052
:10367000E552E552E552E552FE0EDBA20FD0040EF4
:10368000E66EE66AD950160FE66E000EDA20E66E98
:10369000E3EC5FF0E552E552E552E552F10EE66EDD
:1036A0000A0EE66EBEEC5CF0E552E552260EDBCF6C
:1036B000E6FF270EDBCFE6FF42EC5DF0E552E55278
:1036C000F3CFDEFFF4CFDDFF010EE66E0B0EE66EEC
:1036D0009BEC5CF0E552E552020EE66EE66AD9CF4D
:1036E000E6FFDACFE6FFE3EC5FF0E552E552E552A4
:1036F000E5522DEC5CF0280EE15C02E2E16AE55255
:10370000E16EE552E7CFD9FF1200D9CFE6FFE1CF56
:10371000D9FF060EE126FD0EDBCFE9FFFE0EDBCF63
:10372000EAFF020EE926000EEA22EE50ED1002E159
:10373000000EEED2DE52FE0EDD6EFB0EDBCFE9FF99
:10374000FC0EDBCFEAFF020EE926000EEA22EECFE6
:103750001AF0EFCF1BF0FB0EDBCFE9FFFC0EDBCF47
:10376000EAFF1A50EE24186E1B50EE20196EFD0E63
:10377000DBCFE9FFFE0EDBCFEAFF1850EE24166E1A
:103780001950EE20176EFD0EDBCFE9FFFE0EDBCFEA
:10379000EAFF020EE926000EEA221650EE18146E19
:1037A0001750EE18156E020E14C0DBFF030E15C085
:1037B000DBFFDF6ADF50146E156A090E145C000E21
:1037C000155872E2DFCFE6FF52EC00F0E5520D0E25
:1037D0000F013F5D02E166D029D0040E3F5D19E183
:1037E000FD0EDBCFE9FFFE0EDBCFEAFF020EE9267E
:1037F000000EEA22EECF14F0EFCF15F0145042196C
:1038000002E11550431903E1010EDFCFDBFF4AD07F
:103810000DD042CF14F043CF15F0020EDB50141838
:1038200003E1030EDB50151801E03CD0A1EC00F0E1
:10383000FD0EDBCFE9FFFE0EDBCFEAFF020EE9262D
:10384000000EEA22EECF14F0EFCF15F00F01125167
:10385000141802E11351151825E1FD0EDBCFE9FF25
:10386000FE0EDBCFEAFFEECF16F0EFCF17F01051D0
:10387000161802E11151171815E1FB0EDBCFE9FF15
:10388000FC0EDBCFEAFFEE50181909E1EE501919D2
:1038900006E1EE501A1903E1EE501B1900E102E1B6
:1038A000010E36D2DF2A86D7010EDB50FE0843E038
:1038B000010EDBCFE6FF52EC00F0E552A1EC00F088
:1038C000010EDB50FE0837E0020EDBCF42FF030E95
:1038D000DBCF43FF0A0EE66EE66AFB0EDBCFE6FFA8
:1038E000FC0EDBCFE6FF180EE66E0F0EE66EE1EC87
:1038F0007EF0146E060EE15E1450FD0EDBCFE9FF84
:10390000FE0EDBCFEAFFEECF10FFEDCF11FFFD0E75
:10391000DBCFE9FFFE0EDBCFEAFF020EE926000E49
:10392000EA22EECF12FFEDCF13FF29CF0EFF2ACFF1
:103930000FFF010EEDD1FD0EDBCFE9FFFE0EDBCF59
:10394000EAFF0D0EE926000EEA22EF50020B02E11B
:10395000000EDED10001D751D81102E0000ED8D1FF
:10396000040EDB6A050EDB6A040EDBCF14F0050ED5
:10397000DBCF15F0030E145C000E155801E3CFD019
:10398000040EDBCFE9FF050EDBCFEAFF140EEA02DF
:10399000F3CFEAFFE902F3CFE9FFF450EA269F0EE6
:1039A000E926000EEA22100EE926000EEA22EE5069
:1039B000ED1001E1B4D0040EDBCFE9FF050EDBCF43
:1039C000EAFF140EEA02F3CFEAFFE902F3CFE9FFC0
:1039D000F450EA269F0EE926000EEA22100EE92690
:1039E000000EEA22EECF14F0EFCF15F0FD0EDBCF84
:1039F000E9FFFE0EDBCFEAFF020EE926000EEA2207
:103A0000EECF16F0EFCF17F01650141802E1175052
:103A1000151801E07ED0040EDBCFE9FF050EDBCFE9
:103A2000EAFF140EEA02F3CFEAFFE902F3CFE9FF5F
:103A3000F450EA269F0EE926000EEA220A0EE92635
:103A4000000EEA22EECF14F0EFCF15F0FD0EDBCF23
:103A5000E9FFFE0EDBCFEAFFEECF16F0EFCF17F057
:103A60001650141802E11750151801E052D0FB0E41
:103A7000DBCFE9FFFC0EDBCFEAFFEECF14F0EECF99
:103A800015F0EECF16F0EFCF17F0040EDBCFE9FF05
:103A9000050EDBCFEAFF140EEA02F3CFEAFFE902DC
:103AA000F3CFE9FFF450EA269F0EE926000EEA2242
:103AB000EE500001141809E1EE50151806E1EE5021
:103AC000161803E1EE50171800E101E022D0CEEC09
:103AD00082F006C014F007C015F0040EDBCFE9FF3A
:103AE000050EDBCFEAFF140EEA02F3CFEAFFE9028C
:103AF000F3CFE9FFF450EA269F0EE926000EEA22F2
:103B0000120EE926000EEA2214C0EEFF15C0EDFFEA
:103B1000FFD0040EDB2A050E01E3DB2A25D7DF6A7E
:103B2000DF50146E156A090E145C000E155801E37F
:103B3000EDD0DFCFE6FF52EC00F0E5520F0140A7D9
:103B4000E3D0A1EC00F0FD0EDBCFE9FFFE0EDBCFF2
:103B5000EAFF020EE926000EEA22EECF14F0EFCFC4
:103B600015F014500F01121902E11550131901E05C
:103B7000CBD00A0EE66EE66AFB0EDBCFE6FFFC0E4C
:103B8000DBCFE6FF040EDBCFE9FF050EDBCFEAFF5C
:103B9000140EEA02F3CFEAFFE902F3CFE9FFF45093
:103BA000EA269F0EE926000EEA22E9CF14F0EACFBA
:103BB00015F014C0E6FF15C0E6FFE1EC7EF0166ECE
:103BC000060EE15E1650FD0EDBCFE9FFFE0EDBCFE9
:103BD000EAFFEECF14F0EFCF15F0040EDBCFE9FFD4
:103BE000050EDBCFEAFF140EEA02F3CFEAFFE9028B
:103BF000F3CFE9FFF450EA269F0EE926000EEA22F1
:103C00000A0EE926000EEA2214C0EEFF15C0EDFFF1
:103C1000FD0EDBCFE9FFFE0EDBCFEAFF040EE92647
:103C2000000EEA22EECF14F0EECF15F0EECF16F034
:103C3000EFCF17F0040EDBCFE9FF050EDBCFEAFF75
:103C4000140EEA02F3CFEAFFE902F3CFE9FFF450E2
:103C5000EA269F0EE926000EEA220C0EE926000E47
:103C6000EA2214C0EEFF15C0EEFF16C0EEFF17C02B
:103C7000EEFFFD0EDBCFE9FFFE0EDBCFEAFF020E0B
:103C8000E926000EEA22EECF14F0EFCF15F0040E75
:103C9000DBCFE9FF050EDBCFEAFF140EEA02F3CF1C
:103CA000EAFFE902F3CFE9FFF450EA269F0EE92686
:103CB000000EEA22100EE926000EEA2214C0EEFFE2
:103CC00015C0EDFFCEEC82F006C014F007C015F071
:103CD000040EDBCFE9FF050EDBCFEAFF140EEA028C
:103CE000F3CFEAFFE902F3CFE9FFF450EA269F0E93
:103CF000E926000EEA22120EE926000EEA2214C07E
:103D0000EEFF15C0EDFF04D0DF2A0AD7000E00D069
:103D1000146E060EE15C02E2E16AE552E16E1450B7
:103D2000E552E7CFD9FF1200D9CFE6FFE1CFD9FFA7
:103D3000FD0EDBCFE9FFFE0EDBCFEAFFEECFE6FFA5
:103D4000EFCFE6FF07EC50F0E552E552F3CF14F069
:103D5000F4CF15F0FD0EDBCFE9FFFE0EDBCFEAFF5F
:103D600014C0EEFF15C0EDFFFD0EDBCFE9FFFE0E28
:103D7000DBCFEAFF020EE926000EEA22EECFE6FFD5
:103D8000EFCFE6FF07EC50F0E552E552F3CF14F029
:103D9000F4CF15F0FD0EDBCFE9FFFE0EDBCFEAFF1F
:103DA000020EE926000EEA2214C0EEFF15C0EDFF58
:103DB000FD0EDBCFE9FFFE0EDBCFEAFF040EE926A6
:103DC000000EEA22EECFE6FFEECFE6FFEECFE6FFF3
:103DD000EFCFE6FF31EC50F0E552E552E552E55207
:103DE00006C014F007C015F008C016F009C017F09F
:103DF000FD0EDBCFE9FFFE0EDBCFEAFF040EE92666
:103E0000000EEA2214C0EEFF15C0EEFF16C0EEFF52
:103E100017C0EEFFFD0EDBCFE9FFFE0EDBCFEAFFA2
:103E2000080EE926000EEA22EECFE6FFEECFE6FF0F
:103E3000EECFE6FFEFCFE6FF31EC50F0E552E55272
:103E4000E552E55206C014F007C015F008C016F0A0
:103E500009C017F0FD0EDBCFE9FFFE0EDBCFEAFF56
:103E6000080EE926000EEA2214C0EEFF15C0EEFF90
:103E700016C0EEFF17C0EEFFFD0EDBCFE9FFFE0E12
:103E8000DBCFEAFF0E0EE926000EEA22EECFE6FFB8
:103E9000EFCFE6FF07EC50F0E552E552F3CF14F018
:103EA000F4CF15F0FD0EDBCFE9FFFE0EDBCFEAFF0E
:103EB0000E0EE926000EEA2214C0EEFF15C0EDFF3B
:103EC000FD0EDBCFE9FFFE0EDBCFEAFF100EE92689
:103ED000000EEA22EECFE6FFEFCFE6FF07EC50F050
:103EE000E552E552F3CF14F0F4CF15F0FD0EDBCF21
:103EF000E9FFFE0EDBCFEAFF100EE926000EEA22F4
:103F000014C0EEFF15C0EDFFFD0EDBCFE9FFFE0E86
:103F1000DBCFEAFF120EE926000EEA22EECFE6FF23
:103F2000EFCFE6FF07EC50F0E552E552F3CF14F087
:103F3000F4CF15F0FD0EDBCFE9FFFE0EDBCFEAFF7D
:103F4000120EE926000EEA2214C0EEFF15C0EDFFA6
:103F5000E552E7CFD9FF1200A1EC00F012CF42FFEB
:103F600013CF43FF29CF2FFF2ACF30FF29CF31FFB7
:103F70002ACF32FF2BCF33FF2CCF34FF2BCF35FF8F
:103F80002CCF36FF0F014051080B02E0040E01D088
:103F90000D0E3F6F4091409340954099409B409D4E
:103FA000409F4191419341954197418924912493A8
:103FB0002497249929CF0EFF2ACF0FFF89EC4AF0CE
:103FC000F3CF06FFF4CF07FF89EC4AF0F3CF08FFE9
:103FD000F4CF09FF0F0122692369010E146F156BDD
:103FE0001200D9CFE6FFE1CFD9FF040EE1260C0E77
:103FF000E66EE66A01EC78F0E552E55283EC5FF09C
:10400000DF6EF00EDF14E840E8403F0B146E156AD7
:10401000140E145E000E155A1450DF6EDF5005E1C9
:10402000180EF36E020EF46E8AD0070EE66EE66A84
:10403000000EE66EE66A86EC5FF0E552E552E55268
:10404000E552DF50DF06000975E083EC5FF0E76EB4
:10405000010EE7CFDBFFDB5001E16CD0010EDB048A
:1040600001E1EFD7010EDB50020845E1030EDF5CF2
:1040700001E260D0020EDB6A030EDB6A83EC5FF0C4
:10408000E76E010EE7CFDBFFDB5004080CE183ECA9
:104090005FF0E76E030EE7CFDBFF83EC5FF0E76EC8
:1040A000020EE7CFDBFF020EDBCF14F0030EDBCFF7
:1040B00015F0180E145C020E155801E23BD0D950D1
:1040C000020FE96EDACFEAFFB40ED880EE54050E87
:1040D000ED5406E2B40EF36E050EF46E30D029D026
:1040E000020EDBCF14F0030EDBCF15F014C0F3FF8C
:1040F00015C0F4FF24D0020EDF5C01E21BD083EC7C
:104100005FF0E76E010EE7CFDBFFDB50DF5C01E223
:1041100011D0010EDBCFE6FFE66A000EE66EE66A1E
:1041200086EC5FF0E552E552E552E552010EDB50B8
:10413000DF5E87D7180EF36E020EF46E00D0040E09
:10414000E15C02E2E16AE552E16EE552E7CFD9FFB8
:104150001200D9CFE6FFE1CFD9FF1C0EE126FD0EFC
:10416000DBCFE9FFFE0EDBCFEAFF0D0EE926000EE6
:10417000EA220E0EEFCFDBFFFD0EDBCFE9FFFE0ED6
:10418000DBCFEAFF080EE926000EEA220F0EEECF83
:10419000DBFF100EEECFDBFF110EEECFDBFF120EBA
:1041A000EECFDBFFFD0EDBCFE9FFFE0EDBCFEAFF3C
:1041B000040EE926000EEA22130EEECFDBFF140EEA
:1041C000EECFDBFF150EEECFDBFF160EEECFDBFFE3
:1041D0000F0140914093409540B913D0C3EC82F059
:1041E00006C037FF07C038FF08C039FF09C03AFFD3
:1041F000740E0F013727350E3823060E3923000EB3
:104200003A233F51050A5CE0010A15E0FB0EDBCFC3
:1042100008F0FC0EDBCF09F0170E08C0DBFF180E0C
:1042200009C0DBFF0E0EDBA0EAD0170EDB2A180E4A
:1042300001E2E5D0E3D00E0EDBA403D08DDE9DEFCE
:104240002AF0DBA816D00F0EDBCF06FF100EDBCF57
:1042500007FF110EDBCF08FF120EDBCF09FFE66A66
:10426000040EE66E9CEC17F0E552E55275DE9DEF0C
:104270002AF0DBA222D0130EDBCF0AFF140EDBCF15
:104280000BFF150EDBCF0CFF160EDBCF0DFF0A2B3D
:10429000000E0B230C230D23A4DEF3CF25FFF4CF58
:1042A00026FF010EE66E120EE66E9CEC17F0E5524C
:1042B000E5520F01060E3F6F01D04EDE9DEF2AF052
:1042C0000E0EDBA402D09DEF2AF0DBA840D0D9501F
:1042D0000F0FE96EDACFEAFFEE50061909E1EE5052
:1042E000071906E1EE50081903E1EE50091900E143
:1042F0002EE0130E06CFDBFF140E07CFDBFF150EEB
:1043000008CFDBFF160E09CFDBFF0F0EDBCF06FF5A
:10431000100EDBCF07FF110EDBCF08FF120EDBCF35
:1043200009FF010EE66E040EE66E9CEC17F0E552F6
:10433000E552130EDBCF06FF140EDBCF07FF150E81
:10434000DBCF08FF160EDBCF09FF9DEF2AF00E0E24
:10435000DBA252D0130EDBCF0AFF140EDBCF0BFF14
:10436000150EDBCF0CFF160EDBCF0DFF0A2B000E58
:104370000B230C230D23FD0EDBCFE9FFFE0EDBCF5D
:10438000EAFF0E0EE926000EEA22EECF14FFEDCF73
:1043900015FF27DEF3CF25FFF4CF26FF0E0EDBA897
:1043A00020D0010EE66E100EE66E9CEC17F0E55282
:1043B000E5520F01070E3F6FC3EC82F006C037FFD6
:1043C00007C038FF08C039FF09C03AFF740E0F015B
:1043D0003727350E3823060E3923000E3A2340992D
:1043E0000BD0010EE66E120EE66E9CEC17F0E55255
:1043F000E5520F01060E3F6F9DEF2AF0DB2A0E0EED
:10440000DBA205D0170EDB2A180E01E3DB2A35519B
:10441000335D3651345919E32B512D5D166E2E51F3
:104420002C55176E3551335D186E34513655196E53
:104430001850165C146E19501758156E0C0E14C0D7
:10444000DBFF0D0E15C0DBFF0FD03351355D146E51
:1044500036513455156E1406000E155A0C0E14C044
:10446000DBFF0D0E15C0DBFFD950130FE96EDACF5D
:10447000EAFF0A51EE5C146E0B51EE58156E0C51AA
:10448000EE58166E0D51EE58176E060E14C0DBFF77
:10449000070E15C0DBFF080E16C0DBFF090E17C0A4
:1044A000DBFF060EDBCF08F0070EDBCF09F00A0EAC
:1044B00008C0DBFF0B0E09C0DBFF190EDB6AD95009
:1044C000170FE96EDACFEAFFEE50ED1001E1C3D02D
:1044D000D9500C0FE96EDACFEAFFEE50ED1001E192
:1044E000B9D0D950060FE96EDACFEAFFD890030EA3
:1044F000EB50000A08E6000EEE5C000EEE58000ECF
:10450000EE58000EEE581CE30C0EDBCF14F00D0E2F
:10451000DBCF15F0166A176AD950060FE96EDACFAD
:10452000EAFF1450EE5C1550EE581650EE58175036
:10453000EE5806E2010EF36E190EF3CFDBFF53D0F7
:10454000170EDBCF14F0180EDBCF15F0166A176AC2
:10455000D950060FE96EDACFEAFFEE501426EE507E
:104560001522EE501622EE5017221734000E17189F
:1045700009E6D880000E1454000E1554000E16548F
:10458000000E175430E20C0EDBCF1CF00D0EDBCF0B
:104590001DF0170EDB501C5C186E180EDB501D58FA
:1045A000196E1A6A1B6A19AE02D01A681B68D950B4
:1045B000060FE96EDACFEAFF030EEBCFF3FF1B50D5
:1045C000F318E8AE02D0F33408D0EE50185CEE5089
:1045D0001958EE501A58EE501B5805E3010EF36EB1
:1045E000190EF3CFDBFF0C0EDBCF14F00D0EDBCF7B
:1045F00015F0166A176AD950060FE96EDACFEAFF8E
:10460000030EEB501718E8AE02D0173408D0145040
:10461000EE5C1550EE581650EE581750EE581AE250
:10462000170EDBCF1AF0180EDBCF1BF00A0EDB5093
:104630001A24186E0B0EDB501B20196E193404E27D
:1046400018500008000E195405E2010EF36E190E01
:10465000F3CFDBFF45D0060EDBCF14F0070EDBCF28
:1046600015F0080EDBCF16F0090EDBCF17F0145053
:1046700015101610171006E1010EF36E190EF3CF88
:10468000DBFF2ED0D950060FE96EDACFEAFFD890C3
:10469000030EEB50000A08E6000EEE5C000EEE582A
:1046A000000EEE58000EEE581BE30C0EDBCF14F09C
:1046B0000D0EDBCF15F0166A176AD950060FE96E9A
:1046C000DACFEAFF1450EE5C1550EE581650EE5853
:1046D0001750EE5805E2010EF36E190EF3CFDBFF13
:1046E000190EDB500DE10E0EDBB408D0010EE66EA4
:1046F000100EE66E9CEC17F0E552E5529DEF2AF0A5
:104700000E0EDB50060B03E027DC9DEF2AF00E0EA9
:10471000DBB802D09DEF2AF03F510C0A01E1EED246
:104720000B0A4DE00F0A4BE0010A49E0020A47E09C
:10473000010A45E00C0A01E0F7D2D9500F0FE96EEB
:10474000DACFEAFFEE50061909E1EE50071906E14B
:10475000EE50081903E1EE50091900E12EE0130EA6
:1047600006CFDBFF140E07CFDBFF150E08CFDBFFF4
:10477000160E09CFDBFF0F0EDBCF06FF100EDBCFCF
:1047800007FF110EDBCF08FF120EDBCF09FF010E72
:10479000E66E040EE66E9CEC17F0E552E552130E41
:1047A000DBCF06FF140EDBCF07FF150EDBCF08FFB4
:1047B000160EDBCF09FF9DEF2AF0070E3F6F0E515B
:1047C0002F5D146E30510F55156E040E14C0DBFFB3
:1047D000050E15C0DBFF040EDBCF14F0050EDBCF9A
:1047E00015F00001800E151410E00F0129512B5D0A
:1047F000146E2C512A55156ED950040FE96EDACF7C
:10480000EAFF1450EE261550ED22040EDBCF14F013
:10481000050EDBCF15F0166A176A060EE96E0F0E4D
:10482000EA6EEE501426EE501522EE501622EE508F
:10483000172214C0DFFF010E15C0DBFF020E16C0E9
:10484000DBFF030E17C0DBFF0F0EDBCF18F0100EDF
:10485000DBCF19F0110EDBCF1AF0120EDBCF1BF0FD
:10486000D9CFE9FFDACFEAFF1850EE5C146E195089
:10487000EE58156E1A50EE58166E1B50EE58176E05
:104880000001800E171409E0E66A100EE66E9CEC3B
:1048900017F0E552E5529DEF2AF00F0131510E5D00
:1048A000186E0F513255196E1A6A1B6A19AE02D072
:1048B0001A681B681850065D146E19500759156E5A
:1048C0001A500859166E1B500959176E14C0DFFF95
:1048D000010E15C0DBFF020E16C0DBFF030E17C072
:1048E000DBFF31510E5D32510F5914E229512B5D1E
:1048F000146E2C512A55156E166A176AD9CFE9FF26
:10490000DACFEAFF1450EE5E1550EE5A1650EE5A0A
:104910001750EE5A0F0EDBCF18F0100EDBCF19F048
:10492000110EDBCF1AF0120EDBCF1BF0D9CFE9FF4F
:10493000DACFEAFFEE50185C146EEE501958156E7F
:10494000EE501A58166EEE501B58176E14C0DFFF4B
:10495000010E15C0DBFF020E16C0DBFF030E17C0F1
:10496000DBFFDECF07F0DECF08F0DECF09F0DDCFD2
:104970000AF0DD52DD520A34000E0A1809E6D8802A
:10498000000E0754000E0854000E0954000E0A547D
:1049900001E3A2D029512B5D146E2C512A55156EBE
:1049A000166A176AD9CFE9FFDACFEAFFEE50145C36
:1049B000EE501558EE501658EE50175801E28CD0B4
:1049C000249724994191040E31CFDBFF050E32CF9D
:1049D000DBFFD9CFE9FFDACFEAFFEE503127EE5007
:1049E0003223040EDBCF14F0050EDBCF15F014508C
:1049F0000E5D15500F591BE331510E5D32510F59A9
:104A000015E20E51315D146E32510F55156E0001D5
:104A100014500F010627000115500F010723000E47
:104A20000823092331CF0EFF32CF0FFF36D0295193
:104A30002B5D166E2C512A55176E0E511624146ECE
:104A40000F511720156E040E14C0DBFF050E15C0A4
:104A5000DBFF040EDBCF14F0050EDBCF15F0315178
:104A6000145C3251155819E2040EDB50315D00011F
:104A7000146E050EDB500F0132590001156E1450F3
:104A80000F010627000115500F010723000E082310
:104A9000092331CF0EFF32CF0FFF2B51315D2C5147
:104AA00032590AE329512B5D146E2C512A55156E8B
:104AB0001450315F1550325B2B510E5D2C510F5944
:104AC0000AE329512B5D146E2C512A55156E145092
:104AD0000E5F15500F5B3ED00E51311902E10F51A0
:104AE000321938E024A735D024A932D031510E5DD7
:104AF000146E0F513255156E166A176A15AE02D034
:104B0000166817681450065F1550075B1650085B4F
:104B10001750095B31510E5D32510F5914E2295182
:104B20002B5D146E2C512A55156E166A176A15AE38
:104B300002D0166817681450065F1550075B1650B0
:104B4000085B1750095B31CF0EFF32CF0FFF418555
:104B5000248924872F51311902E1305132192EE175
:104B600041B715D0C3EC82F006C037FF07C038FF4D
:104B700008C039FF09C03AFF740E0F013727350E00
:104B80003823060E3923000E3A23409917D0D95006
:104B90000F0FE96EDACFEAFF0651EE1809E107516F
:104BA000EE1806E10851EE1803E10951EE1800E194
:104BB00005E12451010B02E040994197D9500F0FB4
:104BC000E96EDACFEAFFEE50065D166EEE50075939
:104BD000176EEE500859186EEE500959196EFD0EF9
:104BE000DBCFE9FFFE0EDBCFEAFF0E0EE926000E5B
:104BF000EA221650EE5C146E1750EE58156E1A0E1F
:104C000014C0DBFF1B0E15C0DBFF1451151109E1A9
:104C1000D9501A0FE96EDACFEAFFEE50ED1001E03D
:104C200041831A0EDBCF14FF1B0EDBCF15FF080EDE
:104C30003F5D2CE1D9500F0FE96EDACFEAFF065144
:104C4000EE1809E10751EE1806E10851EE1803E1EC
:104C50000951EE1800E119E12451010B16E0C3ECF3
:104C600082F006C037FF07C038FF08C039FF09C00F
:104C70003AFFBA0E0F0137271A0E3823030E3923D5
:104C8000000E3A234089090E3F6F37D0090E3F5D71
:104C90001BE10E0EDBB017D00F0EDBCF06FF100EA0
:104CA000DBCF07FF110EDBCF08FF120EDBCF09FFB2
:104CB000E66A140EE66E9CEC17F0E552E552ACEC99
:104CC0001FF09DEF2AF019D00A0E3F5D16E1D95072
:104CD0000F0FE96EDACFEAFF0651EE1809E107512E
:104CE000EE1806E10851EE1803E10951EE1800E153
:104CF00002E1ACEC1FF09DEF2AF017D0D9500F0F56
:104D0000E96EDACFEAFF0651EE1809E10751EE1815
:104D100006E10851EE1803E10951EE1800E102E145
:104D2000ACEC1FF09DEF2AF000D00E0EDBAA02D0F3
:104D30009DEF2AF00B0E3F5D02E19DEF2AF00A0E77
:104D40003F5D02E19DEF2AF00C0E3F5D02E19DEF19
:104D50002AF0D950FB0FE96EFF0EDA20EA6EEE5012
:104D6000ED1001E131D30A0EDBCF14F00B0EDBCFD7
:104D700015F0153404E214500008000E155401E239
:104D800050D1FD0EDBCFE9FFFE0EDBCFEAFF0C0EAC
:104D9000E926000EEA22EF50F00BE842E842E84232
:104DA000E842040DF350166E176A0A0EDB50165CCB
:104DB000146E0B0EDB501758156E14C0E6FF15C0AD
:104DC000E6FF01EC78F0E552E5520A0EDBCF14F075
:104DD0000B0EDBCF15F0D950FB0FE96EFF0EDA207A
:104DE000EA6E1450EE261550ED22FB0EDBCF14F0C8
:104DF000FC0EDBCF15F00C0EDBCF16F00D0EDBCF6B
:104E000017F01450165C155017580CE20C0EDBCF3F
:104E100008F00D0EDBCF09F0FB0E08C0DBFFFC0E27
:104E200009C0DBFFFB0EDBCF14F0FC0EDBCF15F06F
:104E3000000114500F010A27000115500F010B2328
:104E4000000E0C230D23FB0EDB5033250001146EE6
:104E5000FC0EDB500F0134210001156E0F011450C0
:104E60002D5D15502E595CE233512D5D146E2E517F
:104E70003455156E010E1426000E1522040E14C0B2
:104E8000DBFF050E15C0DBFF040EDBCFE6FF050ED2
:104E9000DBCFE6FFE66AE668E66844CFE6FF33CF9D
:104EA000E6FF34CFE6FF3CEC2CF0146E080EE15E1A
:104EB0001450FB0EDBCF16F0FC0EDBCF17F0040E08
:104EC000DB50165C146E050EDB501758156E14C0BF
:104ED000E6FF15C0E6FFE66AE668E66844CFE6FF4F
:104EE0002BCFE6FF2CCFE6FF3CEC2CF0186E080E23
:104EF000E15E1850FB0EDBCF16F0FC0EDBCF17F097
:104F0000040EDB50165C146E050EDB501758156E40
:104F10000F012B511424336F2C511520346F20D0E6
:104F2000FB0EDBCFE6FFFC0EDBCFE6FFE66AE668B2
:104F3000E66844CFE6FF33CFE6FF34CFE6FF3CEC34
:104F40002CF0146E080EE15E1450FB0EDBCF08F05F
:104F5000FC0EDBCF09F008500F0133270950342332
:104F6000221D01E1231D5CE0FB0EDBCF08F0FC0EEF
:104F7000DBCF09F00850225F0950235B1651222530
:104F8000146E17512321156E040E14C0DBFF050E9D
:104F900015C0DBFF040EDBCF14F0050EDBCF15F0E0
:104FA0000001800E151404E00F012269236938D036
:104FB0000F01233504E222510008000E235530E38F
:104FC000040EDBCF14F0050EDBCF15F000011450FA
:104FD0000F010A27000115500F010B23000E0C23AF
:104FE0000D23040EDBCF08F0050EDBCF09F00850CF
:104FF00033270950342333512D5D34512E590EE29D
:105000002B512D5D146E2E512C55156E010E14264C
:10501000000E15221450335F1550345B226923694A
:10502000D3D10A0EDBCF14F00B0EDBCF15F0153405
:1050300004E214500008000E155401E3C5D10A0E15
:10504000DBCF16F00B0EDBCF17F0FB0EDB50162478
:10505000146EFC0EDB501720156E0C0EDBCF18F013
:105060000D0EDBCF19F01450185C1550195814E2CE
:105070000C0EDBCF16F00D0EDBCF17F00A0EDB5057
:10508000165C146E0B0EDB501758156EFB0E14C019
:10509000DBFFFC0E15C0DBFFFD0EDBCFE9FFFE0ED4
:1050A000DBCFEAFF0C0EE926000EEA22EF50F00BF0
:1050B000E842E842E842E842040DF350E66EE66A50
:1050C00001EC78F0E552E5520A0EDB500F01332572
:1050D0000001166E0B0EDB500F0134210001176E1C
:1050E000FB0EDB501624146EFC0EDB501720156EE1
:1050F0000F0114502D5D15502E5901E395D03351F9
:105100002D5D166E2E513455176E010E1626000EAB
:1051100017220A0EDB50165C146E0B0EDB5017586C
:10512000156E040E14C0DBFF050E15C0DBFF040E68
:10513000DBCF14F0050EDBCF15F00001800E151447
:1051400041E1040EDBCFE6FF050EDBCFE6FFE66AAA
:10515000E668E66844CFE6FF0A0EDB500F01332510
:105160000001146E0B0EDB500F0134210001156E8F
:1051700014C0E6FF15C0E6FF7FDB166E080EE15E89
:105180001650FB0EDBCF16F0FC0EDBCF17F0040E33
:10519000DB50165C146E050EDB501758156E14C0EC
:1051A000E6FF15C0E6FFE66AE668E66844CFE6FF7C
:1051B0002BCFE6FF2CCFE6FF5FDB186E080EE15E1B
:1051C000185031D0FB0EDBCFE6FFFC0EDBCFE6FF45
:1051D000E66AE668E66844CFE6FF0A0EDB500F0198
:1051E00033250001166E0B0EDB500F013421000138
:1051F000176E0F012B512D5D186E2E512C55196E07
:10520000010E1826000E19221850165C146E195043
:105210001758156E14C0E6FF15C0E6FF2DDB1A6E99
:10522000080EE15E1A501FD0FB0EDBCFE6FFFC0E2E
:10523000DBCFE6FFE66AE668E66844CFE6FF0A0EE3
:10524000DB5033250001146E0B0EDB500F013421AF
:105250000001156E14C0E6FF15C0E6FF0DDB166EEB
:10526000080EE15E16500F01221D01E1231D0DE124
:105270000A0EDBCF22FF0B0EDBCF23FFFB0EDBCFB3
:1052800016FFFC0EDBCF17FF9FD00A0EDBCF14F00A
:105290000B0EDBCF15F02251145C235115584CE254
:1052A000FB0EDBCF16F0FC0EDBCF17F00A0EDB5047
:1052B0001624146E0B0EDB501720156E2251162586
:1052C000186E23511721196E1450185C1550195877
:1052D00013E3FB0EDBCF1CF0FC0EDBCF1DF00A0E40
:1052E000DB501C241A6E0B0EDB501D201B6E22514E
:1052F0001A5C23511B5807E2FB0EDBCF16FFFC0E96
:10530000DBCF17FF12D022511625146E235117211F
:10531000156E0A0EDB500001145C0F01166F0B0EA8
:10532000DB50000115580F01176F0A0EDBCF22FF6B
:105330000B0EDBCF23FF48D0FB0EDBCF16F0FC0EAD
:10534000DBCF17F00A0EDB501624146E0B0EDB5069
:105350001720156E22511625186E23511721196E2C
:105360001450185C155019582FE20A0EDBCF14F0B8
:105370000B0EDBCF15F022511625166E2351172187
:10538000176E1450165C155017581EE3FB0EDBCF3A
:105390001AF0FC0EDBCF1BF00A0EDB501A24186E3D
:1053A0000B0EDB501B20196E2251185C166E235118
:1053B0001958176E1651165C146E17511758156E42
:1053C0001450162715501723D950170FE96EDACF4E
:1053D000EAFFEE50ED1023E0070E3F5D04E033CF0F
:1053E00035FF34CF36FF40AF0BD0010EE66E100E06
:1053F000E66E9CEC17F0E552E552A1EC00F00FD000
:10540000408F40BD0CD0408DCEEC82F006C03DFFF9
:1054100007C03EFF0F0E0F013D27000E3E230E0E6C
:10542000DBA08BD00ACF14F00BCF15F00CCF16F009
:105430000DCF17F0142A000E152216221722170E70
:10544000DBCF18F0180EDBCF19F01A6A1B6AD9509F
:10545000130FE96EDACFEAFFEE501826EE5019224C
:10546000EE501A22EE501B221450181809E1155064
:10547000191806E116501A1803E117501B1800E11D
:105480005CE10F010A2B000E0B230C230D233F516F
:10549000090A40E0010A1EE00F0A0EE0010A01E0DD
:1054A00043D00C0E3F6F010EE66E110EE66E9CECC3
:1054B00017F0E552E55241D00B0E3F6FCEEC82F073
:1054C00006C03DFF07C03EFF1F0E0F013D27000E27
:1054D0003E232BD0D9500F0FE96EDACFEAFF0651E9
:1054E000EE1809E10751EE1806E10851EE1803E144
:1054F0000951EE1800E10BE1E66A100EE66E9CEC35
:1055000017F0E552E552ACEC1FF017D002D00A0EAE
:105510003F6F0BD0E66A100EE66E9CEC17F0E5527A
:10552000E552ACEC1FF009D000D0010EE66E100E73
:10553000E66E9CEC17F0E552E5521C0EE15C02E2CF
:10554000E16AE552E16EE552E7CFD9FF1200D9CF0B
:10555000E6FFE1CFD9FF060EE126FE0EDBCFE6FF28
:1055600052EC00F0E552D950FC0FE96EFF0EDA2044
:10557000EA6EEE50ED1007E1010EF36EFC0EF3CF74
:10558000DBFFFD0EDB6A0F0129512D5D146E2E51DC
:105590002A55156E1406000E155A14C0DEFF15C0EC
:1055A000DDFFFA0EDBCF16F0FB0EDBCF17F0FC0EA3
:1055B000DB501624146EFD0EDB501720156EDECF67
:1055C00018F0DDCF19F01450185C1550195802E28C
:1055D000000E46D1A1EC00F0F90EDB50030B03E105
:1055E000F90EDB80DB82FA0EDBCF08F0FB0EDBCF9F
:1055F00009F0040E08C0DBFF050E09C0DBFFFA0E40
:10560000DBCF16F0FB0EDBCF17F0FC0EDB501624C1
:10561000146EFD0EDB501720156ED9CFE9FFDACFDF
:10562000EAFF1450EE5E1550ED5AF90EDBA220D0C1
:10563000DBA011D0DECF14F0DDCF15F0D8901532FD
:105640001432D950040FE96EDACFEAFF1450EE2677
:105650001550ED220DD0DECF14F0DDCF15F0D9506E
:10566000040FE96EDACFEAFF1450EE261550ED2252
:10567000040EDB500F0129250001146E050EDB50CE
:105680000F012A210001156E010E1426000E1522AD
:1056900014C0DEFF15C0DDFF020E33CFDBFF030EAB
:1056A00034CFDBFF0F01221D01E1231D2DE022512C
:1056B0001625146E23511721156ED950020FE96E6D
:1056C000DACFEAFF1450EE261550ED22020EDBCFA2
:1056D00014F0030EDBCF15F014502D5D15502E592C
:1056E00013E22B512D5D146E2E512C55156E010EAB
:1056F0001426000E1522D950020FE96EDACFEAFF08
:105700001450EE5E1550ED5A020EDBCF14F0030E6E
:10571000DBCF15F01450355D1550365918E2DECF49
:1057200014F0DDCF15F01450355D155036590EE2EA
:10573000F90EDBA403D0000E93D008D0DECF35FFE6
:10574000DDCF36FFDECF33FFDDCF34FF2BD0020EAF
:10575000DBCF14F0030EDBCF15F03551145C36515E
:10576000155818E2DECF14F0DDCF15F014502B5D84
:1057700015502C590EE2F90EDBA403D0000E70D0A8
:1057800008D0DECF35FFDDCF36FFDECF33FFDDCFF4
:1057900034FF08D0DECF35FFDDCF36FFDECF33FF5D
:1057A000DDCF34FF020EDBCF14F0030EDBCF15F09C
:1057B0000F013551145C3651155835E2F90EDB50A6
:1057C000040B31E0020EDBCF08F0030EDBCF09F053
:1057D0002B51085C146E2C510958156E14C0E6FF4D
:1057E00015C0E6FF44CFE6FF2BCFE6FF2CCFE6FF48
:1057F00044CFE6FFDECFE6FFDDCFE6FF3DD8166EF5
:10580000080EE15E16500F013551335D36513459A3
:105810000AE2DE502B5D146EDD502C59156E1450CB
:10582000335F1550345BDECF2BFFDDCF2CFF29CF4C
:105830000EFF2ACF0FFF29CF31FF2ACF32FF29CF0A
:105840002FFF2ACF30FF070E3F5D08E1010EE66E05
:10585000100EE66E9CEC17F0E552E552010E00D0FA
:10586000146E060EE15C02E2E16AE552E16E14504C
:10587000E552E7CFD9FF1200D9CFE6FFE1CFD9FF3C
:10588000F90EDB504CE0010A01E097D0FC0EDB5032
:105890001CE0010A01E042D0F70EDBCFE6FFF80E74
:1058A000DBCFE6FFFA0EDBCFE6FFFB0EDBCFE6FF3A
:1058B000FD0EDBCFE6FFFE0EDBCFE6FFE1EC7EF078
:1058C000146E060EE15E145029D0D950FD0FE96E1A
:1058D000FF0EDA20EA6EFF0EEE1802E1FF0EED1861
:1058E0000AE0FD0EDBCFE6FFFE0EDBCFE6FF9BEC12
:1058F0005CF0E552E552F70EDBCFE6FFF80EDBCFAA
:10590000E6FFFA0EDBCFE6FFFB0EDBCFE6FFE3ECB4
:105910005FF0E552E552E552E55200D04ED0FC0E64
:10592000DB502CE0010A01E047D0D950FA0FE96EB4
:10593000FF0EDA20EA6EFF0EEE1802E1FF0EED1800
:105940000AE0FA0EDBCFE6FFFB0EDBCFE6FFBEEC94
:105950005CF0E552E552F70EDBCFE6FFF80EDBCF49
:10596000E6FFFD0EDBCFE6FFFE0EDBCFE6FF86ECAB
:105970005FF0E552E552E552E5521ED0F70EDBCF5F
:10598000E6FFF80EDBCFE6FFFA0EDBCFE6FFFB0EFD
:10599000DBCFE6FFFD0EDBCFE6FFFE0EDBCFE6FF43
:1059A00044EC5EF0146E060EE15E14507CEC5FF089
:1059B000000901E1FBD700D000D0E552E7CFD9FFC5
:1059C0001200D9CFE6FFE1CFD9FF120EE126FC0E7F
:1059D000DB501FE0010A01E0ACD0F70EDBCFE6FFA1
:1059E000F80EDBCFE6FFF90EDBCFE6FFFA0EDBCFDA
:1059F000E6FFFB0EDBCFE6FFFD0EDBCFE6FFFE0E84
:105A0000DBCFE6FF0CEC7FF0146E070EE15E145066
:105A100090D0D950FD0FE96EFF0EDA20EA6EFF0E2E
:105A2000EE1802E1FF0EED180AE0FD0EDBCFE6FFF7
:105A3000FE0EDBCFE6FF9BEC5CF0E552E552100E6C
:105A4000F36EF3CFDBFF110EDB6AD950F70FE96E6F
:105A5000FF0EDA20EA6EEE50ED106AE0100EDBCF9A
:105A600014F0110EDBCF15F0F70EDBCF16F0F80EA9
:105A7000DBCF17F01450165C155017580CE2F70ED8
:105A8000DBCF08F0F80EDBCF09F0100E08C0DBFF0B
:105A9000110E09C0DBFF100EDBCFE6FF110EDBCFCE
:105AA000E6FFF90EDBCFE6FFFA0EDBCFE6FFFB0EDB
:105AB000DBCFE6FFD9CFE6FFDACFE6FF0CEC7FF0D5
