:020000040000FA
:060000006AEF59F0120046
:020006001200E6
:06000800A6EF45F0120016
:02000E000004EC
:04001000A300000049
:02001400FFFFEC
:02001600FEFEEC
:0600180051EF45F012005B
:02001E000900D7
:1000200020B30000FF000000010000001EB300002C
:100030005D0F0000020000001AB30000C6040000BB
:100040000400000018B30000FD00000002000000E2
:10005000160000007E0E00000200000014B3000035
:10006000FC0100000400000014000000FE0200007B
:10007000020000000FB30000EE0D000005000000BC
:0C00800006B30000BD04000009000000F1
:04008C000D014551CC
:100090000E017E5D01E140D0FE0E7E5D1BE01C0E78
:1000A000E66EE66A290EE66E0D0EE66E7E511C0DBA
:1000B000F3CF14F0F4CF15F0000E1426010E152224
:1000C00014C0E6FF15C0E6FF80EC54F0166E060E75
:1000D000E15E165045CD7EFEFE0E0D01455D01E14F
:1000E0001BD01C0EE66EE66A45511C0DF3CF14F0D2
:1000F000F4CF15F0000E1426010E152214C0E6FFF1
:1001000015C0E6FF290EE66E0D0EE66E80EC54F08B
:10011000166E060EE15E165012000E017E517F5DD6
:1001200001E14FD0FE0E7F5D32E0270E0D01C26F60
:10013000C36B0D01010EC16F0D01020EBF6F0D0EDD
:10014000C06F0E017F511C0DF3CFE9FFF4CFEAFF22
:10015000000EE926010EEA221B0EE926000EEA2215
:10016000EFCFBEFD7F511C0DF3CFE9FFF4CFEAFFC7
:10017000000EE926010EEA22EECFBCFDEFCFBDFD59
:100180000D01270EBC5F000EBD5B07EC20F07ECE9C
:100190007FFE270E0D01C26FC36B44CDC1FD29CD7B
:1001A000BFFD2ACDC0FD0D01BF5F000EC05B0D017C
:1001B000010EBE6F0D01020EBC6F0D0EBD6F07EC80
:1001C00020F012000B01C00E1D6F100E1E6F0D01EE
:1001D000005101110FE1F8EC40F006C000FD07C02E
:1001E00001FDFF0E0D010017070E0117000E00277D
:1001F000040E01233C0EE66EE66AE66AC40EE66E65
:10020000030EE66ECEEC54F0146E050EE15E145053
:100210000B01156B146B1451146E156A090E145CE6
:10022000000E155801E3A8D014CB45FD2FDF0B01BC
:100230001451060DF3CFF6FFF4CFF7FF260EF62686
:10024000B20EF722F62A000EF7220800F5CF1CFBAB
:100250001451060DF3CFF6FFF4CFF7FF260EF62666
:10026000B20EF722020EF626000EF7220900F5CF95
:1002700016FB0A00F5CF17FB1451060DF3CFF6FF5E
:10028000F4CFF7FF260EF626B20EF722040EF6265E
:10029000000EF7220900F5CF18FB0A00F5CF19FB75
:1002A0001C5101E068D01DCB1AFB1ECB1BFB270E97
:1002B000176A1625166E17511722010E1626000E04
:1002C000172216501825146E17501921156E010E9D
:1002D0001426000E152214501D2715501E231DCB69
:1002E00014F01ECB15F0166A176AD880FC0E145451
:1002F0001F0E1554000E1654000E175401E2EFD7CE
:100300001CCB44FD270E0B011A250D01296F000E91
:100310000B011B210D012A6F29510B0116250D011F
:100320002B6F2A510B0117210D012C6F010E2B276A
:10033000000E2C232B510B0118250D012D6F2C5174
:100340000B0119210D012E6F0D0E3F6F4097E5DE59
:100350000B011451060DF3CFF6FFF4CFF7FF260E75
:10036000F626B20EF7220800F5CF28FD50EC16F065
:100370000B01142B50D7FFD712000B01386B3851EB
:10038000146E156A090E145C000E155801E3B3D003
:1003900038CB45FD7BDE0D0E0D013F5D01E0A8D0A1
:1003A000BCDE0D014D51285D01E0A2D0180E256F75
:1003B000020E266F4A510CE14BCD12FD4CCD13FDC0
:1003C0004087040E3F6F4BCD42FD4CCD43FD8DD099
:1003D000000E005D040E015906E3880ED88000551A
:1003E000130E015503E2006B040E016F00CD12FDE8
:1003F00001CD13FD002B000E01234BCD10FD4CCD84
:1004000011FD30EC58F006C037FD07C038FD08C0BC
:1004100039FD09C03AFD0D0140894A51040A26E020
:10042000070A01E062D048514625166E495147211E
:10043000176E16504B25146E17504C21156E145024
:100440001219426F15501319436F46CD18FD47CD51
:1004500019FD48CD1AFD49CD1BFD276B270E026FF4
:10046000036B046B056B020E3F6F3FD046CDE9FF77
:1004700047CDEAFF020EE926000EEA22EECF18F081
:10048000EFCF19F046CDE9FF47CDEAFF1850EE2433
:10049000166E1950EE20176E16504B25146E17501D
:1004A0004C21156E14501219426F15501319436FD9
:1004B0000A0EE66EE66A46CDE6FF47CDE6FF180E69
:1004C000E66E0D0EE66E80EC54F0146E060EE15EE4
:1004D00014500D01050E3F6F0D01010EAB6F0D01A4
:1004E000020EAA6FFAEC0FF000D00B01385105D0C4
:1004F0000B01382B44D7FE0E00D012004ECD45FD27
:10050000C5DD0D0141A903D04199010E02D0000EB5
:1005100000D012004FCD45FDB9DD070E0D013F5D46
:1005200002E0000E01D0010E00D0120050CD45FDBA
:10053000ADDD33CD35FD34CD36FD0D013F51080A1B
:1005400047E0010A45E0050A43E0020A3EE0050AE9
:1005500026E00D0A0EE0010A0CE0070A07E0020A95
:1005600005E0010A03E0060A01E032D050EC16F083
:1005700039D00D01010EAB6F0D01110EAA6FFAEC0F
:100580000FF00D011451151101E106D00E512F1974
:1005900002E10F513019EDE1080E3F6F23D00D013C
:1005A000010EAB6F0D01110EAA6FFAEC0FF00D01E9
:1005B0001451151101E106D00E512F1902E10F510E
:1005C0003019EDE10C0E3F6F0DD00D0E3F6F0AD0CC
:1005D0000D01AB6B0D01140EAA6FFAEC0FF050EC8D
:1005E00016F000D0120051CD45FD50DD0D014097B1
:1005F00051CD50FD96EF02F052CD45FD47DD8DDD2A
:100600000A0EE66EE66A180EE66E0D0EE66E530EE4
:10061000E66E0D0EE66E80EC54F0146E060EE15E92
:10062000145010CD5DFD11CD5EFD530E146E0D0EF8
:10063000156E14C0F3FF15C0F4FF00D012005FCD9B
:1006400045FD24DD6ADD0D010E512F1902E10F5128
:10065000301908E00D01010EAB6F0D01100EAA6FED
:10066000FAEC0FF0120060CD45FD10DD3FCD04FB2C
:10067000070E0B01045D06E00B0E045D03E0F36A58
:10068000F46A2FD00D0131512F5D325130591BE3E7
:1006900029512B5D166E2C512A55176E1606000E29
:1006A000175A31512F5D186E30513255196E18504E
:1006B000165C146E19501758156E14C0F3FF15C050
:1006C000F4FF0FD00ED02F51315D146E32513055E2
:1006D000156E1406000E155A14C0F3FF15C0F4FF72
:1006E00000D0120061CD45FDD1DC61CD60FDBBDFE6
:1006F000F3CF28FBF4CF29FB0B012851291103E18B
:10070000000E63D008D0010E281901E1295103E140
:1007100061CD5FFD94DF0D014151010B14E12951C1
:100720002B5D146E2C512A55156ED890153214324B
:100730000B012851145C2951155805E361CD5FFD6B
:100740007EDF0D014181010E0D01C26FC36B0D01F2
:10075000C16F0D01620EBF6F0D0EC06F44CDBEFDA7
:100760002FCDBCFD30CDBDFD07EC20F00D012F2BB2
:10077000000E30232B512F5D2C51305904E329CD2D
:100780002FFD2ACD30FD0B01010E281901E1295161
:1007900004E161CD5FFD53DF16D00D0140BB13D0E6
:1007A000408B3BEC58F006C014F007C015F0166AF9
:1007B000176A060E1426000E15221622172214C0E0
:1007C0003BFD15C03CFD010E00D012000B016F6B0C
:1007D000706B63CD45FD5ADC63CD60FD44DFF3CF24
:1007E0006DFBF4CF6EFB0B016D516E1106E163CD15
:1007F0005FFD25DFF36AF46AADD06DCB6BFB6ECB8A
:100800006CFB6D510D01665D0B016E510D01675959
:1008100004E266CD6BFB67CD6CFB4151010B14E12B
:1008200029512B5D146E2C512A55156ED890153216
:1008300014320B016D51145C6E51155805E363CDF4
:100840005FFDFDDE0D0141810D012F510B016B2577
:10085000146E0D0130510B016C21156E0D012B51E1
:10086000145C2C5115582DE32F512B5D0B016F6F2C
:100870000D0130512C590B01706F6FCBC2FD70CB45
:10088000C3FD0D01010EC16F64CDBFFD65CDC0FD7F
:1008900044CDBEFD2FCDBCFD30CDBDFD07EC20F01D
:1008A0000B016F510D0164270B0170510D01652380
:1008B0000B016F516B5F70516C5B29CD2FFD2ACD01
:1008C00030FD6BCBC2FD6CCBC3FD0D01010EC16FC2
:1008D00064CDBFFD65CDC0FD44CDBEFD2FCDBCFDBB
:1008E00030CDBDFD07EC20F00B016B510D012F2722
:1008F0000B016C510D0130230B016D510D01665D33
:100900000B016E510D01675904E363CD5FFD97DE66
:1009100015D040BB13D0408B3BEC58F006C014F010
:1009200007C015F0166A176A060E1426000E152267
:100930001622172214C03BFD15C03CFD0B016B5164
:100940006F25146E6C517021156E14C0F3FF15C025
:10095000F4FF00D012000B012C6B2D6B68CD45FD10
:1009600046EC00F068CD60FD7EDEF3CF2AFBF4CFCD
:100970002BFB0B012A512B1106E168CD5FFD5FDED9
:10098000F36AF46AA8D00D014151010B14E1295119
:100990002B5D146E2C512A55156ED89015321432D9
:1009A0000B012A51145C2B51155805E368CD5FFDEE
:1009B00046DE0D0141812ACB28FB2BCB29FB0B0105
:1009C0002A510D016B5D0B012B510D016C5904E295
:1009D0006BCD28FB6CCD29FB2F510B012825146E04
:1009E0000D0130510B012921156E0D012B51145CA5
:1009F0002C5115582AE32F512B5D0B012C6F0D0143
:100A000030512C590B012D6F2CCBC9FD2DCBCAFDBC
:100A100069CDC7FD6ACDC8FD44CDC6FD2FCDC4FD4F
:100A200030CDC5FD6BEC20F00B012C510D01692779
:100A30000B012D510D016A230B012C51285F2D5103
:100A4000295B29CD2FFD2ACD30FD28CBC9FD29CB2F
:100A5000CAFD69CDC7FD6ACDC8FD44CDC6FD2FCD09
:100A6000C4FD30CDC5FD6BEC20F00B0128510D010C
:100A70002F270B0129510D0130230B012A510D01A4
:100A80006B5D0B012B510D016C5904E368CD5FFDCB
:100A9000D6DD15D040BB13D0408B3BEC58F006C0E0
:100AA00014F007C015F0166A176A060E1426000E19
:100AB00015221622172214C03BFD15C03CFD0B0168
:100AC00028512C25146E29512D21156E14C0F3FFC9
:100AD00015C0F4FF00D012006ECDE6FF6FCDE6FF2B
:100AE00001EC55F0E552E552F3CF66FDF4CF67FD1A
:100AF0006ECD64FD6FCD65FD6DCD63FD67DE0D01CF
:100B00006E51F324146E6F51F420156E14C0F3FF70
:100B100015C0F4FF00D0120071CD16F072CD17F0A1
:100B2000186A16C0E6FF17C0E6FF18C0E6FF0FEC14
:100B300055F0E552E552E55207C06BFD08C06CFD6B
:100B400071CD69FD72CD6AFD70CD68FD04DF0D01C8
:100B50007151F324146E7251F420156E14C0F3FF1A
:100B600015C0F4FF00D0120073CD45FD46EC00F037
:100B70000D0129512B5D0B01026F0D012A512C59DA
:100B80000B01036F010E025F000E035B73CD60FD6E
:100B90006ADDF3CF00FBF4CF01FB0B010051025DD6
:100BA000146E03510155156E14C0F3FF15C0F4FF08
:100BB00000D0120074CD75FD18D8F3CF14F0F4CF27
:100BC00015F01450151010E074CD45FD46EC00F002
:100BD00033CD35FD34CD36FD0D01010EAB6F0D016A
:100BE000100EAA6FFAEC0FF0120075CD45FD46EC21
:100BF00000F00D013551335D365134590CE3355158
:100C0000335D146E34513655156E14C0F3FF15C0A4
:100C1000F4FF1CD01BD035512D5D166E2E5136556C
:100C2000176E010E1626000E17222B51335D186E1B
:100C300034512C55196E16501824146E1750192063
:100C4000156E14C0F3FF15C0F4FF00D0120076CD6E
:100C500075FDCBDFF3CF00FBF4CF01FB0B0100519F
:100C6000011102E1000E48D076CD45FD46EC00F0C2
:100C70000D017751781112E0010E0D01C26FC36BA7
:100C800044CDC1FD35CDBFFD36CDC0FD0D01BE6FDC
:100C900077CDBCFD78CDBDFD07EC20F00D01352BE7
:100CA000000E362335512D5D36512E5904E22BCDE1
:100CB00035FD2CCD36FD0B01010E001901E101516E
:100CC00003E10D01418516D00D0140BB13D0408BCF
:100CD0003BEC58F006C014F007C015F0166A176A0E
:100CE0001F0E1426000E15221622172214C03BFDDB
:100CF00015C03CFD010E00D012000B01026B036B0E
:100D000079CD75FD72DFF3CF00FBF4CF01FB0B0152
:100D10000051011103E1F36AF46AA1D079CD45FDD8
:100D200046EC00F00D017C510B01005D0D017D5181
:100D30000B01015904E200CB7CFD01CB7DFD0D01CF
:100D400035517C25146E36517D21156E14502D5D64
:100D500015502E5938E235512D5D0B01026F0D01F2
:100D600036512E590B01036F010E0227000E03238B
:100D70000D017A517B111BE002CBC2FD03CBC3FDF9
:100D800044CDC1FD35CDBFFD36CDC0FD0D01010EF9
:100D9000BE6F7ACDBCFD7BCDBDFD07EC20F00B0115
:100DA00002510D017A270B0103510D017B230B0129
:100DB00002510D017C5F0B0103510D017D5B2BCDB9
:100DC00035FD2CCD36FD7A517B1113E07CCDC2FD73
:100DD0007DCDC3FD44CDC1FD35CDBFFD36CDC0FDBC
:100DE0000D01010EBE6F7ACDBCFD7BCDBDFD07ECC4
:100DF00020F00D017C5135277D5136230B01025126
:100E00000D017C270B0103510D017D237C510B014A
:100E1000005D146E01510D017D55156E14507C5D01
:100E200015507D5902E3418515D040BB13D0408B4E
:100E30003BEC58F006C014F007C015F0166A176AAC
:100E40001F0E1426000E15221622172214C03BFD79
:100E500015C03CFD7CCDF3FF7DCDF4FF00D012002A
:100E60007ECD45FD46EC00F00D012B512D5D0B01B3
:100E7000026F0D012C512E590B01036F7ECD75FDB4
:100E8000B4DEF3CF00FBF4CF01FB0B010051025D98
:100E9000146E03510155156E14C0F3FF15C0F4FF15
:100EA00000D012000D018251831103E1F36AF46A4C
:100EB000ABD07FCD45FD46EC00F07FCD75FD95DED6
:100EC000F3CF02FBF4CF03FB0D0184518225146E96
:100ED00085518321156E0B011450025D1550035985
:100EE0000BE20D0184510B01025D0D01826F8551F2
:100EF0000B0103590D01836F0D01355184250B0141
:100F0000006F0D01365185210B01016F00510D015C
:100F10002D5D0B0101510D012E590FE22B512D5D5D
:100F2000146E2E512C55156E010E1426000E15222E
:100F300014500B01005F1550015B0B0100510D01B6
:100F40002D5D0B01046F01510D012E590B01056F31
:100F5000010E0427000E05230D0182510B01045DD3
:100F60000D0183510B01055914E382CDC2FD83CDE0
:100F7000C3FD44CDC1FD00CBBFFD01CBC0FD0D01C4
:100F8000010EBE6F80CDBCFD81CDBDFD07EC20F014
:100F900036D004CBC2FD05CBC3FD44CDC1FD00CB93
:100FA000BFFD01CBC0FD0D01010EBE6F80CDBCFDAC
:100FB00081CDBDFD07EC20F00B0104510D01825DD8
:100FC0000D01C26F0B0105510D0183590D01C36F56
:100FD00044CDC1FD2BCDBFFD2CCDC0FD0D01010EBB
:100FE000BE6F0D0180510B0104250D01BC6F0D0179
:100FF00081510B0105210D01BD6F07EC20F082CD61
:10100000F3FF83CDF4FF00D0120087CD84FD88CD9F
:1010100085FD010E0D01826F836B0D01060E806F41
:101020000B0E816F86CD7FFD3DDF0B01065100D099
:1010300012000D018C518D1103E1F36AF46AB2D1F3
:1010400089CD45FD46EC00F089CD75FDCEDD0D0165
:101050008E51F35C0B01026F0D018F51F4580B019F
:10106000036F0D018C510B01025D0D018D510B01C0
:10107000035903E2F368F46895D10D019051911181
:101080000DE00B0102510D01905D0B0103510D01AB
:10109000915904E290CD02FB91CD03FB35518E2591
:1010A0000B01066F0D0136518F210B01076F0651A1
:1010B0000D012D5D0B0107510D012E590FE22B5132
:1010C0002D5D146E2E512C55156E010E1426000E3A
:1010D000152214500B01065F1550075B06CB00FB71
:1010E00007CB01FB0B0106510D012D5D0B01046FB8
:1010F00007510D012E590B01056F010E0427000E3B
:1011000005238ECD06FB8FCD07FB8CCD08FB8DCD47
:1011100009FB8ACD0AFB8BCD0BFB0D018ACDE9FFC4
:101120008BCDEAFF8A2B8B23EFCF0DFB0B010F6BCF
:101130000D01925109E0610E0B010D5D05E30D51AA
:101140007A0802E3E00E0D270B01200E0E6F0E5100
:10115000045D000E055902E204CB0EFB0E51025D48
:10116000000E035902E202CB0EFB0E510D01C26FBD
:10117000C36B44CDC1FD00CBBFFD01CBC0FD0D0154
:10118000010EBE6F0D01100EBC6F0B0EBD6F07EC94
:1011900020F00B010E51146E156A145000271550E3
:1011A00001230E51146E156A1450045F1550055B2F
:1011B0000451051106E12BCD00FB2CCD01FB046988
:1011C00005690D01925101E181D00B010C6B0E51AB
:1011D0000C5D01E37AD00C51EA6A100FE96E0B0E38
:1011E000EA22EFCF14F0610E145C13E30C51EA6AAB
:1011F000100FE96E0B0EEA22EF507A080AE3E00EB8
:10120000146E0C51EA6A100FE96E0B0EEA221450AC
:10121000EF260C51EA6A100FE96E0B0EEA22EF502E
:101220000D5D33E10D018C07000E8D5B8C518D112E
:1012300017E10B010851065D166E07510955176E2F
:101240000C5100011624146E000E1720156E010EAD
:101250001426000E152214C0F3FF15C0F4FFA2D00F
:101260008ACDE9FF8BCDEAFF8A2B000E8B23EFCFCF
:101270000DFB0B01010E0F6F610E0D5D05E30D51AE
:101280007A0802E3E00E0D271ED008CB8CFD09CBB7
:101290008DFD0F5118E00ACB8AFD0BCB8BFD0D01A4
:1012A0008ACDE9FF8BCDEAFF8A2B000E8B23EFCF8F
:1012B0000DFB610E0B010D5D05E30D517A0802E394
:1012C000E00E0D270F6B0C2B82D751D00B010C6B4E
:1012D0000E510C5D4CE20C51EA6A100FE96E0B0ED8
:1012E000EA22EF500D5D2BE10D018C07000E8D5BA6
:1012F0008C518D1117E10B010851065D166E0751D7
:101300000955176E0C5100011624146E000E17209B
:10131000156E010E1426000E152214C0F3FF15C021
:10132000F4FF40D08ACDE9FF8BCDEAFF8A2B000E77
:101330008B23EFCF0DFB0B01010E0F6F16D008CBE7
:101340008CFD09CB8DFD0F5110E00ACB8AFD0BCB34
:101350008BFD0D018ACDE9FF8BCDEAFF8A2B000EB4
:101360008B23EFCF0DFB0B010F6B0C2BB1D70E5165
:10137000146E156A1450025F1550035B0D018C51F9
:101380000B01025D0D018D510B01035903E2F3685E
:10139000F46808D00E51146E156A145006271550C3
:1013A0000723D2D612000D019651971103E1F36A7B
:1013B000F46AB7D193CD45FD46EC00F093CD75FDB1
:1013C00014DC0D019851F35C0B01026F0D01995172
:1013D000F4580B01036F0D0196510B01025D0D01D5
:1013E00097510B01035903E2F368F4689AD10D0198
:1013F0009A519B110DE00B0102510D019A5D0B01F9
:1014000003510D019B5904E29ACD02FB9BCD03FBD6
:10141000355198250B01066F0D01365199210B01AD
:10142000076F06510D012D5D0B0107510D012E595E
:101430000FE22B512D5D146E2E512C55156E010EA1
:101440001426000E152214500B01065F1550075B81
:1014500006CB00FB07CB01FB0B0106510D012D5DF7
:101460000B01046F07510D012E590B01056F010E81
:101470000427000E052398CD06FB99CD07FB96CDDA
:1014800008FB97CD09FB94CD0AFB95CD0BFB0D0115
:1014900094CDF6FF95CDF7FF942B95230800F5CF5B
:1014A0000DFB0B010F6B0D019C5109E0610E0B014F
:1014B0000D5D05E30D517A0802E3E00E0D270B01E7
:1014C000200E0E6F0E51045D000E055902E204CB92
:1014D0000EFB0E51025D000E035902E202CB0EFB21
:1014E0000E510D01C26FC36B44CDC1FD00CBBFFDDA
:1014F00001CBC0FD0D01010EBE6F0D01100EBC6FC2
:101500000B0EBD6F07EC20F00B010E51146E156A27
:1015100014500027155001230E51146E156A1450F3
:10152000045F1550055B0451051106E12BCD00FB4E
:101530002CCD01FB046905690D019C5101E183D0AB
:101540000B010C6B0E510C5D01E37CD00C51EA6A6F
:10155000100FE96E0B0EEA22EFCF14F0610E145C4F
:1015600013E30C51EA6A100FE96E0B0EEA22EF50FA
:101570007A080AE3E00E146E0C51EA6A100FE96E65
:101580000B0EEA221450EF260C51EA6A100FE96E96
:101590000B0EEA22EF500D5D34E10D019607000EAF
:1015A000975B9651971117E10B010851065D166E76
:1015B00007510955176E0C5100011624146E000EC8
:1015C0001720156E010E1426000E152214C0F3FF0D
:1015D00015C0F4FFA6D094CDF6FF95CDF7FF942B60
:1015E000000E95230800F5CF0DFB0B01010E0F6FC8
:1015F000610E0D5D05E30D517A0802E3E00E0D2743
:101600001FD008CB96FD09CB97FD0F5119E00ACBEF
:1016100094FD0BCB95FD0D0194CDF6FF95CDF7FF15
:10162000942B000E95230800F5CF0DFB610E0B01E6
:101630000D5D05E30D517A0802E3E00E0D270F6BF7
:101640000C2B80D753D00B010C6B0E510C5D4EE26E
:101650000C51EA6A100FE96E0B0EEA22EF500D5D95
:101660002CE10D019607000E975B9651971117E13B
:101670000B010851065D166E07510955176E0C5186
:1016800000011624146E000E1720156E010E14268C
:10169000000E152214C0F3FF15C0F4FF42D094CD04
:1016A000F6FF95CDF7FF942B000E95230800F5CF9C
:1016B0000DFB0B01010E0F6F17D008CB96FD09CB68
:1016C00097FD0F5111E00ACB94FD0BCB95FD0D0159
:1016D00094CDF6FF95CDF7FF942B000E95230800CF
:1016E000F5CF0DFB0B010F6B0C2BAFD70E51146E0A
:1016F000156A1450025F1550035B0D0196510B01E2
:10170000025D0D0197510B01035903E2F368F46880
:1017100008D00E51146E156A145006271550072371
:10172000CED61200A3CD92FDA1CD90FDA2CD91FD0C
:101730009FCD8EFDA0CD8FFD010E0D018C6F8D6BA9
:101740000D019E0E8A6F0D0E8B6F9DCD89FD71DC94
:1017500000D012000B01286B2851146E156A090E77
:10176000145C000E155801E300D328CB45FD46EC70
:1017700000F00B012B6B296B2A6B0D014151020B01
:1017800003E14151040B0EE03EEC3CF000090AE09D
:101790000B01100E2B6F0D014151040B01E0010EE6
:1017A0000B01296F0D0140AB13D03BEC58F00D013C
:1017B00006503B5D146E07503C59156E153404E21B
:1017C00014500008000E155403E30B01100E2B6F8C
:1017D0000D0140AD13D03BEC58F00D0106503D5DBE
:1017E000146E07503E59156E153404E2145000086B
:1017F000000E155403E30B01100E2B6F0B0E0D01A1
:101800003F5D16E13BEC58F00D0106503D5D146E56
:1018100007503E59156E153404E214500008000EAE
:10182000155406E30B01110E2B6F0D010C0E3F6FCB
:10183000040E3F5D01E00AD10B012C6B2D6B030EF2
:101840002C5D000E2D5901E301D12CCBE9FF2DCBEE
:10185000EAFF140EEA02F3CFEAFFE902F3CFE9FF51
:10186000F450EA26C40EE926030EEA22100EE926F9
:10187000000EEA22EE50ED1001E1E8D02CCBE9FF9A
:101880002DCBEAFF140EEA02F3CFEAFFE902F3CF11
:10189000E9FFF450EA26C40EE926030EEA22100EF0
:1018A000E926000EEA22EECF14F0EFCF15F00D017D
:1018B0004251141802E14351151801E0C2D08DECD9
:1018C00000F00A0EE66EE66A2CCBE9FF2DCBEAFFAC
:1018D000140EEA02F3CFEAFFE902F3CFE9FFF45076
:1018E000EA26C40EE926030EEA22E9CF14F0EACF75
:1018F00015F014C0E6FF15C0E6FF180EE66E0D0EDB
:10190000E66E80EC54F0166E060EE15E16502CCB9F
:10191000E9FF2DCBEAFF140EEA02F3CFEAFFE9025A
:10192000F3CFE9FFF450EA26C40EE926030EEA22BB
:101930000A0EE926000EEA22EECF10FDEDCF11FDD2
:101940002CCBE9FF2DCBEAFF140EEA02F3CFEAFF1E
:10195000E902F3CFE9FFF450EA26C40EE926030EAC
:10196000EA220C0EE926000EEA22EECF0AFDEECFA7
:101970000BFDEECF0CFDEFCF0DFD0D010A2B0B2360
:101980000C230D231A511825166E1B511921176EA1
:1019900016501025146E17501121156E145012197F
:1019A000426F15501319436F0B01120E2B6F0D016F
:1019B000060E3F6F2CCBC2FD2DCBC3FD0D01020ED9
:1019C000D880C257000EC357140EC303F3CFC3FD14
:1019D000C203F3CFC2FDF450C3270D01010EC16F46
:1019E0000B012C250D01BF6F000E0B012D210D01E8
:1019F000C06F140EC003F3CFC0FDBF03F3CFBFFD14
:101A0000F450C027C40EBF27030EC0230D01010EE2
:101A1000BE6F140E086E096A2CCB0DF02DCB0EF0A4
:101A2000F5EC58F006C0BCFD07C0BDFDC40E0D01AD
:101A3000BC27030EBD2307EC20F00301FC6BFD6BFC
:101A400005D00B012C2B000E2D23F9D60B012B51A9
:101A50000AE0295102E0000E01D0010E0D01AB6F2A
:101A60002BCBAAFDC7DA0D0140B94ED0070E3F5D62
:101A70004AE130EC58F00D013751065C146E3851D4
:101A80000758156E39510858166E3A510958176E95
:101A90000001800E171401E065D10D014051070BC4
:101AA000060815E14051080B01E0010E0B012B6FF8
:101AB00028CB50FD96EC02F028CB50FD96EC02F0BE
:101AC0000B012B5103E10D010E0E3F6F4BD18DEC3D
:101AD00000F00D01020EAB6F0D01100EAA6F8ADA35
:101AE00030EC58F006C037FD07C038FD08C039FD9E
:101AF00009C03AFD740E0D013727350E3823060E46
:101B00003923000E3A232ED130EC58F00D01375115
:101B1000065C146E38510758156E39510858166E08
:101B20003A510958176E0001800E171401E01AD1BE
:101B30008DEC00F00D013F510C0A01E1B2D0060A14
:101B400001E1A0D0030A01E197D0010A01E185D0AB
:101B50000F0A74E00C0A72E00D0A5BE0030A46E02B
:101B6000060A14E0010A01E0ABD03BEC58F006C0D5
:101B70003BFD07C03CFD0401180E486F0D0E496F78
:101B80000FEC4CF00D01030E3F6F9AD004011C0EB8
:101B90004C6F0D0E4D6F0401180E4A6F0D0E4B6FFA
:101BA00053EC4CF000091AE13BEC58F00D013B51AD
:101BB000065C146E3C510758156E1450025D1550AA
:101BC00003590BE2060E275D06E2272BD890023759
:101BD000033704370537020E3F6F72D00B01020E38
:101BE0002B6F296B0D01050E3F6F6AD00B01020EA2
:101BF0002B6F010E296F040E0D01275D09E3040E02
:101C0000276F200E026FEF0E036F090E046F056B36
:101C100057D0020E275D06E20B01120E2B6F010E4C
:101C2000296F0BD040A706D00B01140E2B6F010EAD
:101C30002A6F03D00B01020E2B6F42D0050E275DD9
:101C400006E20B01100E2B6F010E296F05D0080E56
:101C50003F6F0B01110E2B6F33D0050E275D06E28F
:101C60000B01110E2B6F010E296F05D00B01140E05
:101C70002B6F010E2A6F24D00B01140E2B6F010E57
:101C80002A6F1ED0050E275D06E20B01100E2B6F8A
:101C9000010E296F05D00B01140E2B6F010E2A6F58
:101CA0000FD0050E275D06E20B01110E2B6F010E02
:101CB000296F05D00B01140E2B6F010E2A6F00D077
:101CC0000B012B514AE0295142E00D01272BD890FE
:101CD000023703370437053731510E5D0B012C6F86
:101CE0000D0132510F590B012D6F0D0131510E5D58
:101CF00032510F590BE229512B5D146E2C512A558C
:101D0000156E14500B012C2715502D232CCB14F0DD
:101D10002DCB15F0166A176A14500D01065F155089
:101D2000075B1650085B1750095B0B012C510D0126
:101D300014270B012D510D01152331CD0EFD32CD90
:101D40000FFD0D01AB6B2BCBAAFD54D906D00D01B5
:101D5000010EAB6F2BCBAAFD4DD90B012A5102E02E
:101D600050EC16F00B01282BF7D42C6B2D6B030EC7
:101D70002C5D000E2D5901E399D02CCBE9FF2DCB22
:101D8000EAFF140EEA02F3CFEAFFE902F3CFE9FF1C
:101D9000F450EA26C40EE926030EEA22100EE926C4
:101DA000000EEA22EE50ED1001E180D02CCBE9FFCD
:101DB0002DCBEAFF140EEA02F3CFEAFFE902F3CFDC
:101DC000E9FFF450EA26C40EE926030EEA22120EB9
:101DD000E926000EEA22EECF16F0EFCF17F016C07C
:101DE000E6FF17C0E6FF3BEC58F0E552E7CF17F0EF
:101DF000E552E7CF16F01650065C146E17500758E0
:101E0000156EDC0ED8801454010E15544AE22CCB0A
:101E1000C2FD2DCBC3FD0D01020ED880C257000EAE
:101E2000C357140EC303F3CFC3FDC203F3CFC2FDE8
:101E3000F450C3270D01010EC16F0B012C250D01BC
:101E4000BF6F000E0B012D210D01C06F140EC003DA
:101E5000F3CFC0FDBF03F3CFBFFDF450C027C40EC6
:101E6000BF27030EC0230D01010EBE6F140E086EB6
:101E7000096A2CCB0DF02DCB0EF0F5EC58F006C016
:101E8000BCFD07C0BDFDC40E0D01BC27030EBD2364
:101E900007EC20F00301FC6BFD6B0B012C07000E1F
:101EA0002D5B0B012C2B000E2D2361D71200A4CD2E
:101EB000E9FFA5CDEAFFEECF3CFBEECF3DFBEECF39
:101EC0003EFBEFCF3FFBA6CDE9FFA7CDEAFFEECF6C
:101ED00040FBEECF41FBEECF42FBEFCF43FB0B01CC
:101EE000446B060E456FA8CD46FBA9CD47FB46CBFC
:101EF00018F447CB19F43AEC44F0F3CF46FBF4CF97
:101F000047FB0C0E0401206F216B04013C0E1E6F79
:101F10000B0E1F6F61EC44F0F3CF48FBF4CF49FB8D
:101F20000B01481F491FA8CDE5F2A9CDE6F272ECDE
:101F30003EF0F3CF4AFBF4CF4BFB0B014A5148195B
:101F400002E14B51491904E05BEC3CF0010E51D029
:101F50000F01596B5A6BE7EC52F0140E0201EF6F50
:101F6000F06B0201280EED6F0B0EEE6FDCEC3FF014
:101F70000D01280EB06F0B0EB16F75EC15F00B0153
:101F80003451F00BE842E842E842E842040DF350D5
:101F9000146E156A140E145E000E155A14C04CFB14
:101FA0004C51146E156A14500D01A85DA86F1550A0
:101FB000A959A96F140EA85F000EA95BA4CDAEFDB0
:101FC000A5CDAFFD0D01280EAC6F0B0EAD6FE3DAA2
:101FD00000090BE0A8CDB4FDA9CDB5FD0D01280E7B
:101FE000B26F0B0EB36F19EC17F05BEC3CF0010E07
:101FF00000D012008DEC00F00D01AAA102D04187A3
:10200000AA91409B409D409F4193419541913EEC58
:102010003CF0000901E1FBD7060E0D01AA1504E012
:102020000B01266B276BFBD00E512F1902E10F51CC
:10203000301904E10B01266B276BD9D02F510E5DAF
:1020400030510F593FE20E512F5D0B01266F0D01EC
:102050000F5130590B01276F26510D01145D0B01F3
:1020600027510D01155904E214CD26FB15CD27FB90
:102070000B0126510D01255D0B0127510D0126593C
:1020800005E225CD26FB26CD27FB418526CBC2FDCB
:1020900027CBC3FD44CDC1FD0ECDBFFD0FCDC0FD8F
:1020A0000D01BE6B0D01050EBC6F0B0EBD6F07EC75
:1020B00020F00B0126510D010E270B0127510D01B8
:1020C0000F2395D00E512B5D0B01246F0D010F5185
:1020D0002C590B01256F24510D012F25146E0B0176
:1020E00025510D013021156E2951145C0B01266F0D
:1020F0000D012A5115580B01276F26510D01145D52
:102100000B0127510D01155904E214CD26FB15CD05
:1021100027FB0B0126510D01255D0B0127510D01F8
:10212000265905E225CD26FB26CD27FB41850B014F
:102130002451265D2551275904E226CB24FB27CBC9
:1021400025FB24CBC2FD25CBC3FD44CDC1FD0ECD67
:10215000BFFD0FCDC0FD0D01BE6B0D01050EBC6FA7
:102160000B0EBD6F07EC20F00B012451265D246F90
:1021700025512759256F2451251122E024CBC2FD7A
:1021800025CBC3FD44CDC1FD29CDBFFD2ACDC0FD6A
:102190000D01BE6B0D010E512B5D146E2C510F55B0
:1021A000156E166A176A050E14260B0E1522000E00
:1021B0001622172214C0BCFD15C0BDFD07EC20F08F
:1021C0000B0126510D010E270B0127510D010F2385
:1021D0002B510E5D2C510F590AE329512B5D146EC2
:1021E0002C512A55156E14500E5F15500F5B0D01C2
:1021F00041A715D014510B01261904E10D01155109
:102200000B0127190CE00D0125510B01261904E1E2
:102210000D0126510B01271902E00D01AA810B01C6
:102220002651271104E1030E0D01AA1529E00B0127
:1022300026510D01145F0B0127510D01155B0B0198
:102240002651271102E00D01AA870D01ABA107D08D
:10225000276BF20E026F9E0E036F046B056B30EC62
:1022600058F006500D010225376F07500321386FD3
:1022700008500421396F095005213A6F408938D040
:10228000ABA31BD0400EE96E0D0EEA6EEF50070BAC
:10229000E82AF36EF350070BF36EF46EF80EEF14AA
:1022A000F310EF6EF4500607000E075B085B095B46
:1022B000010E0B01266F276B1BD040A919D0ABB1C3
:1022C00008D0275106E02707D8900533043303339D
:1022D000023330EC58F006500D010225376F0750DD
:1022E0000321386F08500421396F095005213A6FD6
:1022F00012CD02FB13CD03FB10CD04FB11CD05FB6A
:1023000006CD06FB07CD07FB08CD08FB09CD09FB71
:102310000ACD0AFB0BCD0BFB0CCD0CFB0DCD0DFB41
:102320000B010F9D0F9F0E910E930E950E97AACD48
:102330000FFB146B156B26510D0106270B0127515E
:102340000D010723000E08230923AAA315D0AAB95B
:1023500005D00B010A6B0B6B0C6B0D6B0D0124A3ED
:1023600006D00B010607075B085B095B05D0062B4F
:1023700007230823092324830D01AAA10DD024A13A
:1023800006D00B010607075B085B095B05D0062B2F
:1023900007230823092324810D013551335D36516C
:1023A000345914E32B512D5D146E2E512C55156E9E
:1023B0003551335D166E34513655176E0B0116507C
:1023C000145C106F17501558116F0DD03351355DD7
:1023D0000B01106F0D01345136590B01116F010EB5
:1023E000105F000E115B91EC3CF0F3CF00FBF4CFDB
:1023F00001FB0B01400E005F000E015B800E01151A
:1024000002E0006B016B1051005D1151015904E2B3
:1024100000CB10FB01CB11FB0D01020EB06F0B0EB8
:10242000B16F63DB140E0B012627000E27230E89E4
:102430000E9B0E8D0E9F0D01AAA326D0040E0B013C
:102440002627000E2723020E166F040E176F020EAA
:10245000186F180E196F010E146E0E0EE96E0B0E2A
:10246000EA6EEF50F00BE842E842E842E8421424FA
:102470000F0BF36EF46EF346F346F346F3460F0E7E
:10248000EF14F310EF6EF45000C21AFB01C21BFBF5
:1024900002C21CFB03C21DFB18CD1EFB19CD1FFB86
:1024A0001ACD20FB1BCD21FB0B01226B060E236FE7
:1024B00026CB24FB27CB25FB24CB18F425CB19F402
:1024C0003AEC44F0F3CF24FBF4CF25FB0C0E0401CF
:1024D000206F216B04011A0E1E6F0B0E1F6F61EC33
:1024E00044F0F3CF12FBF4CF13FB0B01121F131FA9
:1024F0000201DD0EDD6F0A0EDE6F17EC3EF026CB1B
:1025000057FF27CB58FF0F01060E566F0F01180E0D
:10251000546F0D0E556F73EC52F0140E0201F46FF0
:10252000F56B0201020EF26F0B0EF36F14EC40F02C
:102530000D01AAA30BD0040E0201F46FF56B02018A
:10254000160EF26F0B0EF36F14EC40F00201F10E59
:10255000DF6F0A0EE06F25EC3EF026CBE5F227CBCD
:10256000E6F272EC3EF0F3CF00FBF4CF01FB020188
:10257000010EDD6F0B0EDE6F17EC3EF0020E020156
:10258000F46FF56B0201000EF26F0B0EF36F14EC9B
:1025900040F0C8EF3DF0ACCDE9FFADCDEAFF020E53
:1025A000E926000EEA22EE50ED1002E1000E9CD268
:1025B0000B01FE0E016FAECDE9FFAFCDEAFF020EBB
:1025C000E926000EEA22EECF18F0EFCF19F0AECDDB
:1025D000E9FFAFCDEAFF1850EE24166E1950EE2039
:1025E000176EACCDE9FFADCDEAFF1650EE24146EA8
:1025F0001750EE20156EACCDE9FFADCDEAFF020E0F
:10260000E926000EEA221450EE18026F1550EE185B
:10261000036F006B0051146E156A090E145C000EF6
:10262000155867E200CB45FD46EC00F00D0E0D019C
:102630003F5D02E15BD024D0040E3F5D16E1ACCDDE
:10264000E9FFADCDEAFF020EE926000EEA22EECF49
:1026500014F0EFCF15F01450421902E11550431950
:1026600002E100CB01FB42D00BD00B0102510D0166
:10267000421904E10B0103510D01431901E036D069
:102680008DEC00F0ACCDE9FFADCDEAFF020EE926FE
:10269000000EEA22EECF14F0EFCF15F00D0112512B
:1026A000141802E11351151821E1ACCDE9FFADCDAD
:1026B000EAFFEECF16F0EFCF17F01051161802E137
:1026C0001151171813E1AECDE9FFAFCDEAFFEE507F
:1026D000181909E1EE50191906E1EE501A1903E133
:1026E000EE501B1900E102E1010EFED10B01002B9F
:1026F00091D7FE0E015D39E001CB45FD46EC00F0BF
:102700008DEC00F0FE0E0B01015D2FE002CB42FDCF
:1027100003CB43FD0A0EE66EE66AAECDE6FFAFCD13
:10272000E6FF180EE66E0D0EE66E80EC54F0146EA9
:10273000060EE15E1450ACCDE9FFADCDEAFFEECF61
:1027400010FDEDCF11FDACCDE9FFADCDEAFF020EDE
:10275000E926000EEA22EECF12FDEDCF13FD29CDC2
:102760000EFD2ACD0FFD010EBFD1ACCDE9FFADCDE1
:10277000EAFF0D0EE926000EEA22EF50020B02E1FD
:10278000000EB2D10301FC51FD1102E0000EACD1EC
:102790000B01046B056B030E045D000E055901E38C
:1027A000BED004CBE9FF05CBEAFF140EEA02F3CF5B
:1027B000EAFFE902F3CFE9FFF450EA26C40EE92666
:1027C000030EEA22100EE926000EEA22EE50ED106A
:1027D00001E1A5D004CBE9FF05CBEAFF140EEA0224
:1027E000F3CFEAFFE902F3CFE9FFF450EA26C40E83
:1027F000E926030EEA22100EE926000EEA22EECFA9
:1028000014F0EFCF15F0ACCDE9FFADCDEAFF020E2D
:10281000E926000EEA22EECF16F0EFCF17F01650A1
:10282000141802E11750151801E074D004CBE9FF29
:1028300005CBEAFF140EEA02F3CFEAFFE902F3CF79
:10284000E9FFF450EA26C40EE926030EEA220A0E36
:10285000E926000EEA22EECF14F0EFCF15F0ACCD52
:10286000E9FFADCDEAFFEECF16F0EFCF17F016502F
:10287000141802E11750151801E04CD0AECDE9FF55
:10288000AFCDEAFFEECF14F0EECF15F0EECF16F09D
:10289000EFCF17F004CBE9FF05CBEAFF140EEA02F5
:1028A000F3CFEAFFE902F3CFE9FFF450EA26C40EC2
:1028B000E926030EEA22EE500001141809E1EE5059
:1028C000151806E1EE50161803E1EE50171800E156
:1028D00001E020D03BEC58F006C014F007C015F022
:1028E00004CBE9FF05CBEAFF140EEA02F3CFEAFFBF
:1028F000E902F3CFE9FFF450EA26C40EE926030EFD
:10290000EA22120EE926000EEA2214C0EEFF15C0DC
:10291000EDFFEAD00B01042B000E05233CD7006B22
:102920000051146E156A090E145C000E155801E36F
:10293000D9D000CB45FD46EC00F00D0140A7CFD02B
:102940008DEC00F0ACCDE9FFADCDEAFF020EE9263B
:10295000000EEA22EECF14F0EFCF15F014500D0167
:10296000121902E11550131901E0B9D00A0EE66EF2
:10297000E66AAECDE6FFAFCDE6FF04CBE9FF05CBBF
:10298000EAFF140EEA02F3CFEAFFE902F3CFE9FF10
:10299000F450EA26C40EE926030EEA22E9CF14F029
:1029A000EACF15F014C0E6FF15C0E6FF80EC54F046
:1029B000166E060EE15E1650ACCDE9FFADCDEAFF16
:1029C000EECF14F0EFCF15F004CBE9FF05CBEAFF13
:1029D000140EEA02F3CFEAFFE902F3CFE9FFF45065
:1029E000EA26C40EE926030EEA220A0EE926000EA4
:1029F000EA2214C0EEFF15C0EDFFACCDE9FFADCD6E
:102A0000EAFF040EE926000EEA22EECF14F0EECF24
:102A100015F0EECF16F0EFCF17F004CBE9FF05CBA2
:102A2000EAFF140EEA02F3CFEAFFE902F3CFE9FF6F
:102A3000F450EA26C40EE926030EEA220C0EE9261B
:102A4000000EEA2214C0EEFF15C0EEFF16C0EEFF26
:102A500017C0EEFFACCDE9FFADCDEAFF020EE926CF
:102A6000000EEA22EECF14F0EFCF15F004CBE9FF11
:102A700005CBEAFF140EEA02F3CFEAFFE902F3CF37
:102A8000E9FFF450EA26C40EE926030EEA22100EEE
:102A9000E926000EEA2214C0EEFF15C0EDFF3BEC64
:102AA00058F006C014F007C015F004CBE9FF05CBC1
:102AB000EAFF140EEA02F3CFEAFFE902F3CFE9FFDF
:102AC000F450EA26C40EE926030EEA22120EE92685
:102AD000000EEA2214C0EEFF15C0EDFF05D00B0179
:102AE000002B1ED7000E00D01200B0CDE9FFB1CDF3
:102AF000EAFFEECF18F4EDCF19F43AEC44F0F3CF3F
:102B000014F0F4CF15F0B0CDE9FFB1CDEAFF14C059
:102B1000EEFF15C0EDFFB0CDE9FFB1CDEAFF020E2B
:102B2000E926000EEA22EECF18F4EDCF19F43AECC4
:102B300044F0F3CF14F0F4CF15F0B0CDE9FFB1CDF0
:102B4000EAFF020E14C0EBFF030E15C0EBFFB0CD81
:102B5000E9FFB1CDEAFF040EE926000EEA22EECF2E
:102B60001AF4EECF1BF4EECF1CF4EFCF1DF44AECB9
:102B700044F006C014F007C015F008C016F009C0F4
:102B800017F0B0CDE9FFB1CDEAFF040EE926000E43
:102B9000EA2214C0EEFF15C0EEFF16C0EEFF17C00C
:102BA000EEFFB0CDE9FFB1CDEAFF080EE926000E39
:102BB000EA22EECF1AF4EECF1BF4EECF1CF4EFCFE7
:102BC0001DF44AEC44F006C014F007C015F008C02C
:102BD00016F009C017F0B0CDE9FFB1CDEAFF080E3D
:102BE000E926000EEA2214C0EEFF15C0EEFF16C063
:102BF000EEFF17C0EEFFB0CDE9FFB1CDEAFF0E0E3C
:102C0000E926000EEA22EECF18F4EDCF19F43AECE3
:102C100044F0F3CF14F0F4CF15F0B0CDE9FFB1CD0F
:102C2000EAFF0E0E14C0EBFF0F0E15C0EBFFB0CD88
:102C3000E9FFB1CDEAFF100EE926000EEA22EECF41
:102C400018F4EDCF19F43AEC44F0F3CF14F0F4CFCC
:102C500015F0B0CDE9FFB1CDEAFF100E14C0EBFFC7
:102C6000110E15C0EBFFB0CDE9FFB1CDEAFF120E9A
:102C7000E926000EEA22EECF18F4EDCF19F43AEC73
:102C800044F0F3CF14F0F4CF15F0B0CDE9FFB1CD9F
:102C9000EAFF120E14C0EBFF130E15C0EBFF12007B
:102CA0008DEC00F012CD42FD13CD43FD29CD2FFD5B
:102CB0002ACD30FD29CD31FD2ACD32FD2BCD33FD7E
:102CC0002CCD34FD2BCD35FD2CCD36FD0D014051E5
:102CD000080B02E0040E01D00D0E3F6F40914093AF
:102CE00040954099409B409D409F41914193419523
:102CF00041974189249124932497249929CD0EFD4D
:102D00002ACD0FFDB5EC40F0F3CF06FDF4CF07FD63
:102D1000B5EC40F0F3CF08FDF4CF09FD0D012269B9
:102D20002369010E146F156B12000C0E0F01596F01
:102D30005A6BE7EC52F0D9EC3FF00B01006FF00E4C
:102D40000015E840E8403F0B146E156A140E145E3F
:102D5000000E155A14C000FB005105E1180EF36E69
:102D6000020EF46E65D0070E0201EF6FF06B0201E8
:102D7000ED6BEE6BDCEC3FF00B010051000700093E
:102D800052E0D9EC3FF00B01016F015101E14BD052
:102D9000010501E1F1D7020E015D2CE1030E005D9A
:102DA00001E241D0026B036BD9EC3FF00B01016FE4
:102DB000040E015D08E1D9EC3FF00B01036FD9EC83
:102DC0003FF00B01026F180E025D020E035901E283
:102DD0002AD0B40ED8800255050E035506E2B40E73
:102DE000F36E050EF46E24D01DD002CBF3FF03CB9F
:102DF000F4FF1ED0020E005D01E215D0D9EC3FF0C9
:102E00000B01016F0151005D01E20DD00151020182
:102E1000EF6FF06B0201ED6BEE6BDCEC3FF00B0142
:102E20000151005FA9D7180EF36E020EF46E00D0A8
:102E30001200B2CDE9FFB3CDEAFF0D0EE926000E78
:102E4000EA22EFCF79FBB2CDE9FFB3CDEAFF080E5E
:102E5000E926000EEA22EECF7AFBEECF7BFBEECF27
:102E60007CFBEFCF7DFBB2CDE9FFB3CDEAFF040ED3
:102E7000E926000EEA22EECF7EFBEECF7FFBEECFFF
:102E800080FBEFCF81FB0D0140914093409540B90D
:102E900013D030EC58F006C037FD07C038FD08C02D
:102EA00039FD09C03AFD740E0D013727350E382360
:102EB000060E3923000E3A233F51050A48E0010A65
:102EC00008E0B4CD82FBB5CD83FB0B0179A1CFD057
:102ED000CBD00B0179A503D0E3DEDAEF1EF079A9A0
:102EE00012D07ACB06FD7BCB07FD7CCB08FD7DCBDA
:102EF00009FD0D01AB6B0D01040EAA6FFAEC0FF08A
:102F0000CFDEDAEF1EF079A31FD07ECB0AFD7FCB98
:102F10000BFD80CB0CFD81CB0DFD0D010A2B000EAE
:102F20000B230C230D2301DFF3CF25FDF4CF26FD6A
:102F30000D01010EAB6F0D01120EAA6FFAEC0FF02E
:102F40000D01060E3F6F01D0ABDEDAEF1EF00B0174
:102F500079A502D0DAEF1EF079A934D07A0EE96EA5
:102F60000B0EEA6EEE500D01061909E1EE5007193D
:102F700006E1EE50081903E1EE50091900E122E0E4
:102F800006CD7EFB07CD7FFB08CD80FB09CD81FB05
:102F90007ACB06FD7BCB07FD7CCB08FD7DCB09FD05
:102FA0000D01010EAB6F0D01040EAA6FFAEC0FF0CC
:102FB0007ECB06FD7FCB07FD80CB08FD81CB09FDD5
:102FC000DAEF1EF00B0179A34DD07ECB0AFD7FCB4B
:102FD0000BFD80CB0CFD81CB0DFD0D010A2B000EEE
:102FE0000B230C230D23B2CDE9FFB3CDEAFF0E0E68
:102FF000E926000EEA22EECF14FDEDCF15FD95DE99
:10300000F3CF25FDF4CF26FD0B0179A920D00D01CA
:10301000010EAB6F0D01100EAA6FFAEC0FF00D014F
:10302000070E3F6F30EC58F006C037FD07C038FD83
:1030300008C039FD09C03AFD740E0D013727350E61
:103040003823060E3923000E3A2340990BD00D0188
:10305000010EAB6F0D01120EAA6FFAEC0FF00D010D
:10306000060E3F6FDAEF1EF0822B000E832379A34A
:1030700003D0822B000E83230D013551335D365171
:10308000345914E32B512D5D146E2E512C55156EB1
:103090003551335D166E34513655176E0B0116508F
:1030A000145C776F17501558786F0DD03351355D1C
:1030B0000B01776F0D01345136590B01786F010EFA
:1030C000775F000E785B0A0EE96E0D0EEA6EEE5029
:1030D0007E5D716FEE507F59726FEE508059736F45
:1030E000EE508159746F71CB75FB72CB76FB846B9C
:1030F0008251831101E17BD07751781101E176D0C3
:10310000800E741512E177CB14F078CB15F0166AA7
:10311000176A1450715D1550725916507359175033
:10312000745903E2010E846F3DD082CB14F083CB3F
:1031300015F0166A176A710EE96E0B0EEA6EEE5004
:103140001426EE501522EE501622EE501722173498
:10315000000E171809E6D880000E1454000E1554FE
:10316000000E1654000E17541DE28251775D186E42
:1031700078518355196E1A6A1B6A19AE02D01A6803
:103180001B681B507419E8AE02D0743508D0715119
:10319000185C7251195873511A5874511B5802E334
:1031A000010E846F77CB14F078CB15F0166A176A8E
:1031B00074511718E8AE02D0173408D01450715D5E
:1031C0001550725916507359175074590FE27551B2
:1031D0008225186E76518321196E193404E2185035
:1031E0000008000E195402E2010E846F1CD07151C8
:1031F00072117311741103E1010E846F14D0800EEB
:10320000741511E177CB14F078CB15F0166A176AB4
:103210001450715D155072591650735917507459E6
:1032200002E2010E846F84510CE179B508D00D01E2
:10323000010EAB6F0D01100EAA6FFAEC0FF0DAEF72
:103240001EF0060E791503E02BDDDAEF1EF079B9DA
:1032500002D0DAEF1EF00D013F510C0A01E17ED2DF
:103260000B0A40E00F0A3EE0010A3CE0020A3AE0A5
:10327000010A38E00C0A01E086D27A0EE96E0B0EE4
:10328000EA6EEE50061909E1EE50071906E1EE501C
:10329000081903E1EE50091900E122E006CD7EFB9A
:1032A00007CD7FFB08CD80FB09CD81FB7ACB06FDE6
:1032B0007BCB07FD7CCB08FD7DCB09FD0D01010E0D
:1032C000AB6F0D01040EAA6FFAEC0FF07ECB06FD7A
:1032D0007FCB07FD80CB08FD81CB09FDDAEF1EF027
:1032E000070E3F6F0E512F5D0B016F6F0D010F51D8
:1032F00030590B01706F800E70150CE00D012951D3
:103300002B5D146E2C512A55156E14500B016F272E
:10331000155070236FCB14F070CB15F0166A176A36
:10332000060EE96E0D0EEA6EEE5014246B6FEE5031
:1033300015206C6FEE5016206D6FEE5017206E6FDB
:103340007A0EE96E0B0EEA6EEE506B5D146EEE5067
:103350006C59156EEE506D59166EEE506E59176E13
:103360000001800E171409E00D01AB6B0D01100E6A
:10337000AA6FFAEC0FF0DAEF1EF00D0131510E5D7D
:10338000146E0F513255156E166A176A15AE02D0BB
:1033900016681768060EE96E0D0EEA6E1450EE5CA4
:1033A0000B016B6F1550EE586C6F1650EE586D6F29
:1033B0001750EE586E6F0D0131510E5D32510F599D
:1033C00011E229512B5D146E2C512A55156E166A87
:1033D000176A14500B016B5F15506C5B16506D5BD8
:1033E00017506E5B6B0EE96E0B0EEA6EEE500B0122
:1033F0007A5D6B6FEE507B596C6FEE507C596D6F40
:10340000EE507D596E6F6E35000E6E1909E6D8804C
:10341000000E6B55000E6C55000E6D55000E6E556E
:1034200001E397D00D0129512B5D146E2C512A55C3
:10343000156E166A176A0B016B51145C6C511558A6
:103440006D5116586E51175801E283D00D01249723
:103450002499419131CD6FFB32CD70FB0B016B5143
:103460000D0131270B016C510D0132230B016F51FE
:103470000D010E5D0B0170510D010F591BE3315110
:103480000E5D32510F5915E20E51315D146E3251FD
:103490000F55156E000114500D010627000115503F
:1034A0000D010723000E0823092331CD0EFD32CD77
:1034B0000FFD2FD029512B5D146E2C512A55156EFE
:1034C0000E5114240B016F6F0D010F5115200B01CC
:1034D000706F0D0131510B016F5D0D0132510B0108
:1034E000705917E26F510D01315D146E32510B01AD
:1034F0007055156E000114500D010627000115507E
:103500000D010723000E0823092331CD0EFD32CD16
:103510000FFD0D012B51315D2C5132590AE3295118
:103520002B5D146E2C512A55156E1450315F1550B9
:10353000325B2B510E5D2C510F590AE329512B5D43
:10354000146E2C512A55156E14500E5F15500F5BDA
:103550003FD00D010E51311902E10F51321938E0FF
:1035600024A735D024A932D031510E5D146E0F51ED
:103570003255156E166A176A15AE02D016681768AE
:103580001450065F1550075B1650085B1750095B17
:1035900031510E5D32510F5914E229512B5D146ED9
:1035A0002C512A55156E166A176A15AE02D0166888
:1035B00017681450065F1550075B1650085B1750CC
:1035C000095B31CD0EFD32CD0FFD41852489248765
:1035D0002F51311902E1305132192FE141B715D085
:1035E00030EC58F006C037FD07C038FD08C039FD83
:1035F00009C03AFD740E0D013727350E3823060E2B
:103600003923000E3A23409918D0060EE96E0D0EAC
:10361000EA6EEE500B017A1909E1EE507B1906E1D2
:10362000EE507C1903E1EE507D1900E106E10D0139
:103630002451010B02E0409941977A0EE96E0B0E7E
:10364000EA6EEE500D01065D146EEE500759156ED0
:10365000EE500859166EEE500959176EB2CDE9FFBB
:10366000B3CDEAFF0E0EE926000EEA220B0114503C
:10367000EE5C856F1550EE58866F0D0114511511D3
:1036800006E10B018551861102E00D01418385CBD6
:1036900014FD86CB15FD080E0D013F5D2DE1060ED4
:1036A000E96E0D0EEA6EEE500B017A1909E1EE504B
:1036B0007B1906E1EE507C1903E1EE507D1900E123
:1036C0001AE10D012451010B16E030EC58F006C050
:1036D00037FD07C038FD08C039FD09C03AFDBA0EF4
:1036E0000D0137271A0E3823030E3923000E3A2313
:1036F0004089090E3F6F31D0090E3F5D16E10B0185
:1037000079B112D07ACB06FD7BCB07FD7CCB08FDCF
:103710007DCB09FD0D01AB6B0D01140EAA6FFAEC08
:103720000FF050EC16F046D318D00A0E3F5D15E1AD
:10373000060EE96E0D0EEA6EEE500B017A1909E1E4
:10374000EE507B1906E1EE507C1903E1EE507D1935
:1037500000E102E150EC16F02DD316D0060EE96E12
:103760000D0EEA6EEE500B017A1909E1EE507B194D
:1037700006E1EE507C1903E1EE507D1900E102E113
:1037800050EC16F017D300D00B0179BB13D30B0EFE
:103790000D013F5D01E10ED30A0E3F5D01E10AD349
:1037A0000C0E3F5D01E106D3B451B51101E14ED2DB
:1037B0000B01763504E275510008000E765501E2E2
:1037C000E8D0B2CDE9FFB3CDEAFF0C0EE926000E3A
:1037D000EA22EF50F00BE842E842E842E842040DEA
:1037E000F350146E156A7551145C0F01596F0B017B
:1037F000765115580F015A6FE7EC52F00B017551D5
:103800000D01B4270B0176510D01B523B4510B0105
:10381000775D0D01B5510B01785904E277CBB4FD0A
:1038200078CBB5FD0D01B4510A27B5510B23000E1D
:103830000C230D233351B425146E3451B521156E6C
:1038400014502D5D15502E5946E233512D5D0B015C
:103850006F6F0D0134512E590B01706F010E6F27E0
:10386000000E70236FCBC2FD70CBC3FD0D01C16B89
:103870000D01BF69C06944CDBEFD33CDBCFD34CD63
:10388000BDFDC5DB0B016F510D01B45D0D01C26FB4
:103890000B0170510D01B5590D01C36F0D01C16BC5
:1038A0000D01BF69C06944CDBEFD2BCDBCFD2CCD43
:1038B000BDFDADDB0B016F510D01B45D146EB55153
:1038C0000B017055156E0D012B511424336F2C51C3
:1038D0001520346F15D0B4CDC2FDB5CDC3FD0D019B
:1038E000C16B0D01BF69C06944CDBEFD33CDBCFDC8
:1038F00034CDBDFD8CDB0D01B4513327B5513423DC
:10390000221D01E1231D44E0B451225FB551235B28
:10391000165122250B016F6F0D01175123210B0149
:10392000706F800E701504E00D012269236930D09C
:103930000D01233504E222510008000E235528E32F
:103940000B016F510D010A270B0170510D010B2363
:10395000000E0C230D230B016F510D0133270B01BA
:1039600070510D01342333512D5D34512E590EE227
:103970002B512D5D146E2E512C55156E010E1426F3
:10398000000E15221450335F1550345B22692369F1
:103990005DD1763504E275510008000E765501E3DD
:1039A00055D10D01B4510B017525146E0D01B551A2
:1039B0000B017621156E1450775D1550785909E288
:1039C0007551775D0D01B46F0B01765178590D017A
:1039D000B56FB2CDE9FFB3CDEAFF0C0EE926000EBC
:1039E000EA22EF50F00BE842E842E842E842040DD8
:1039F000F3500F01596F5A6BE7EC52F00D01335140
:103A00000B017525166E0D0134510B017621176ED1
:103A100016500D01B425146E1750B521156E1450B3
:103A20002D5D15502E596EE233512D5D146E2E51C1
:103A30003455156E010E1426000E15220B0175511A
:103A4000145C6F6F76511558706F800E701531E1F0
:103A50006FCBC2FD70CBC3FD0D01C16B0D01BF6902
:103A6000C06944CDBEFD0D0133510B0175250D011B
:103A7000BC6F0D0134510B0176210D01BD6FC7DA0A
:103A80000B016F510D01B45D0D01C26F0B0170513F
:103A90000D01B5590D01C36F0D01C16B0D01BF695A
:103AA000C06944CDBEFD2BCDBCFD2CCDBDFDAFDA34
:103AB00028D0B4CDC2FDB5CDC3FD0D01C16B0D0144
:103AC000BF69C06944CDBEFD0D0133510B017525A1
:103AD000146E0D0134510B017621156E0D012B5121
:103AE0002D5D166E2E512C55176E010E1626000EEA
:103AF00017220D011650145CBC6F17501558BD6F7E
:103B000086DA18D0B4CDC2FDB5CDC3FD0D01C16BB1
:103B10000D01BF69C06944CDBEFD0D0133510B01DC
:103B200075250D01BC6F0D0134510B0176210D017E
:103B3000BD6F6DDA0D01221D01E1231D09E175CB79
:103B400022FD76CB23FDB4CD16FDB5CD17FD7ED07D
:103B500022510B01755D0D0123510B0176593DE298
:103B600075510D01B425146E0B0176510D01B5216F
:103B7000156E22511625166E23511721176E1450FB
:103B8000165C155017580FE30B0175510D01B42544
:103B9000186E0B0176510D01B521196E2251185C7A
:103BA0002351195805E2B4CD16FDB5CD17FD10D03F
:103BB00022511625146E23511721156E0B017551D4
:103BC000145C0D01166F0B01765115580D01176F1E
:103BD00075CB22FD76CB23FD39D075510D01B4256F
:103BE000146E0B0176510D01B521156E225116256B
:103BF000166E23511721176E1450165C1550175866
:103C000025E222511625146E23511721156E0B0142
:103C10007551145C7651155819E375510D01B42591
:103C2000186E0B0176510D01B521196E2251185CE9
:103C3000166E23511958176E1651165C146E1751D3
:103C40001758156E14501627155017230B01825163
:103C5000831124E0070E0D013F5D04E033CD35FDF7
:103C600034CD36FD40AF0BD00D01010EAB6F0D0111
:103C7000100EAA6FFAEC0FF08DEC00F00FD0408F11
:103C800040BD0CD0408D3BEC58F006C03DFD07C058
:103C90003EFD0F0E0D013D27000E3E230B0179A1C5
:103CA00089D00ACD14F00BCD15F00CCD16F00DCD4A
:103CB00017F0142A000E15221622172282CB18F0B4
:103CC00083CB19F01A6A1B6A7E0EE96E0B0EEA6E40
:103CD000EE501826EE501922EE501A22EE501B22FA
:103CE0001450181809E11550191806E116501A1841
:103CF00003E117501B1800E15DE10D010A2B000ED6
:103D00000B230C230D233F51090A41E0010A1EE059
:103D10000F0A0EE0010A01E044D00C0E3F6F0D01C6
:103D2000010EAB6F0D01110EAA6FFAEC0FF042D02D
:103D30000B0E3F6F3BEC58F006C03DFD07C03EFD4B
:103D40001F0E0D013D27000E3E232CD0060EE96EFE
:103D50000D0EEA6EEE500B017A1909E1EE507B1957
:103D600006E1EE507C1903E1EE507D1900E10BE114
:103D70000D01AB6B0D01100EAA6FFAEC0FF050ECB9
:103D800016F018D003D00D010A0E3F6F0BD00D01B5
:103D9000AB6B0D01100EAA6FFAEC0FF050EC16F0A1
:103DA00009D000D00D01010EAB6F0D01100EAA6FEE
:103DB000FAEC0FF01200B6CD45FD46EC00F00D0117
:103DC000B751B81103E1010EB76FB86B29512D5DE2
:103DD0000B01286F0D012A512E590B01296F010E7D
:103DE000285F000E295B0D01B751B925146EB8513B
:103DF000BA21156E0B011450285D1550295902E2A5
:103E0000000E04D18DEC00F0030E0D01BB1502E194
:103E1000030EBB13B9CD2CFBBACD2DFBB751B92581
:103E2000146EB851BA21156E14500B01285F15504D
:103E3000295B0D01BBA314D0BBA10DD028CB14F07E
:103E400029CB15F0D8901532143214500B012C27C1
:103E500015502D2305D00B0128512C2729512D2336
:103E60000D0129510B012C25286F0D012A510B0141
:103E70002D21296F010E2827000E292333CD2AFB7F
:103E800034CD2BFB0D01221D01E1231D22E0225127
:103E90001625146E23511721156E14500B012A2775
:103EA00015502B232A510D012D5D0B012B510D01B6
:103EB0002E590FE22B512D5D146E2E512C55156E7F
:103EC000010E1426000E152214500B012A5F155006
:103ED0002B5B0B012A510D01355D0B012B510D019F
:103EE000365917E20B0128510D01355D0B0129519F
:103EF0000D0136590DE2BBA503D0000E87D008D0C6
:103F000028CB35FD29CB36FD28CB33FD29CB34FD1D
:103F100026D035510B012A5D0D0136510B012B596D
:103F200016E228510D012B5D0B0129510D012C5971
:103F30000DE2BBA503D0000E69D008D028CB35FD1B
:103F400029CB36FD28CB33FD29CB34FD08D028CB37
:103F500035FD29CB36FD28CB33FD29CB34FD0D01B2
:103F600035510B012A5D0D0136510B012B5930E201
:103F7000040E0D01BB152CE02B510B012A5D0D0128
:103F8000C26F0D012C510B012B590D01C36F44CD94
:103F9000C1FD2BCDBFFD2CCDC0FD44CDBEFD28CB3A
:103FA000BCFD29CBBDFD33D80D013551335D3651F4
:103FB00034590EE20B0128510D012B5D146E2C516A
:103FC0000B012955156E14500D01335F1550345BEC
:103FD00028CB2BFD29CB2CFD29CD0EFD2ACD0FFDA5
:103FE00029CD31FD2ACD32FD29CD2FFD2ACD30FD41
:103FF000070E0D013F5D08E10D01010EAB6F0D01D4
:10400000100EAA6FFAEC0FF0010E00D012000D0195
:10401000C15131E0010A01E05DD0BE5116E0010A54
:1040200001E028D0C2CDE6FFC3CDE6FFBFCDE6FF5D
:10403000C0CDE6FFBCCDE6FFBDCDE6FF80EC54F081
:10404000146E060EE15E145015D0BC1D01E1BD1DBD
:1040500006E0BCCDDDF2BDCDDEF217EC3EF0C2CD08
:10406000F4F2C3CDF5F2BFCDF2F2C0CDF3F214EC11
:1040700040F000D02FD0BE5118E0010A01E029D055
:10408000BF1D01E1C01D06E0BFCDDFF2C0CDE0F2F3
:1040900025EC3EF0C2CDEFF2C3CDF0F2BCCDEDF297
:1040A000BDCDEEF2DCEC3FF014D0C2CDEBF2C3CDCF
:1040B000ECF2BFCDE9F2C0CDEAF2BCCDE7F2BDCD66
:1040C000E8F2FEEC3EF0D2EC3FF0000901E1FBD754
:1040D00000D000D012000D01C6511DE0010A01E020
:1040E0006FD0C9CDE6FFCACDE6FFC7CD14F0C8CD6D
:1040F00015F0166A14C0E6FF15C0E6FF16C0E6FF0D
:10410000C4CDE6FFC5CDE6FFABEC54F0176E070E4D
:10411000E15E175055D0C41D01E1C51D06E0C4CDB8
:10412000DDF2C5CDDEF217EC3EF0100E0B01106F84
:10413000116B0D01C951CA1142E00B0110510D0163
:10414000C95D0B0111510D01CA5904E2C9CD10FB23
:10415000CACD11FB10CBE6FF11CBE6FFC7CD14F0A3
:10416000C8CD15F0166A14C0E6FF15C0E6FF16C0EC
:10417000E6FF000EE66E0B0EE66EABEC54F0176E2B
:10418000070EE15E175010CBF4F211CBF5F20201ED
:10419000000EF26F0B0EF36F14EC40F00B01105198
:1041A0000D01C7270B0111510D01C8230B0110513F
:1041B0000D01C95F0B0111510D01CA5BBAD700D0C7
:0241C0001200EB
:0E41C2000B01010E006F00CB14F0156A166A97
:1041D000176AD880070E1454000E1554000E16549A
:1041E000000E175410E300510A0DF3CFE9FFF4CF8E
:1041F000EAFF600EE926000EEA22EE68EE68EE683D
:10420000EE68002BE1D791EC48F00001CB69CC6956
:10421000CD69CE69F4EC2BF00001B06B12000B01FC
:10422000176BCFC0E9FFD0C0EAFFEF5003E00001F9
:10423000B00502E1FF0E30D10B01016B026BCFC064
:1042400015FBD0C016FB15CBE9FF16CBEAFFEF50EC
:1042500016E015CBE9FF16CBEAFFEF50146E156A96
:104260001450012715500223010ED8900137023750
:10427000E806FBE10B01152B000E1623E4D7010E17
:10428000006F00CB14F0156A166A176AD880070E03
:104290001454000E1554000E1654000E175419E352
:1042A00000510A0DF3CFE9FFF4CFEAFF600EE926D3
:1042B000000EEA22E868EE1808E1E868EE1805E169
:1042C000E868EE1802E1E868EE1801E102D0002B80
:1042D000D8D700CB14F0156A166A176A070E14189F
:1042E00005E1155003E1165001E1175002E1FF0E00
:1042F000D3D0036B046B0001C9510B01035D0001B6
:10430000CA510B01045901E3C5D00351070B24E145
:10431000020E086E096A03CB0DF004CB0EF0F5EC2B
:1043200058F006C060F007C061F0080E0001602779
:10433000000E6123626B636B100E646F656B666BBE
:10434000676B0001DC6FDD6B0001050EDA6F0B0E91
:10435000DB6F0001D96B75DB070E0B010315E96EEE
:10436000EA6A010ED890E936EA36E806FBE1050E66
:10437000E9260B0EEA22EECF14F0EFCF15F00B0179
:104380000151141802E10251151801E07FD003CB4E
:10439000EDF004CBEEF0D0EC28F0B1C060F0B2C08C
:1043A00061F0B3C062F0B4C063F000016469656B92
:1043B000666B676BCFC015FBD0C016FB15CBE9FF52
:1043C00016CBEAFFEF5015E00001170ED76F0B0E6A
:1043D000D86F0001D66B4DDA15CBE9FF16CBEAFF9B
:1043E000EF500B01175D01E004D0152B000E1623D2
:1043F000E5D70001170ED76F0B0ED86F0001D66BF3
:1044000038DA0B01175142E115CBE9FF16CBEAFF71
:10441000EF503CE100510A0DF3CFE9FFF4CFEAFF82
:10442000600EE926000EEA22B5C0EEFFB6C0EEFF30
:10443000B7C0EEFFB8C0EEFF00510A0DF3CFE9FFA1
:10444000F4CFEAFF600EE926000EEA22040EE92608
:10445000000EEA22B9C0EEFFBAC0EEFFBBC0EEFF0D
:10446000BCC0EEFF00510A0DF3CFE9FFF4CFEAFF25
:10447000600EE926000EEA22080EE926000EEA2266
:1044800003CBEEFF04CBEDFF005106D0032B000E53
:10449000042331D7FF0E00D01200D1C0F6FFD2C0E6
:1044A000F7FF0800F55003E00001B00502E1FF0E40
:1044B00035D10B01016B026BD1C015FBD2C016FBCD
:1044C00015CBF6FF16CBF7FF0800F55017E015CB1C
:1044D000F6FF16CBF7FF0800F550146E156A14505E
:1044E000012715500223010ED89001370237E80644
:1044F000FBE10B01152B000E1623E2D7010E006F16
:1045000000CB14F0156A166A176AD880070E145487
:10451000000E1554000E1654000E175419E30051E6
:104520000A0DF3CFE9FFF4CFEAFF600EE926000E93
:10453000EA22E868EE1808E1E868EE1805E1E868A4
:10454000EE1802E1E868EE1801E102D0002BD8D79E
:1045500000CB14F0156A166A176A070E141805E1E5
:10456000155003E1165001E1175002E1FF0ED6D0BD
:10457000036B046B0001C9510B01035D0001CA51BB
:104580000B01045901E3C8D00351070B24E1020ECB
:10459000086E096A03CB0DF004CB0EF0F5EC58F071
:1045A00006C060F007C061F0080E00016027000E31
:1045B0006123626B636B100E646F656B666B676B78
:1045C0000001DC6FDD6B0001050EDA6F0B0EDB6F97
:1045D0000001D96B36DA070E0B010315E96EEA6AA2
:1045E000010ED890E936EA36E806FBE1050EE92629
:1045F0000B0EEA22EECF14F0EFCF15F00B010151B4
:10460000141802E10251151801E082D003CBEDF03D
:1046100004CBEEF0D0EC28F0B1C060F0B2C061F095
:10462000B3C062F0B4C063F000016469656B666B8F
:10463000676BD1C015FBD2C016FB15CBF6FF16CBAE
:10464000F7FF0800F55016E00001170ED76F0B0EAC
:10465000D86F0001D66B0DD915CBF6FF16CBF7FF3F
:104660000800F5500B01175D01E004D0152B000E7A
:104670001623E3D70001170ED76F0B0ED86F00017A
:10468000D66BF7D80B01175143E115CBF6FF16CBCC
:10469000F7FF0800F5503CE100510A0DF3CFE9FFA8
:1046A000F4CFEAFF600EE926000EEA22B5C0EEFF65
:1046B000B6C0EEFFB7C0EEFFB8C0EEFF00510A0D66
:1046C000F3CFE9FFF4CFEAFF600EE926000EEA22FD
:1046D000040EE926000EEA22B9C0EEFFBAC0EEFFD2
:1046E000BBC0EEFFBCC0EEFF00510A0DF3CFE9FFE7
:1046F000F4CFEAFF600EE926000EEA22080EE92652
:10470000000EEA2203CBEEFF04CBEDFF005106D0F2
:10471000032B000E04232ED7FF0E00D01200000141
:10472000B00505E0D351C95DD451CA5902E2FF0E6C
:104730007ED00B01010E006F00CB14F0156A166AD3
:10474000176AD880070E1454000E1554000E165424
:10475000000E175419E300510A0DF3CFE9FFF4CF0F
:10476000EAFF600EE926000EEA22E868EE1808E18A
:10477000E868EE1805E1E868EE1802E1E868EE186E
:1047800001E102D0002BD8D700CB14F0156A166ACD
:10479000176A070E141805E1155003E1165001E1E0
:1047A000175002E1FF0E43D0D3C0EDF0D4C0EEF0BD
:1047B000D0EC28F00B0100510A0DF3CFE9FFF4CF44
:1047C000EAFF600EE926000EEA22080EE926000E36
:1047D000EA22D3C0EEFFD4C0EDFF00510A0DF3CFA3
:1047E000E9FFF4CFEAFF600EE926000EEA22B5C029
:1047F000EEFFB6C0EEFFB7C0EEFFB8C0EEFF00514F
:104800000A0DF3CFE9FFF4CFEAFF600EE926000EB0
:10481000EA22040EE926000EEA22B9C0EEFFBAC071
:10482000EEFFBBC0EEFFBCC0EEFF005100D0120097
:104830000001D5511DE0D5C014F0156A166A176A3B
:10484000D880070E1454000E1554000E1654000E96
:1048500017540EE3D5510A0DF3CFE9FFF4CFEAFF69
:10486000600EE926000EEA22EE68EE68EE68EE6859
:104870001200D6C014F0156A166A176AD880070E9F
:104880001454000E1554000E1654000E175402E274
:10489000000ED6D00001D6510A0DF3CFE9FFF4CFB8
:1048A000EAFF600EE926000EEA22E868EE1808E149
:1048B000E868EE1805E1E868EE1802E1E868EE182D
:1048C0001BE0D6510A0DF3CFE9FFF4CFEAFF600EEB
:1048D000E926000EEA22040EE926000EEA22EECFB7
:1048E00014F0EECF15F0EECF16F0EFCF17F0145016
:1048F00015101610171002E1000EA2D0D751D811D2
:1049000023E1D6510A0DF3CFE9FFF4CFEAFF600EA1
:10491000E926000EEA22EE2A000EEE22EE22EE2218
:10492000D6510A0DF3CFE9FFF4CFEAFF600EE92676
:10493000000EEA22040EE926000EEA22EE06EE5AE6
:10494000EE5AEE5A010E7CD0CBC014F0CCC015F05C
:10495000CDC016F0CEC017F0142A000E1522162274
:104960001722D6510A0DF3CFE9FFF4CFEAFF600E0C
:10497000E926000EEA22EE50141809E1EE5015184F
:1049800006E1EE50161803E1EE50171800E11BE0A7
:10499000D6510A0DF3CFE9FFF4CFEAFF600EE92606
:1049A000000EEA22EECF5AFEEECF5BFEEECF5CFEAB
:1049B000EFCF5DFE890E0E015A27000E5B235C23AC
:1049C0005D239FEC48F0AFEC48F0D7C0E9FFD8C0BA
:1049D000EAFFEF6E0001D6510A0DF3CFE9FFF4CFE5
:1049E000EAFF600EE926000EEA22EECFCBF0EECF12
:1049F000CCF0EECFCDF0EFCFCEF0D6510A0DF3CF05
:104A0000E9FFF4CFEAFF600EE926000EEA22EE2A63
:104A1000000EEE22EE22EE22D6510A0DF3CFE9FF70
:104A2000F4CFEAFF600EE926000EEA22040EE92622
:104A3000000EEA22EE06EE5AEE5AEE5A010E00D0B1
:104A40001200D9C014F0156A166A176AD880070ECA
:104A50001454000E1554000E1654000E175403E2A1
:104A6000F36AF46AE7D0DCC014F0DDC015F0166A12
:104A7000176A0001D9510A0DF3CFE9FFF4CFEAFF1D
:104A8000600EE926000EEA22040EE926000EEA2254
:104A90001450EE5C1550EE581650EE581750EE5864
:104AA00012E2D9510A0DF3CFE9FFF4CFEAFF600E0D
:104AB000E926000EEA22040EE926000EEA22EECFD5
:104AC000DCF0EDCFDDF0D9510A0DF3CFE9FFF4CFE3
:104AD000EAFF600EE926000EEA22E868EE1808E117
:104AE000E868EE1805E1E868EE1802E1E868EE18FB
:104AF00003E0DC51DD1103E1F36AF46A9BD0DA5183
:104B0000DB1139E1DCC014F0DDC015F0166A176A5C
:104B1000D9510A0DF3CFE9FFF4CFEAFF600EE92681
:104B2000000EEA221450EE261550EE221650EE2208
:104B30001750EE22DCC014F0DDC015F0166A176ABB
:104B4000D9510A0DF3CFE9FFF4CFEAFF600EE92651
:104B5000000EEA22040EE926000EEA221450EE5E50
:104B60001550EE5A1650EE5A1750EE5ADCC0F3FFAD
:104B7000DDC0F4FF5FD0DCC064FEDAC062FEDBC0E3
:104B800063FED9510A0DF3CFE9FFF4CFEAFF600EBF
:104B9000E926000EEA22EECF5EFEEECF5FFEEECFFC
:104BA00060FEEFCF61FE890E0E015E27000E5F23CF
:104BB00060236123DFEC48F0DCC014F0DDC015F0A9
:104BC000166A176A0001D9510A0DF3CFE9FFF4CF35
:104BD000EAFF600EE926000EEA221450EE26155078
:104BE000EE221650EE221750EE22DCC014F0DDC08B
:104BF00015F0166A176AD9510A0DF3CFE9FFF4CF01
:104C0000EAFF600EE926000EEA22040EE926000EF5
:104C1000EA221450EE5E1550EE5A1650EE5A175016
:104C2000EE5ACB69CC69CD69CE69DCC0F3FFDDC03B
:104C3000F4FF00D01200040E0001DC6FDD6BDFC05A
:104C4000DAF0E0C0DBF0DEC0D9F0FBDEF3CF14F029
:104C5000F4CF15F0040E141801E1155002E0000E17
:104C600001D0010E00D01200E1C014F0156A166ADE
:104C7000176AD880070E1454000E1554000E1654EF
:104C8000000E175402E2000E82D10001E1510A0D1C
:104C9000F3CFE9FFF4CFEAFF600EE926000EEA2227
:104CA000E868EE1808E1E868EE1805E1E868EE1833
:104CB00002E1E868EE1802E1000E69D1E651010A4E
:104CC00001E110D1020A01E1B1D0010A6CE0020A4F
:104CD00002E0000E5CD1E1C0F2F084DB06C000FB14
:104CE00007C001FB08C002FB09C003FBE20EE96E2E
:104CF000000EEA6EEE500B01005DEE500159EE50D1
:104D00000259EE50035902E2000E41D1E1C0F4F025
:104D10008FEC2AF006500001E225146E0750E321C3
:104D2000156E0850E421166E0950E521176EE15109
:104D30000A0DF3CFE9FFF4CFEAFF600EE926000E7B
:104D4000EA2214C0EEFF15C0EEFF16C0EEFF17C03A
:104D5000EEFFE20EE96E000EEA6EEE500B01005D12
:104D6000146EEE500159156EEE500259166EEE504B
:104D70000359176E0001E1510A0DF3CFE9FFF4CF9B
:104D8000EAFF600EE926000EEA22040EE926000E74
:104D9000EA2214C0EEFF15C0EEFF16C0EEFF17C0EA
:104DA000EEFF010EF4D0E1510A0DF3CFE9FFF4CF8D
:104DB000EAFF600EE926000EEA22040EE926000E44
:104DC000EA22E251EE5CE351EE58E451EE58E5512F
:104DD000EE5802E2000EDBD0E1510A0DF3CFE9FFFD
:104DE000F4CFEAFF600EE926000EEA22E251EE2639
:104DF000E351EE22E451EE22E551EE22E1510A0D9B
:104E0000F3CFE9FFF4CFEAFF600EE926000EEA22B5
:104E1000040EE926000EEA22E251EE5EE351EE5A5C
:104E2000E451EE5AE551EE5A010EB1D0E1C0F4F072
:104E300076DB06C000FB07C001FB08C002FB09C00F
:104E400003FBE20EE96E000EEA6E0B010051EE2448
:104E5000146E0151EE20156E0251EE20166E0351B4
:104E6000EE20176E0001E1510A0DF3CFE9FFF4CFF8
:104E7000EAFF600EE926000EEA221450EE5C15509F
:104E8000EE581650EE581750EE5802E2000E7FD042
:104E9000E1510A0DF3CFE9FFF4CFEAFF600EE926F6
:104EA000000EEA22E251EE5EE351EE5AE451EE5A70
:104EB000E551EE5AE1510A0DF3CFE9FFF4CFEAFFD5
:104EC000600EE926000EEA22040EE926000EEA2210
:104ED000E251EE26E351EE22E451EE22E551EE22BC
:104EE000010E55D0E1C0F2F07DDA06C000FB07C02C
:104EF00001FB08C002FB09C003FBE20EE96E000ED5
:104F0000EA6EEE500B01005DEE500159EE50025971
:104F1000EE50035902E2000E3AD0E1C0F5F04CDB4E
:104F20000001E251065C146EE3510758156EE4511E
:104F30000858166EE5510958176EE1510A0DF3CF66
:104F4000E9FFF4CFEAFF600EE926000EEA2214C062
:104F5000EEFF15C0EEFF16C0EEFF17C0EEFFE151E9
:104F60000A0DF3CFE9FFF4CFEAFF600EE926000E49
:104F7000EA22040EE926000EEA22E2C0EEFFE3C0B8
:104F8000EEFFE4C0EEFFE5C0EEFF010E00D0120020
:104F90000B01006B00CB14F0156A166A176A070E36
:104FA000145C000E1558000E1658000E175810E22B
:104FB00000510A0DF3CFE9FFF4CFEAFF600EE926B6
:104FC000000EEA22EE68EE68EE68EE68002BE2D78B
:104FD0000001010EB06F606B616B626B636B68699F
:104FE0006969400E146E156A166A176A60C018F077
:104FF000196A1A6A1B6A890E1826000E19221A22CB
:105000001B223F0E1816196A1A6A1B6A1850145C84
:10501000646F19501558656F1A501658666F1B50FB
:105020001758676F60C065FE61C066FE62C067FEAC
:1050300063C068FE890E0E016527000E6623672394
:10504000682351EC49F0000902E1000E02D0FF0E86
:1050500000D012000B01006B016B0001EA510B0143
:10506000005D0001EB510B01015901E385D0000106
:10507000E8510B010025E96E0001E9510B01012106
:10508000EA6EEFCF69FE63EC49F00001E7510A0DCB
:10509000F3CFE9FFF4CFEAFF600EE926000EEA2223
:1050A000EE2A000EEE22EE22EE22E7510A0DF3CF99
:1050B000E9FFF4CFEAFF600EE926000EEA22040EB3
:1050C000E926000EEA22EE06EE5AEE5AEE5AE751B3
:1050D0000A0DF3CFE9FFF4CFEAFF600EE926000ED8
:1050E000EA22040EE926000EEA22EECF14F0EECFFB
:1050F00015F0EECF16F0EFCF17F014501510161074
:10510000171035E10001EC6B3DD80001010EB06FC6
:10511000E7510A0DF3CFE9FFF4CFEAFF600EE9266D
:10512000000EEA22EECF65FEEECF66FEEECF67FE02
:10513000EFCF68FE890E0E016527000E66236723F8
:10514000682351EC49F00001E7510A0DF3CFE9FF64
:10515000F4CFEAFF600EE926000EEA22040EE926EB
:10516000000EEA22400EEE6EEE6AEE6AEE6A0B0167
:10517000002B000E012371D700CBF3FF01CBF4FF0E
:1051800000D012000001B06BD2EC49F00AEC4AF0FA
:10519000000901E0FBD70001EC5101E025DB120022
:1051A0000001C751ED1902E1C851EE1905E0C951DE
:1051B000ED5DCA51EE5901E335D0160E646F656B93
:1051C000666B676BC9C014F0CAC015F0010ED890A9
:1051D00014361536E806FBE1080E1426000E1522DB
:1051E000160E086E096AEDC00DF0EEC00EF0F5EC7B
:1051F00058F0145006240001606F15500720616FAD
:10520000626B636B160E0001DC6FDD6B0001B10E8B
:10521000DA6F000EDB6F0001D96B13DCEDC0C7F055
:10522000EEC0C8F01200EFC014F0156A166A176AD3
:10523000D880070E1454000E1554000E1654000E9C
:10524000175405E2066A076A086A096A38D000013D
:10525000EF510A0DF3CFE9FFF4CFEAFF600EE92624
:10526000000EEA22E868EE1808E1E868EE1805E1A9
:10527000E868EE1802E1E868EE1805E1066A076AD8
:10528000086A096A1CD0EF510A0DF3CFE9FFF4CF89
:10529000EAFF600EE926000EEA22080EE926000E5B
:1052A000EA22EECFEDF0EDCFEEF07ADFBDC006F0F2
:1052B000BEC007F0BFC008F0C0C009F000D01200A7
:1052C000F0C014F0156A166A176AD880070E1454D5
:1052D000000E1554000E1654000E175405E2066A0F
:1052E000076A086A096A38D00001F0510A0DF3CF45
:1052F000E9FFF4CFEAFF600EE926000EEA22E86833
:10530000EE1808E1E868EE1805E1E868EE1802E139
:10531000E868EE1805E1066A076A086A096A1CD09F
:10532000F0510A0DF3CFE9FFF4CFEAFF600EE92652
:10533000000EEA22080EE926000EEA22EECFEDF07A
:10534000EDCFEEF02DDFC1C006F0C2C007F0C3C044
:1053500008F0C4C009F000D01200F1C014F0156AC2
:10536000166A176AD880070E1454000E1554000EE2
:105370001654000E175403E2F36AF46A32D00001A7
:10538000F1510A0DF3CFE9FFF4CFEAFF600EE926F1
:10539000000EEA22E868EE1808E1E868EE1805E178
:1053A000E868EE1802E1E868EE1803E1F36AF46ACF
:1053B00018D0F1510A0DF3CFE9FFF4CFEAFF600EE8
:1053C000E926000EEA22080EE926000EEA22EECFB8
:1053D000EDF0EDCFEEF0E4DEC5C0F3FFC6C0F4FFA4
:1053E00000D01200F2C014F0156A166A176AD8804D
:1053F000070E1454000E1554000E1654000E1754C8
:1054000005E2066A076A086A096A38D00001F251A3
:105410000A0DF3CFE9FFF4CFEAFF600EE926000E94
:10542000EA22E868EE1808E1E868EE1805E1E868A5
:10543000EE1802E1E868EE1805E1066A076A086AF4
:10544000096A1CD0F2510A0DF3CFE9FFF4CFEAFF4D
:10545000600EE926000EEA22080EE926000EEA2276
:10546000EECFEDF0EDCFEEF09BDEB9C006F0BAC0A6
:1054700007F0BBC008F0BCC009F000D01200F3C0B8
:1054800014F0156A166A176AD880070E1454000EB5
:105490001554000E1654000E175405E2066A076AEA
:1054A000086A096A3BD00001F3510A0DF3CFE9FF06
:1054B000F4CFEAFF600EE926000EEA22E868EE1853
:1054C00008E1E868EE1805E1E868EE1802E1E8682E
:1054D000EE1805E1066A076A086A096A1FD0F351E7
:1054E0000A0DF3CFE9FFF4CFEAFF600EE926000EC4
:1054F000EA22040EE926000EEA22EECF14F0EECFE7
:1055000015F0EECF16F0EFCF17F014C006F015C06F
:1055100007F016C008F017C009F000D01200F4C060
:1055200014F0156A166A176AD880070E1454000E14
:105530001554000E1654000E175405E2066A076A49
:10554000086A096A38D00001F4510A0DF3CFE9FF67
:10555000F4CFEAFF600EE926000EEA22E868EE18B2
:1055600008E1E868EE1805E1E868EE1802E1E8688D
:10557000EE1805E106680768086809681CD0F45150
:105580000A0DF3CFE9FFF4CFEAFF600EE926000E23
:10559000EA22080EE926000EEA22EECFEDF0EDCF6A
:1055A000EEF0FEDDB5C006F0B6C007F0B7C008F0FB
:1055B000B8C009F000D01200F5C014F0156A166AE0
:1055C000176AD880070E1454000E1554000E165496
:1055D000000E175405E2066807680868096849D094
:1055E0000001F5510A0DF3CFE9FFF4CFEAFF600E99
:1055F000E926000EEA22E868EE1808E1E868EE18ED
:1056000005E1E868EE1802E1E868EE1805E10668D1
:105610000768086809682DD0F5510A0DF3CFE9FF36
:10562000F4CFEAFF600EE926000EEA22080EE92612
:10563000000EEA22EECFEDF0EDCFEEF0B1DDB90EC7
:10564000E96E000EEA6E0001B551EE24146EB651FB
:10565000EE20156EB751EE20166EB851EE20176E83
:1056600014C006F015C007F016C008F017C009F006
:1056700000D01200F6C014F0156A166A176AD880B6
:10568000070E1454000E1554000E1654000E175435
:1056900002E2000E4FD00001F6510A0DF3CFE9FFF0
:1056A000F4CFEAFF600EE926000EEA22E868EE1861
:1056B00008E1E868EE1805E1E868EE1802E1E8683C
:1056C000EE1802E1000E36D0F6510A0DF3CFE9FFD5
:1056D000F4CFEAFF600EE926000EEA22080EE92662
:1056E000000EEA22EECFEDF0EDCFEEF059DDB1C0C5
:1056F00000FBB2C001FBB3C002FBB4C003FB00CB94
:1057000060F001CB61F002CB62F003CB63F00001EB
:105710006469656B666B676BF9C0DCF0FAC0DDF03D
:10572000F7C0DAF0F8C0DBF00001D96B21EC25F00E
:10573000010E00D012000001FB510A0DF3CFE9FF6A
:10574000F4CFEAFF600EE926000EEA22EECF18F051
:10575000EECF19F0EECF1AF0EFCF1BF018C0E6FF36
:1057600019C0E6FF1AC0E6FF1BC0E6FFFBC0F4F05D
:10577000D6DEE552E7CF1BF0E552E7CF1AF0E5524F
:10578000E7CF19F0E552E7CF18F00650185C146E19
:1057900007501958156E08501A58166E09501B58A4
:1057A000176E14C006F015C007F016C008F017C039
:1057B00009F000D012000001FC510A0DF3CFE9FFFF
:1057C000F4CFEAFF600EE926000EEA22080EE92671
:1057D000000EEA22EECF14F0EFCF15F014C0F3FF65
:1057E00015C0F4FF00D012000001606B616B626BAA
:1057F000636B080E646F656B666B676B060E00016A
:10580000DC6FDD6B0001B10EDA6F000EDB6F0001A3
:10581000D96B21EC25F0060EE66EE66ABD0E146E1D
:10582000A60E156E166A14C0E6FF15C0E6FF16C078
:10583000E6FFB10EE66E000EE66E61EC54F0176EF8
:10584000070EE15E175000090EE1020E0001DC6F49
:10585000DD6B0001C90EDA6F000EDB6F0001D96B42
:1058600021EC25F003D00001C96BCA6B0001C769A8
:04587000C8691200F1
:0C5874000B01006B016B050E005D000EC7
:1058800001591EE20F0E086E096A00CB0DF001CB24
:105890000EF0F5EC58F006C002FB07C003FB000E4B
:1058A0000B0102270F0E032302CBE9FF03CBEAFF14
:1058B000020EE926000EEA22EF6A002B0123DDD753
:1058C00012000B01000E106F0F0E116F0E01020E71
:1058D000001901E1015102E0FE0E52D00B01126BE2
:1058E000050E125D4BE210CBE9FF11CBEAFF020E71
:1058F000EB50000901E03BD010CBE9FF11CBEAFFF0
:1059000002CEEEFF03CEEDFF0E016E0E021901E195
:10591000035113E1110E041901E105510EE110CB01
:10592000E9FF11CBEAFF020EE926000EEA22010E82
:10593000EF6E0B01125124D01AD0640E021901E14E
:10594000035113E1060E041901E105510EE110CBDC
:10595000E9FF11CBEAFF020EE926000EEA22010E52
:10596000EF6E0B0112510CD002D0FE0E09D00B01CC
:10597000122B0F0E1027000E1123B2D7FE0E00D0EF
:105980001200050E0E01065D03E3F368F46887D08C
:1059900006510F0DF3CF10FBF4CF11FB000E0B01DE
:1059A00010270F0E112310CBE9FF11CBEAFF020ED7
:1059B000EB50010803E0F368F46871D00E01100E9B
:1059C000095D000E0A5903E2F368F46868D007CE57
:1059D00012FB08CE13FB12CBE9FF13CBEAFF020E3A
:1059E000E926000EEA22EECF14FBEDCF15FB0B01EA
:1059F0001451151111E10F015DCF14FB5ECF15FBA2
:105A00005D2B000E5E23880ED8805D55130E5E550B
:105A100003E25D6B040E5E6F10CBE9FF11CBEAFF72
:105A20006E0EEE1801E1ED5023E103019A6B9B6BC2
:105A30000301986B996B14CB96F315CB97F3CEECCF
:105A400036F0E66E10CBE9FF11CBEAFF0E0EE92629
:105A5000000EEA22E552E750EF6E10CBE9FF11CBC2
:105A6000EAFF0E0EEB50FF0803E1F368F46817D06D
:105A700010CBE9FF11CBEAFF030E14CBEBFF040EB2
:105A800015CBEBFF10CBE9FF11CBEAFF020EE926A5
:105A9000000EEA22020EEF6EF36AF46A00D01200E2
:105AA000050E0E010B5D03E3F368F46832D10B5170
