:020000040000FA
:0600000041EF7EF012004A
:020006001200E6
:06000800DFEF63F01200BF
:02000E000004EC
:04001000A300000049
:03001400000000E9
:0100170000E8
:0600180082EF63F012000C
:02001E000C00D4
:10002000170000007703000001000000A3FE00009D
:1000300075030000020000009FFE00006D03000039
:10004000040000009DFE0000730300000200000099
:100050009BFE0000710300000200000097FE0000FC
:10006000690300000400000095FE0000FE0200008D
:1000700002000000B8FD000000020000DD000000EA
:10008000C5FC0000000D0000F3000000140000009B
:100090005D0F000003000000BDFC0000F800000040
:1000A00008000000B4FC0000560300000900000036
:1000B000D9CFE6FFE1CFD9FFFE0EDB500301715D22
:1000C00001E141D0FE0E715D1BE01C0EE66EE66A9A
:1000D000290EE66E0F0EE66E71511C0DF3CF14F073
:1000E000F4CF15F0000E1426010E152214C0E6FF01
:1000F00015C0E6FFECEC78F0166E060EE15E1650C9
:10010000FE0EDBCF71F3DB50FE0801E11CD01C0EAC
:10011000E66EE66AFE0EDB501C0DF3CF14F0F4CF52
:1001200015F0000E1426010E152214C0E6FF15C0AE
:10013000E6FF290EE66E0F0EE66EECEC78F0166E1A
:10014000060EE15E1650E552E7CFD9FF120003011B
:100150007151725D01E156D0FE0E725D35E0270EE1
:10016000E66EE66A010EE66E020EE66E0F0EE66EB3
:1001700072511C0DF3CFE9FFF4CFEAFF000EE92620
:10018000010EEA221B0EE926000EEA22EF50E66E6F
:1001900072511C0DF3CFE9FFF4CFEAFF000EE92600
:1001A000010EEA22EECF14F0EFCF15F0270E145E09
:1001B000000E155A14C0E6FF15C0E6FF42EC2CF005
:1001C000166E080EE15E165071C372F3270EE66ECE
:1001D000E66A44CFE6FF29CF14F02ACF15F0145E6B
:1001E000000E155A14C0E6FF15C0E6FF010EE66EBC
:1001F000020EE66E0F0EE66E42EC2CF0166E080E46
:10020000E15E16501200D9CFE6FFE1CFD9FF0B0E09
:10021000E126C00EF36E090EF3CFDBFF100EF36E76
:100220000A0EF3CFDBFF0F01005101110FE176EC55
:100230003CF006C000FF07C001FFFF0E0F010017D2
:10024000070E0117000E0027040E01233C0EE66E78
:10025000E66AE66A9E0EE66E000EE66E3AEC79F00D
:10026000146E050EE15E1450010EDB6ADF6ADF508A
:10027000146E156A090E145C000E155801E33ED188
:10028000DFCFE6FF15DFE552D40E146EFB0E156EC0
:10029000000E166EDFCF17F0186A196A060E0C6E84
:1002A0000D6A0E6A17C007F018C008F019C009F0EF
:1002B0000EEC7DF004C017F005C018F006C019F070
:1002C00014501724F36E15501820F46E1650192090
:1002D000F86EF4CFF7FFF3CFF6FFF62A000EF72201
:1002E000F8220800080EF5CFDBFFD40E146EFB0ECB
:1002F000156E000E166EDFCF17F0186A196A060E1B
:100300000C6E0D6A0E6A17C007F018C008F019C00D
:1003100009F00EEC7DF004C017F005C018F006C01F
:1003200019F014501724F36E15501820F46E16505F
:100330001920F86EF4CFF7FFF3CFF6FF020EF62682
:10034000000EF722F8220900020EF5CFDBFF0A00AB
:10035000030EF5CFDBFFD40E146EFB0E156E000EF0
:10036000166EDFCF17F0186A196A060E0C6E0D6A4A
:100370000E6A17C007F018C008F019C009F00EEC9B
:100380007DF004C017F005C018F006C019F0145035
:100390001724F36E15501820F46E16501920F86EBD
:1003A000F4CFF7FFF3CFF6FF040EF626000EF72288
:1003B000F8220900040EF5CFDBFF0A00050EF5CF89
:1003C000DBFF080EDB5001E098D0090EDBCF08F010
:1003D0000A0EDBCF09F0060E08C0DBFF070E09C0CE
:1003E000DBFF020EDBCF16F0030EDBCF17F0270E7C
:1003F0001626000E1722010E1626000E1722040ED6
:10040000DB501624146E050EDB501720156E010EFE
:100410001426000E1522D950090FE96EDACFEAFF33
:100420001450EE261550ED22090EDBCF14F00A0E03
:10043000DBCF15F0166A176AD880FC0E14541F0E15
:100440001554000E1654000E175401E2EDD7080E95
:10045000DBCF44FF060EDBCF29FF070EDBCF2AFFE1
:10046000270E0F012927000E2A23020EDB50292513
:100470002B6F030EDB502A212C6F010E2B27000E51
:100480002C23040EDB502B252D6F050EDB502C2169
:100490002E6F0D0E3F6F40975ADED40E146EFB0E7A
:1004A000156E000E166EDFCF17F0186A196A060E69
:1004B0000C6E0D6A0E6A17C007F018C008F019C05C
:1004C00009F00EEC7DF004C017F005C018F006C06E
:1004D00019F014501724F36E15501820F46E1650AE
:1004E0001920F86EF4CFF7FFF3CFF6FF0800F5CF31
:1004F00028FFB2EC1FF0DF2ABAD6FFD70B0EE15C63
:1005000002E2E16AE552E16EE552E7CFD9FF12005F
:10051000D9CFE6FFE1CFD9FFE652DF6ADF50146E94
:10052000156A090E145C000E155801E3D1D0DFCF17
:10053000E6FFBEDDE5520D0E0F013F5D01E0C6D0C6
:1005400006DEF70EDB500F01285D01E0BFD0180E6C
:10055000256F020E266FFA0EDB5010E1F80EDBCF8E
:1005600012FFF90EDBCF13FF4087040E3F6FF80E2A
:10057000DBCF42FFF90EDBCF43FFA6D0000E005DBC
:10058000040E015906E3880ED8800055130E01555C
:1005900003E2006B040E016F00CF12FF01CF13FFC7
:1005A000002B000E0123F80EDBCF10FFF90EDBCF7E
:1005B00011FFEDEC7BF006C037FF07C038FF08C025
:1005C00039FF09C03AFF0F014089FA0EDB50040AD7
:1005D00034E0070A01E078D0FB0EDBCF18F0FC0E08
:1005E000DBCF19F0FD0EDB501824166EFE0EDB502B
:1005F0001920176EF80EDB501624146EF90EDB501E
:100600001720156E14501219426F15501319436FAD
:10061000FB0EDBCF18FFFC0EDBCF19FFFD0EDBCF8F
:100620001AFFFE0EDBCF1BFF276B270E026F036B3B
:10063000046B056B020E3F6F47D0FB0EDBCFE9FF6B
:10064000FC0EDBCFEAFF020EE926000EEA22EECF17
:1006500018F0EFCF19F0FB0EDBCFE9FFFC0EDBCF7C
:10066000EAFF1850EE24166E1950EE20176EF80EA1
:10067000DB501624146EF90EDB501720156E145043
:100680001219426F15501319436F0A0EE66EE66A8F
:10069000FB0EDBCFE6FFFC0EDBCFE6FF180EE66EAF
:1006A0000F0EE66EECEC78F0146E060EE15E145060
:1006B0000F01050E3F6F010EE66E020EE66EA2EC14
:1006C00017F0E552E55200D0DF5004D0DF2A26D7DC
:1006D000FE0E00D0E552E552E7CFD9FF1200D9CF88
:1006E000E6FFE1CFD9FFFE0EDBCFE6FFE1DCE5520E
:1006F0000F0141A903D04199010E02D0000E00D094
:10070000E552E7CFD9FF1200D9CFE6FFE1CFD9FFFD
:10071000FE0EDBCFE6FFCCDCE552070E0F013F5D9E
:1007200002E0000E01D0010E00D0E552E7CFD9FF64
:100730001200D9CFE6FFE1CFD9FFFE0EDBCFE6FFF7
:10074000B7DCE55233CF35FF34CF36FF0F013F51D1
:10075000080A47E0010A45E0050A43E0020A3EE0D4
:10076000050A26E00D0A0EE0010A0CE0070A07E080
:10077000020A05E0010A03E0060A01E032D0B2EC09
:100780001FF039D0010EE66E110EE66EA2EC17F0E6
:10079000E552E5520F011451151101E106D00E5139
:1007A0002F1902E10F513019EDE1080E3F6F23D0F0
:1007B000010EE66E110EE66EA2EC17F0E552E55260
:1007C0000F011451151101E106D00E512F1902E14C
:1007D0000F513019EDE10C0E3F6F0DD00D0E3F6F34
:1007E0000AD0E66A140EE66EA2EC17F0E552E55266
:1007F000B2EC1FF000D0E552E7CFD9FF1200D9CFFD
:10080000E6FFE1CFD9FFFE0EDBCFE6FF51DCE5527C
:100810000F014097FE0EDBCFE6FF8BDFE552E5527E
:10082000E7CFD9FF1200D9CFE6FFE1CFD9FFFE0E07
:10083000DBCFE6FF3DDCE5528ADC0A0EE66EE66AB7
:10084000180EE66E0F0EE66E450EE66E0F0EE66EA5
:10085000ECEC78F0146E060EE15E145010CF4FFFF2
:1008600011CF50FF450E146E0F0E156E14C0F3FF1E
:1008700015C0F4FF00D0E552E7CFD9FF1200D9CF61
:10088000E6FFE1CFD9FFFE0EDBCFE6FF11DCE5523C
:100890005EDC0F010E512F1902E10F51301908E0F3
:1008A000010EE66E100EE66EA2EC17F0E552E55270
:1008B000E552E7CFD9FF1200D9CFE6FFE1CFD9FF4C
:1008C000E652FE0EDBCFE6FF58EC00F0E5523FCFDC
:1008D000DFFF070EDF5C06E00B0EDF5C03E0F36A70
:1008E000F46A2FD00F0131512F5D325130591BE383
:1008F00029512B5D166E2C512A55176E1606000EC7
:10090000175A31512F5D186E30513255196E1850EB
:10091000165C146E19501758156E14C0F3FF15C0ED
:10092000F4FF0FD00ED02F51315D146E325130557F
:10093000156E1406000E155A14C0F3FF15C0F4FF0F
:1009400000D0E552E552E7CFD9FF1200D9CFE6FF3C
:10095000E1CFD9FF020EE126FE0EDBCFE6FF58EC19
:1009600000F0E552FE0EDBCFE6FFA6DFE552F3CF47
:10097000DEFFF4CFDDFFD9CFE9FFDACFEAFFEE509B
:10098000ED1003E1000E75D00ED0D9CFE9FFDACF1C
:10099000EAFF010EEE1801E1ED5005E1FE0EDBCF9E
:1009A000E6FF6DDFE5520F014151010B19E1DECF8A
:1009B00014F0DDCF15F029512B5D166E2C512A5500
:1009C000176ED890173216321450165C15501758FF
:1009D00007E3FE0EDBCFE6FF52DFE5520F01418158
:1009E000010EE66EE66AE66ED950FD0FE66EFF0E6A
:1009F000DA20E66E44CFE6FF2FCFE6FF30CFE6FFEA
:100A000042EC2CF0146E080EE15E14500F012F2BF7
:100A1000000E30232B512F5D2C51305904E329CF88
:100A20002FFF2ACF30FFD9CFE9FFDACFEAFF010E3F
:100A3000EE1801E1ED5006E1FE0EDBCFE6FF1FDF11
:100A4000E55215D040BB13D0408BF8EC7BF006C0CC
:100A500014F007C015F0166A176A060E1426000E69
:100A600015221622172214C03BFF15C03CFF010EB1
:100A700000D0146E020EE15C02E2E16AE552E16E22
:100A80001450E552E7CFD9FF1200D9CFE6FFE1CFEE
:100A9000D9FF060EE126040EDB6A050EDB6AFE0EA8
:100AA000DBCFE6FF58EC00F0E552FE0EDBCFE6FFB1
:100AB00003DFE552020EF3CFDBFF030EF4CFDBFFC3
:100AC000D950020FE96EDACFEAFFEE50ED1008E1DF
:100AD000FE0EDBCFE6FFD3DEE552F36AF46AEED01A
:100AE000020EDBCFDEFFDBCFDDFFDBCF14F0030E2A
:100AF000DBCF15F0FA0EDBCF16F0FB0EDBCF17F0D5
:100B00001450165C1550175805E2FA0EDBCFDEFFC5
:100B1000DBCFDDFF0F014151010B1BE1020EDBCFEB
:100B200014F0030EDBCF15F029512B5D166E2C51FE
:100B30002A55176ED890173216321450165C15507D
:100B4000175807E3FE0EDBCFE6FF99DEE5520F01F3
:100B50004181DE502F250001146EDD500F01302140
:100B60000001156E0F012B51145C2C51155848E3F0
:100B70002F512B5D146E2C513055156E040E14C080
:100B8000DBFF050E15C0DBFF040EDBCFE6FF050E15
:100B9000DBCFE6FF010EE66EFC0EDBCFE6FFFD0EBF
:100BA000DBCFE6FF44CFE6FF2FCFE6FF30CFE6FFF7
:100BB00042EC2CF0146E080EE15E1450040EDBCFF4
:100BC00014F0050EDBCF15F0D950FC0FE96EFF0EC7
:100BD000DA20EA6E1450EE261550ED22040EDBCF1B
:100BE00014F0050EDBCF15F0D9CFE9FFDACFEAFF1D
:100BF0001450EE5E1550ED5A29CF2FFF2ACF30FF4B
:100C0000DECFE6FFDDCFE6FF010EE66EFC0EDBCFAA
:100C1000E6FFFD0EDBCFE6FF44CFE6FF2FCFE6FF7A
:100C200030CFE6FF42EC2CF0146E080EE15E14505B
:100C3000D9CFE9FFDACFEAFFEE500F012F27EE50B0
:100C40003023020EDBCF14F0030EDBCF15F0FA0ECB
:100C5000DBCF16F0FB0EDBCF17F01450165C1550EF
:100C6000175806E3FE0EDBCFE6FF09DEE55215D08E
:100C700040BB13D0408BF8EC7BF006C014F007C0EB
:100C800015F0166A176A060E1426000E1522162293
:100C9000172214C03BFF15C03CFF040EDBCF16F03B
:100CA000050EDBCF17F0DE501624146EDD50172032
:100CB000156E14C0F3FF15C0F4FF00D0060EE15C02
:100CC00002E2E16AE552E16EE552E7CFD9FF120098
:100CD000D9CFE6FFE1CFD9FF060EE126040EDB6A8D
:100CE000050EDB6AFE0EDBCFE6FF58EC00F0E552A6
:100CF000FE0EDBCFE6FFE0DDE552020EF3CFDBFFB9
:100D0000030EF4CFDBFFD950020FE96EDACFEAFF12
:100D1000EE50ED1008E1FE0EDBCFE6FFB0DDE55250
:100D2000F36AF46AF3D00F014151010B1BE1020E8B
:100D3000DBCF14F0030EDBCF15F029512B5D166EBF
:100D40002C512A55176ED890173216321450165C53
:100D50001550175807E3FE0EDBCFE6FF90DDE55296
:100D60000F014181020EDBCFDEFFDBCFDDFFDBCFEA
:100D700014F0030EDBCF15F0F90EDBCF16F0FA0EF0
:100D8000DBCF17F01450165C1550175805E2F90E1A
:100D9000DBCFDEFFDBCFDDFFDE502F250001146E41
:100DA000DD500F0130210001156E0F012B51145C35
:100DB0002C5115584CE32F512B5D146E2C5130558E
:100DC000156E040E14C0DBFF050E15C0DBFF040E0C
:100DD000DBCFE6FF050EDBCFE6FFFB0EDBCFE6FF4A
:100DE000FC0EDBCFE6FFFD0EDBCFE6FF44CFE6FFD8
:100DF0002FCFE6FF30CFE6FFE7EC2CF0146E080EA5
:100E0000E15E1450040EDBCF14F0050EDBCF15F0BD
:100E1000166AD950FB0FE96EFF0EDA20EA6E145005
:100E2000EE261550EE221650EE22040EDBCF14F003
:100E3000050EDBCF15F0D9CFE9FFDACFEAFF14506A
:100E4000EE5E1550ED5A29CF2FFF2ACF30FFDECFAF
:100E5000E6FFDDCFE6FFFB0EDBCFE6FFFC0EDBCFD0
:100E6000E6FFFD0EDBCFE6FF44CFE6FF2FCFE6FF28
:100E700030CFE6FFE7EC2CF0146E080EE15E145064
:100E8000D9CFE9FFDACFEAFFEE500F012F27EE505E
:100E90003023020EDBCF14F0030EDBCF15F0F90E7A
:100EA000DBCF16F0FA0EDBCF17F01450165C15509E
:100EB000175806E3FE0EDBCFE6FFE1DCE55215D066
:100EC00040BB13D0408BF8EC7BF006C014F007C099
:100ED00015F0166A176A060E1426000E1522162241
:100EE000172214C03BFF15C03CFF040EDBCF16F0E9
:100EF000050EDBCF17F0DE501624146EDD501720E0
:100F0000156E14C0F3FF15C0F4FF00D0060EE15CAF
:100F100002E2E16AE552E16EE552E7CFD9FF120045
:100F2000D9CFE6FFE1CFD9FFFC0EDBCF16F0FD0EE7
:100F3000DBCF17F016C0E6FF17C0E6FFFC0EDBCFD5
:100F4000E6FFFD0EDBCFE6FF6DEC79F0E552E552F2
:100F5000F3CF18F0F4CF19F018C0E6FF19C0E6FF80
:100F6000FC0EDBCFE6FFFD0EDBCFE6FFFE0EDBCF98
:100F7000E6FF8BDD1A6E050EE15E1A50E552E7CFF3
:100F800017F0E552E7CF16F01650F324146E175001
:100F9000F420156E14C0F3FF15C0F4FF00D0E55225
:100FA000E7CFD9FF1200D9CFE6FFE1CFD9FFFB0E83
:100FB000DBCFE6FFFC0EDBCFE6FFFD0EDBCFE6FF6F
:100FC0007BEC79F0E552E552E55207C01AF008C013
:100FD0001BF01AC0E6FF1BC0E6FFFB0EDBCFE6FFEF
:100FE000FC0EDBCFE6FFFD0EDBCFE6FFFE0EDBCF18
:100FF000E6FF6EDE1C6E060EE15E1C50F3CF17F0AE
:10100000F4CF18F0196AD950FB0FE96EFF0EDA2001
:10101000EA6EEE501724146EEE501820156EEE5046
:101020001920166E14C007F015C008F016C009F09C
:1010300000D0E552E7CFD9FF1200D9CFE6FFE1CFCC
:10104000D9FF040EE126FE0EDBCFE6FF58EC00F0E0
:10105000E5520F0129512B5D146E2C512A55156E46
:101060001406000E155A020E14C0DBFF030E15C045
:10107000DBFFFE0EDBCFE6FF1FDCE552F3CFDEFF2A
:10108000F4CFDDFF020EDBCF16F0030EDBCF17F03F
:10109000DE50165C146EDD501758156E14C0F3FF49
:1010A00015C0F4FF040EE15C03E200D0E16AE552F2
:1010B000E16EE552E7CFD9FF1200D9CFE6FFE1CFCD
:1010C000D9FFFE0EDBCFE6FF1ED8E552F3CF14F0BA
:1010D000F4CF15F01450151012E0FE0EDBCFE6FF32
:1010E00058EC00F0E55233CF35FF34CF36FF010E18
:1010F000E66E100EE66EA2EC17F0E552E552E552F0
:10110000E7CFD9FF1200D9CFE6FFE1CFD9FFFE0E1E
:10111000DBCFE6FF58EC00F0E5520F013551335DAF
:10112000365134590CE33551335D146E3451365514
:10113000156E14C0F3FF15C0F4FF1CD01BD0355141
:101140002D5D166E2E513655176E010E1626000EA9
:1011500017222B51335D186E34512C55196E1650D1
:101160001824146E17501920156E14C0F3FF15C003
:10117000F4FF00D0E552E7CFD9FF1200D9CFE6FF48
:10118000E1CFD9FF020EE126FE0EDBCFE6FFBBDF8B
:10119000E552F3CFDEFFF4CFDDFFD9CFE9FFDACFA1
:1011A000EAFFEE50ED1002E1000E54D0FE0EDBCF50
:1011B000E6FF58EC00F0E552D950FC0FE96EFF0E47
:1011C000DA20EA6EEE50ED1016E0010EE66EE66AE9
:1011D00044CFE6FF35CFE6FF36CFE6FFE66EFC0EE6
:1011E000DBCFE6FFFD0EDBCFE6FF42EC2CF0146E0A
:1011F000080EE15E14500F01352B000E36233551D9
:101200002D5D36512E5904E22BCF35FF2CCF36FF02
:10121000D9CFE9FFDACFEAFF010EEE1801E1ED5078
:1012200002E1418515D040BB13D0408BF8EC7BF038
:1012300006C014F007C015F0166A176A1F0E1426B0
:10124000000E15221622172214C03BFF15C03CFFCA
:10125000010E00D0146E020EE15C02E2E16AE5527A
:10126000E16E1450E552E7CFD9FF1200D9CFE6FF67
:10127000E1CFD9FF040EE126020EDB6A030EDB6A22
:10128000FE0EDBCFE6FF3FDFE552F3CFDEFFF4CF0C
:10129000DDFFD9CFE9FFDACFEAFFEE50ED1003E131
:1012A000F36AF46AFFD0FE0EDBCFE6FF58EC00F0E5
:1012B000E552FA0EDBCF14F0FB0EDBCF15F0DECFDC
:1012C00016F0DDCF17F01450165C155017580AE2CF
:1012D000D9CFE9FFDACFEAFFFA0EEECFDBFFFB0E44
:1012E000EDCFDBFFFA0EDB500F0135250001146E48
:1012F000FB0EDB500F0136210001156E0F0114505B
:101300002D5D15502E5957E235512D5D146E2E511D
:101310003655156E010E1426000E1522020E14C04D
:10132000DBFF030E15C0DBFFD950FC0FE96EFF0E8B
:10133000DA20EA6EEE50ED102AE0020EDBCFE6FF77
:10134000030EDBCFE6FF44CFE6FF35CFE6FF36CF17
:10135000E6FF010EE66EFC0EDBCFE6FFFD0EDBCFF7
:10136000E6FF42EC2CF0146E080EE15E1450020E03
:10137000DBCF14F0030EDBCF15F0D950FC0FE96E74
:10138000FF0EDA20EA6E1450EE261550ED22020E02
:10139000DBCF14F0030EDBCF15F0D950FA0FE96E56
:1013A000FF0EDA20EA6E1450EE5E1550ED5A2BCF88
:1013B00035FF2CCF36FFD950FC0FE96EFF0EDA2037
:1013C000EA6EEE50ED101AE0FA0EDBCFE6FFFB0EF0
:1013D000DBCFE6FF44CFE6FF35CFE6FF36CFE6FFB3
:1013E000010EE66EFC0EDBCFE6FFFD0EDBCFE6FF67
:1013F00042EC2CF0146E080EE15E1450FA0EDBCFB6
:1014000008F0FB0EDBCF09F008500F01352709501B
:101410003623020EDBCF14F0030EDBCF15F0D950CC
:10142000FA0FE96EFF0EDA20EA6E1450EE26155020
:10143000ED22DECF16F0DDCF17F0FA0EDB50165C92
:10144000146EFB0EDB501758156EFA0EDBCF18F03A
:10145000FB0EDBCF19F01450185C1550195802E33D
:10146000418515D040BB13D0408BF8EC7BF006C013
:1014700014F007C015F0166A176A1F0E1426000E26
:1014800015221622172214C03BFF15C03CFFFA0E8E
:10149000DBCF14F0FB0EDBCF15F014C0F3FF15C04B
:1014A000F4FF00D0040EE15C02E2E16AE552E16E75
:1014B000E552E7CFD9FF1200D9CFE6FFE1CFD9FF40
:1014C000040EE126FE0EDBCFE6FF58EC00F0E552FD
:1014D0000F012B512D5D146E2E512C55156E020EE1
:1014E00014C0DBFF030E15C0DBFFFE0EDBCFE6FFF3
:1014F0000ADEE552F3CFDEFFF4CFDDFF020EDBCFD5
:1015000016F0030EDBCF17F0DE50165C146EDD50C4
:101510001758156E14C0F3FF15C0F4FF040EE15CFC
:1015200003E200D0E16AE552E16EE552E7CFD9FF70
:101530001200D9CFE6FFE1CFD9FF060EE126D95040
:10154000FA0FE96EFF0EDA20EA6EEE50ED1003E1BD
:10155000F36AF46AFDD0FE0EDBCFE6FF58EC00F034
:10156000E552FE0EDBCFE6FFCEDDE552020EF3CFF5
:10157000DBFF030EF4CFDBFFFA0EDBCF16F0FB0E22
:10158000DBCF17F0F80EDB501624146EF90EDB508B
:101590001720156E020EDBCF18F0030EDBCF19F00B
:1015A0001450185C1550195814E2020EDBCF16F0D7
:1015B000030EDBCF17F0F80EDB50165C146EF90E3D
:1015C000DB501758156EFA0E14C0DBFFFB0E15C06A
:1015D000DBFFF80EDB500F0135250001146EF90E0C
:1015E000DB500F0136210001156E14C0DEFF15C05F
:1015F000DDFFDECF14F0DDCF15F00F0114502D5DAF
:1016000015502E5912E22B512D5D146E2E512C5572
:10161000156E010E1426000E1522D9CFE9FFDACF80
:10162000EAFF1450EE5E1550ED5ADE502D5D146E3B
:10163000DD502E59156E010E1426000E1522040ED3
:1016400014C0DBFF050E15C0DBFFFA0EDBCF14F074
:10165000FB0EDBCF15F0040EDBCF16F0050EDBCF53
:1016600017F01450165C155017581BE3FA0EDBCF19
:10167000E6FFFB0EDBCFE6FF44CFE6FFDECFE6FF63
:10168000DDCFE6FF010EE66EFC0EDBCFE6FFFD0EC2
:10169000DBCFE6FF42EC2CF0146E080EE15E145036
:1016A0004CD0040EDBCFE6FF050EDBCFE6FF44CFC8
:1016B000E6FFDECFE6FFDDCFE6FF010EE66EFC0EB5
:1016C000DBCFE6FFFD0EDBCFE6FF42EC2CF0146E25
:1016D000080EE15E1450FA0EDBCF16F0FB0EDBCFE6
:1016E00017F0040EDB50165C146E050EDB50175815
:1016F000156E14C0E6FF15C0E6FF44CFE6FF2BCF02
:10170000E6FF2CCFE6FF010EE66E040EDBCF1AF0EB
:10171000050EDBCF1BF0FC0EDB501A24186EFD0EFD
:10172000DB501B20196E18C0E6FF19C0E6FF42EC23
:101730002CF01C6E080EE15E1C50FA0EDBCF14F08C
:10174000FB0EDBCF15F014C0F3FF15C0F4FF00D083
:10175000060EE15C02E2E16AE552E16EE552E7CF96
:10176000D9FF1200D9CFE6FFE1CFD9FFE652FC0E38
:10177000DBCFE6FFFD0EDBCFE6FF010EE66EE66A8D
:10178000D9CFE6FFDACFE6FFFE0EDBCFE6FFD1DEF4
:10179000146E070EE15E1450DF5000D0E552E552A2
:1017A000E7CFD9FF1200D9CFE6FFE1CFD9FF300E46
:1017B000E126D950FA0FE96EFF0EDA20EA6EEE50FC
:1017C000ED1003E1F36AF46AF2D2FE0EDBCFE6FF1E
:1017D00058EC00F0E552FE0EDBCFE6FF94DCE5525C
:1017E000F3CF16F0F4CF17F0F80EDB50165C146E42
:1017F000F90EDB501758156E020E14C0DBFF030EF6
:1018000015C0DBFF020EDBCF14F0030EDBCF15F0AB
:10181000FA0EDBCF16F0FB0EDBCF17F01650145C80
:101820001750155803E2F368F468C1D2D950F60F87
:10183000E96EFF0EDA20EA6EEE50ED101DE0020EAA
:10184000DBCF14F0030EDBCF15F0F60EDBCF16F076
:10185000F70EDBCF17F01450165C155017580CE23A
:10186000F60EDBCF08F0F70EDBCF09F0020E08C052
:10187000DBFF030E09C0DBFFF80EDB500F0135253F
:101880000001146EF90EDB500F0136210001156EB8
:10189000060E14C0DBFF070E15C0DBFF060EDBCF04
:1018A00014F0070EDBCF15F00F0114502D5D15500D
:1018B0002E5913E22B512D5D146E2E512C55156EA1
:1018C000010E1426000E1522D950060FE96EDACF4C
:1018D000EAFF1450EE5E1550ED5A060EDBCFDEFF28
:1018E000DBCFDDFFDB502D5D0001146E070EDB50FA
:1018F0000F012E590001156E010E1426000E15223F
:10190000040E14C0DBFF050E15C0DBFFF80EDBCFA5
:1019100008F0F90EDBCF09F0060E08C0DBFF070E5A
:1019200009C0DBFFFA0EDBCF08F0FB0EDBCF09F0BE
:10193000080E08C0DBFF090E09C0DBFFFC0EDBCF81
:1019400008F0FD0EDBCF09F00A0E08C0DBFF0B0E1E
:1019500009C0DBFFFC0EDBCFE9FFDB2AFD0EDBCF8E
:10196000EAFF01E3DB2A0D0EEFCFDBFF0F0EDB6A90
:10197000F50EDB5016E0610EF36E0D0EDBCFF4FFBB
:10198000F350F45C0EE30D0EDB507A080AE3E00E30
:10199000146E0D0EDBCFE7FF1450E7260D0EE7CFD8
:1019A000DBFF200EF36E0E0EF3CFDBFFDBCF14F068
:1019B000040EDBCF15F0050EDBCF16F01450155CCE
:1019C000000E165806E2040EDB50E76E0E0EE7CF4F
:1019D000DBFF0E0EDBCF14F0020EDBCF15F0030E93
:1019E000DBCF16F01450155C000E165806E2020EFE
:1019F000DB50E76E0E0EE7CFDBFF0E0EDBCFE6FF10
:101A0000E66A44CFE6FFDECFE6FFDDCFE6FF010E5C
:101A1000E66ED950100FE66E000EDA20E66E42EC4C
:101A20002CF0146E080EE15E14500E0EDB50DE2614
:101A3000000EDD220E0EDB50146E156AD950040F15
:101A4000E96EDACFEAFF1450EE5E1550ED5AD95028
:101A5000040FE96EDACFEAFFEE50ED1008E12BCF6C
:101A6000DEFF2CCFDDFF040EDB68050EDB68F50E14
:101A7000DB5001E1E5D00C0EDB6A0E0EDB50F36E9D
:101A80000C0EDBCFF4FFF350F45C01E3D8D0D95057
:101A9000100F156EDACF16F00C0EDB500F01152467
:101AA000E96E000E1620EA6EEFCF14F0610E145CA2
:101AB0001FE3D950100F176EDACF18F00C0EDB5061
:101AC0001724E96E000E1820EA6EEF507A0810E332
:101AD000E00E166ED950100F146EDACF15F00C0E02
:101AE000DB501424E96E000E1520EA6E1650EF2626
:101AF000D950100F146EDACF15F00C0EDB501424F1
:101B0000E96E000E1520EA6EEF50F36E0D0EDB50FD
:101B1000F35C53E1FA0EDB06DBCF14F0FB0E01E2BF
:101B2000DB06DBCF15F0145015101FE1060EDBCFDE
:101B300018F0070EDBCF19F0080EDB50185C166E9C
:101B4000090EDB501958176E0C0EDB5000011624DD
:101B5000146E000E1720156E010E1426000E1522AD
:101B600014C0F3FF15C0F4FF22D1FC0EDBCFE9FF58
:101B7000DB2AFD0EDBCFEAFF01E3DB2A0D0EEFCF00
:101B8000DBFF010EF36E0F0EF3CFDBFF610EF36E82
:101B90000D0EDBCFF4FFF350F45C0EE30D0EDB50C3
:101BA0007A080AE3E00E146E0D0EDBCFE7FF145047
:101BB000E7260D0EE7CFDBFF3FD0080EDBCF08F0A6
:101BC000090EDBCF09F0FA0E08C0DBFFFB0E09C0DF
:101BD000DBFF0F0EDB5030E00A0EDBCF08F00B0E00
:101BE000DBCF09F0FC0E08C0DBFFFD0E09C0DBFFF8
:101BF000FC0EDBCFE9FFDB2AFD0EDBCFEAFF01E3C2
:101C0000DB2A0D0EEFCFDBFF610EF36E0D0EDBCF87
:101C1000F4FFF350F45C0EE30D0EDB507A080AE398
:101C2000E00E146E0D0EDBCFE7FF1450E7260D0E0D
:101C3000E7CFDBFF0F0EDB6A0C0EDB2A1ED788D046
:101C40000C0EDB6A0E0EDB50F36E0C0EDBCFF4FFD6
:101C5000F350F45C01E37CD0D950100F146EDACF4E
:101C600015F00C0EDB500F011424E96E000E152048
:101C7000EA6EEF50F36E0D0EDB50F35C3DE1FA0EB1
:101C8000DB06DBCF14F0FB0E01E2DB06DBCF15F049
:101C9000145015101FE1060EDBCF18F0070EDBCF36
:101CA00019F0080EDB50185C166E090EDB5019583F
:101CB000176E0C0EDB5000011624146E000E172058
:101CC000156E010E1426000E152214C0F3FF15C068
:101CD000F4FF6DD0FC0EDBCFE9FFDB2AFD0EDBCF7E
:101CE000EAFF01E3DB2A0D0EEFCFDBFF010EF36EFF
:101CF0000F0EF3CFDBFF29D0080EDBCF08F0090E63
:101D0000DBCF09F0FA0E08C0DBFFFB0E09C0DBFFDA
:101D10000F0EDB501AE00A0EDBCF08F00B0EDBCF04
:101D200009F0FC0E08C0DBFFFD0E09C0DBFFFC0E56
:101D3000DBCFE9FFDB2AFD0EDBCFEAFF01E3DB2A85
:101D40000D0EEFCFDBFF0F0EDB6A0C0EDB2A7AD70E
:101D50000E0EDB50146E156AD950020FE96EDACF01
:101D6000EAFF1450EE5E1550ED5A020EDBCF14F070
:101D7000030EDBCF15F0FA0EDBCF16F0FB0EDBCF38
:101D800017F01650145C1750155803E2F368F46806
:101D90000ED00E0EDB50146E156AD950060FE96E88
:101DA000DACFEAFF1450EE261550ED22FAD5300EA8
:101DB000E15C02E2E16AE552E16EE552E7CFD9FF6C
:101DC0001200D9CFE6FFE1CFD9FF310EE126D9507D
:101DD000F90FE96EFF0EDA20EA6EEE50ED1003E126
:101DE000F36AF46A22D3FE0EDBCFE6FF58EC00F074
:101DF000E552FE0EDBCFE6FF83EC08F0E552F3CFB1
:101E000016F0F4CF17F0F70EDB50165C146EF80ED8
:101E1000DB501758156E020E14C0DBFF030E15C001
:101E2000DBFF020EDBCF14F0030EDBCF15F0F90E53
:101E3000DBCF16F0FA0EDBCF17F01650145C1750FC
:101E4000155803E2F368F468F0D2D950F50FE96E43
:101E5000FF0EDA20EA6EEE50ED101DE0020EDBCF31
:101E600014F0030EDBCF15F0F50EDBCF16F0F60EF7
:101E7000DBCF17F01450165C155017580CE2F50E16
:101E8000DBCF08F0F60EDBCF09F0020E08C0DBFF57
:101E9000030E09C0DBFFF70EDB500F0135250001F3
:101EA000146EF80EDB500F0136210001156E060E80
:101EB00014C0DBFF070E15C0DBFF060EDBCF14F0EE
:101EC000070EDBCF15F00F0114502D5D15502E5964
:101ED00013E22B512D5D146E2E512C55156E010EF3
:101EE0001426000E1522D950060FE96EDACFEAFF4C
:101EF0001450EE5E1550ED5A060EDBCFDEFFDBCF41
:101F0000DDFFDB502D5D0001146E070EDB500F016D
:101F10002E590001156E010E1426000E1522040E16
:101F200014C0DBFF050E15C0DBFFF70EDBCF08F09A
:101F3000F80EDBCF09F0060E08C0DBFF070E09C064
:101F4000DBFFF90EDBCF08F0FA0EDBCF09F0080E4D
:101F500008C0DBFF090E09C0DBFFD950FB0FE96E9B
:101F6000FF0EDA20EA6E0A0EEECFDBFF0B0EEECF8D
:101F7000DBFF0C0EEECFDBFFD950FB0FE96EFF0E3F
:101F8000DA20EA6EEFCFF6FFEE2AEFCFF7FF000E72
:101F9000EE22EFCFF8FFEE2208000E0EF5CFDBFFAA
:101FA000100EDB6AF40EDB5016E0610EF36E0E0EBF
:101FB000DBCFF4FFF350F45C0EE30E0EDB507A0837
:101FC0000AE3E00E146E0E0EDBCFE7FF1450E72697
:101FD0000E0EE7CFDBFF200EF36E0F0EF3CFDBFF0D
:101FE000DBCF14F0040EDBCF15F0050EDBCF16F0BF
:101FF0001450155C000E165806E2040EDB50E76E16
:102000000F0EE7CFDBFF0F0EDBCF14F0020EDBCF9E
:1020100015F0030EDBCF16F01450155C000E1658A9
:1020200006E2020EDB50E76E0F0EE7CFDBFF0F0E6E
:10203000DBCFE6FFE66A44CFE6FFDECFE6FFDDCF8B
:10204000E6FF010EE66ED950110FE66E000EDA20A3
:10205000E66E42EC2CF0146E080EE15E14500F0E8A
:10206000DB50DE26000EDD220F0EDB50146E156AEB
:10207000D950040FE96EDACFEAFF1450EE5E155026
:10208000ED5AD950040FE96EDACFEAFFEE50ED10A9
:1020900008E12BCFDEFF2CCFDDFF040EDB68050E41
:1020A000DB68F40EDB5001E1F7D00D0EDB6A0F0E9A
:1020B000DB50F36E0D0EDBCFF4FFF350F45C01E365
:1020C000EAD0D950110F156EDACF16F00D0EDB5095
:1020D0000F011524E96E000E1620EA6EEFCF14F002
:1020E000610E145C1FE3D950110F176EDACF18F090
:1020F0000D0EDB501724E96E000E1820EA6EEF502B
:102100007A0810E3E00E166ED950110F146EDACF74
:1021100015F00D0EDB501424E96E000E1520EA6E4A
:102120001650EF26D950110F146EDACF15F00D0EA0
:10213000DB501424E96E000E1520EA6EEF50F36EAA
:102140000E0EDB50F35C5BE1F90EDB06DBCF14F027
:10215000FA0E01E2DB06DBCF15F0145015101FE17B
:10216000060EDBCF18F0070EDBCF19F0080EDB50A0
:10217000185C166E090EDB501958176E0D0EDB50E9
:1021800000011624146E000E1720156E010E142681
:10219000000E152214C0F3FF15C0F4FF46D1D9502C
:1021A000FB0FE96EFF0EDA20EA6EEFCFF6FFEE2AA4
:1021B000EFCFF7FF000EEE22EFCFF8FFEE22080080
:1021C0000E0EF5CFDBFF010EF36E100EF3CFDBFF2B
:1021D000610EF36E0E0EDBCFF4FFF350F45C0EE3F2
:1021E0000E0EDB507A080AE3E00E146E0E0EDBCF03
:1021F000E7FF1450E7260E0EE7CFDBFF49D0080EAD
:10220000DBCF08F0090EDBCF09F0F90E08C0DBFFC9
:10221000FA0E09C0DBFF100EDB503AE0D9500A0F6E
:10222000E96EDACFEAFFFB0EEECFDBFFFC0EEECF5E
:10223000DBFFFD0EEECFDBFFD950FB0FE96EFF0E8B
:10224000DA20EA6EEFCFF6FFEE2AEFCFF7FF000EAF
:10225000EE22EFCFF8FFEE2208000E0EF5CFDBFFE7
:10226000610EF36E0E0EDBCFF4FFF350F45C0EE361
:102270000E0EDB507A080AE3E00E146E0E0EDBCF72
:10228000E7FF1450E7260E0EE7CFDBFF100EDB6AE8
:102290000D0EDB2A0CD79AD00D0EDB6A0F0EDB5029
:1022A000F36E0D0EDBCFF4FFF350F45C01E38ED040
:1022B000D950110F146EDACF15F00D0EDB500F014F
:1022C0001424E96E000E1520EA6EEF50F36E0E0E28
:1022D000DB50F35C45E1F90EDB06DBCF14F0FA0EC0
:1022E00001E2DB06DBCF15F0145015101FE1060EDE
:1022F000DBCF18F0070EDBCF19F0080EDB50185CAF
:10230000166E090EDB501958176E0D0EDB500001CA
:102310001624146E000E1720156E010E1426000EE2
:10232000152214C0F3FF15C0F4FF7FD0D950FB0F66
:10233000E96EFF0EDA20EA6EEFCFF6FFEE2AEFCF5E
:10234000F7FF000EEE22EFCFF8FFEE2208000E0E90
:10235000F5CFDBFF010EF36E100EF3CFDBFF33D0B2
:10236000080EDBCF08F0090EDBCF09F0F90E08C02C
:10237000DBFFFA0E09C0DBFF100EDB5024E0D95062
:102380000A0FE96EDACFEAFFFB0EEECFDBFFFC0EA1
:10239000EECFDBFFFD0EEECFDBFFD950FB0FE96E7A
:1023A000FF0EDA20EA6EEFCFF6FFEE2AEFCFF7FF4F
:1023B000000EEE22EFCFF8FFEE2208000E0EF5CF52
:1023C000DBFF100EDB6A0D0EDB2A68D70F0EDB5029
:1023D000146E156AD950020FE96EDACFEAFF145075
:1023E000EE5E1550ED5A020EDBCF14F0030EDBCF7C
:1023F00015F0F90EDBCF16F0FA0EDBCF17F0165002
:10240000145C1750155803E2F368F4680ED00F0EF1
:10241000DB50146E156AD950060FE96EDACFEAFF69
:102420001450EE261550ED22D6D5310EE15C02E2B5
:10243000E16AE552E16EE552E7CFD9FF1200D9CF4C
:10244000E6FFE1CFD9FFF80EDBCFE6FFF90EDBCFD9
:10245000E6FFFA0EDBCFE6FFFB0EDBCFE6FFFC0E5E
:10246000DBCFE6FF010EE66EE66AD950FD0FE66EA1
:10247000FF0EDA20E66EFE0EDBCFE6FFD3EC0BF0AC
:10248000146E0A0EE15E145000D0E552E7CFD9FF7A
:102490001200D9CFE6FFE1CFD9FF060EE126DF6AB1
:1024A000DF50146E156A090E145C000E155801E316
:1024B00077D3DFCFE6FF58EC00F0E552030EDB6A7E
:1024C000010EDB6A020EDB6A0F014151020B03E1D0
:1024D0004151040B12E0B9EC4BF000090EE0100E74
:1024E000F36E030EF3CFDBFF0F014151040B01E04C
:1024F000010EE76E010EE7CFDBFF0F0140AB15D0F9
:10250000F8EC7BF00F0106503B5D146E07503C5910
:10251000156E153404E214500008000E155405E33E
:10252000100EF36E030EF3CFDBFF40AD15D0F8ECC9
:102530007BF00F0106503D5D146E07503E59156E3D
:10254000153404E214500008000E155405E3100E73
:10255000F36E030EF3CFDBFF0B0E3F5D17E1F8ECDC
:102560007BF00F0106503D5D146E07503E59156E0D
:10257000153404E214500008000E155407E3110E40
:10258000F36E030EF3CFDBFF0C0E3F6F040E3F5DC7
:1025900001E02ED1040EDB6A050EDB6A040EDBCFF0
:1025A00014F0050EDBCF15F0030E145C000E155869
:1025B00001E31ED1040EDBCFE9FF050EDBCFEAFFFE
:1025C000140EEA02F3CFEAFFE902F3CFE9FFF45079
:1025D000EA269E0EE926000EEA22100EE926000EDB
:1025E000EA22EE50ED1001E103D1040EDBCFE9FF4A
:1025F000050EDBCFEAFF140EEA02F3CFEAFFE90291
:10260000F3CFE9FFF450EA269E0EE926000EEA22F7
:10261000100EE926000EEA22EECF14F0EFCF15F0EF
:102620004251141802E14351151801E0DBD0A7EC28
:1026300000F00A0EE66EE66A040EDBCFE9FF050E37
:10264000DBCFEAFF140EEA02F3CFEAFFE902F3CF91
:10265000E9FFF450EA269E0EE926000EEA22E9CFB1
:1026600014F0EACF15F014C0E6FF15C0E6FF180E0F
:10267000E66E0F0EE66EECEC78F0166E060EE15E7E
:102680001650040EDBCFE9FF050EDBCFEAFF140E78
:10269000EA02F3CFEAFFE902F3CFE9FFF450EA26BA
:1026A0009E0EE926000EEA220A0EE926000EEA2214
:1026B000EECF10FFEDCF11FF040EDBCFE9FF050ECB
:1026C000DBCFEAFF140EEA02F3CFEAFFE902F3CF11
:1026D000E9FFF450EA269E0EE926000EEA220C0ECF
:1026E000E926000EEA22EECF0AFFEECF0BFFEECF77
:1026F0000CFFEFCF0DFF0F010A2B0B230C230D2333
:102700001A511825166E1B511921176E16501025D7
:10271000146E17501121156E14501219426F155076
:102720001319436F120EF36E030EF3CFDBFF060E89
:102730003F6F040EDBCF14F0050EDBCF15F0020E59
:10274000D8801456000E1556140E1502F3CF15F04E
:102750001402F3CF14F0F450152614C0E6FF15C090
:10276000E6FF010EE66EE76E040EDBCF16F0050EF7
:10277000DBCF17F0E7501626000E1722140E1702B3
:10278000F3CF17F01602F3CF16F0F45017269E0E73
:102790001626000E172216C0E6FF17C0E6FF010E30
:1027A000E66E040EDBCF18F0050EDBCF19F0140E29
:1027B0001902F3CF19F01802F3CF18F0F4501926CC
:1027C0009E0E1826000E192218C0E6FF19C0E6FF5B
:1027D00042EC2CF01A6E080EE15E1A500001D66B26
:1027E000D76B06D0040EDB2A050E01E3DB2AD6D612
:1027F000030EDB500DE0010EDB5002E0000E01D0B5
:10280000010EE66E030EDBCFE6FF9CDBE552E552E0
:102810000F0140B952D0070E3F5D4EE1EDEC7BF069
:102820000F013751065C146E38510758156E395137
:102830000858166E3A510958176E0001800E171489
:1028400001E0ACD10F014051070B060819E14051DE
:10285000080B01E0010EE76E030EE7CFDBFFDFCFD1
:10286000E6FF99EC03F0E552DFCFE6FF99EC03F0C9
:10287000E552030EDB5003E10F010E0E3F6F8ED1C8
:10288000A7EC00F0020EE66E100EE66E5BDBE55282
:10289000E552EDEC7BF006C037FF07C038FF08C0FB
:1028A00039FF09C03AFF740E0F013727350E382360
:1028B000060E3923000E3A2371D1EDEC7BF00F01A7
:1028C0003751065C146E38510758156E3951085847
:1028D000166E3A510958176E0001800E171401E068
:1028E0005DD1A7EC00F00F013F510C0A01E1E0D0EF
:1028F000060A01E1C6D0030A01E1B8D0010A01E1EC
:102900009ED00F0A01E187D00C0A01E184D00D0AA4
:1029100063E0030A4CE0060A15E0010A01E0DFD09B
:10292000F8EC7BF006C03BFF07C03CFF180EE66EDC
:102930000F0EE66EADEC6BF0E552E5520F01030EA3
:102940003F6FCDD01C0EE66E0F0EE66E180EE66ED3
:102950000F0EE66E1AEC6CF0E552E552E552E552C8
:1029600000091AE1F8EC7BF00F013B51065C146E94
:102970003C510758156E1450025D155003590BE277
:10298000060E275D06E2272BD8900237033704375F
:102990000537020E3F6FA3D0020EF36E030EF3CF86
:1029A000DBFF010EDB6A0F01050E3F6F98D0020EB0
:1029B000F36E030EF3CFDBFFDE52010EDD6E040E6D
:1029C000275D09E3040E276F200E026FEF0E036FE1
:1029D000090E046F056B83D0020E275D09E2120E0B
:1029E000F36E030EF3CFDBFFDE52010EDD6E12D06D
:1029F00040A70BD0140EF36E030EF3CFDBFF010ED6
:102A0000F36E020EF3CFDBFF05D0020EF36E030E62
:102A1000F3CFDBFF64D0050E275D09E2100EF36EE5
:102A2000030EF3CFDBFFDE52010EDD6E07D0080E82
:102A30003F6F110EF36E030EF3CFDBFF50D0050E88
:102A4000275D09E2110EF36E030EF3CFDBFFDE52BA
:102A5000010EDD6E0AD0140EF36E030EF3CFDBFF12
:102A6000010EF36E020EF3CFDBFF39D0140EF36EBE
:102A7000030EF3CFDBFF010EF36E020EF3CFDBFF8D
:102A80002ED0050E275D09E2100EF36E030EF3CF74
:102A9000DBFFDE52010EDD6E0AD0140EF36E030E64
:102AA000F3CFDBFF010EF36E020EF3CFDBFF17D087
:102AB000050E275D09E2110EF36E030EF3CFDBFF67
:102AC000DE52010EDD6E0AD0140EF36E030EF3CF4C
:102AD000DBFF010EF36E020EF3CFDBFF00D0030E1F
:102AE000DB5057E0010EDB504CE0272BD89002372B
:102AF00003370437053731510E5D146E0F513255CF
:102B0000156E040E14C0DBFF050E15C0DBFF31513E
:102B10000E5D32510F590FE229512B5D146E2C516D
:102B20002A55156ED950040FE96EDACFEAFF14501A
:102B3000EE261550ED22040EDBCF14F0050EDBCF90
:102B400015F0166A176A1450065F1550075B165089
:102B5000085B1750095B040EDBCF08F0050EDBCFD6
:102B600009F0085014270950152331CF0EFF32CF3A
:102B70000FFFE66A030EDBCFE6FFE4D9E552E5522C
:102B800008D0010EE66E030EDBCFE6FFDBD9E5527F
:102B9000E552020EDB5002E0B2EC1FF0DF2A80D4D7
:102BA000040EDB6A050EDB6A040EDBCF14F0050EA3
:102BB000DBCF15F0030E145C000E155801E3B1D005
:102BC000040EDBCFE9FF050EDBCFEAFF140EEA02AD
:102BD000F3CFEAFFE902F3CFE9FFF450EA269E0EB5
:102BE000E926000EEA22100EE926000EEA22EE5037
:102BF000ED1001E196D0040EDBCFE9FF050EDBCF2F
:102C0000EAFF140EEA02F3CFEAFFE902F3CFE9FF8D
:102C1000F450EA269E0EE926000EEA22120EE9265C
:102C2000000EEA22EECF16F0EFCF17F016C0E6FF47
:102C300017C0E6FFF8EC7BF0E552E7CF17F0E5525E
:102C4000E7CF16F01650065C146E17500758156E35
:102C5000DC0ED8801454010E15545DE2040EDBCF57
:102C600014F0050EDBCF15F0020ED8801456000EBE
:102C70001556140E1502F3CF15F01402F3CF14F00D
:102C8000F450152614C0E6FF15C0E6FF010EE66EEF
:102C9000E76E040EDBCF16F0050EDBCF17F0E75022
:102CA0001626000E1722140E1702F3CF17F0160285
:102CB000F3CF16F0F45017269E0E1626000E17229C
:102CC00016C0E6FF17C0E6FF010EE66E040EDBCF6E
:102CD00018F0050EDBCF19F0140E1902F3CF19F01E
:102CE0001802F3CF18F0F45019269E0E1826000E85
:102CF000192218C0E6FF19C0E6FF42EC2CF01A6E4C
:102D0000080EE15E1A500001D66BD76B040EDB068D
:102D1000050E01E2DB06040EDB2A050E01E3DB2AC9
:102D200043D7060EE15C02E2E16AE552E16EE5524C
:102D3000E7CFD9FF1200D9CFE6FFE1CFD9FF250EAB
:102D4000E126FD0EDBCFE9FFFE0EDBCFEAFF140E1E
:102D5000EECFDBFF150EEECFDBFF160EEECFDBFF67
:102D6000170EEECFDBFFFB0EDBCFE9FFFC0EDBCF58
:102D7000EAFF180EEECFDBFF190EEECFDBFF1A0EC7
:102D8000EECFDBFF1B0EEECFDBFF1C0EDB6A060E69
:102D9000F36E1D0EF3CFDBFFF90EDBCF08F0FA0E5A
:102DA000DBCF09F01E0E08C0DBFF1F0E09C0DBFFE2
:102DB0001E0EDBCFE6FF1F0EDBCFE6FFAAEC41F0D5
:102DC000E552E5521E0EF3CFDBFF1F0EF4CFDBFF03
:102DD0000C0EE66EE66AD950140FE66E000EDA208D
:102DE000E66E27EC42F0E552E552E552E552F3CFAC
:102DF00014F0F4CF15F0141E151E200E14C0DBFFC6
:102E0000210E15C0DBFFF90EDBCFE6FFFA0EDBCF9C
:102E1000E6FFE5EC4EF0E552E552220EF3CFDBFF84
:102E2000230EF4CFDBFF200EDBCF14F0210EDBCF1F
:102E300015F0220EDB50141803E1230EDB50151899
:102E400004E0D6EC4BF0010E71D0000EE66EE66A9F
:102E500078EC72F0E552E552140EE66EE66AD9CFD0
:102E6000E6FFDACFE6FF29EC51F0E552E552E552F4
:102E7000E552D9CFE6FFDACFE6FF9AEC1EF0E55235
:102E8000E552D9500C0FE96EDACFEAFFEF50F00BA4
:102E9000E842E842E842E842040DF350146E156A35
:102EA000140E145E000E155A240E14C0DBFFDB5006
:102EB000166E176AF90EDBCF08F0FA0EDBCF09F0B9
:102EC0001650085C146E17500958156E140E145ED7
:102ED000000E155AF90E14C0DBFFFA0E15C0DBFF09
:102EE000FD0EDBCFE6FFFE0EDBCFE6FFD9CFE6FF20
:102EF000DACFE6FF8BEC1BF0E552E552E552E552E6
:102F0000000910E0F90EDBCFE6FFFA0EDBCFE6FF9B
:102F1000D9CFE6FFDACFE6FFAFEC20F0E552E5527D
:102F2000E552E552D6EC4BF0010E00D0146E250EA2
:102F3000E15C02E2E16AE552E16E1450E552E7CF4E
:102F4000D9FF1200D9CFE6FFE1CFD9FF280EE12645
:102F5000A7EC00F0FE0EDBA004D00F014187FE0EAF
:102F6000DB900F01409B409D409F419341954191D3
:102F7000B9EC4BF0000901E1FBD7FE0EDB50060B6C
:102F800005E0260EDB6A270EDB6A57D10F010E51D2
:102F90002F1902E10F51301905E1260EDB6A270EC9
:102FA000DB6A2FD12F510E5D30510F5952E20E5175
:102FB0002F5D146E30510F55156E260E14C0DBFFB9
:102FC000270E15C0DBFF260EDBCF14F0270EDBCF5C
:102FD00015F01450145D1550155906E2260E14CF45
:102FE000DBFF270E15CFDBFF260EDBCF14F0270EFD
:102FF000DBCF15F01450255D1550265907E2260E3B
:1030000025CFDBFF270E26CFDBFF4185260EDBCF4A
:10301000E6FF270EDBCFE6FF44CFE6FF0ECFE6FF4D
:103020000FCFE6FFE66A050EE66E0B0EE66E42EC8B
:103030002CF0146E080EE15E1450260EDBCF08F063
:10304000270EDBCF09F008500F010E2709500F2380
:10305000D8D00E512B5D146E2C510F55156E240EC9
:1030600014C0DBFF250E15C0DBFF240EDB502F251F
:103070000001166E250EDB500F0130210001176E86
:103080000F012951165C146E2A511758156E260E21
:1030900014C0DBFF270E15C0DBFF260EDBCF14F0BC
:1030A000270EDBCF15F01450145D1550155906E2AC
:1030B000260E14CFDBFF270E15CFDBFF260EDBCF4E
:1030C00014F0270EDBCF15F01450255D155026594E
:1030D00007E2260E25CFDBFF270E26CFDBFF41853B
:1030E000240EDBCF14F0250EDBCF15F0260EDBCF40
:1030F00016F0270EDBCF17F01450165C155017583A
:103100000CE2260EDBCF08F0270EDBCF09F0240EF1
:1031100008C0DBFF250E09C0DBFF240EDBCFE6FF76
:10312000250EDBCFE6FF44CFE6FF0ECFE6FF0FCF45
:10313000E6FFE66A050EE66E0B0EE66E42EC2CF03C
:10314000146E080EE15E1450260EDBCF16F0270E2B
:10315000DBCF17F0240EDB50165C146E250EDB500F
:103160001758156E240E14C0DBFF250E15C0DBFFAB
:10317000D950240FE96EDACFEAFFEE50ED1027E0C8
:10318000240EDBCFE6FF250EDBCFE6FF44CFE6FFC4
:1031900029CFE6FF2ACFE6FFE66A0F010E512B5D2D
:1031A000146E2C510F55156E166A176A050E1426EB
:1031B0000B0E1522000E1622172214C0E6FF15C0B2
:1031C000E6FF42EC2CF0186E080EE15E1850260E59
:1031D000DBCF08F0270EDBCF09F008500F010E27D8
:1031E00009500F232B510E5D2C510F590AE3295121
:1031F0002B5D146E2C512A55156E14500E5F155010
:103200000F5B41A71AD0260EDBCF14F0270EDBCFC1
:1032100015F01451141802E1155115180EE0260E80
:10322000DBCF16F0270EDBCF17F02551161802E181
:103230002651171802E0FE0EDB80D950260FE96EEA
:10324000DACFEAFFEE50ED1004E1FE0EDB50030B87
:1032500030E0260EDBCF08F0270EDBCF09F0085058
:103260000F01145F0950155BD950260FE96EDACFB4
:10327000EAFFEE50ED1002E0FE0EDB86FD0EDBA055
:1032800007D0276BF20E026F9E0E036F046B056B67
:10329000EDEC7BF006500F010225376F075003213C
:1032A000386F08500421396F095005213A6F408961
:1032B0003ED0FD0EDBA21FD0400EE96E0F0EEA6E6F
:1032C000EF50070BE82AF36EF350070BF36EF46E22
:1032D000F80EEF14F310EF6EF4500F010607000E16
:1032E000075B085B095B010EF36E260EF3CFDBFF75
:1032F000270EDB6A1CD00F0140A919D0DBB008D023
:10330000275106E02707D8900533043303330233EF
:10331000EDEC7BF006500F010225376F07500321BB
:10332000386F08500421396F095005213A6F020E99
:1033300012CFDBFF030E13CFDBFF040E10CFDBFF3A
:10334000050E11CFDBFF060E06CFDBFF070E07CF02
:10335000DBFF080E08CFDBFF090E09CFDBFF0A0EEB
:103360000ACFDBFF0B0E0BCFDBFF0C0E0CCFDBFF0E
:103370000D0E0DCFDBFF0F0EDB9CDB9E0E0EDB90E8
:10338000DB92DB94DB96FE0EDB50E76E0F0EE7CF91
:10339000DBFF140EDB6A150EDB6A260EDBCF14F0A2
:1033A000270EDBCF15F0000114500F010627000196
:1033B00015500F010723000E08230923FE0EDBA280
:1033C0001DD0DBB808D00A0EDB6A0B0EDB6A0C0ED0
:1033D000DB6A0D0EDB6A24A30BD0D950060FE96E11
:1033E000DACFEAFFEE06000EEE5AEE5AEE5A06D09B
:1033F000062B000E0723082309232483FE0EDBA0DF
:1034000013D024A10BD0D950060FE96EDACFEAFF12
:10341000EE06000EEE5AEE5AEE5A06D0062B000EBD
:1034200007230823092324813551335D365134594C
:1034300019E32B512D5D166E2E512C55176E3551FB
:10344000335D186E34513655196E1850165C146E73
:1034500019501758156E100E14C0DBFF110E15C051
:10346000DBFF0FD03351355D146E36513455156E78
:103470001406000E155A100E14C0DBFF110E15C0F5
:10348000DBFF1EEC4CF0F3CF14F0F4CF15F0400E40
:10349000145E000E155A14C0DEFF15C0DDFFDECF2E
:1034A00014F0DDCF15F00001800E151402E0DE6A85
:1034B000DD6A100EDBCF14F0110EDBCF15F0DECF7E
:1034C00016F0DDCF17F01450165C155017580AE2AD
:1034D000D9CFE9FFDACFEAFF100EEECFDBFF110EF6
:1034E000EDCFDBFFD950020FE66E000EDA20E66E5C
:1034F0009AEC1EF0E552E552D950260FE96EDACF6C
:10350000EAFF140EEE26000EED220E0EDB88DB9A8B
:10351000DB8CDB9EFE0EDBA236D0D950260FE96E87
:10352000DACFEAFF040EEE26000EED22020EF36E55
:10353000160EF3CFDBFF040EF36E170EF3CFDBFF97
:10354000020EF36E180EF3CFDBFFF36E190EF3CFFE
:10355000DBFF010E146ED9500E0FE96EDACFEAFFD1
:10356000EF50F00BE842E842E842E84214240F0B27
:10357000F36EF46EF346F346F346F3460F0EEF1484
:10358000F310EF6EF4501A0E60C0DBFF1B0E61C02B
:10359000DBFF1C0E62C0DBFF1D0E63C0DBFF1E0ED7
:1035A00018CFDBFF1F0E19CFDBFF200E1ACFDBFF7A
:1035B000210E1BCFDBFF220EDB6A060EF36E230EFD
:1035C000F3CFDBFF260EDBCF08F0270EDBCF09F0B1
:1035D000240E08C0DBFF250E09C0DBFF240EDBCF65
:1035E000E6FF250EDBCFE6FFAAEC41F0E552E552FF
:1035F000240EF3CFDBFF250EF4CFDBFF0C0EE66EBF
:10360000E66AD9501A0FE66E000EDA20E66E27EC55
:1036100042F0E552E552E552E552F3CF14F0F4CF13
:1036200015F0141E151E120E14C0DBFF130E15C06C
:10363000DBFFDD0EE66E0A0EE66E3EEC4EF0E55266
:10364000E552260EDBCFE6FF270EDBCFE6FF060EA8
:10365000E66E180EE66E0F0EE66EC6EC71F0146E96
:10366000050EE15E1450140EE66EE66AD950020FA4
:10367000E66E000EDA20E66E86EC51F0E552E55279
:10368000E552E552FE0EDBA20FD0040EE66EE66AAE
:10369000D950160FE66E000EDA20E66E86EC51F079
:1036A000E552E552E552E552F10EE66E0A0EE66E7F
:1036B00061EC4EF0E552E552260EDBCFE6FF270E19
:1036C000DBCFE6FFE5EC4EF0E552E552F3CFDEFF4F
:1036D000F4CFDDFF010EE66E0B0EE66E3EEC4EF013
:1036E000E552E552020EE66EE66AD9CFE6FFDACF82
:1036F000E6FF86EC51F0E552E552E552E552D0EC9A
:103700004DF0280EE15C02E2E16AE552E16EE5521D
:10371000E7CFD9FF1200D9CFE6FFE1CFD9FF060EE0
:10372000E126FD0EDBCFE9FFFE0EDBCFEAFF020E46
:10373000E926000EEA22EE50ED1002E1000EEED274
:10374000DE52FE0EDD6EFB0EDBCFE9FFFC0EDBCFA3
:10375000EAFF020EE926000EEA22EECF1AF0EFCFC2
:103760001BF0FB0EDBCFE9FFFC0EDBCFEAFF1A50AC
:10377000EE24186E1B50EE20196EFD0EDBCFE9FF14
:10378000FE0EDBCFEAFF1850EE24166E1950EE2025
:10379000176EFD0EDBCFE9FFFE0EDBCFEAFF020E58
:1037A000E926000EEA221650EE18146E1750EE1895
:1037B000156E020E14C0DBFF030E15C0DBFFDF6ABF
:1037C000DF50146E156A090E145C000E155872E273
:1037D000DFCFE6FF58EC00F0E5520D0E0F013F5D24
:1037E00002E166D029D0040E3F5D19E1FD0EDBCF6A
:1037F000E9FFFE0EDBCFEAFF020EE926000EEA2209
:10380000EECF14F0EFCF15F01450421902E115502D
:10381000431903E1010EDFCFDBFF4AD00DD042CFC9
:1038200014F043CF15F0020EDB50141803E1030E21
:10383000DB50151801E03CD0A7EC00F0FD0EDBCF0B
:10384000E9FFFE0EDBCFEAFF020EE926000EEA22B8
:10385000EECF14F0EFCF15F00F011251141802E162
:103860001351151825E1FD0EDBCFE9FFFE0EDBCF6E
:10387000EAFFEECF16F0EFCF17F01051161802E165
:103880001151171815E1FB0EDBCFE9FFFC0EDBCF62
:10389000EAFFEE50181909E1EE50191906E1EE5051
:1038A0001A1903E1EE501B1900E102E1010E36D2B4
:1038B000DF2A86D7010EDB50FE0843E0010EDBCF86
:1038C000E6FF58EC00F0E552A7EC00F0010EDB50EB
:1038D000FE0837E0020EDBCF42FF030EDBCF43FFD3
:1038E0000A0EE66EE66AFB0EDBCFE6FFFC0EDBCFD0
:1038F000E6FF180EE66E0F0EE66EECEC78F0146E36
:10390000060EE15E1450FD0EDBCFE9FFFE0EDBCFAD
:10391000EAFFEECF10FFEDCF11FFFD0EDBCFE9FF89
:10392000FE0EDBCFEAFF020EE926000EEA22EECF02
:1039300012FFEDCF13FF29CF0EFF2ACF0FFF010E8D
:10394000EDD1FD0EDBCFE9FFFE0EDBCFEAFF0D0E62
:10395000E926000EEA22EF50020B02E1000EDED152
:103960000001D651D71102E0000ED8D1040EDB6A57
:10397000050EDB6A040EDBCF14F0050EDBCF15F06D
:10398000030E145C000E155801E3CFD0040EDBCFFC
:10399000E9FF050EDBCFEAFF140EEA02F3CFEAFFE0
:1039A000E902F3CFE9FFF450EA269E0EE926000E65
:1039B000EA22100EE926000EEA22EE50ED1001E197
:1039C000B4D0040EDBCFE9FF050EDBCFEAFF140E07
:1039D000EA02F3CFEAFFE902F3CFE9FFF450EA2667
:1039E0009E0EE926000EEA22100EE926000EEA22BB
:1039F000EECF14F0EFCF15F0FD0EDBCFE9FFFE0E9A
:103A0000DBCFEAFF020EE926000EEA22EECF16F027
:103A1000EFCF17F01650141802E11750151801E0F7
:103A20007ED0040EDBCFE9FF050EDBCFEAFF140EDC
:103A3000EA02F3CFEAFFE902F3CFE9FFF450EA2606
:103A40009E0EE926000EEA220A0EE926000EEA2260
:103A5000EECF14F0EFCF15F0FD0EDBCFE9FFFE0E39
:103A6000DBCFEAFFEECF16F0EFCF17F016501418A9
:103A700002E11750151801E052D0FB0EDBCFE9FF31
:103A8000FC0EDBCFEAFFEECF14F0EECF15F0EECF59
:103A900016F0EFCF17F0040EDBCFE9FF050EDBCFFA
:103AA000EAFF140EEA02F3CFEAFFE902F3CFE9FFDF
:103AB000F450EA269E0EE926000EEA22EE5000019E
:103AC000141809E1EE50151806E1EE50161803E13E
:103AD000EE50171800E101E022D0F8EC7BF006C0B0
:103AE00014F007C015F0040EDBCFE9FF050EDBCFA5
:103AF000EAFF140EEA02F3CFEAFFE902F3CFE9FF8F
:103B0000F450EA269E0EE926000EEA22120EE9265D
:103B1000000EEA2214C0EEFF15C0EDFFFFD0040E28
:103B2000DB2A050E01E3DB2A25D7DF6ADF50146E9E
:103B3000156A090E145C000E155801E3EDD0DFCFB5
:103B4000E6FF58EC00F0E5520F0140A7E3D0A7ECE8
:103B500000F0FD0EDBCFE9FFFE0EDBCFEAFF020E29
:103B6000E926000EEA22EECF14F0EFCF15F0145044
:103B70000F01121902E11550131901E0CBD00A0E02
:103B8000E66EE66AFB0EDBCFE6FFFC0EDBCFE6FF60
:103B9000040EDBCFE9FF050EDBCFEAFF140EEA02CD
:103BA000F3CFEAFFE902F3CFE9FFF450EA269E0ED5
:103BB000E926000EEA22E9CF14F0EACF15F014C08E
:103BC000E6FF15C0E6FFECEC78F0166E060EE15E3F
:103BD0001650FD0EDBCFE9FFFE0EDBCFEAFFEECF86
:103BE00014F0EFCF15F0040EDBCFE9FF050EDBCFAD
:103BF000EAFF140EEA02F3CFEAFFE902F3CFE9FF8E
:103C0000F450EA269E0EE926000EEA220A0EE92664
:103C1000000EEA2214C0EEFF15C0EDFFFD0EDBCF53
:103C2000E9FFFE0EDBCFEAFF040EE926000EEA22D2
:103C3000EECF14F0EECF15F0EECF16F0EFCF17F079
:103C4000040EDBCFE9FF050EDBCFEAFF140EEA021C
:103C5000F3CFEAFFE902F3CFE9FFF450EA269E0E24
:103C6000E926000EEA220C0EE926000EEA2214C014
:103C7000EEFF15C0EEFF16C0EEFF17C0EEFFFD0E03
:103C8000DBCFE9FFFE0EDBCFEAFF020EE926000ED6
:103C9000EA22EECF14F0EFCF15F0040EDBCFE9FFF0
:103CA000050EDBCFEAFF140EEA02F3CFEAFFE902CA
:103CB000F3CFE9FFF450EA269E0EE926000EEA2231
:103CC000100EE926000EEA2214C0EEFF15C0EDFF2B
:103CD000F8EC7BF006C014F007C015F0040EDBCF43
:103CE000E9FF050EDBCFEAFF140EEA02F3CFEAFF8D
:103CF000E902F3CFE9FFF450EA269E0EE926000E12
:103D0000EA22120EE926000EEA2214C0EEFF15C0C8
:103D1000EDFF04D0DF2A0AD7000E00D0146E060E85
:103D2000E15C02E2E16AE552E16E1450E552E7CF50
:103D3000D9FF1200D9CFE6FFE1CFD9FFFD0EDBCFCF
:103D4000E9FFFE0EDBCFEAFFEECFE6FFEFCFE6FFA7
:103D5000AAEC41F0E552E552F3CF14F0F4CF15F0A0
:103D6000FD0EDBCFE9FFFE0EDBCFEAFF14C0EEFF56
:103D700015C0EDFFFD0EDBCFE9FFFE0EDBCFEAFF46
:103D8000020EE926000EEA22EECFE6FFEFCFE6FFB5
:103D9000AAEC41F0E552E552F3CF14F0F4CF15F060
:103DA000FD0EDBCFE9FFFE0EDBCFEAFF020EE926B8
:103DB000000EEA2214C0EEFF15C0EDFFFD0EDBCFB2
:103DC000E9FFFE0EDBCFEAFF040EE926000EEA2231
:103DD000EECFE6FFEECFE6FFEECFE6FFEFCFE6FF5A
:103DE000D4EC41F0E552E552E552E55206C014F03C
:103DF00007C015F008C016F009C017F0FD0EDBCFA4
:103E0000E9FFFE0EDBCFEAFF040EE926000EEA22F0
:103E100014C0EEFF15C0EEFF16C0EEFF17C0EEFF98
:103E2000FD0EDBCFE9FFFE0EDBCFEAFF080EE92631
:103E3000000EEA22EECFE6FFEECFE6FFEECFE6FF82
:103E4000EFCFE6FFD4EC41F0E552E552E552E55202
:103E500006C014F007C015F008C016F009C017F02E
:103E6000FD0EDBCFE9FFFE0EDBCFEAFF080EE926F1
:103E7000000EEA2214C0EEFF15C0EEFF16C0EEFFE2
:103E800017C0EEFFFD0EDBCFE9FFFE0EDBCFEAFF32
:103E90000E0EE926000EEA22EECFE6FFEFCFE6FF98
:103EA000AAEC41F0E552E552F3CF14F0F4CF15F04F
:103EB000FD0EDBCFE9FFFE0EDBCFEAFF0E0EE9269B
:103EC000000EEA2214C0EEFF15C0EDFFFD0EDBCFA1
:103ED000E9FFFE0EDBCFEAFF100EE926000EEA2214
:103EE000EECFE6FFEFCFE6FFAAEC41F0E552E55258
:103EF000F3CF14F0F4CF15F0FD0EDBCFE9FFFE0E8B
:103F0000DBCFEAFF100EE926000EEA2214C0EEFF16
:103F100015C0EDFFFD0EDBCFE9FFFE0EDBCFEAFFA4
:103F2000120EE926000EEA22EECFE6FFEFCFE6FF03
:103F3000AAEC41F0E552E552F3CF14F0F4CF15F0BE
:103F4000FD0EDBCFE9FFFE0EDBCFEAFF120EE92606
:103F5000000EEA2214C0EEFF15C0EDFFE552E7CFD8
:103F6000D9FF1200A7EC00F012CF42FF13CF43FF9E
:103F700029CF2FFF2ACF30FF29CF31FF2ACF32FFA1
:103F80002BCF33FF2CCF34FF2BCF35FF2CCF36FF79
:103F90000F014051080B02E0040E01D00D0E3F6FDF
:103FA0004091409340954099409B409D409F419156
:103FB00041934195419741892491249324972499D1
:103FC00029CF0EFF2ACF0FFF2CEC3CF0F3CF06FFDA
:103FD000F4CF07FF2CEC3CF0F3CF08FFF4CF09FF40
:103FE0000F0122692369010E146F156B1200D9CFDE
:103FF000E6FFE1CFD9FF040EE1260C0EE66EE66A7D
:1040000078EC72F0E552E55226EC51F0DF6EF00EDE
:10401000DF14E840E8403F0B146E156A140E145E7E
:10402000000E155A1450DF6EDF5005E1180EF36EC6
:10403000020EF46E8AD0070EE66EE66A000EE66E99
:10404000E66A29EC51F0E552E552E552E552DF50BF
:10405000DF06000975E026EC51F0E76E010EE7CFB0
:10406000DBFFDB5001E16CD0010EDB0401E1EFD797
:10407000010EDB50020845E1030EDF5C01E260D077
:10408000020EDB6A030EDB6A26EC51F0E76E010ECE
:10409000E7CFDBFFDB5004080CE126EC51F0E76EC4
:1040A000030EE7CFDBFF26EC51F0E76E020EE7CF01
:1040B000DBFF020EDBCF14F0030EDBCF15F0180E82
:1040C000145C020E155801E23BD0D950020FE96E84
:1040D000DACFEAFFB40ED880EE54050EED5406E2B6
:1040E000B40EF36E050EF46E30D029D0020EDBCF85
:1040F00014F0030EDBCF15F014C0F3FF15C0F4FF6E
:1041000024D0020EDF5C01E21BD026EC51F0E76EFA
:10411000010EE7CFDBFFDB50DF5C01E211D0010EC7
:10412000DBCFE6FFE66A000EE66EE66A29EC51F0A8
:10413000E552E552E552E552010EDB50DF5E87D7CE
:10414000180EF36E020EF46E00D0040EE15C02E273
:10415000E16AE552E16EE552E7CFD9FF1200D9CF0F
:10416000E6FFE1CFD9FF1C0EE126FD0EDBCFE9FF14
:10417000FE0EDBCFEAFF0D0EE926000EEA220E0E40
:10418000EFCFDBFFFD0EDBCFE9FFFE0EDBCFEAFF5B
:10419000080EE926000EEA220F0EEECFDBFF100E0E
:1041A000EECFDBFF110EEECFDBFF120EEECFDBFF0B
:1041B000FD0EDBCFE9FFFE0EDBCFEAFF040EE926A2
:1041C000000EEA22130EEECFDBFF140EEECFDBFF64
:1041D000150EEECFDBFF160EEECFDBFF0F01409189
:1041E0004093409540B913D0EDEC7BF006C037FF0B
:1041F00007C038FF08C039FF09C03AFF740E0F012D
:104200003727350E3823060E3923000E3A233F5147
:10421000050A5CE0010A15E0FB0EDBCF08F0FC0E9E
:10422000DBCF09F0170E08C0DBFF180E09C0DBFF5B
:104230000E0EDBA0EAD0170EDB2A180E01E2E5D045
:10424000E3D00E0EDBA403D08DDEA3EF2AF0DBA8B3
:1042500016D00F0EDBCF06FF100EDBCF07FF110EBF
:10426000DBCF08FF120EDBCF09FFE66A040EE66E15
:10427000A2EC17F0E552E55275DEA3EF2AF0DBA2BF
:1042800022D0130EDBCF0AFF140EDBCF0BFF150E6F
:10429000DBCF0CFF160EDBCF0DFF0A2B000E0B231E
:1042A0000C230D23A4DEF3CF25FFF4CF26FF010E50
:1042B000E66E120EE66EA2EC17F0E552E5520F0123
:1042C000060E3F6F01D04EDEA3EF2AF00E0EDBA4E8
:1042D00002D0A3EF2AF0DBA840D0D9500F0FE96E2F
:1042E000DACFEAFFEE50061909E1EE50071906E1B0
:1042F000EE50081903E1EE50091900E12EE0130E0B
:1043000006CFDBFF140E07CFDBFF150E08CFDBFF58
:10431000160E09CFDBFF0F0EDBCF06FF100EDBCF33
:1043200007FF110EDBCF08FF120EDBCF09FF010ED6
:10433000E66E040EE66EA2EC17F0E552E552130E9F
:10434000DBCF06FF140EDBCF07FF150EDBCF08FF18
:10435000160EDBCF09FFA3EF2AF00E0EDBA252D020
:10436000130EDBCF0AFF140EDBCF0BFF150EDBCFD6
:104370000CFF160EDBCF0DFF0A2B000E0B230C23B8
:104380000D23FD0EDBCFE9FFFE0EDBCFEAFF0E0EA5
:10439000E926000EEA22EECF14FFEDCF15FF27DE4F
:1043A000F3CF25FFF4CF26FF0E0EDBA820D0010EA1
:1043B000E66E100EE66EA2EC17F0E552E5520F0124
:1043C000070E3F6FEDEC7BF006C037FF07C038FFEC
:1043D00008C039FF09C03AFF740E0F013727350EA8
:1043E0003823060E3923000E3A2340990BD0010ED4
:1043F000E66E120EE66EA2EC17F0E552E5520F01E2
:10440000060E3F6FA3EF2AF0DB2A0E0EDBA205D0CB
:10441000170EDB2A180E01E3DB2A3551335D3651C6
:10442000345919E32B512D5D166E2E512C55176EF4
:104430003551335D186E34513655196E1850165C6F
:10444000146E19501758156E0C0E14C0DBFF0D0EAC
:1044500015C0DBFF0FD03351355D146E3651345526
:10446000156E1406000E155A0C0E14C0DBFF0D0E4F
:1044700015C0DBFFD950130FE96EDACFEAFF0A51FE
:10448000EE5C146E0B51EE58156E0C51EE58166E14
:104490000D51EE58176E060E14C0DBFF070E15C047
:1044A000DBFF080E16C0DBFF090E17C0DBFF060E90
:1044B000DBCF08F0070EDBCF09F00A0E08C0DBFFE8
:1044C0000B0E09C0DBFF190EDB6AD950170FE96E1E
:1044D000DACFEAFFEE50ED1001E1C3D0D9500C0F56
:1044E000E96EDACFEAFFEE50ED1001E1B9D0D95014
:1044F000060FE96EDACFEAFFD890030EEB50000A00
:1045000008E6000EEE5C000EEE58000EEE58000EAF
:10451000EE581CE30C0EDBCF14F00D0EDBCF15F0C4
:10452000166A176AD950060FE96EDACFEAFF1450FF
:10453000EE5C1550EE581650EE581750EE5806E245
:10454000010EF36E190EF3CFDBFF53D0170EDBCF46
:1045500014F0180EDBCF15F0166A176AD950060F43
:10456000E96EDACFEAFFEE501426EE501522EE5037
:104570001622EE5017221734000E171809E6D880BD
:10458000000E1454000E1554000E1654000E17544D
:1045900030E20C0EDBCF1CF00D0EDBCF1DF0170E42
:1045A000DB501C5C186E180EDB501D58196E1A6A11
:1045B0001B6A19AE02D01A681B68D950060FE96E43
:1045C000DACFEAFF030EEBCFF3FF1B50F318E8AE90
:1045D00002D0F33408D0EE50185CEE501958EE506B
:1045E0001A58EE501B5805E3010EF36E190EF3CF67
:1045F000DBFF0C0EDBCF14F00D0EDBCF15F0166ACF
:10460000176AD950060FE96EDACFEAFF030EEB50B6
:104610001718E8AE02D0173408D01450EE5C1550CD
:10462000EE581650EE581750EE581AE2170EDBCF20
:104630001AF0180EDBCF1BF00A0EDB501A24186E8E
:104640000B0EDB501B20196E193404E218500008C1
:10465000000E195405E2010EF36E190EF3CFDBFFC5
:1046600045D0060EDBCF14F0070EDBCF15F0080E99
:10467000DBCF16F0090EDBCF17F014501510161013
:10468000171006E1010EF36E190EF3CFDBFF2ED0EB
:10469000D950060FE96EDACFEAFFD890030EEB503F
:1046A000000A08E6000EEE5C000EEE58000EEE5812
:1046B000000EEE581BE30C0EDBCF14F00D0EDBCF1B
:1046C00015F0166A176AD950060FE96EDACFEAFFBD
:1046D0001450EE5C1550EE581650EE581750EE5828
:1046E00005E2010EF36E190EF3CFDBFF190EDB505E
:1046F0000DE10E0EDBB408D0010EE66E100EE66E74
:10470000A2EC17F0E552E552A3EF2AF00E0EDB50B3
:10471000060B03E027DCA3EF2AF00E0EDBB802D075
:10472000A3EF2AF03F510C0A01E1EED20B0A4DE053
:104730000F0A4BE0010A49E0020A47E0010A45E09E
:104740000C0A01E0F7D2D9500F0FE96EDACFEAFF79
:10475000EE50061909E1EE50071906E1EE5008196E
:1047600003E1EE50091900E12EE0130E06CFDBFF46
:10477000140E07CFDBFF150E08CFDBFF160E09CF97
:10478000DBFF0F0EDBCF06FF100EDBCF07FF110E96
:10479000DBCF08FF120EDBCF09FF010EE66E040E21
:1047A000E66EA2EC17F0E552E552130EDBCF06FFE2
:1047B000140EDBCF07FF150EDBCF08FF160EDBCF85
:1047C00009FFA3EF2AF0070E3F6F0E512F5D146E05
:1047D00030510F55156E040E14C0DBFF050E15C0C9
:1047E000DBFF040EDBCF14F0050EDBCF15F000016C
:1047F000800E151410E00F0129512B5D146E2C5101
:104800002A55156ED950040FE96EDACFEAFF14501D
:10481000EE261550ED22040EDBCF14F0050EDBCF93
:1048200015F0166A176A060EE96E0F0EEA6EEE5064
:104830001426EE501522EE501622EE50172214C008
:10484000DFFF010E15C0DBFF020E16C0DBFF030EFB
:1048500017C0DBFF0F0EDBCF18F0100EDBCF19F007
:10486000110EDBCF1AF0120EDBCF1BF0D9CFE9FF10
:10487000DACFEAFF1850EE5C146E1950EE58156E40
:104880001A50EE58166E1B50EE58176E0001800E2F
:10489000171409E0E66A100EE66EA2EC17F0E55276
:1048A000E552A3EF2AF00F0131510E5D186E0F5142
:1048B0003255196E1A6A1B6A19AE02D01A681B6843
:1048C0001850065D146E19500759156E1A50085984
:1048D000166E1B500959176E14C0DFFF010E15C06C
:1048E000DBFF020E16C0DBFF030E17C0DBFF3151EA
:1048F0000E5D32510F5914E229512B5D146E2C516B
:104900002A55156E166A176AD9CFE9FFDACFEAFF82
:104910001450EE5E1550EE5A1650EE5A1750EE5ADD
:104920000F0EDBCF18F0100EDBCF19F0110EDBCF1E
:104930001AF0120EDBCF1BF0D9CFE9FFDACFEAFF76
:10494000EE50185C146EEE501958156EEE501A5851
:10495000166EEE501B58176E14C0DFFF010E15C007
:10496000DBFF020E16C0DBFF030E17C0DBFFDECF3E
:1049700007F0DECF08F0DECF09F0DDCF0AF0DD5220
:10498000DD520A34000E0A1809E6D880000E0754DA
:10499000000E0854000E0954000E0A5401E3A2D080
:1049A00029512B5D146E2C512A55156E166A176A03
:1049B000D9CFE9FFDACFEAFFEE50145CEE5015587C
:1049C000EE501658EE50175801E28CD024972499D7
:1049D0004191040E31CFDBFF050E32CFDBFFD9CF83
:1049E000E9FFDACFEAFFEE503127EE503223040E12
:1049F000DBCF14F0050EDBCF15F014500E5D155013
:104A00000F591BE331510E5D32510F5915E20E5112
:104A1000315D146E32510F55156E000114500F01A7
:104A20000627000115500F010723000E0823092354
:104A300031CF0EFF32CF0FFF36D029512B5D166ECE
:104A40002C512A55176E0E511624146E0F51172033
:104A5000156E040E14C0DBFF050E15C0DBFF040E3F
:104A6000DBCF14F0050EDBCF15F03151145C325161
:104A7000155819E2040EDB50315D0001146E050E6D
:104A8000DB500F0132590001156E14500F0106273B
:104A9000000115500F010723000E0823092331CF11
:104AA0000EFF32CF0FFF2B51315D2C5132590AE3EB
:104AB00029512B5D146E2C512A55156E1450315FFF
:104AC0001550325B2B510E5D2C510F590AE32951C1
:104AD0002B5D146E2C512A55156E14500E5F155017
:104AE0000F5B3ED00E51311902E10F51321938E0FF
:104AF00024A735D024A932D031510E5D146E0F5148
:104B00003255156E166A176A15AE02D01668176808
:104B10001450065F1550075B1650085B1750095B71
:104B200031510E5D32510F5914E229512B5D146E33
:104B30002C512A55156E166A176A15AE02D01668E2
:104B400017681450065F1550075B1650085B175026
:104B5000095B31CF0EFF32CF0FFF418524892487B7
:104B60002F51311902E1305132192EE141B715D0E0
:104B7000EDEC7BF006C037FF07C038FF08C039FFF7
:104B800009C03AFF740E0F013727350E3823060E81
:104B90003923000E3A23409917D0D9500F0FE96EF0
:104BA000DACFEAFF0651EE1809E10751EE1806E1E7
:104BB0000851EE1803E10951EE1800E105E1245116
:104BC000010B02E040994197D9500F0FE96EDACFFF
:104BD000EAFFEE50065D166EEE500759176EEE5066
:104BE0000859186EEE500959196EFD0EDBCFE9FF1A
:104BF000FE0EDBCFEAFF0E0EE926000EEA2216506B
:104C0000EE5C146E1750EE58156E1A0E14C0DBFFD2
:104C10001B0E15C0DBFF1451151109E1D9501A0FF5
:104C2000E96EDACFEAFFEE50ED1001E041831A0E93
:104C3000DBCF14FF1B0EDBCF15FF080E3F5D2CE111
:104C4000D9500F0FE96EDACFEAFF0651EE1809E1ED
:104C50000751EE1806E10851EE1803E10951EE186C
:104C600000E119E12451010B16E0EDEC7BF006C0E8
:104C700037FF07C038FF08C039FF09C03AFFBA0E36
:104C80000F0137271A0E3823030E3923000E3A235B
:104C90004089090E3F6F37D0090E3F5D1BE10E0EB4
:104CA000DBB017D00F0EDBCF06FF100EDBCF07FFF8
:104CB000110EDBCF08FF120EDBCF09FFE66A140EE0
:104CC000E66EA2EC17F0E552E552B2EC1FF0A3EF4E
:104CD0002AF019D00A0E3F5D16E1D9500F0FE96E88
:104CE000DACFEAFF0651EE1809E10751EE1806E1A6
:104CF0000851EE1803E10951EE1800E102E1B2ECAF
:104D00001FF0A3EF2AF017D0D9500F0FE96EDACFBA
:104D1000EAFF0651EE1809E10751EE1806E10851C5
:104D2000EE1803E10951EE1800E102E1B2EC1FF0C8
:104D3000A3EF2AF000D00E0EDBAA02D0A3EF2AF0D8
:104D40000B0E3F5D02E1A3EF2AF00A0E3F5D02E188
:104D5000A3EF2AF00C0E3F5D02E1A3EF2AF0D95039
:104D6000FB0FE96EFF0EDA20EA6EEE50ED1001E166
:104D700031D30A0EDBCF14F00B0EDBCF15F0153458
:104D800004E214500008000E155401E250D1FD0E4B
:104D9000DBCFE9FFFE0EDBCFEAFF0C0EE926000EAB
:104DA000EA22EF50F00BE842E842E842E842040D04
:104DB000F350166E176A0A0EDB50165C146E0B0E5B
:104DC000DB501758156E14C0E6FF15C0E6FF78ECEF
:104DD00072F0E552E5520A0EDBCF14F00B0EDBCF7A
:104DE00015F0D950FB0FE96EFF0EDA20EA6E145071
:104DF000EE261550ED22FB0EDBCF14F0FC0EDBCFC0
:104E000015F00C0EDBCF16F00D0EDBCF17F01450A3
:104E1000165C155017580CE20C0EDBCF08F00D0E87
:104E2000DBCF09F0FB0E08C0DBFFFC0E09C0DBFF87
:104E3000FB0EDBCF14F0FC0EDBCF15F0000114509D
:104E40000F010A27000115500F010B23000E0C2340
:104E50000D23FB0EDB5033250001146EFC0EDB50DE
:104E60000F0134210001156E0F0114502D5D1550F6
:104E70002E595CE233512D5D146E2E513455156E52
:104E8000010E1426000E1522040E14C0DBFF050EC1
:104E900015C0DBFF040EDBCFE6FF050EDBCFE6FF20
:104EA000E66AE668E66844CFE6FF33CFE6FF34CF34
:104EB000E6FF42EC2CF0146E080EE15E1450FB0E7F
:104EC000DBCF16F0FC0EDBCF17F0040EDB50165CC8
:104ED000146E050EDB501758156E14C0E6FF15C092
:104EE000E6FFE66AE668E66844CFE6FF2BCFE6FF1A
:104EF0002CCFE6FF42EC2CF0186E080EE15E185045
:104F0000FB0EDBCF16F0FC0EDBCF17F0040EDB50F0
:104F1000165C146E050EDB501758156E0F012B51E1
:104F20001424336F2C511520346F20D0FB0EDBCFAF
:104F3000E6FFFC0EDBCFE6FFE66AE668E66844CFF4
:104F4000E6FF33CFE6FF34CFE6FF42EC2CF0146EE1
:104F5000080EE15E1450FB0EDBCF08F0FC0EDBCF39
:104F600009F008500F01332709503423221D01E1B5
:104F7000231D5CE0FB0EDBCF08F0FC0EDBCF09F05D
:104F80000850225F0950235B16512225146E1751D9
:104F90002321156E040E14C0DBFF050E15C0DBFFC8
:104FA000040EDBCF14F0050EDBCF15F00001800EF0
:104FB000151404E00F012269236938D00F0123354D
:104FC00004E222510008000E235530E3040EDBCF2B
:104FD00014F0050EDBCF15F0000114500F010A2765
:104FE000000115500F010B23000E0C230D23040E9E
:104FF000DBCF08F0050EDBCF09F00850332709504E
:10500000342333512D5D34512E590EE22B512D5D39
:10501000146E2E512C55156E010E1426000E1522FD
:105020001450335F1550345B22692369D3D10A0EC3
:10503000DBCF14F00B0EDBCF15F0153404E2145067
:105040000008000E155401E3C5D10A0EDBCF16F09F
:105050000B0EDBCF17F0FB0EDB501624146EFC0E8C
:10506000DB501720156E0C0EDBCF18F00D0EDBCFCA
:1050700019F01450185C1550195814E20C0EDBCFBF
:1050800016F00D0EDBCF17F00A0EDB50165C146E17
:105090000B0EDB501758156EFB0E14C0DBFFFC0E19
:1050A00015C0DBFFFD0EDBCFE9FFFE0EDBCFEAFF15
:1050B0000C0EE926000EEA22EF50F00BE842E8421F
:1050C000E842E842040DF350E66EE66A78EC72F0CE
:1050D000E552E5520A0EDB500F0133250001166E32
:1050E0000B0EDB500F0134210001176EFB0EDB505D
:1050F0001624146EFC0EDB501720156E0F01145091
:105100002D5D15502E5901E395D033512D5D166E4E
:105110002E513455176E010E1626000E17220A0E58
:10512000DB50165C146E0B0EDB501758156E040E18
:1051300014C0DBFF050E15C0DBFF040EDBCF14F03F
:10514000050EDBCF15F00001800E151441E1040EB1
:10515000DBCFE6FF050EDBCFE6FFE66AE668E66832
:1051600044CFE6FF0A0EDB500F0133250001146E19
:105170000B0EDB500F0134210001156E14C0E6FF49
:1051800015C0E6FF7FDB166E080EE15E1650FB0EC3
:10519000DBCF16F0FC0EDBCF17F0040EDB50165CF5
:1051A000146E050EDB501758156E14C0E6FF15C0BF
:1051B000E6FFE66AE668E66844CFE6FF2BCFE6FF47
:1051C0002CCFE6FF5FDB186E080EE15E185031D081
:1051D000FB0EDBCFE6FFFC0EDBCFE6FFE66AE66800
:1051E000E66844CFE6FF0A0EDB500F0133250001CD
:1051F000166E0B0EDB500F0134210001176E0F01EC
:105200002B512D5D186E2E512C55196E010E18263E
:10521000000E19221850165C146E19501758156E8E
:1052200014C0E6FF15C0E6FF2DDB1A6E080EE15E26
:105230001A501FD0FB0EDBCFE6FFFC0EDBCFE6FFE4
:10524000E66AE668E66844CFE6FF0A0EDB503325DF
:105250000001146E0B0EDB500F0134210001156E9E
:1052600014C0E6FF15C0E6FF0DDB166E080EE15E0A
:1052700016500F01221D01E1231D0DE10A0EDBCFA7
:1052800022FF0B0EDBCF23FFFB0EDBCF16FFFC0E46
:10529000DBCF17FF9FD00A0EDBCF14F00B0EDBCF56
:1052A00015F02251145C235115584CE2FB0EDBCF54
:1052B00016F0FC0EDBCF17F00A0EDB501624146E2E
:1052C0000B0EDB501720156E22511625186E235138
:1052D0001721196E1450185C1550195813E3FB0E62
:1052E000DBCF1CF0FC0EDBCF1DF00A0EDB501C24C4
:1052F0001A6E0B0EDB501D201B6E22511A5C2351BF
:105300001B5807E2FB0EDBCF16FFFC0EDBCF17FFAF
:1053100012D022511625146E23511721156E0A0E34
:10532000DB500001145C0F01166F0B0EDB50000107
:1053300015580F01176F0A0EDBCF22FF0B0EDBCFC4
:1053400023FF48D0FB0EDBCF16F0FC0EDBCF17F0AF
:105350000A0EDB501624146E0B0EDB501720156E50
:1053600022511625186E23511721196E1450185CFE
:10537000155019582FE20A0EDBCF14F00B0EDBCFBD
:1053800015F022511625166E23511721176E145051
:10539000165C155017581EE3FB0EDBCF1AF0FC0EFF
:1053A000DBCF1BF00A0EDB501A24186E0B0EDB50FD
:1053B0001B20196E2251185C166E23511958176E56
:1053C0001651165C146E17511758156E1450162787
:1053D00015501723D950170FE96EDACFEAFFEE50B8
:1053E000ED1023E0070E3F5D04E033CF35FF34CFEF
:1053F00036FF40AF0BD0010EE66E100EE66EA2EC4B
:1054000017F0E552E552A7EC00F00FD0408F40BDF9
:105410000CD0408DF8EC7BF006C03DFF07C03EFF8E
:105420000F0E0F013D27000E3E230E0EDBA08BD08A
:105430000ACF14F00BCF15F00CCF16F00DCF17F0EC
:10544000142A000E152216221722170EDBCF18F091
:10545000180EDBCF19F01A6A1B6AD950130FE96EC8
:10546000DACFEAFFEE501826EE501922EE501A223B
:10547000EE501B221450181809E11550191806E1B6
:1054800016501A1803E117501B1800E15CE10F01D8
:105490000A2B000E0B230C230D233F51090A40E079
:1054A000010A1EE00F0A0EE0010A01E043D00C0ED3
:1054B0003F6F010EE66E110EE66EA2EC17F0E5529C
:1054C000E55241D00B0E3F6FF8EC7BF006C03DFF7C
:1054D00007C03EFF1F0E0F013D27000E3E232BD0BD
:1054E000D9500F0FE96EDACFEAFF0651EE1809E145
:1054F0000751EE1806E10851EE1803E10951EE18C4
:1055000000E10BE1E66A100EE66EA2EC17F0E55240
:10551000E552B2EC1FF017D002D00A0E3F6F0BD04D
:10552000E66A100EE66EA2EC17F0E552E552B2EC18
:105530001FF009D000D0010EE66E100EE66EA2EC50
:1055400017F0E552E5521C0EE15C02E2E16AE55219
:10555000E16EE552E7CFD9FF1200D9CFE6FFE1CFE8
:10556000D9FF060EE126FE0EDBCFE6FF58EC00F079
:10557000E552D950FC0FE96EFF0EDA20EA6EEE50CC
:10558000ED1007E1010EF36EFC0EF3CFDBFFFD0E15
:10559000DB6A0F0129512D5D146E2E512A55156EAF
:1055A0001406000E155A14C0DEFF15C0DDFFFA0EFA
:1055B000DBCF16F0FB0EDBCF17F0FC0EDB50162412
:1055C000146EFD0EDB501720156EDECF18F0DDCF08
:1055D00019F01450185C1550195802E2000E46D10B
:1055E000A7EC00F0F90EDB50030B03E1F90EDB80B2
:1055F000DB82FA0EDBCF08F0FB0EDBCF09F0040EE6
:1056000008C0DBFF050E09C0DBFFFA0EDBCF16F08A
:10561000FB0EDBCF17F0FC0EDB501624146EFD0ED4
:10562000DB501720156ED9CFE9FFDACFEAFF14500F
:10563000EE5E1550ED5AF90EDBA220D0DBA011D0A2
:10564000DECF14F0DDCF15F0D89015321432D950DA
:10565000040FE96EDACFEAFF1450EE261550ED2262
:105660000DD0DECF14F0DDCF15F0D950040FE96E68
:10567000DACFEAFF1450EE261550ED22040EDB506F
:105680000F0129250001146E050EDB500F012A21A0
:105690000001156E010E1426000E152214C0DEFF47
:1056A00015C0DDFF020E33CFDBFF030E34CFDBFF6F
:1056B0000F01221D01E1231D2DE022511625146E3C
:1056C00023511721156ED950020FE96EDACFEAFF88
:1056D0001450EE261550ED22020EDBCF14F0030E0F
:1056E000DBCF15F014502D5D15502E5913E22B51C0
:1056F0002D5D146E2E512C55156E010E1426000EC4
:105700001522D950020FE96EDACFEAFF1450EE5E8F
:105710001550ED5A020EDBCF14F0030EDBCF15F05F
:105720001450355D1550365918E2DECF14F0DDCF38
:1057300015F01450355D155036590EE2F90EDBA404
:1057400003D0000E93D008D0DECF35FFDDCF36FF7B
:10575000DECF33FFDDCF34FF2BD0020EDBCF14F0D2
:10576000030EDBCF15F03551145C3651155818E295
:10577000DECF14F0DDCF15F014502B5D15502C59F1
:105780000EE2F90EDBA403D0000E70D008D0DECFFD
:1057900035FFDDCF36FFDECF33FFDDCF34FF08D05E
:1057A000DECF35FFDDCF36FFDECF33FFDDCF34FF79
:1057B000020EDBCF14F0030EDBCF15F00F013551D5
:1057C000145C3651155835E2F90EDB50040B31E00C
:1057D000020EDBCF08F0030EDBCF09F02B51085C83
:1057E000146E2C510958156E14C0E6FF15C0E6FF63
:1057F00044CFE6FF2BCFE6FF2CCFE6FF44CFE6FFFA
:10580000DECFE6FFDDCFE6FF3DD8166E080EE15E87
:1058100016500F013551335D365134590AE2DE50CE
:105820002B5D146EDD502C59156E1450335F1550DE
:10583000345BDECF2BFFDDCF2CFF29CF0EFF2ACF2D
:105840000FFF29CF31FF2ACF32FF29CF2FFF2ACFD9
:1058500030FF070E3F5D08E1010EE66E100EE66EAA
:10586000A2EC17F0E552E552010E00D0146E060EC0
:10587000E15C02E2E16AE552E16E1450E552E7CFE5
:10588000D9FF1200D9CFE6FFE1CFD9FFF90EDB50E7
:105890004CE0010A01E097D0FC0EDB501CE0010A4D
:1058A00001E042D0F70EDBCFE6FFF80EDBCFE6FFDC
:1058B000FA0EDBCFE6FFFB0EDBCFE6FFFD0EDBCF04
:1058C000E6FFFE0EDBCFE6FFECEC78F0146E060E82
:1058D000E15E145029D0D950FD0FE96EFF0EDA2099
:1058E000EA6EFF0EEE1802E1FF0EED180AE0FD0E63
:1058F000DBCFE6FFFE0EDBCFE6FF3EEC4EF0E552DF
:10590000E552F70EDBCFE6FFF80EDBCFE6FFFA0E2F
:10591000DBCFE6FFFB0EDBCFE6FF86EC51F0E55276
:10592000E552E552E55200D04ED0FC0EDB502CE0A3
:10593000010A01E047D0D950FA0FE96EFF0EDA20D4
:10594000EA6EFF0EEE1802E1FF0EED180AE0FA0E05
:10595000DBCFE6FFFB0EDBCFE6FF61EC4EF0E5525E
:10596000E552F70EDBCFE6FFF80EDBCFE6FFFD0ECC
:10597000DBCFE6FFFE0EDBCFE6FF29EC51F0E55270
:10598000E552E552E5521ED0F70EDBCFE6FFF80EEA
:10599000DBCFE6FFFA0EDBCFE6FFFB0EDBCFE6FF49
:1059A000FD0EDBCFE6FFFE0EDBCFE6FFE7EC4FF0B0
:1059B000146E060EE15E14501FEC51F0000901E177
:1059C000FBD700D000D0E552E7CFD9FF1200D9CFE6
:1059D000E6FFE1CFD9FF120EE126FC0EDB501FE0FF
:1059E000010A01E0ACD0F70EDBCFE6FFF80EDBCF0B
:1059F000E6FFF90EDBCFE6FFFA0EDBCFE6FFFB0E8C
:105A0000DBCFE6FFFD0EDBCFE6FFFE0EDBCFE6FFD2
:105A100017EC79F0146E070EE15E145090D0D95057
:105A2000FD0FE96EFF0EDA20EA6EFF0EEE1802E1BE
:105A3000FF0EED180AE0FD0EDBCFE6FFFE0EDBCF1A
:105A4000E6FF3EEC4EF0E552E552100EF36EF3CF5A
:105A5000DBFF110EDB6AD950F70FE96EFF0EDA207B
:105A6000EA6EEE50ED106AE0100EDBCF14F0110E6E
:105A7000DBCF15F0F70EDBCF16F0F80EDBCF17F00B
:105A80001450165C155017580CE2F70EDBCF08F0D7
:105A9000F80EDBCF09F0100E08C0DBFF110E09C0B5
:105AA000DBFF100EDBCFE6FF110EDBCFE6FFF90EBA
:105AB000DBCFE6FFFA0EDBCFE6FFFB0EDBCFE6FF28
