:020000040000FA
:060000003DEFBBF0120011
:020006001200E6
:06000800ACEFA3F01200B2
:02000E001200DE
:06001000073B01F33A0179
:02001600FFFFEA
:060018004FEFA3F01200FF
:02001E000F00D1
:1000200035500100FF0500000100000000780100CC
:100030000906000002000000FC770100FB0500003B
:1000400004000000FA77010007060000020000002B
:10005000F87701000506000002000000F4770100B7
:10006000F705000004000000160000000306000071
:1000700002000000F0770100F3050000040000001A
:10008000FD76010000030000F3000000FA76010095
:100090000006000003000000F2760100580F000087
:1000A00008000000E8760100C70500000A00000013
:1000B000E2760100E905000006000000D9760100A3
:1000C000DA0500000900000010000000E305000050
:0400D0000600000026
:0C00D400D9CFE6FFE1CFD9FFFE0EDB50D4
:1000E0000601055D01E141D0FE0E055D1BE01C0E21
:1000F000E66EE66A890EE66E000EE66E05511C0D90
:10010000F3CF00F0F4CF01F0000E0026010E012223
:1001100000C0E6FF01C0E6FFC9ECADF0026E060EBE
:10012000E15E0250FE0EDBCF05F6DB50FE0801E17A
:100130001CD01C0EE66EE66AFE0EDB501C0DF3CFE3
:1001400000F0F4CF01F0000E0026010E012200C0E5
:10015000E6FF01C0E6FF890EE66E000EE66EC9EC12
:10016000ADF0026E060EE15E0250E552E7CFD9FF18
:10017000120006010551065D01E156D0FE0E065D36
:1001800035E0270EE66EE66A010EE66E620EE66E5A
:10019000000EE66E06511C0DF3CFE9FFF4CFEAFF27
:1001A000000EE926010EEA221B0EE926000EEA22C5
:1001B000EF50E66E06511C0DF3CFE9FFF4CFEAFFD6
:1001C000000EE926010EEA22EECF00F0EFCF01F09B
:1001D000270E005E000E015A00C0E6FF01C0E6FFD8
:1001E00054EC2CF0026E080EE15E025005C606F6D5
:1001F000270EE66EE66AA4C0E6FF89C000F08AC05A
:1002000001F0005E000E015A00C0E6FF01C0E6FFEB
:10021000010EE66E620EE66E000EE66E54EC2CF0F9
:10022000026E080EE15E02501200D9CFE6FFE1CF68
:10023000D9FF0B0EE126C00EF36E090EF3CFDBFFE4
:10024000100EF36E0A0EF3CFDBFF00016051611157
:100250000FE13EEC64F026C060F027C061F0FF0EB5
:1002600000016017070E6117000E6027040E61235E
:100270003C0EE66EE66AE66AB10EE66E000EE66ECB
:1002800017ECAEF0006E050EE15E0050010EDB6A69
:10029000DF6ADF50006E016A090E005C000E015833
:1002A00001E33ED1DFCFE6FF15DFE552A80E006E79
:1002B000750E016E010E026EDFCF03F0046A056A4F
:1002C000060E2C6E2D6A2E6A03C027F004C028F09B
:1002D00005C029F015ECB8F024C003F025C004F0E7
:1002E00026C005F000500324F36E01500420F46E84
:1002F00002500520F86EF4CFF7FFF3CFF6FFF62A91
:10030000000EF722F8220800080EF5CFDBFFA80E3A
:10031000006E750E016E010E026EDFCF03F0046AEF
:10032000056A060E2C6E2D6A2E6A03C027F004C0E3
:1003300028F005C029F015ECB8F024C003F025C062
:1003400004F026C005F000500324F36E0150042091
:10035000F46E02500520F86EF4CFF7FFF3CFF6FFEE
:10036000020EF626000EF722F8220900020EF5CF43
:10037000DBFF0A00030EF5CFDBFFA80E006E750E43
:10038000016E010E026EDFCF03F0046A056A060EED
:100390002C6E2D6A2E6A03C027F004C028F005C019
:1003A00029F015ECB8F024C003F025C004F026C0F5
:1003B00005F000500324F36E01500420F46E025047
:1003C0000520F86EF4CFF7FFF3CFF6FF040EF62604
:1003D000000EF722F8220900040EF5CFDBFF0A0019
:1003E000050EF5CFDBFF080EDB5001E098D0090EBB
:1003F000DBCF28F00A0EDBCF29F0060E28C0DBFF8A
:10040000070E29C0DBFF020EDBCF02F0030EDBCFAD
:1004100003F0270E0226000E0322010E0226000E14
:100420000322040EDB500224006E050EDB50032075
:10043000016E010E0026000E0122D950090FE96E4F
:10044000DACFEAFF0050EE260150ED22090EDBCF95
:1004500000F00A0EDBCF01F0026A036AD880FC0EBE
:1004600000541F0E0154000E0254000E035401E20A
:10047000EDD7080EDBCFA4F0060EDBCF89F0070E18
:10048000DBCF8AF0270E00018927000E8A23020E97
:10049000DB5089258B6F030EDB508A218C6F010E98
:1004A0008B27000E8C23040EDB508B258D6F050EE1
:1004B000DB508C218E6F0D0E9F6FA0975ADEA80E19
:1004C000006E750E016E010E026EDFCF03F0046A3E
:1004D000056A060E2C6E2D6A2E6A03C027F004C032
:1004E00028F005C029F015ECB8F024C003F025C0B1
:1004F00004F026C005F000500324F36E01500420E0
:10050000F46E02500520F86EF4CFF7FFF3CFF6FF3C
:100510000800F5CF88F0C4EC1FF0DF2ABAD6FFD769
:100520000B0EE15C02E2E16AE552E16EE552E7CFD3
:10053000D9FF1200D9CFE6FFE1CFD9FFE652DF6A3B
:10054000DF50006E016A090E005C000E015801E3E5
:10055000D1D0DFCFE6FFBEDDE5520D0E00019F5D7D
:1005600001E0C6D006DEF70EDB500001885D01E039
:10057000BFD0180E856F020E866FFA0EDB5010E1A9
:10058000F80EDBCF72F0F90EDBCF73F0A087040E0C
:100590009F6FF80EDBCFA2F0F90EDBCFA3F0A6D051
:1005A000000E605D040E615906E3880ED880605528
:1005B000130E615503E2606B040E616F60C072F050
:1005C00061C073F0602B000E6123F80EDBCF70F07A
:1005D000F90EDBCF71F030ECB5F026C097F027C0F4
:1005E00098F028C099F029C09AF00001A089FA0E6D
:1005F000DB50040A34E0070A01E078D0FB0EDBCFC1
:1006000004F0FC0EDBCF05F0FD0EDB500424026E7F
:10061000FE0EDB500520036EF80EDB500224006E48
:10062000F90EDB500320016E00507219A26F0150C9
:100630007319A36FFB0EDBCF78F0FC0EDBCF79F0E4
:10064000FD0EDBCF7AF0FE0EDBCF7BF0876B270E43
:10065000626F636B646B656B020E9F6F47D0FB0E1E
:10066000DBCFE9FFFC0EDBCFEAFF020EE926000E2E
:10067000EA22EECF04F0EFCF05F0FB0EDBCFE9FF6F
:10068000FC0EDBCFEAFF0450EE24026E0550EE2094
:10069000036EF80EDB500224006EF90EDB500320CF
:1006A000016E00507219A26F01507319A36F0A0EE8
:1006B000E66EE66AFB0EDBCFE6FFFC0EDBCFE6FF65
:1006C000780EE66E000EE66EC9ECADF0006E060E1A
:1006D000E15E00500001050E9F6F010EE66E020EF6
:1006E000E66EB4EC17F0E552E55200D0DF5004D0CE
:1006F000DF2A26D7FE0E00D0E552E552E7CFD9FF1C
:100700001200D9CFE6FFE1CFD9FFFE0EDBCFE6FF27
:10071000E1DCE5520001A1A903D0A199010E02D0AC
:10072000000E00D0E552E7CFD9FF1200D9CFE6FF87
:10073000E1CFD9FFFE0EDBCFE6FFCCDCE552070EA2
:1007400000019F5D02E0000E01D0010E00D0E552D5
:10075000E7CFD9FF1200D9CFE6FFE1CFD9FFFE0ED8
:10076000DBCFE6FFB7DCE55293C095F094C096F07E
:1007700000019F51080A47E0010A45E0050A43E0ED
:10078000020A3EE0050A26E00D0A0EE0010A0CE02E
:10079000070A07E0020A05E0010A03E0060A01E091
:1007A00032D0C4EC1FF039D0010EE66E110EE66EA9
:1007B000B4EC17F0E552E55200017451751101E1F6
:1007C00006D06E518F1902E16F519019EDE1080EBC
:1007D0009F6F23D0010EE66E110EE66EB4EC17F09B
:1007E000E552E55200017451751101E106D06E51D8
:1007F0008F1902E16F519019EDE10C0E9F6F0DD032
:100800000D0E9F6F0AD0E66A140EE66EB4EC17F078
:10081000E552E552C4EC1FF000D0E552E7CFD9FF16
:100820001200D9CFE6FFE1CFD9FFFE0EDBCFE6FF06
:1008300051DCE5520001A097FE0EDBCFE6FF8BDF17
:10084000E552E552E7CFD9FF1200D9CFE6FFE1CF5D
:10085000D9FFFE0EDBCFE6FF3DDCE5528ADC0A0E57
:10086000E66EE66A780EE66E000EE66EA50EE66EA1
:10087000000EE66EC9ECADF0006E060EE15E0050B3
:1008800070C0AFF071C0B0F0A50E006E000E016E2A
:1008900000C0F3FF01C0F4FF00D0E552E7CFD9FF5D
:1008A0001200D9CFE6FFE1CFD9FFFE0EDBCFE6FF86
:1008B00011DCE5525EDC00016E518F1902E16F51CF
:1008C000901908E0010EE66E100EE66EB4EC17F01B
:1008D000E552E552E552E7CFD9FF1200D9CFE6FF46
:1008E000E1CFD9FFE652FE0EDBCFE6FF6AEC00F067
:1008F000E5529FC0DFFF070EDF5C06E00B0EDF5CFA
:1009000003E0F36AF46A2FD0000191518F5D925198
:1009100090591BE389518B5D026E8C518A55036E91
:100920000206000E035A91518F5D046E905192554C
:10093000056E0450025C006E05500358016E00C045
:10094000F3FF01C0F4FF0FD00ED08F51915D006E08
:1009500092519055016E0006000E015A00C0F3FF3F
:1009600001C0F4FF00D0E552E552E7CFD9FF1200F5
:10097000D9CFE6FFE1CFD9FF020EE126FE0EDBCF95
:10098000E6FF6AEC00F0E552FE0EDBCFE6FFA6DFE5
:10099000E552F3CFDEFFF4CFDDFFD9CFE9FFDACFA9
:1009A000EAFFEE50ED1003E1000E75D00ED0D9CF66
:1009B000E9FFDACFEAFF010EEE1801E1ED5005E1A3
:1009C000FE0EDBCFE6FF6DDFE5520001A151010B0A
:1009D00019E1DECF00F0DDCF01F089518B5D026EB1
:1009E0008C518A55036ED890033202320050025C5B
:1009F0000150035807E3FE0EDBCFE6FF52DFE5525E
:100A00000001A181010EE66EE66AE66ED950FD0F87
:100A1000E66EFF0EDA20E66EA4C0E6FF8FC0E6FFAA
:100A200090C0E6FF54EC2CF0006E080EE15E005022
:100A300000018F2B000E90238B518F5D8C519059AC
:100A400004E389C08FF08AC090F0D9CFE9FFDACFF4
:100A5000EAFF010EEE1801E1ED5006E1FE0EDBCFDC
:100A6000E6FF1FDFE55215D0A0BB13D0A08B3BECF7
:100A7000B5F026C000F027C001F0026A036A060E36
:100A80000026000E01220222032200C09BF001C0BA
:100A90009CF0010E00D0006E020EE15C02E2E16A01
:100AA000E552E16E0050E552E7CFD9FF1200D9CFF1
:100AB000E6FFE1CFD9FF060EE126040EDB6A050E44
:100AC000DB6AFE0EDBCFE6FF6AEC00F0E552FE0EBD
:100AD000DBCFE6FF03DFE552020EF3CFDBFF030EB1
:100AE000F4CFDBFFD950020FE96EDACFEAFFEE5008
:100AF000ED1008E1FE0EDBCFE6FFD3DEE552F36A30
:100B0000F46AEED0020EDBCFDEFFDBCFDDFFDBCF02
:100B100000F0030EDBCF01F0FA0EDBCF02F0FB0E8C
:100B2000DBCF03F00050025C0150035805E2FA0EDF
:100B3000DBCFDEFFDBCFDDFF0001A151010B1BE1AD
:100B4000020EDBCF00F0030EDBCF01F089518B5D8D
:100B5000026E8C518A55036ED890033202320050D7
:100B6000025C0150035807E3FE0EDBCFE6FF99DE7F
:100B7000E5520001A181DE508F250001006EDD509D
:100B8000000190210001016E00018B51005C8C512D
:100B9000015848E38F518B5D006E8C519055016E6A
:100BA000040E00C0DBFF050E01C0DBFF040EDBCF2F
:100BB000E6FF050EDBCFE6FF010EE66EFC0EDBCF97
:100BC000E6FFFD0EDBCFE6FFA4C0E6FF8FC0E6FF29
:100BD00090C0E6FF54EC2CF0006E080EE15E005071
:100BE000040EDBCF00F0050EDBCF01F0D950FC0F77
:100BF000E96EFF0EDA20EA6E0050EE260150ED227B
:100C0000040EDBCF00F0050EDBCF01F0D9CFE9FFFA
:100C1000DACFEAFF0050EE5E0150ED5A89C08FF046
:100C20008AC090F0DECFE6FFDDCFE6FF010EE66E74
:100C3000FC0EDBCFE6FFFD0EDBCFE6FFA4C0E6FF38
:100C40008FC0E6FF90C0E6FF54EC2CF0006E080E5B
:100C5000E15E0050D9CFE9FFDACFEAFFEE500001A4
:100C60008F27EE509023020EDBCF00F0030EDBCF78
:100C700001F0FA0EDBCF02F0FB0EDBCF03F00050E9
:100C8000025C0150035806E3FE0EDBCFE6FF09DEEF
:100C9000E55215D0A0BB13D0A08B3BECB5F026C01D
:100CA00000F027C001F0026A036A060E0026000E5B
:100CB00001220222032200C09BF001C09CF0040E1E
:100CC000DBCF02F0050EDBCF03F0DE500224006E16
:100CD000DD500320016E00C0F3FF01C0F4FF00D01F
:100CE000060EE15C02E2E16AE552E16EE552E7CF11
:100CF000D9FF1200D9CFE6FFE1CFD9FF060EE126DA
:100D0000040EDB6A050EDB6AFE0EDBCFE6FF6AEC43
:100D100000F0E552FE0EDBCFE6FFE0DDE552020E0D
:100D2000F3CFDBFF030EF4CFDBFFD950020FE96EE8
:100D3000DACFEAFFEE50ED1008E1FE0EDBCFE6FF62
:100D4000B0DDE552F36AF46AF3D00001A151010B62
:100D50001BE1020EDBCF00F0030EDBCF01F0895167
:100D60008B5D026E8C518A55036ED890033202322D
:100D70000050025C0150035807E3FE0EDBCFE6FF94
:100D800090DDE5520001A181020EDBCFDEFFDBCF5B
:100D9000DDFFDBCF00F0030EDBCF01F0F90EDBCF80
:100DA00002F0FA0EDBCF03F00050025C0150035852
:100DB00005E2F90EDBCFDEFFDBCFDDFFDE508F2556
:100DC0000001006EDD50000190210001016E000164
:100DD0008B51005C8C5101584CE38F518B5D006E40
:100DE0008C519055016E040E00C0DBFF050E01C052
:100DF000DBFF040EDBCFE6FF050EDBCFE6FFFB0ECD
:100E0000DBCFE6FFFC0EDBCFE6FFFD0EDBCFE6FF20
:100E1000A4C0E6FF8FC0E6FF90C0E6FFF9EC2CF01F
:100E2000006E080EE15E0050040EDBCF00F0050EF0
:100E3000DBCF01F0026AD950FB0FE96EFF0EDA201A
:100E4000EA6E0050EE260150EE220250EE22040E11
:100E5000DBCF00F0050EDBCF01F0D9CFE9FFDACF11
:100E6000EAFF0050EE5E0150ED5A89C08FF08AC053
:100E700090F0DECFE6FFDDCFE6FFFB0EDBCFE6FF37
:100E8000FC0EDBCFE6FFFD0EDBCFE6FFA4C0E6FFE6
:100E90008FC0E6FF90C0E6FFF9EC2CF0006E080E64
:100EA000E15E0050D9CFE9FFDACFEAFFEE50000152
:100EB0008F27EE509023020EDBCF00F0030EDBCF26
:100EC00001F0F90EDBCF02F0FA0EDBCF03F0005099
:100ED000025C0150035806E3FE0EDBCFE6FFE1DCC7
:100EE000E55215D0A0BB13D0A08B3BECB5F026C0CB
:100EF00000F027C001F0026A036A060E0026000E09
:100F000001220222032200C09BF001C09CF0040ECB
:100F1000DBCF02F0050EDBCF03F0DE500224006EC3
:100F2000DD500320016E00C0F3FF01C0F4FF00D0CC
:100F3000060EE15C02E2E16AE552E16EE552E7CFBE
:100F4000D9FF1200D9CFE6FFE1CFD9FFFC0EDBCFEE
:100F500002F0FD0EDBCF03F002C0E6FF03C0E6FFA8
:100F6000FC0EDBCFE6FFFD0EDBCFE6FF8FECAEF035
:100F7000E552E552F3CF04F0F4CF05F004C0E6FFEC
:100F800005C0E6FFFC0EDBCFE6FFFD0EDBCFE6FF84
:100F9000FE0EDBCFE6FF8BDD066E050EE15E065032
:100FA000E552E7CF03F0E552E7CF02F00250F32419
:100FB000006E0350F420016E00C0F3FF01C0F4FF87
:100FC00000D0E552E7CFD9FF1200D9CFE6FFE1CF3D
:100FD000D9FFFB0EDBCFE6FFFC0EDBCFE6FFFD0EFD
:100FE000DBCFE6FF9DECAEF0E552E552E55227C0BF
:100FF00006F028C007F006C0E6FF07C0E6FFFB0EBC
:10100000DBCFE6FFFC0EDBCFE6FFFD0EDBCFE6FF1E
:10101000FE0EDBCFE6FF6EDE086E060EE15E0850C8
:10102000F3CF03F0F4CF04F0056AD950FB0FE96E5B
:10103000FF0EDA20EA6EEE500324006EEE5004201C
:10104000016EEE500520026E00C027F001C028F0AE
:1010500002C029F000D0E552E7CFD9FF1200D9CF66
:10106000E6FFE1CFD9FF040EE126FE0EDBCFE6FF5F
:101070006AEC00F0E552000189518B5D006E8C51E5
:101080008A55016E0006000E015A020E00C0DBFFF9
:10109000030E01C0DBFFFE0EDBCFE6FF1FDCE552D7
:1010A000F3CFDEFFF4CFDDFF020EDBCF02F0030E45
:1010B000DBCF03F0DE50025C006EDD500358016EA2
:1010C00000C0F3FF01C0F4FF040EE15C03E200D0B6
:1010D000E16AE552E16EE552E7CFD9FF1200D9CFC0
:1010E000E6FFE1CFD9FFFE0EDBCFE6FF1ED8E552CB
:1010F000F3CF00F0F4CF01F00050011012E0FE0E2B
:10110000DBCFE6FF6AEC00F0E55293C095F094C0A7
:1011100096F0010EE66E100EE66EB4EC17F0E55296
:10112000E552E552E7CFD9FF1200D9CFE6FFE1CF74
:10113000D9FFFE0EDBCFE6FF6AEC00F0E5520001BE
:101140009551935D965194590CE39551935D006EC2
:1011500094519655016E00C0F3FF01C0F4FF1CD0FE
:101160001BD095518D5D026E8E519655036E010E0A
:101170000226000E03228B51935D046E94518C5510
:10118000056E02500424006E03500520016E00C05D
:10119000F3FF01C0F4FF00D0E552E7CFD9FF120002
:1011A000D9CFE6FFE1CFD9FF020EE126FE0EDBCF5D
:1011B000E6FFBBDFE552F3CFDEFFF4CFDDFFD9CF93
:1011C000E9FFDACFEAFFEE50ED1002E1000E54D055
:1011D000FE0EDBCFE6FF6AEC00F0E552D950FC0FC3
:1011E000E96EFF0EDA20EA6EEE50ED1016E0010E09
:1011F000E66EE66AA4C0E6FF95C0E6FF96C0E6FF8D
:10120000E66EFC0EDBCFE6FFFD0EDBCFE6FF54EC17
:101210002CF0006E080EE15E00500001952B000ED0
:10122000962395518D5D96518E5904E28BC095F0B1
:101230008CC096F0D9CFE9FFDACFEAFF010EEE18A5
:1012400001E1ED5002E1A18515D0A0BB13D0A08B28
:101250003BECB5F026C000F027C001F0026A036A3B
:101260001F0E0026000E01220222032200C09BF066
:1012700001C09CF0010E00D0006E020EE15C02E2A3
:10128000E16AE552E16E0050E552E7CFD9FF120066
:10129000D9CFE6FFE1CFD9FF040EE126020EDB6ACB
:1012A000030EDB6AFE0EDBCFE6FF3FDFE552F3CF36
:1012B000DEFFF4CFDDFFD9CFE9FFDACFEAFFEE5052
:1012C000ED1003E1F36AF46AFFD0FE0EDBCFE6FF18
:1012D0006AEC00F0E552FA0EDBCF00F0FB0EDBCF3C
:1012E00001F0DECF02F0DDCF03F00050025C0150D0
:1012F00003580AE2D9CFE9FFDACFEAFFFA0EEECFC0
:10130000DBFFFB0EEDCFDBFFFA0EDB500001952576
:101310000001006EFB0EDB50000196210001016E02
:10132000000100508D5D01508E5957E295518D5D41
:10133000006E8E519655016E010E0026000E0122A0
:10134000020E00C0DBFF030E01C0DBFFD950FC0F13
:10135000E96EFF0EDA20EA6EEE50ED102AE0020E82
:10136000DBCFE6FF030EDBCFE6FFA4C0E6FF95C0B0
:10137000E6FF96C0E6FF010EE66EFC0EDBCFE6FF51
:10138000FD0EDBCFE6FF54EC2CF0006E080EE15EA4
:101390000050020EDBCF00F0030EDBCF01F0D9507E
:1013A000FC0FE96EFF0EDA20EA6E0050EE260150C7
:1013B000ED22020EDBCF00F0030EDBCF01F0D9509F
:1013C000FA0FE96EFF0EDA20EA6E0050EE5E015071
:1013D000ED5A8BC095F08CC096F0D950FC0FE96E99
:1013E000FF0EDA20EA6EEE50ED101AE0FA0EDBCFB7
:1013F000E6FFFB0EDBCFE6FFA4C0E6FF95C0E6FFED
:1014000096C0E6FF010EE66EFC0EDBCFE6FFFD0E9A
:10141000DBCFE6FF54EC2CF0006E080EE15E0050CE
:10142000FA0EDBCF28F0FB0EDBCF29F028500001AD
:10143000952729509623020EDBCF00F0030EDBCF59
:1014400001F0D950FA0FE96EFF0EDA20EA6E005073
:10145000EE260150ED22DECF02F0DDCF03F0FA0ED2
:10146000DB50025C006EFB0EDB500358016EFA0E7F
:10147000DBCF04F0FB0EDBCF05F00050045C015025
:10148000055802E3A18515D0A0BB13D0A08B3BEC7F
:10149000B5F026C000F027C001F0026A036A1F0EF3
:1014A0000026000E01220222032200C09BF001C090
:1014B0009CF0FA0EDBCF00F0FB0EDBCF01F000C09A
:1014C000F3FF01C0F4FF00D0040EE15C02E2E16A28
:1014D000E552E16EE552E7CFD9FF1200D9CFE6FF22
:1014E000E1CFD9FF040EE126FE0EDBCFE6FF6AEC6A
:1014F00000F0E55200018B518D5D006E8E518C55D0
:10150000016E020E00C0DBFF030E01C0DBFFFE0E0A
:10151000DBCFE6FF0ADEE552F3CFDEFFF4CFDDFFDF
:10152000020EDBCF02F0030EDBCF03F0DE50025CD5
:10153000006EDD500358016E00C0F3FF01C0F4FFE0
:10154000040EE15C03E200D0E16AE552E16EE5528F
:10155000E7CFD9FF1200D9CFE6FFE1CFD9FF060EC2
:10156000E126D950FA0FE96EFF0EDA20EA6EEE504E
:10157000ED1003E1F36AF46AFDD0FE0EDBCFE6FF67
:101580006AEC00F0E552FE0EDBCFE6FFCEDDE55261
:10159000020EF3CFDBFF030EF4CFDBFFFA0EDBCF3F
:1015A00002F0FB0EDBCF03F0F80EDB500224006EDE
:1015B000F90EDB500320016E020EDBCF04F0030EA8
:1015C000DBCF05F00050045C0150055814E2020E18
:1015D000DBCF02F0030EDBCF03F0F80EDB50025C32
:1015E000006EF90EDB500358016EFA0E00C0DBFFEF
:1015F000FB0E01C0DBFFF80EDB500001952500015A
:10160000006EF90EDB50000196210001016E00C052
:10161000DEFF01C0DDFFDECF00F0DDCF01F0000115
:1016200000508D5D01508E5912E28B518D5D006E20
:101630008E518C55016E010E0026000E0122D9CF6D
:10164000E9FFDACFEAFF0050EE5E0150ED5ADE50BE
:101650008D5D006EDD508E59016E010E0026000E6C
:101660000122040E00C0DBFF050E01C0DBFFFA0EF5
:10167000DBCF00F0FB0EDBCF01F0040EDBCF02F07E
:10168000050EDBCF03F00050025C015003581BE352
:10169000FA0EDBCFE6FFFB0EDBCFE6FFA4C0E6FFD2
:1016A000DECFE6FFDDCFE6FF010EE66EFC0EDBCF00
:1016B000E6FFFD0EDBCFE6FF54EC2CF0006E080ECB
:1016C000E15E00504CD0040EDBCFE6FF050EDBCF11
:1016D000E6FFA4C0E6FFDECFE6FFDDCFE6FF010EAA
:1016E000E66EFC0EDBCFE6FFFD0EDBCFE6FF54EC33
:1016F0002CF0006E080EE15E0050FA0EDBCF02F017
:10170000FB0EDBCF03F0040EDB50025C006E050E17
:10171000DB500358016E00C0E6FF01C0E6FFA4C025
:10172000E6FF8BC0E6FF8CC0E6FF010EE66E040EFE
:10173000DBCF06F0050EDBCF07F0FC0EDB500624F6
:10174000046EFD0EDB500720056E04C0E6FF05C0E9
:10175000E6FF54EC2CF0086E080EE15E0850FA0E1D
:10176000DBCF00F0FB0EDBCF01F000C0F3FF01C0C8
:10177000F4FF00D0060EE15C02E2E16AE552E16EA0
:10178000E552E7CFD9FF1200D9CFE6FFE1CFD9FF6D
:10179000E652FC0EDBCFE6FFFD0EDBCFE6FF010ECF
:1017A000E66EE66AD9CFE6FFDACFE6FFFE0EDBCFC4
:1017B000E6FFD1DE006E070EE15E0050DF5000D084
:1017C000E552E552E7CFD9FF1200D9CFE6FFE1CFCE
:1017D000D9FF300EE126D950FA0FE96EFF0EDA205C
:1017E000EA6EEE50ED1003E1F36AF46AF2D2FE0EF7
:1017F000DBCFE6FF6AEC00F0E552FE0EDBCFE6FF42
:1018000094DCE552F3CF02F0F4CF03F0F80EDB5096
:10181000025C006EF90EDB500358016E020E00C030
:10182000DBFF030E01C0DBFF020EDBCF00F0030E77
:10183000DBCF01F0FA0EDBCF02F0FB0EDBCF03F0C3
:101840000250005C0350015803E2F368F468C1D20F
:10185000D950F60FE96EFF0EDA20EA6EEE50ED1069
:101860001DE0020EDBCF00F0030EDBCF01F0F60E21
:10187000DBCF02F0F70EDBCF03F00050025C01502B
:1018800003580CE2F60EDBCF28F0F70EDBCF29F081
:10189000020E28C0DBFF030E29C0DBFFF80EDB5071
:1018A000000195250001006EF90EDB500001962124
:1018B0000001016E060E00C0DBFF070E01C0DBFF5A
:1018C000060EDBCF00F0070EDBCF01F00001005069
:1018D0008D5D01508E5913E28B518D5D006E8E51DE
:1018E0008C55016E010E0026000E0122D950060F04
:1018F000E96EDACFEAFF0050EE5E0150ED5A060EB7
:10190000DBCFDEFFDBCFDDFFDB508D5D0001006E46
:10191000070EDB5000018E590001016E010E0026FA
:10192000000E0122040E00C0DBFF050E01C0DBFF2C
:10193000F80EDBCF28F0F90EDBCF29F0060E28C019
:10194000DBFF070E29C0DBFFFA0EDBCF28F0FB0E12
:10195000DBCF29F0080E28C0DBFF090E29C0DBFF12
:10196000FC0EDBCF28F0FD0EDBCF29F00A0E28C0DD
:10197000DBFF0B0E29C0DBFFFC0EDBCFE9FFDB2A10
:10198000FD0EDBCFEAFF01E3DB2A0D0EEFCFDBFF1D
:101990000F0EDB6AF50EDB5016E0610EF36E0D0ED6
:1019A000DBCFF4FFF350F45C0EE30D0EDB507A084E
:1019B0000AE3E00E006E0D0EDBCFE7FF0050E726D6
:1019C0000D0EE7CFDBFF200EF36E0E0EF3CFDBFF25
:1019D000DBCF00F0040EDBCF01F0050EDBCF02F011
:1019E0000050015C000E025806E2040EDB50E76E68
:1019F0000E0EE7CFDBFF0E0EDBCF00F0020EDBCFCB
:101A000001F0030EDBCF02F00050015C000E025823
:101A100006E2020EDB50E76E0E0EE7CFDBFF0E0E86
:101A2000DBCFE6FFE66AA4C0E6FFDECFE6FFDDCF50
:101A3000E6FF010EE66ED950100FE66E000EDA20BA
:101A4000E66E54EC2CF0006E080EE15E00500E0EB7
:101A5000DB50DE26000EDD220E0EDB50006E016A2A
:101A6000D950040FE96EDACFEAFF0050EE5E015064
:101A7000ED5AD950040FE96EDACFEAFFEE50ED10BF
:101A800008E18BC0DEFF8CC0DDFF040EDB68050EB5
:101A9000DB68F50EDB5001E1E5D00C0EDB6A0E0EC3
:101AA000DB50F36E0C0EDBCFF4FFF350F45C01E37C
:101AB000D8D0D950100F016EDACF02F00C0EDB50E7
:101AC0000F010124E96E000E0220EA6EEFCF00F054
:101AD000610E005C1FE3D950100F036EDACF04F0E3
:101AE0000C0EDB500324E96E000E0420EA6EEF506A
:101AF0007A0810E3E00E026ED950100F006EDACFB4
:101B000001F00C0EDB500024E96E000E0120EA6E9D
:101B10000250EF26D950100F006EDACF01F00C0EF4
:101B2000DB500024E96E000E0120EA6EEF50F36EE8
:101B30000D0EDB50F35C53E1FA0EDB06DBCF00F059
:101B4000FB0E01E2DB06DBCF01F0005001101FE1CC
:101B5000060EDBCF04F0070EDBCF05F0080EDB50DE
:101B6000045C026E090EDB500558036E0C0EDB5050
:101B700000010224006E000E0320016E010E0026FB
:101B8000000E012200C0F3FF01C0F4FF22D1FC0EC1
:101B9000DBCFE9FFDB2AFD0EDBCFEAFF01E3DB2A27
:101BA0000D0EEFCFDBFF010EF36E0F0EF3CFDBFF59
:101BB000610EF36E0D0EDBCFF4FFF350F45C0EE319
:101BC0000D0EDB507A080AE3E00E006E0D0EDBCF3F
:101BD000E7FF0050E7260D0EE7CFDBFF3FD0080EF2
:101BE000DBCF28F0090EDBCF29F0FA0E28C0DBFF8F
:101BF000FB0E29C0DBFF0F0EDB5030E00A0EDBCFFF
:101C000028F00B0EDBCF29F0FC0E28C0DBFFFD0E09
:101C100029C0DBFFFC0EDBCFE9FFDB2AFD0EDBCFAB
:101C2000EAFF01E3DB2A0D0EEFCFDBFF610EF36E5F
:101C30000D0EDBCFF4FFF350F45C0EE30D0EDB5022
:101C40007A080AE3E00E006E0D0EDBCFE7FF0050CE
:101C5000E7260D0EE7CFDBFF0F0EDB6A0C0EDB2A4B
:101C60001ED788D00C0EDB6A0E0EDB50F36E0C0E06
:101C7000DBCFF4FFF350F45C01E37CD0D950100FBC
:101C8000006EDACF01F00C0EDB500F010024E96E7C
:101C9000000E0120EA6EEF50F36E0D0EDB50F35C88
:101CA0003DE1FA0EDB06DBCF00F0FB0E01E2DB06C6
:101CB000DBCF01F0005001101FE1060EDBCF04F076
:101CC000070EDBCF05F0080EDB50045C026E090E38
:101CD000DB500558036E0C0EDB5000010224006E31
:101CE000000E0320016E010E0026000E012200C02E
:101CF000F3FF01C0F4FF6DD0FC0EDBCFE9FFDB2A60
:101D0000FD0EDBCFEAFF01E3DB2A0D0EEFCFDBFF99
:101D1000010EF36E0F0EF3CFDBFF29D0080EDBCFE1
:101D200028F0090EDBCF29F0FA0E28C0DBFFFB0EEE
:101D300029C0DBFF0F0EDB501AE00A0EDBCF28F0C4
:101D40000B0EDBCF29F0FC0E28C0DBFFFD0E29C0F7
:101D5000DBFFFC0EDBCFE9FFDB2AFD0EDBCFEAFF6A
:101D600001E3DB2A0D0EEFCFDBFF0F0EDB6A0C0E5B
:101D7000DB2A7AD70E0EDB50006E016AD950020FB3
:101D8000E96EDACFEAFF0050EE5E0150ED5A020E26
:101D9000DBCF00F0030EDBCF01F0FA0EDBCF02F059
:101DA000FB0EDBCF03F00250005C0350015803E24E
:101DB000F368F4680ED00E0EDB50006E016AD95045
:101DC000060FE96EDACFEAFF0050EE260150ED2251
:101DD000FAD5300EE15C02E2E16AE552E16EE552CD
:101DE000E7CFD9FF1200D9CFE6FFE1CFD9FF310EFF
:101DF000E126D950F90FE96EFF0EDA20EA6EEE50B7
:101E0000ED1003E1F36AF46A22D3FE0EDBCFE6FFA6
:101E10006AEC00F0E552FE0EDBCFE6FF95EC08F031
:101E2000E552F3CF02F0F4CF03F0F70EDB50025C83
:101E3000006EF80EDB500358016E020E00C0DBFF8F
:101E4000030E01C0DBFF020EDBCF00F0030EDBCF81
:101E500001F0F90EDBCF02F0FA0EDBCF03F00250F7
:101E6000005C0350015803E2F368F468F0D2D950E3
:101E7000F50FE96EFF0EDA20EA6EEE50ED101DE070
:101E8000020EDBCF00F0030EDBCF01F0F50EDBCF4F
:101E900002F0F60EDBCF03F00050025C0150035855
:101EA0000CE2F50EDBCF28F0F60EDBCF29F0020EA8
:101EB00028C0DBFF030E29C0DBFFF70EDB5000015B
:101EC00095250001006EF80EDB50000196210001FF
:101ED000016E060E00C0DBFF070E01C0DBFF060E21
:101EE000DBCF00F0070EDBCF01F0000100508D5D6D
:101EF00001508E5913E28B518D5D006E8E518C55C1
:101F0000016E010E0026000E0122D950060FE96E67
:101F1000DACFEAFF0050EE5E0150ED5A060EDBCF3D
:101F2000DEFFDBCFDDFFDB508D5D0001006E070EB5
:101F3000DB5000018E590001016E010E0026000EDB
:101F40000122040E00C0DBFF050E01C0DBFFF70E0F
:101F5000DBCF28F0F80EDBCF29F0060E28C0DBFF20
:101F6000070E29C0DBFFF90EDBCF28F0FA0EDBCF1E
:101F700029F0080E28C0DBFF090E29C0DBFFD9506D
:101F8000FB0FE96EFF0EDA20EA6E0A0EEECFDBFFE2
:101F90000B0EEECFDBFF0C0EEECFDBFFD950FB0FAD
:101FA000E96EFF0EDA20EA6EEFCFF6FFEE2AEFCFF2
:101FB000F7FF000EEE22EFCFF8FFEE2208000E0E24
:101FC000F5CFDBFF100EDB6AF40EDB5016E0610E7E
:101FD000F36E0E0EDBCFF4FFF350F45C0EE30E0E47
:101FE000DB507A080AE3E00E006E0E0EDBCFE7FF4F
:101FF0000050E7260E0EE7CFDBFF200EF36E0F0E2C
:10200000F3CFDBFFDBCF00F0040EDBCF01F0050EDA
:10201000DBCF02F00050015C000E025806E2040E15
:10202000DB50E76E0F0EE7CFDBFF0F0EDBCF00F0CC
:10203000020EDBCF01F0030EDBCF02F00050015C9B
:10204000000E025806E2020EDB50E76E0F0EE7CFDD
:10205000DBFF0F0EDBCFE6FFE66AA4C0E6FFDECFB4
:10206000E6FFDDCFE6FF010EE66ED950110FE66EFA
:10207000000EDA20E66E54EC2CF0006E080EE15EE5
:1020800000500F0EDB50DE26000EDD220F0EDB505F
:10209000006E016AD950040FE96EDACFEAFF0050F2
:1020A000EE5E0150ED5AD950040FE96EDACFEAFF27
:1020B000EE50ED1008E18BC0DEFF8CC0DDFF040E9A
:1020C000DB68050EDB68F40EDB5001E1F7D00D0E86
:1020D000DB6A0F0EDB50F36E0D0EDBCFF4FFF35017
:1020E000F45C01E3EAD0D950110F016EDACF02F0AF
:1020F0000D0EDB500F010124E96E000E0220EA6E86
:10210000EFCF00F0610E005C1FE3D950110F036E9A
:10211000DACF04F00D0EDB500324E96E000E04202C
:10212000EA6EEF507A0810E3E00E026ED950110FFC
:10213000006EDACF01F00D0EDB500024E96E000EC8
:102140000120EA6E0250EF26D950110F006EDACF4F
:1021500001F00D0EDB500024E96E000E0120EA6E46
:10216000EF50F36E0E0EDB50F35C5BE1F90EDB0615
:10217000DBCF00F0FA0E01E2DB06DBCF01F000500E
:1021800001101FE1060EDBCF04F0070EDBCF05F0D8
:10219000080EDB50045C026E090EDB500558036E1E
:1021A0000D0EDB5000010224006E000E0320016EB4
:1021B000010E0026000E012200C0F3FF01C0F4FF53
:1021C00046D1D950FB0FE96EFF0EDA20EA6EEFCF51
:1021D000F6FFEE2AEFCFF7FF000EEE22EFCFF8FF6B
:1021E000EE2208000E0EF5CFDBFF010EF36E100E8F
:1021F000F3CFDBFF610EF36E0E0EDBCFF4FFF35077
:10220000F45C0EE30E0EDB507A080AE3E00E006E7B
:102210000E0EDBCFE7FF0050E7260E0EE7CFDBFF09
:1022200049D0080EDBCF28F0090EDBCF29F0F90EDC
:1022300028C0DBFFFA0E29C0DBFF100EDB503AE0AE
:10224000D9500A0FE96EDACFEAFFFB0EEECFDBFFC3
:10225000FC0EEECFDBFFFD0EEECFDBFFD950FB0F08
:10226000E96EFF0EDA20EA6EEFCFF6FFEE2AEFCF2F
:10227000F7FF000EEE22EFCFF8FFEE2208000E0E61
:10228000F5CFDBFF610EF36E0E0EDBCFF4FFF350E4
:10229000F45C0EE30E0EDB507A080AE3E00E006EEB
:1022A0000E0EDBCFE7FF0050E7260E0EE7CFDBFF79
:1022B000100EDB6A0D0EDB2A0CD79AD00D0EDB6AEE
:1022C0000F0EDB50F36E0D0EDBCFF4FFF350F45C1A
:1022D00001E38ED0D950110F006EDACF01F00D0E50
:1022E000DB500F010024E96E000E0120EA6EEF5072
:1022F000F36E0E0EDB50F35C45E1F90EDB06DBCF2F
:1023000000F0FA0E01E2DB06DBCF01F00050011015
:102310001FE1060EDBCF04F0070EDBCF05F0080E41
:10232000DB50045C026E090EDB500558036E0D0E87
:10233000DB5000010224006E000E0320016E010E2E
:102340000026000E012200C0F3FF01C0F4FF7FD081
:10235000D950FB0FE96EFF0EDA20EA6EEFCFF6FFE1
:10236000EE2AEFCFF7FF000EEE22EFCFF8FFEE22BE
:1023700008000E0EF5CFDBFF010EF36E100EF3CF4B
:10238000DBFF33D0080EDBCF28F0090EDBCF29F0BE
:10239000F90E28C0DBFFFA0E29C0DBFF100EDB5060
:1023A00024E0D9500A0FE96EDACFEAFFFB0EEECF38
:1023B000DBFFFC0EEECFDBFFFD0EEECFDBFFD950D7
:1023C000FB0FE96EFF0EDA20EA6EEFCFF6FFEE2A82
:1023D000EFCFF7FF000EEE22EFCFF8FFEE2208005E
:1023E0000E0EF5CFDBFF100EDB6A0D0EDB2A68D771
:1023F0000F0EDB50006E016AD950020FE96EDACF82
:10240000EAFF0050EE5E0150ED5A020EDBCF00F005
:10241000030EDBCF01F0F90EDBCF02F0FA0EDBCFBB
:1024200003F00250005C0350015803E2F368F468C3
:102430000ED00F0EDB50006E016AD950060FE96E08
:10244000DACFEAFF0050EE260150ED22D6D5310E4C
:10245000E15C02E2E16AE552E16EE552E7CFD9FFC5
:102460001200D9CFE6FFE1CFD9FFF80EDBCFE6FFB0
:10247000F90EDBCFE6FFFA0EDBCFE6FFFB0EDBCF7C
:10248000E6FFFC0EDBCFE6FF010EE66EE66AD950F2
:10249000FD0FE66EFF0EDA20E66EFE0EDBCFE6FFE6
:1024A000E5EC0BF0006E0A0EE15E005000D0E55244
:1024B000E7CFD9FF1200D9CFE6FFE1CFD9FF060E53
:1024C000E126DF6ADF50006E016A090E005C000E33
:1024D000015801E377D3DFCFE6FF6AEC00F0E55265
:1024E000030EDB6A010EDB6A020EDB6A0001A151FA
:1024F000020B03E1A151040B12E0D1EC7AF00009C8
:102500000EE0100EF36E030EF3CFDBFF0001A151BE
:10251000040B01E0010EE76E010EE7CFDBFF0001C7
:10252000A0AB15D03BECB5F0000126509B5D006ED2
:1025300027509C59016E013404E200500008000E3F
:10254000015405E3100EF36E030EF3CFDBFFA0ADD5
:1025500015D03BECB5F0000126509D5D006E275074
:102560009E59016E013404E200500008000E01542F
:1025700005E3100EF36E030EF3CFDBFF0B0E9F5D32
:1025800017E13BECB5F0000126509D5D006E275031
:102590009E59016E013404E200500008000E0154FF
:1025A00007E3110EF36E030EF3CFDBFF0C0E9F6FEC
:1025B000040E9F5D01E02ED1040EDB6A050EDB6A7E
:1025C000040EDBCF00F0050EDBCF01F0030E005C44
:1025D000000E015801E31ED1040EDBCFE9FF050E0A
:1025E000DBCFEAFF140EEA02F3CFEAFFE902F3CFF2
:1025F000E9FFF450EA26B10EE926000EEA22100E99
:10260000E926000EEA22EE50ED1001E103D1040E9E
:10261000DBCFE9FF050EDBCFEAFF140EEA02F3CFB2
:10262000EAFFE902F3CFE9FFF450EA26B10EE9260A
:10263000000EEA22100EE926000EEA22EECF00F08C
:10264000EFCF01F0A251001802E1A351011801E0FF
:10265000DBD0B9EC00F00A0EE66EE66A040EDBCFC2
:10266000E9FF050EDBCFEAFF140EEA02F3CFEAFF23
:10267000E902F3CFE9FFF450EA26B10EE926000E95
:10268000EA22E9CF00F0EACF01F000C0E6FF01C086
:10269000E6FF780EE66E000EE66EC9ECADF0026E57
:1026A000060EE15E0250040EDBCFE9FF050EDBCF24
:1026B000EAFF140EEA02F3CFEAFFE902F3CFE9FFE3
:1026C000F450EA26B10EE926000EEA220A0EE926A7
:1026D000000EEA22EECF70F0EDCF71F0040EDBCFEA
:1026E000E9FF050EDBCFEAFF140EEA02F3CFEAFFA3
:1026F000E902F3CFE9FFF450EA26B10EE926000E15
:10270000EA220C0EE926000EEA22EECF6AF0EECFA6
:102710006BF0EECF6CF0EFCF6DF000016A2B6B2306
:102720006C236D237A517825026E7B517921036EDB
:1027300002507025006E03507121016E0050721915
:10274000A26F01507319A36F120EF36E030EF3CF35
:10275000DBFF060E9F6F040EDBCF00F0050EDBCF14
:1027600001F0020ED8800056000E0156140E010230
:10277000F3CF01F00002F3CF00F0F450012600C0C7
:10278000E6FF01C0E6FF010EE66EE76E040EDBCF4A
:1027900002F0050EDBCF03F0E7500226000E032205
:1027A000140E0302F3CF03F00202F3CF02F0F45051
:1027B0000326B10E0226000E032202C0E6FF03C06C
:1027C000E6FF010EE66E040EDBCF04F0050EDBCF54
:1027D00005F0140E0502F3CF05F00402F3CF04F068
:1027E000F4500526B10E0426000E052204C0E6FFB3
:1027F00005C0E6FF54EC2CF0066E080EE15E0650B4
:102800000001E96BEA6B06D0040EDB2A050E01E33A
:10281000DB2AD6D6030EDB500DE0010EDB5002E0C2
:10282000000E01D0010EE66E030EDBCFE6FF9CDB4F
:10283000E552E5520001A0B952D0070E9F5D4EE16E
:1028400030ECB5F000019751265C006E9851275886
:10285000016E99512858026E9A512958036E000151
:10286000800E031401E0ACD10001A051070B060853
:1028700019E1A051080B01E0010EE76E030EE7CF4E
:10288000DBFFDFCFE6FFABEC03F0E552DFCFE6FF87
:10289000ABEC03F0E552030EDB5003E100010E0E3A
:1028A0009F6F8ED1B9EC00F0020EE66E100EE66E50
:1028B0005BDBE552E55230ECB5F026C097F027C05F
:1028C00098F028C099F029C09AF0740E000197275B
:1028D000350E9823060E9923000E9A2371D130EC01
:1028E000B5F000019751265C006E98512758016E93
:1028F00099512858026E9A512958036E0001800E92
:10290000031401E05DD1B9EC00F000019F510C0A05
:1029100001E1E0D0060A01E1C6D0030A01E1B8D026
:10292000010A01E19ED00F0A01E187D00C0A01E102
:1029300084D00D0A63E0030A4CE0060A15E0010AA0
:1029400001E0DFD03BECB5F026C09BF027C09CF047
:10295000780EE66E000EE66E43EC9FF0E552E5520F
:102960000001030E9F6FCDD07C0EE66E000EE66E6A
:10297000780EE66E000EE66EB0EC9FF0E552E55282
:10298000E552E55200091AE13BECB5F000019B511C
:10299000265C006E9C512758016E0050625D01500C
:1029A00063590BE2060E875D06E2872BD8906237EB
:1029B000633764376537020E9F6FA3D0020EF36E44
:1029C000030EF3CFDBFF010EDB6A0001050E9F6FE4
:1029D00098D0020EF36E030EF3CFDBFFDE52010E32
:1029E000DD6E040E875D09E3040E876F200E626FB3
:1029F000EF0E636F090E646F656B83D0020E875D07
:102A000009E2120EF36E030EF3CFDBFFDE52010E6E
:102A1000DD6E12D0A0A70BD0140EF36E030EF3CF11
:102A2000DBFF010EF36E020EF3CFDBFF05D0020ECB
:102A3000F36E030EF3CFDBFF64D0050E875D09E272
:102A4000100EF36E030EF3CFDBFFDE52010EDD6ED0
:102A500007D0080E9F6F110EF36E030EF3CFDBFF4E
:102A600050D0050E875D09E2110EF36E030EF3CF11
:102A7000DBFFDE52010EDD6E0AD0140EF36E030E84
:102A8000F3CFDBFF010EF36E020EF3CFDBFF39D085
:102A9000140EF36E030EF3CFDBFF010EF36E020E86
:102AA000F3CFDBFF2ED0050E875D09E2100EF36E2B
:102AB000030EF3CFDBFFDE52010EDD6E0AD0140EE3
:102AC000F36E030EF3CFDBFF010EF36E020EF3CFB6
:102AD000DBFF17D0050E875D09E2110EF36E030EC2
:102AE000F3CFDBFFDE52010EDD6E0AD0140EF36E63
:102AF000030EF3CFDBFF010EF36E020EF3CFDBFF0D
:102B000000D0030EDB5057E0010EDB504CE0872B6A
:102B1000D890623763376437653791516E5D006EC8
:102B20006F519255016E040E00C0DBFF050E01C00F
:102B3000DBFF91516E5D92516F590FE289518B5DB0
:102B4000006E8C518A55016ED950040FE96EDACFB0
:102B5000EAFF0050EE260150ED22040EDBCF00F01C
:102B6000050EDBCF01F0026A036A0050665F015078
:102B7000675B0250685B0350695B040EDBCF28F093
:102B8000050EDBCF29F0285074272950752391C0FA
:102B90006EF092C06FF0E66A030EDBCFE6FFE4D979
:102BA000E552E55208D0010EE66E030EDBCFE6FFDC
:102BB000DBD9E552E552020EDB5002E0C4EC1FF017
:102BC000DF2A80D4040EDB6A050EDB6A040EDBCF3D
:102BD00000F0050EDBCF01F0030E005C000E015883
:102BE00001E3B1D0040EDBCFE9FF050EDBCFEAFF36
:102BF000140EEA02F3CFEAFFE902F3CFE9FFF45043
:102C0000EA26B10EE926000EEA22100EE926000E91
:102C1000EA22EE50ED1001E196D0040EDBCFE9FF81
:102C2000050EDBCFEAFF140EEA02F3CFEAFFE9025A
:102C3000F3CFE9FFF450EA26B10EE926000EEA22AE
:102C4000120EE926000EEA22EECF02F0EFCF03F0DB
:102C500002C0E6FF03C0E6FF3BECB5F0E552E7CF6C
:102C600003F0E552E7CF02F00250265C006E0350FD
:102C70002758016EDC0ED8800054010E01545DE22D
:102C8000040EDBCF00F0050EDBCF01F0020ED88082
:102C90000056000E0156140E0102F3CF01F000029F
:102CA000F3CF00F0F450012600C0E6FF01C0E6FFBC
:102CB000010EE66EE76E040EDBCF02F0050EDBCFF1
:102CC00003F0E7500226000E0322140E0302F3CF96
:102CD00003F00202F3CF02F0F4500326B10E0226F5
:102CE000000E032202C0E6FF03C0E6FF010EE66EFF
:102CF000040EDBCF04F0050EDBCF05F0140E050249
:102D0000F3CF05F00402F3CF04F0F4500526B10E22
:102D10000426000E052204C0E6FF05C0E6FF54ECC1
:102D20002CF0066E080EE15E06500001E96BEA6BBE
:102D3000040EDB06050E01E2DB06040EDB2A050E9F
:102D400001E3DB2A43D7060EE15C02E2E16AE552C9
:102D5000E16EE552E7CFD9FF1200D9CFE6FFE1CF10
:102D6000D9FF250EE126FD0EDBCFE9FFFE0EDBCFFE
:102D7000EAFF140EEECFDBFF150EEECFDBFF160ED3
:102D8000EECFDBFF170EEECFDBFFFB0EDBCFE9FF55
:102D9000FC0EDBCFEAFF180EEECFDBFF190EEECFF5
:102DA000DBFF1A0EEECFDBFF1B0EEECFDBFF1C0EA0
:102DB000DB6A060EF36E1D0EF3CFDBFFF90EDBCFE1
:102DC00028F0FA0EDBCF29F01E0E28C0DBFF1F0E05
:102DD00029C0DBFF1E0EDBCFE6FF1F0EDBCFE6FFB9
:102DE00072EC69F0E552E5521E0EF3CFDBFF1F0EC9
:102DF000F4CFDBFF0C0EE66EE66AD950140FE66ED8
:102E0000000EDA20E66EEFEC69F0E552E552E5528D
:102E1000E552F3CF00F0F4CF01F0001E011E200EAA
:102E200000C0DBFF210E01C0DBFFF90EDBCFE6FFA8
:102E3000FA0EDBCFE6FFFDEC7DF0E552E552220E07
:102E4000F3CFDBFF230EF4CFDBFF200EDBCF00F050
:102E5000210EDBCF01F0220EDB50001803E1230E20
:102E6000DB50011804E0EEEC7AF0010E71D0000E98
:102E7000E66EE66A8BECABF0E552E552140EE66EB8
:102E8000E66AD9CFE6FFDACFE6FF41EC80F0E55203
:102E9000E552E552E552D9CFE6FFDACFE6FFACECDA
:102EA0001EF0E552E552D9500C0FE96EDACFEAFF79
:102EB000EF50F00BE842E842E842E842040DF350DC
:102EC000006E016A140E005E000E015A240E00C04E
:102ED000DBFFDB50026E036AF90EDBCF28F0FA0E3F
:102EE000DBCF29F00250285C006E03502958016E98
:102EF000140E005E000E015AF90E00C0DBFFFA0E40
:102F000001C0DBFFFD0EDBCFE6FFFE0EDBCFE6FFF1
:102F1000D9CFE6FFDACFE6FF9DEC1BF0E552E55294
:102F2000E552E552000910E0F90EDBCFE6FFFA0E9C
:102F3000DBCFE6FFD9CFE6FFDACFE6FFC1EC20F02A
:102F4000E552E552E552E552EEEC7AF0010E00D082
:102F5000006E250EE15C02E2E16AE552E16E00508E
:102F6000E552E7CFD9FF1200D9CFE6FFE1CFD9FF75
:102F7000280EE126B9EC00F0FE0EDBA004D0000123
:102F8000A187FE0EDB900001A09BA09DA09FA193B6
:102F9000A195A191D1EC7AF0000901E1FBD7FE0ED9
:102FA000DB50060B05E0260EDB6A270EDB6A57D1E5
:102FB00000016E518F1902E16F51901905E1260E43
:102FC000DB6A270EDB6A2FD18F516E5D90516F59EE
:102FD00052E26E518F5D006E90516F55016E260E5C
:102FE00000C0DBFF270E01C0DBFF260EDBCF00F0A9
:102FF000270EDBCF01F00050745D0150755906E2D9
:10300000260E74C0DBFF270E75C0DBFF260EDBCF5C
:1030100000F0270EDBCF01F00050855D015086598E
:1030200007E2260E85C0DBFF270E86C0DBFFA185E9
:10303000260EDBCFE6FF270EDBCFE6FFA4C0E6FFC0
:103040006EC0E6FF6FC0E6FFE66A050EE66E0B0E89
:10305000E66E54EC2CF0006E080EE15E0050260E79
:10306000DBCF28F0270EDBCF29F0285000016E2798
:1030700029506F23D8D06E518B5D006E8C516F55E7
:10308000016E240E00C0DBFF250E01C0DBFF240E05
:10309000DB508F250001026E250EDB5000019021D0
:1030A0000001036E00018951025C006E8A510358D1
:1030B000016E260E00C0DBFF270E01C0DBFF260ECF
:1030C000DBCF00F0270EDBCF01F00050745D015024
:1030D000755906E2260E74C0DBFF270E75C0DBFFB4
:1030E000260EDBCF00F0270EDBCF01F00050855D10
:1030F0000150865907E2260E85C0DBFF270E86C0E9
:10310000DBFFA185240EDBCF00F0250EDBCF01F025
:10311000260EDBCF02F0270EDBCF03F00050025C5F
:10312000015003580CE2260EDBCF28F0270EDBCF30
:1031300029F0240E28C0DBFF250E29C0DBFF240E5A
:10314000DBCFE6FF250EDBCFE6FFA4C0E6FF6EC0B7
:10315000E6FF6FC0E6FFE66A050EE66E0B0EE66E52
:1031600054EC2CF0006E080EE15E0050260EDBCF12
:1031700002F0270EDBCF03F0240EDB50025C006E62
:10318000250EDB500358016E240E00C0DBFF250E18
:1031900001C0DBFFD950240FE96EDACFEAFFEE5011
:1031A000ED1027E0240EDBCFE6FF250EDBCFE6FF98
:1031B000A4C0E6FF89C0E6FF8AC0E6FFE66A000118
:1031C0006E518B5D006E8C516F55016E026A036A01
:1031D000050E00260B0E0122000E0222032200C063
:1031E000E6FF01C0E6FF54EC2CF0046E080EE15E31
:1031F0000450260EDBCF28F0270EDBCF29F0285015
:1032000000016E2729506F238B516E5D8C516F59D1
:103210000AE389518B5D006E8C518A55016E005016
:103220006E5F01506F5BA1A71AD0260EDBCF00F0B6
:10323000270EDBCF01F07451001802E1755101181F
:103240000EE0260EDBCF02F0270EDBCF03F0855118
:10325000021802E18651031802E0FE0EDB80D9500D
:10326000260FE96EDACFEAFFEE50ED1004E1FE0E14
:10327000DB50030B30E0260EDBCF28F0270EDBCF30
:1032800029F028500001745F2950755BD950260F32
:10329000E96EDACFEAFFEE50ED1002E0FE0EDB86BB
:1032A000FD0EDBA007D0876BF20E626F9E0E636F80
:1032B000646B656B30ECB5F0265000016225976FAA
:1032C00027506321986F28506421996F29506521F8
:1032D0009A6FA0893ED0FD0EDBA21FD0A00EE96E32
:1032E000000EEA6EEF50070BE82AF36EF350070B5F
:1032F000F36EF46EF80EEF14F310EF6EF45000015D
:103300006607000E675B685B695B010EF36E260E55
:10331000F3CFDBFF270EDB6A1CD00001A0A919D078
:10332000DBB008D0875106E08707D8906533643357
:103330006333623330ECB5F0265000016225976F9D
:1033400027506321986F28506421996F2950652177
:103350009A6F020E72C0DBFF030E73C0DBFF040E18
:1033600070C0DBFF050E71C0DBFF060E66C0DBFF21
:10337000070E67C0DBFF080E68C0DBFF090E69C0DF
:10338000DBFF0A0E6AC0DBFF0B0E6BC0DBFF0C0E0F
:103390006CC0DBFF0D0E6DC0DBFF0F0EDB9CDB9EF8
:1033A0000E0EDB90DB92DB94DB96FE0EDB50E76EBD
:1033B0000F0EE7CFDBFF140EDB6A150EDB6A260E5D
:1033C000DBCF00F0270EDBCF01F000010050000141
:1033D00066270001015000016723000E682369235E
:1033E000FE0EDBA21DD0DBB808D00A0EDB6A0B0E86
:1033F000DB6A0C0EDB6A0D0EDB6A84A30BD0D9509E
:10340000060FE96EDACFEAFFEE06000EEE5AEE5A2C
:10341000EE5A06D0662B000E672368236923848347
:10342000FE0EDBA013D084A10BD0D950060FE96E9D
:10343000DACFEAFFEE06000EEE5AEE5AEE5A06D04A
:10344000662B000E67236823692384819551935D61
:103450009651945919E38B518D5D026E8E518C55A6
:10346000036E9551935D046E94519655056E04500C
:10347000025C006E05500358016E100E00C0DBFFA9
:10348000110E01C0DBFF0FD09351955D006E965178
:103490009455016E0006000E015A100E00C0DBFFAD
:1034A000110E01C0DBFF36EC7BF0F3CF00F0F4CF60
:1034B00001F0400E005E000E015A00C0DEFF01C0A8
:1034C000DDFFDECF00F0DDCF01F00001800E011442
:1034D00002E0DE6ADD6A100EDBCF00F0110EDBCFFA
:1034E00001F0DECF02F0DDCF03F00050025C0150AE
:1034F00003580AE2D9CFE9FFDACFEAFF100EEECF88
:10350000DBFF110EEDCFDBFFD950020FE66E000E90
:10351000DA20E66EACEC1EF0E552E552D950260FEB
:10352000E96EDACFEAFF140EEE26000EED220E0E43
:10353000DB88DB9ADB8CDB9EFE0EDBA236D0D9501B
:10354000260FE96EDACFEAFF040EEE26000EED221A
:10355000020EF36E160EF3CFDBFF040EF36E170EA2
:10356000F3CFDBFF020EF36E180EF3CFDBFFF36E2B
:10357000190EF3CFDBFF010E006ED9500E0FE96E6E
:10358000DACFEAFFEF50F00BE842E842E842E842C7
:1035900000240F0BF36EF46EF346F346F346F34646
:1035A0000F0EEF14F310EF6EF4501A0E00C2DBFF93
:1035B0001B0E01C2DBFF1C0E02C2DBFF1D0E03C28D
:1035C000DBFF1E0E78C0DBFF1F0E79C0DBFF200E75
:1035D0007AC0DBFF210E7BC0DBFF220EDB6A060E0A
:1035E000F36E230EF3CFDBFF260EDBCF28F0270E82
:1035F000DBCF29F0240E28C0DBFF250E29C0DBFF1E
:10360000240EDBCFE6FF250EDBCFE6FF72EC69F080
:10361000E552E552240EF3CFDBFF250EF4CFDBFF9E
:103620000C0EE66EE66AD9501A0FE66E000EDA202E
:10363000E66EEFEC69F0E552E552E552E552F3CF64
:1036400000F0F4CF01F0001E011E120E00C0DBFFDF
:10365000130E01C0DBFFDD0EE66E0A0EE66E56ECC1
:103660007DF0E552E552260EDBCFE6FF270EDBCFDD
:10367000E6FF060EE66E780EE66E000EE66ED9ECFC
:10368000AAF0006E050EE15E0050140EE66EE66ACA
:10369000D950020FE66E000EDA20E66E9EEC80F046
:1036A000E552E552E552E552FE0EDBA20FD0040EC4
:1036B000E66EE66AD950160FE66E000EDA20E66E68
:1036C0009EEC80F0E552E552E552E552F10EE66ED1
:1036D0000A0EE66E79EC7DF0E552E552260EDBCF60
:1036E000E6FF270EDBCFE6FFFDEC7DF0E552E5526D
:1036F000F3CFDEFFF4CFDDFF010EE66E0B0EE66EBC
:1037000056EC7DF0E552E552020EE66EE66AD9CF40
:10371000E6FFDACFE6FF9EEC80F0E552E552E55297
:10372000E552E8EC7CF0280EE15C02E2E16AE55249
:10373000E16EE552E7CFD9FF1200D9CFE6FFE1CF26
:10374000D9FF060EE126FD0EDBCFE9FFFE0EDBCF33
:10375000EAFF020EE926000EEA22EE50ED1002E129
:10376000000EEED2DE52FE0EDD6EFB0EDBCFE9FF69
:10377000FC0EDBCFEAFF020EE926000EEA22EECFB6
:1037800006F0EFCF07F0FB0EDBCFE9FFFC0EDBCF3F
:10379000EAFF0650EE24046E0750EE20056EFD0E83
:1037A000DBCFE9FFFE0EDBCFEAFF0450EE24026E12
:1037B0000550EE20036EFD0EDBCFE9FFFE0EDBCFE2
:1037C000EAFF020EE926000EEA220250EE18006E11
:1037D0000350EE18016E020E00C0DBFF030E01C0A5
:1037E000DBFFDF6ADF50006E016A090E005C000E2D
:1037F000015872E2DFCFE6FF6AEC00F0E5520D0EF1
:1038000000019F5D02E166D029D0040E9F5D19E1A1
:10381000FD0EDBCFE9FFFE0EDBCFEAFF020EE9264D
:10382000000EEA22EECF00F0EFCF01F00050A21917
:1038300002E10150A31903E1010EDFCFDBFF4AD003
:103840000DD0A2C000F0A3C001F0020EDB500018A2
:1038500003E1030EDB50011801E03CD0B9EC00F0AD
:10386000FD0EDBCFE9FFFE0EDBCFEAFF020EE926FD
:10387000000EEA22EECF00F0EFCF01F0000172510E
:10388000001802E17351011825E1FD0EDBCFE9FFBD
:10389000FE0EDBCFEAFFEECF02F0EFCF03F0705168
:1038A000021802E17151031815E1FB0EDBCFE9FFAD
:1038B000FC0EDBCFEAFFEE50781909E1EE507919E2
:1038C00006E1EE507A1903E1EE507B1900E102E1C6
:1038D000010E36D2DF2A86D7010EDB50FE0843E008
:1038E000010EDBCFE6FF6AEC00F0E552B9EC00F028
:1038F000010EDB50FE0837E0020EDBCFA2F0030E14
:10390000DBCFA3F00A0EE66EE66AFB0EDBCFE6FF26
:10391000FC0EDBCFE6FF780EE66E000EE66EC9EC1D
:10392000ADF0006E060EE15E0050FD0EDBCFE9FF4C
:10393000FE0EDBCFEAFFEECF70F0EDCF71F0FD0EA3
:10394000DBCFE9FFFE0EDBCFEAFF020EE926000E19
:10395000EA22EECF72F0EDCF73F089C06EF08AC02C
:103960006FF0010EEDD1FD0EDBCFE9FFFE0EDBCFD8
:10397000EAFF0D0EE926000EEA22EF50020B02E1EB
:10398000000EDED10001E951EA1102E0000ED8D1AB
:10399000040EDB6A050EDB6A040EDBCF00F0050EB9
:1039A000DBCF01F0030E005C000E015801E3CFD025
:1039B000040EDBCFE9FF050EDBCFEAFF140EEA02AF
:1039C000F3CFEAFFE902F3CFE9FFF450EA26B10EA4
:1039D000E926000EEA22100EE926000EEA22EE5039
:1039E000ED1001E1B4D0040EDBCFE9FF050EDBCF13
:1039F000EAFF140EEA02F3CFEAFFE902F3CFE9FF90
:103A0000F450EA26B10EE926000EEA22100EE9264D
:103A1000000EEA22EECF00F0EFCF01F0FD0EDBCF7B
:103A2000E9FFFE0EDBCFEAFF020EE926000EEA22D6
:103A3000EECF02F0EFCF03F00250001802E1035086
:103A4000011801E07ED0040EDBCFE9FF050EDBCFCD
:103A5000EAFF140EEA02F3CFEAFFE902F3CFE9FF2F
:103A6000F450EA26B10EE926000EEA220A0EE926F3
:103A7000000EEA22EECF00F0EFCF01F0FD0EDBCF1B
:103A8000E9FFFE0EDBCFEAFFEECF02F0EFCF03F04F
:103A90000250001802E10350011801E052D0FB0E61
:103AA000DBCFE9FFFC0EDBCFEAFFEECF00F0EECF7D
:103AB00001F0EECF02F0EFCF03F0040EDBCFE9FF11
:103AC000050EDBCFEAFF140EEA02F3CFEAFFE902AC
:103AD000F3CFE9FFF450EA26B10EE926000EEA2200
:103AE000EE500001001809E1EE50011806E1EE5019
:103AF000021803E1EE50031800E101E022D03BEC94
:103B0000B5F026C000F027C001F0040EDBCFE9FFBE
:103B1000050EDBCFEAFF140EEA02F3CFEAFFE9025B
:103B2000F3CFE9FFF450EA26B10EE926000EEA22AF
:103B3000120EE926000EEA2200C0EEFF01C0EDFFE2
:103B4000FFD0040EDB2A050E01E3DB2A25D7DF6A4E
:103B5000DF50006E016A090E005C000E015801E39F
:103B6000EDD0DFCFE6FF6AEC00F0E5520001A0A740
:103B7000E3D0B9EC00F0FD0EDBCFE9FFFE0EDBCFAA
:103B8000EAFF020EE926000EEA22EECF00F0EFCFA8
:103B900001F000500001721902E10150731901E0B7
:103BA000CBD00A0EE66EE66AFB0EDBCFE6FFFC0E1C
:103BB000DBCFE6FF040EDBCFE9FF050EDBCFEAFF2C
:103BC000140EEA02F3CFEAFFE902F3CFE9FFF45063
:103BD000EA26B10EE926000EEA22E9CF00F0EACF8C
:103BE00001F000C0E6FF01C0E6FFC9ECADF0026ED7
:103BF000060EE15E0250FD0EDBCFE9FFFE0EDBCFCD
:103C0000EAFFEECF00F0EFCF01F0040EDBCFE9FFCB
:103C1000050EDBCFEAFF140EEA02F3CFEAFFE9025A
:103C2000F3CFE9FFF450EA26B10EE926000EEA22AE
:103C30000A0EE926000EEA2200C0EEFF01C0EDFFE9
:103C4000FD0EDBCFE9FFFE0EDBCFEAFF040EE92617
:103C5000000EEA22EECF00F0EECF01F0EECF02F040
:103C6000EFCF03F0040EDBCFE9FF050EDBCFEAFF59
:103C7000140EEA02F3CFEAFFE902F3CFE9FFF450B2
:103C8000EA26B10EE926000EEA220C0EE926000E05
:103C9000EA2200C0EEFF01C0EEFF02C0EEFF03C04B
:103CA000EEFFFD0EDBCFE9FFFE0EDBCFEAFF020EDB
:103CB000E926000EEA22EECF00F0EFCF01F0040E6D
:103CC000DBCFE9FF050EDBCFEAFF140EEA02F3CFEC
:103CD000EAFFE902F3CFE9FFF450EA26B10EE92644
:103CE000000EEA22100EE926000EEA2200C0EEFFC6
:103CF00001C0EDFF3BECB5F026C000F027C001F09D
:103D0000040EDBCFE9FF050EDBCFEAFF140EEA025B
:103D1000F3CFEAFFE902F3CFE9FFF450EA26B10E50
:103D2000E926000EEA22120EE926000EEA2200C061
:103D3000EEFF01C0EDFF04D0DF2A0AD7000E00D04D
:103D4000006E060EE15C02E2E16AE552E16E0050AF
:103D5000E552E7CFD9FF1200D9CFE6FFE1CFD9FF77
:103D6000FD0EDBCFE9FFFE0EDBCFEAFFEECFE6FF75
:103D7000EFCFE6FF72EC69F0E552E552F3CF00F0C9
:103D8000F4CF01F0FD0EDBCFE9FFFE0EDBCFEAFF43
:103D900000C0EEFF01C0EDFFFD0EDBCFE9FFFE0E20
:103DA000DBCFEAFF020EE926000EEA22EECFE6FFA5
:103DB000EFCFE6FF72EC69F0E552E552F3CF00F089
:103DC000F4CF01F0FD0EDBCFE9FFFE0EDBCFEAFF03
:103DD000020EE926000EEA2200C0EEFF01C0EDFF50
:103DE000FD0EDBCFE9FFFE0EDBCFEAFF040EE92676
:103DF000000EEA22EECFE6FFEECFE6FFEECFE6FFC3
:103E0000EFCFE6FF9CEC69F0E552E552E552E55252
:103E100026C000F027C001F028C002F029C003F03E
:103E2000FD0EDBCFE9FFFE0EDBCFEAFF040EE92635
:103E3000000EEA2200C0EEFF01C0EEFF02C0EEFF5E
:103E400003C0EEFFFD0EDBCFE9FFFE0EDBCFEAFF86
:103E5000080EE926000EEA22EECFE6FFEECFE6FFDF
:103E6000EECFE6FFEFCFE6FF9CEC69F0E552E552BE
:103E7000E552E55226C000F027C001F028C002F04C
:103E800029C003F0FD0EDBCFE9FFFE0EDBCFEAFF1A
:103E9000080EE926000EEA2200C0EEFF01C0EEFF88
:103EA00002C0EEFF03C0EEFFFD0EDBCFE9FFFE0E0A
:103EB000DBCFEAFF0E0EE926000EEA22EECFE6FF88
:103EC000EFCFE6FF72EC69F0E552E552F3CF00F078
:103ED000F4CF01F0FD0EDBCFE9FFFE0EDBCFEAFFF2
:103EE0000E0EE926000EEA2200C0EEFF01C0EDFF33
:103EF000FD0EDBCFE9FFFE0EDBCFEAFF100EE92659
:103F0000000EEA22EECFE6FFEFCFE6FF72EC69F09B
:103F1000E552E552F3CF00F0F4CF01F0FD0EDBCF18
:103F2000E9FFFE0EDBCFEAFF100EE926000EEA22C3
:103F300000C0EEFF01C0EDFFFD0EDBCFE9FFFE0E7E
:103F4000DBCFEAFF120EE926000EEA22EECFE6FFF3
:103F5000EFCFE6FF72EC69F0E552E552F3CF00F0E7
:103F6000F4CF01F0FD0EDBCFE9FFFE0EDBCFEAFF61
:103F7000120EE926000EEA2200C0EEFF01C0EDFF9E
:103F8000E552E7CFD9FF1200B9EC00F072C0A2F001
:103F900073C0A3F089C08FF08AC090F089C091F0FF
:103FA0008AC092F08BC093F08CC094F08BC095F0D7
:103FB0008CC096F00001A051080B02E0040E01D065
:103FC0000D0E9F6FA091A093A095A099A09BA09D7E
:103FD000A09FA191A193A195A197A1898491849378
:103FE0008497849989C06EF08AC06FF0F4EC63F016
:103FF000F3CF66F0F4CF67F0F4EC63F0F3CF68F042
:10400000F4CF69F0000182698369010E746F756BEA
:104010001200D9CFE6FFE1CFD9FF040EE1260C0E46
:10402000E66EE66A8BECABF0E552E5523EEC80F0D2
:10403000DF6EF00EDF14E840E8403F0B006E016ACF
:10404000140E005E000E015A0050DF6EDF5005E1D5
:10405000180EF36E020EF46E8AD0070EE66EE66A54
:10406000000EE66EE66A41EC80F0E552E552E5525C
:10407000E552DF50DF06000975E03EEC80F0E76EA8
:10408000010EE7CFDBFFDB5001E16CD0010EDB045A
:1040900001E1EFD7010EDB50020845E1030EDF5CC2
:1040A00001E260D0020EDB6A030EDB6A3EEC80F0B8
:1040B000E76E010EE7CFDBFFDB5004080CE13EECBE
:1040C00080F0E76E030EE7CFDBFF3EEC80F0E76E9B
:1040D000020EE7CFDBFF020EDBCF00F0030EDBCFDB
:1040E00001F0180E005C020E015801E23BD0D950DD
:1040F000020FE96EDACFEAFFB40ED880EE54050E57
:10410000ED5406E2B40EF36E050EF46E30D029D0F5
:10411000020EDBCF00F0030EDBCF01F000C0F3FF97
:1041200001C0F4FF24D0020EDF5C01E21BD03EECA4
:1041300080F0E76E010EE7CFDBFFDB50DF5C01E2D2
:1041400011D0010EDBCFE6FFE66A000EE66EE66AEE
:1041500041EC80F0E552E552E552E552010EDB50AC
:10416000DF5E87D7180EF36E020EF46E00D0040ED9
:10417000E15C02E2E16AE552E16EE552E7CFD9FF88
:104180001200D9CFE6FFE1CFD9FF1C0EE126FD0ECC
:10419000DBCFE9FFFE0EDBCFEAFF0D0EE926000EB6
:1041A000EA220E0EEFCFDBFFFD0EDBCFE9FFFE0EA6
:1041B000DBCFEAFF080EE926000EEA220F0EEECF53
:1041C000DBFF100EEECFDBFF110EEECFDBFF120E8A
:1041D000EECFDBFFFD0EDBCFE9FFFE0EDBCFEAFF0C
:1041E000040EE926000EEA22130EEECFDBFF140EBA
:1041F000EECFDBFF150EEECFDBFF160EEECFDBFFB3
:104200000001A091A093A095A0B913D030ECB5F017
:1042100026C097F027C098F028C099F029C09AF0DE
:10422000740E00019727350E9823060E9923000E71
:104230009A239F51050A5CE0010A15E0FB0EDBCFD3
:1042400028F0FC0EDBCF29F0170E28C0DBFF180E7C
:1042500029C0DBFF0E0EDBA0EAD0170EDB2A180EFA
:1042600001E2E5D0E3D00E0EDBA403D08DDEB5EF86
:104270002AF0DBA816D00F0EDBCF66F0100EDBCFD6
:1042800067F0110EDBCF68F0120EDBCF69F0E66A43
:10429000040EE66EB4EC17F0E552E55275DEB5EFAC
:1042A0002AF0DBA222D0130EDBCF6AF0140EDBCF94
:1042B0006BF0150EDBCF6CF0160EDBCF6DF06A2BBA
:1042C000000E6B236C236D23A4DEF3CF85F0F4CFB7
:1042D00086F0010EE66E120EE66EB4EC17F0E552B3
:1042E000E5520001060E9F6F01D04EDEB5EF2AF0B9
:1042F0000E0EDBA402D0B5EF2AF0DBA840D0D950D7
:104300000F0FE96EDACFEAFFEE50661909E1EE50C1
:10431000671906E1EE50681903E1EE50691900E1F2
:104320002EE0130E66C0DBFF140E67C0DBFF150E18
:1043300068C0DBFF160E69C0DBFF0F0EDBCF66F037
:10434000100EDBCF67F0110EDBCF68F0120EDBCF63
:1043500069F0010EE66E040EE66EB4EC17F0E5525D
:10436000E552130EDBCF66F0140EDBCF67F0150EAF
:10437000DBCF68F0160EDBCF69F0B5EF2AF00E0E3A
:10438000DBA252D0130EDBCF6AF0140EDBCF6BF042
:10439000150EDBCF6CF0160EDBCF6DF06A2B000E26
:1043A0006B236C236D23FD0EDBCFE9FFFE0EDBCF0D
:1043B000EAFF0E0EE926000EEA22EECF74F0EDCFF2
:1043C00075F027DEF3CF85F0F4CF86F00E0EDBA874
:1043D00020D0010EE66E100EE66EB4EC17F0E5523A
:1043E000E5520001070E9F6F30ECB5F026C097F044
:1043F00027C098F028C099F029C09AF0740E0001E7
:104400009727350E9823060E9923000E9A23A0991C
:104410000BD0010EE66E120EE66EB4EC17F0E5520C
:10442000E5520001060E9F6FB5EF2AF0DB2A0E0E53
:10443000DBA205D0170EDB2A180E01E3DB2A95510B
:10444000935D9651945919E38B518D5D026E8E5197
:104450008C55036E9551935D046E94519655056E7F
:104460000450025C006E05500358016E0C0E00C033
:10447000DBFF0D0E01C0DBFF0FD09351955D006E89
:1044800096519455016E0006000E015A0C0E00C0A4
:10449000DBFF0D0E01C0DBFFD950130FE96EDACF41
:1044A000EAFF6A51EE5C006E6B51EE58016E6C5182
:1044B000EE58026E6D51EE58036E060E00C0DBFF23
:1044C000070E01C0DBFF080E02C0DBFF090E03C0B0
:1044D000DBFF060EDBCF28F0070EDBCF29F00A0E3C
:1044E00028C0DBFF0B0E29C0DBFF190EDB6AD95099
:1044F000170FE96EDACFEAFFEE50ED1001E1C3D0FD
:10450000D9500C0FE96EDACFEAFFEE50ED1001E161
:10451000B9D0D950060FE96EDACFEAFFD890030E72
:10452000EB50000A08E6000EEE5C000EEE58000E9E
:10453000EE58000EEE581CE30C0EDBCF00F00D0E13
:10454000DBCF01F0026A036AD950060FE96EDACFB9
:10455000EAFF0050EE5C0150EE580250EE58035056
:10456000EE5806E2010EF36E190EF3CFDBFF53D0C7
:10457000170EDBCF00F0180EDBCF01F0026A036AE2
:10458000D950060FE96EDACFEAFFEE500026EE5062
:104590000122EE500222EE5003220334000E0318D3
:1045A00009E6D880000E0054000E0154000E02549B
:1045B000000E035430E20C0EDBCF08F00D0EDBCF03
:1045C00009F0170EDB50085C046E180EDB5009581A
:1045D000056E066A076A05AE02D006680768D950FC
:1045E000060FE96EDACFEAFF030EEBCFF3FF0750B9
:1045F000F318E8AE02D0F33408D0EE50045CEE506D
:104600000558EE500658EE50075805E3010EF36EBC
:10461000190EF3CFDBFF0C0EDBCF00F00D0EDBCF5E
:1046200001F0026A036AD950060FE96EDACFEAFF99
:10463000030EEB500318E8AE02D0033408D000504C
:10464000EE5C0150EE580250EE580350EE581AE25C
:10465000170EDBCF06F0180EDBCF07F00A0EDB508B
:104660000624046E0B0EDB500720056E053404E2B1
:1046700004500008000E055405E2010EF36E190EF9
:10468000F3CFDBFF45D0060EDBCF00F0070EDBCF0C
:1046900001F0080EDBCF02F0090EDBCF03F0005073
:1046A00001100210031006E1010EF36E190EF3CF94
:1046B000DBFF2ED0D950060FE96EDACFEAFFD89093
:1046C000030EEB50000A08E6000EEE5C000EEE58FA
:1046D000000EEE58000EEE581BE30C0EDBCF00F080
:1046E0000D0EDBCF01F0026A036AD950060FE96EA6
:1046F000DACFEAFF0050EE5C0150EE580250EE585F
:104700000350EE5805E2010EF36E190EF3CFDBFFF6
:10471000190EDB500DE10E0EDBB408D0010EE66E73
:10472000100EE66EB4EC17F0E552E552B5EF2AF044
:104730000E0EDB50060B03E027DCB5EF2AF00E0E61
:10474000DBB802D0B5EF2AF09F510C0A01E1EED29E
:104750000B0A4DE00F0A4BE0010A49E0020A47E06C
:10476000010A45E00C0A01E0F7D2D9500F0FE96EBB
:10477000DACFEAFFEE50661909E1EE50671906E15B
:10478000EE50681903E1EE50691900E12EE0130EB6
:1047900066C0DBFF140E67C0DBFF150E68C0DBFFD1
:1047A000160E69C0DBFF0F0EDBCF66F0100EDBCFFD
:1047B00067F0110EDBCF68F0120EDBCF69F0010E4F
:1047C000E66E040EE66EB4EC17F0E552E552130EF9
:1047D000DBCF66F0140EDBCF67F0150EDBCF68F091
:1047E000160EDBCF69F0B5EF2AF0070E9F6F6E5102
:1047F0008F5D006E90516F55016E040E00C0DBFF9F
:10480000050E01C0DBFF040EDBCF00F0050EDBCF91
:1048100001F00001800E011410E0000189518B5D50
:10482000006E8C518A55016ED950040FE96EDACFB3
:10483000EAFF0050EE260150ED22040EDBCF00F01F
:10484000050EDBCF01F0026A036A660EE96E000E08
:10485000EA6EEE500026EE500122EE500222EE509B
:10486000032200C0DFFF010E01C0DBFF020E02C009
:10487000DBFF030E03C0DBFF0F0EDBCF04F0100ED7
:10488000DBCF05F0110EDBCF06F0120EDBCF07F009
:10489000D9CFE9FFDACFEAFF0450EE5C006E055095
:1048A000EE58016E0650EE58026E0750EE58036E39
:1048B0000001800E031409E0E66A100EE66EB4EC07
:1048C00017F0E552E552B5EF2AF0000191516E5D07
:1048D000046E6F519255056E066A076A05AE02D0E6
:1048E000066807680450665D006E05506759016EE2
:1048F00006506859026E07506959036E00C0DFFF09
:10490000010E01C0DBFF020E02C0DBFF030E03C07D
:10491000DBFF91516E5D92516F5914E289518B5DAD
:10492000006E8C518A55016E026A036AD9CFE9FF85
:10493000DACFEAFF0050EE5E0150EE5A0250EE5A16
:104940000350EE5A0F0EDBCF04F0100EDBCF05F054
:10495000110EDBCF06F0120EDBCF07F0D9CFE9FF47
:10496000DACFEAFFEE50045C006EEE500558016E9F
:10497000EE500658026EEE500758036E00C0DFFF7F
:10498000010E01C0DBFF020E02C0DBFF030E03C0FD
:10499000DBFFDECF27F0DECF28F0DECF29F0DDCF42
:1049A0002AF0DD52DD522A34000E2A1809E6D8809A
:1049B000000E2754000E2854000E2954000E2A54CD
:1049C00001E3A2D089518B5D006E8C518A55016E36
:1049D000026A036AD9CFE9FFDACFEAFFEE50005C42
:1049E000EE500158EE500258EE50035801E28CD0C0
:1049F00084978499A191040E91C0DBFF050E92C0AB
:104A0000DBFFD9CFE9FFDACFEAFFEE509127EE5076
:104A10009223040EDBCF00F0050EDBCF01F0005037
:104A20006E5D01506F591BE391516E5D92516F594C
:104A300015E26E51915D006E92516F55016E00014D
:104A40000050000166270001015000016723000E9D
:104A50006823692391C06EF092C06FF036D08951FF
:104A60008B5D026E8C518A55036E6E510224006E6E
:104A70006F510320016E040E00C0DBFF050E01C064
:104A8000DBFF040EDBCF00F0050EDBCF01F0915110
:104A9000005C9251015819E2040EDB50915D000157
:104AA000006E050EDB50000192590001016E0050AE
:104AB000000166270001015000016723000E6823F2
:104AC000692391C06EF092C06FF08B51915D8C5153
:104AD00092590AE389518B5D006E8C518A55016EA3
:104AE0000050915F0150925B8B516E5D8C516F59FC
:104AF0000AE389518B5D006E8C518A55016E00501E
:104B00006E5F01506F5B3ED06E51911902E16F51A3
:104B1000921938E084A735D084A932D091516E5DC6
:104B2000006E6F519255016E026A036A01AE02D0A7
:104B3000026803680050665F0150675B0250685B63
:104B40000350695B91516E5D92516F5914E2895126
:104B50008B5D006E8C518A55016E026A036A01AE4C
:104B600002D0026803680050665F0150675B025024
:104B7000685B0350695B91C06EF092C06FF0A185D5
:104B8000848984878F51911902E1905192192EE105
:104B9000A1B715D030ECB5F026C097F027C098F03B
:104BA00028C099F029C09AF0740E00019727350E9D
:104BB0009823060E9923000E9A23A09917D0D95056
:104BC0000F0FE96EDACFEAFF6651EE1809E167517F
:104BD000EE1806E16851EE1803E16951EE1800E1A4
:104BE00005E18451010B02E0A099A197D9500F0F64
:104BF000E96EDACFEAFFEE50665D026EEE5067595D
:104C0000036EEE506859046EEE506959056EFD0E44
:104C1000DBCFE9FFFE0EDBCFEAFF0E0EE926000E2A
:104C2000EA220250EE5C006E0350EE58016E1A0E3E
:104C300000C0DBFF1B0E01C0DBFF7451751109E1E1
:104C4000D9501A0FE96EDACFEAFFEE50ED1001E00D
:104C5000A1831A0EDBCF74F01B0EDBCF75F0080EAC
:104C60009F5D2CE1D9500F0FE96EDACFEAFF665154
:104C7000EE1809E16751EE1806E16851EE1803E1FC
:104C80006951EE1800E119E18451010B16E030EC96
:104C9000B5F026C097F027C098F028C099F029C039
:104CA0009AF0BA0E000197271A0E9823030E992343
:104CB000000E9A23A089090E9F6F37D0090E9F5DC1
:104CC0001BE10E0EDBB017D00F0EDBCF66F0100E1F
:104CD000DBCF67F0110EDBCF68F0120EDBCF69F08F
:104CE000E66A140EE66EB4EC17F0E552E552C4EC39
:104CF0001FF0B5EF2AF019D00A0E9F5D16E1D950CA
:104D00000F0FE96EDACFEAFF6651EE1809E167513D
:104D1000EE1806E16851EE1803E16951EE1800E162
:104D200002E1C4EC1FF0B5EF2AF017D0D9500F0FF5
:104D3000E96EDACFEAFF6651EE1809E16751EE1825
:104D400006E16851EE1803E16951EE1800E102E155
:104D5000C4EC1FF0B5EF2AF000D00E0EDBAA02D093
:104D6000B5EF2AF00B0E9F5D02E1B5EF2AF00A0EB7
:104D70009F5D02E1B5EF2AF00C0E9F5D02E1B5EFF9
:104D80002AF0D950FB0FE96EFF0EDA20EA6EEE50E2
:104D9000ED1001E131D30A0EDBCF00F00B0EDBCFBB
:104DA00001F0013404E200500008000E015401E259
:104DB00050D1FD0EDBCFE9FFFE0EDBCFEAFF0C0E7C
:104DC000E926000EEA22EF50F00BE842E842E84202
:104DD000E842040DF350026E036A0A0EDB50025CD7
:104DE000006E0B0EDB500358016E00C0E6FF01C0E1
:104DF000E6FF8BECABF0E552E5520A0EDBCF00F09C
:104E00000B0EDBCF01F0D950FB0FE96EFF0EDA205D
:104E1000EA6E0050EE260150ED22FB0EDBCF00F0D3
:104E2000FC0EDBCF01F00C0EDBCF02F00D0EDBCF62
:104E300003F00050025C015003580CE20C0EDBCF73
:104E400028F00D0EDBCF29F0FB0E28C0DBFFFC0E97
:104E500029C0DBFFFB0EDBCF00F0FC0EDBCF01F047
:104E60000001005000016A270001015000016B237E
:104E7000000E6C236D23FB0EDB5093250001006EAA
:104E8000FC0EDB50000194210001016E0001005076
:104E90008D5D01508E595CE293518D5D006E8E5197
:104EA0009455016E010E0026000E0122040E00C072
:104EB000DBFF050E01C0DBFF040EDBCFE6FF050EB6
:104EC000DBCFE6FFE66AE668E668A4C0E6FF93C0CB
:104ED000E6FF94C0E6FF54EC2CF0006E080EE15E95
:104EE0000050FB0EDBCF02F0FC0EDBCF03F0040E14
:104EF000DB50025C006E050EDB500358016E00C0F3
:104F0000E6FF01C0E6FFE66AE668E668A4C0E6FFE1
:104F10008BC0E6FF8CC0E6FF54EC2CF0046E080E4C
:104F2000E15E0450FB0EDBCF02F0FC0EDBCF03F0A2
:104F3000040EDB50025C006E050EDB500358016E60
:104F400000018B510024936F8C510120946F20D06D
:104F5000FB0EDBCFE6FFFC0EDBCFE6FFE66AE66882
:104F6000E668A4C0E6FF93C0E6FF94C0E6FF54ECF9
:104F70002CF0006E080EE15E0050FB0EDBCF28F037
:104F8000FC0EDBCF29F028500001932729509423F1
:104F9000821D01E1831D5CE0FB0EDBCF28F0FC0EDF
:104FA000DBCF29F02850825F2950835B7651822520
:104FB000006E77518321016E040E00C0DBFF050EE9
:104FC00001C0DBFF040EDBCF00F0050EDBCF01F0EC
:104FD0000001800E011404E000018269836938D069
:104FE0000001833504E282510008000E835530E34E
:104FF000040EDBCF00F0050EDBCF01F00001005006
:1050000000016A270001015000016B23000E6C2390
:105010006D23040EDBCF28F0050EDBCF29F02850DE
:1050200093272950942393518D5D94518E590EE20C
:105030008B518D5D006E8E518C55016E010E0026D8
:10504000000E01220050935F0150945B82698369D6
:10505000D3D10A0EDBCF00F00B0EDBCF01F0013411
:1050600004E200500008000E015401E3C5D10A0E0D
:10507000DBCF02F00B0EDBCF03F0FB0EDB50022484
:10508000006EFC0EDB500320016E0C0EDBCF04F033
:105090000D0EDBCF05F00050045C0150055814E202
:1050A0000C0EDBCF02F00D0EDBCF03F00A0EDB504F
:1050B000025C006E0B0EDB500358016EFB0E00C04D
:1050C000DBFFFC0E01C0DBFFFD0EDBCFE9FFFE0EB8
:1050D000DBCFEAFF0C0EE926000EEA22EF50F00BC0
:1050E000E842E842E842E842040DF350E66EE66A20
:1050F0008BECABF0E552E5520A0EDB500001932534
:105100000001026E0B0EDB50000194210001036EC2
:10511000FB0EDB500224006EFC0EDB500320016E00
:10512000000100508D5D01508E5901E395D09351DF
:105130008D5D026E8E519455036E010E0226000E97
:1051400003220A0EDB50025C006E0B0EDB5003588C
:10515000016E040E00C0DBFF050E01C0DBFF040E74
:10516000DBCF00F0050EDBCF01F00001800E011453
:1051700041E1040EDBCFE6FF050EDBCFE6FFE66A7A
:10518000E668E668A4C0E6FF0A0EDB50000193253E
:105190000001006E0B0EDB50000194210001016E36
:1051A00000C0E6FF01C0E6FF7FDB026E080EE15E95
:1051B0000250FB0EDBCF02F0FC0EDBCF03F0040E3F
:1051C000DB50025C006E050EDB500358016E00C020
:1051D000E6FF01C0E6FFE66AE668E668A4C0E6FF0F
:1051E0008BC0E6FF8CC0E6FF5FDB046E080EE15E5D
:1051F000045031D0FB0EDBCFE6FFFC0EDBCFE6FF29
:10520000E66AE668E668A4C0E6FF0A0EDB50000125
:1052100093250001026E0B0EDB500001942100016A
:10522000036E00018B518D5D046E8E518C55056EA1
:10523000010E0426000E05220450025C006E05508B
:105240000358016E00C0E6FF01C0E6FF2DDB066ECD
:10525000080EE15E06501FD0FB0EDBCFE6FFFC0E12
:10526000DBCFE6FFE66AE668E668A4C0E6FF0A0E62
:10527000DB5093250001006E0B0EDB5000019421E2
:105280000001016E00C0E6FF01C0E6FF0DDB026E0B
:10529000080EE15E02500001821D01E1831D0DE157
:1052A0000A0EDBCF82F00B0EDBCF83F0FB0EDBCFE1
:1052B00076F0FC0EDBCF77F09FD00A0EDBCF00F04C
:1052C0000B0EDBCF01F08251005C835101584CE2A0
:1052D000FB0EDBCF02F0FC0EDBCF03F00A0EDB503F
:1052E0000224006E0B0EDB500320016E82517625E6
:1052F000046E83517721056E0050045C01500558FF
:1053000013E3FB0EDBCF08F0FC0EDBCF09F00A0E37
:10531000DB500824066E0B0EDB500920076E82510D
:10532000065C8351075807E2FB0EDBCF76F0FC0EDC
:10533000DBCF77F012D082517625006E8351772132
:10534000016E0A0EDB500001005C0001766F0B0E4F
:10535000DB50000101580001776F0A0EDBCF82F0AD
:105360000B0EDBCF83F048D0FB0EDBCF02F0FC0E40
:10537000DBCF03F00A0EDB500224006E0B0EDB5075
:105380000320016E82517625046E83517721056ECC
:105390000050045C015005582FE20A0EDBCF00F0EC
:1053A0000B0EDBCF01F082517625026E83517721FF
:1053B000036E0050025C015003581EE3FB0EDBCF6E
:1053C00006F0FC0EDBCF07F00A0EDB500624046E5D
:1053D0000B0EDB500720056E8251045C026E835178
:1053E0000558036E7651025C006E77510358016ECA
:1053F0000050762701507723D950170FE96EDACF86
:10540000EAFFEE50ED1023E0070E9F5D04E093C02D
:1054100095F094C096F0A0AF0BD0010EE66E100E82
:10542000E66EB4EC17F0E552E552B9EC00F00FD09F
:10543000A08FA0BD0CD0A08D3BECB5F026C09DF098
:1054400027C09EF00F0E00019D27000E9E230E0E1A
:10545000DBA08BD06AC000F06BC001F06CC002F022
:105460006DC003F0002A000E012202220322170E53
:10547000DBCF04F0180EDBCF05F0066A076AD950BF
:10548000130FE96EDACFEAFFEE500426EE50052244
:10549000EE500622EE5007220050041809E1015098
:1054A000051806E10250061803E10350071800E151
:1054B0005CE100016A2B000E6B236C236D239F516E
:1054C000090A40E0010A1EE00F0A0EE0010A01E0AD
:1054D00043D00C0E9F6F010EE66E110EE66EB4EC1B
:1054E00017F0E552E55241D00B0E9F6F3BECB5F043
:1054F00026C09DF027C09EF01F0E00019D27000EC4
:105500009E232BD0D9500F0FE96EDACFEAFF6651F8
:10551000EE1809E16751EE1806E16851EE1803E153
:105520006951EE1800E10BE1E66A100EE66EB4EC8C
:1055300017F0E552E552C4EC1FF017D002D00A0E66
:105540009F6F0BD0E66A100EE66EB4EC17F0E552D2
:10555000E552C4EC1FF009D000D0010EE66E100E2B
:10556000E66EB4EC17F0E552E5521C0EE15C02E287
:10557000E16AE552E16EE552E7CFD9FF1200D9CFDB
:10558000E6FFE1CFD9FF060EE126FE0EDBCFE6FFF8
:105590006AEC00F0E552D950FC0FE96EFF0EDA20FC
:1055A000EA6EEE50ED1007E1010EF36EFC0EF3CF44
:1055B000DBFFFD0EDB6A000189518D5D006E8E51AF
:1055C0008A55016E0006000E015A00C0DEFF01C0C0
:1055D000DDFFFA0EDBCF02F0FB0EDBCF03F0FC0E9B
:1055E000DB500224006EFD0EDB500320016EDECF87
:1055F00004F0DDCF05F00050045C0150055802E2D4
:10560000000E46D1B9EC00F0F90EDB50030B03E1BC
:10561000F90EDB80DB82FA0EDBCF28F0FB0EDBCF4E
:1056200029F0040E28C0DBFF050E29C0DBFFFA0EAF
:10563000DBCF02F0FB0EDBCF03F0FC0EDB500224CD
:10564000006EFD0EDB500320016ED9CFE9FFDACFEB
:10565000EAFF0050EE5E0150ED5AF90EDBA220D0B9
:10566000DBA011D0DECF00F0DDCF01F0D890013209
:105670000032D950040FE96EDACFEAFF0050EE266F
:105680000150ED220DD0DECF00F0DDCF01F0D9507A
:10569000040FE96EDACFEAFF0050EE260150ED224A
:1056A000040EDB50000189250001006E050EDB5061
:1056B00000018A210001016E010E0026000E012268
:1056C00000C0DEFF01C0DDFF020E93C0DBFF030E52
:1056D00094C0DBFF0001821D01E1831D2DE082519A
:1056E0007625006E83517721016ED950020FE96E45
:1056F000DACFEAFF0050EE260150ED22020EDBCF9A
:1057000000F0030EDBCF01F000508D5D01508E598B
:1057100013E28B518D5D006E8E518C55016E010E22
:105720000026000E0122D950020FE96EDACFEAFFFF
:105730000050EE5E0150ED5A020EDBCF00F0030E7A
:10574000DBCF01F00050955D0150965918E2DECF95
:1057500000F0DDCF01F00050955D015096590EE24A
:10576000F90EDBA403D0000E93D008D0DECF95F065
:10577000DDCF96F0DECF93F0DDCF94F02BD0020E8C
:10578000DBCF00F0030EDBCF01F09551005C9651AA
:10579000015818E2DECF00F0DDCF01F000508B5D44
:1057A00001508C590EE2F90EDBA403D0000E70D02C
:1057B00008D0DECF95F0DDCF96F0DECF93F0DDCFD1
:1057C00094F008D0DECF95F0DDCF96F0DECF93F0E9
:1057D000DDCF94F0020EDBCF00F0030EDBCF01F043
:1057E00000019551005C9651015835E2F90EDB50ED
:1057F000040B31E0020EDBCF28F0030EDBCF29F0E3
:105800008B51285C006E8C512958016E00C0E6FF58
:1058100001C0E6FFA4C0E6FF8BC0E6FF8CC0E6FF38
:10582000A4C0E6FFDECFE6FFDDCFE6FF3DD8026E87
:10583000080EE15E025000019551935D9651945916
:105840000AE2DE508B5D006EDD508C59016E005017
:10585000935F0150945BDECF8BF0DDCF8CF089C07D
:105860006EF08AC06FF089C091F08AC092F089C052
:105870008FF08AC090F0070E9F5D08E1010EE66E82
:10588000100EE66EB4EC17F0E552E552010E00D0B2
:10589000006E060EE15C02E2E16AE552E16E005044
:1058A000E552E7CFD9FF1200D9CFE6FFE1CFD9FF0C
:1058B000F90EDB504CE0010A01E097D0FC0EDB5002
:1058C0001CE0010A01E042D0F70EDBCFE6FFF80E44
:1058D000DBCFE6FFFA0EDBCFE6FFFB0EDBCFE6FF0A
:1058E000FD0EDBCFE6FFFE0EDBCFE6FFC9ECADF031
:1058F000006E060EE15E005029D0D950FD0FE96E12
:10590000FF0EDA20EA6EFF0EEE1802E1FF0EED1830
:105910000AE0FD0EDBCFE6FFFE0EDBCFE6FF56EC26
:105920007DF0E552E552F70EDBCFE6FFF80EDBCF58
:10593000E6FFFA0EDBCFE6FFFB0EDBCFE6FF9EECC9
:1059400080F0E552E552E552E55200D04ED0FC0E13
:10595000DB502CE0010A01E047D0D950FA0FE96E84
:10596000FF0EDA20EA6EFF0EEE1802E1FF0EED18D0
:105970000AE0FA0EDBCFE6FFFB0EDBCFE6FF79ECA9
:105980007DF0E552E552F70EDBCFE6FFF80EDBCFF8
:10599000E6FFFD0EDBCFE6FFFE0EDBCFE6FF41ECC0
:1059A00080F0E552E552E552E5521ED0F70EDBCF0E
:1059B000E6FFF80EDBCFE6FFFA0EDBCFE6FFFB0ECD
:1059C000DBCFE6FFFD0EDBCFE6FFFE0EDBCFE6FF13
:1059D000FFEC7EF0006E060EE15E005037EC80F0CA
:1059E000000901E1FBD700D000D0E552E7CFD9FF95
:1059F0001200D9CFE6FFE1CFD9FF120EE126FC0E4F
:105A0000DB501FE0010A01E0ACD0F70EDBCFE6FF70
:105A1000F80EDBCFE6FFF90EDBCFE6FFFA0EDBCFA9
:105A2000E6FFFB0EDBCFE6FFFD0EDBCFE6FFFE0E53
:105A3000DBCFE6FFF4ECADF0006E070EE15E005048
:105A400090D0D950FD0FE96EFF0EDA20EA6EFF0EFE
:105A5000EE1802E1FF0EED180AE0FD0EDBCFE6FFC7
:105A6000FE0EDBCFE6FF56EC7DF0E552E552100E60
:105A7000F36EF3CFDBFF110EDB6AD950F70FE96E3F
:105A8000FF0EDA20EA6EEE50ED106AE0100EDBCF6A
:105A900000F0110EDBCF01F0F70EDBCF02F0F80EB5
:105AA000DBCF03F00050025C015003580CE2F70E0C
:105AB000DBCF28F0F80EDBCF29F0100E28C0DBFF7B
