:020000040000FA
:060000001FEF60F012008A
:020006001200E6
:0600080019EF4AF012009E
:02000E000004EC
:04001000A300000049
:02001400FFFFEC
:02001600FEFEEC
:06001800BCEF49F01200EC
:02001E000A00D6
:1000200071C10000FF020000010000006FC100006C
:100030003C050000020000006BC100003805000014
:100040000400000069C10000FD0200000200000081
:10005000160000007E0E00000200000065C10000D6
:10006000FC0400000400000014000000FE0000007A
:10007000020000007EC00000000D0000E70000004C
:1000800079C00000330500000500000070C00000CA
:08009000220500000900000038
:08009800020145510E017E5DDD
:1000A00001E140D0FE0E7E5D1BE01C0EE66EE66AAE
:1000B000290EE66E020EE66E7E511C0DF3CF14F093
:1000C000F4CF15F0000E1426010E152214C0E6FF21
:1000D00015C0E6FFB8EC5AF0166E060EE15E16503B
:1000E00045C27EFEFE0E0201455D01E11BD01C0EE5
:1000F000E66EE66A45511C0DF3CF14F0F4CF15F00F
:10010000000E1426010E152214C0E6FF15C0E6FFEE
:10011000290EE66E020EE66EB8EC5AF0166E060E6A
:10012000E15E165012000E017E517F5D01E14FD05D
:10013000FE0E7F5D32E0270E0201C56FC66B020125
:10014000010EC46F0201020EC26F020EC36F0E01D8
:100150007F511C0DF3CFE9FFF4CFEAFF000EE92633
:10016000010EEA221B0EE926000EEA22EFCFC1F2B1
:100170007F511C0DF3CFE9FFF4CFEAFF000EE92613
:10018000010EEA22EECFBFF2EFCFC0F20201270E3E
:10019000BF5F000EC05BB0EC20F07ECE7FFE270E6E
:1001A0000201C56FC66B44C2C4F229C2C2F22AC2A0
:1001B000C3F20201C25F000EC35B0201010EC16FF8
:1001C0000201020EBF6F020EC06FB0EC20F01200F1
:1001D0000B01C00E1D6F100E1E6F020100510111A8
:1001E0000FE1B5EC41F006C000F207C001F2FF0ECE
:1001F00002010017070E0117000E0027040E01234D
:100200003C0EE66EE66AE66A000EE66E040EE66EE8
:1002100006EC5BF0146E050EE15E14500B01156BDD
:10022000146B1451146E156A090E145C000E1558E7
:1002300001E326D114CB45F22FDF900E146EBF0ED2
:10024000156E000E166E14CB17F0186A196A060E9A
:100250000C6E0D6A0E6A17C007F018C008F019C0BE
:1002600009F0ABEC5EF004C017F005C018F006C052
:1002700019F014501724F36E15501820F46E165010
:100280001920F86EF4CFF7FFF3CFF6FFF62A000E31
:10029000F722F8220800F5CF1CFB900E146EBF0E5B
:1002A000156E000E166E14CB17F0186A196A060E3A
:1002B0000C6E0D6A0E6A17C007F018C008F019C05E
:1002C00009F0ABEC5EF004C017F005C018F006C0F2
:1002D00019F014501724F36E15501820F46E1650B0
:1002E0001920F86EF4CFF7FFF3CFF6FF020EF626D3
:1002F000000EF722F8220900F5CF16FB0A00F5CF11
:1003000017FB900E146EBF0E156E000E166E14CBFA
:1003100017F0186A196A060E0C6E0D6A0E6A17C07D
:1003200007F018C008F019C009F0ABEC5EF004C08B
:1003300017F005C018F006C019F014501724F36E1A
:1003400015501820F46E16501920F86EF4CFF7FFF0
:10035000F3CFF6FF040EF626000EF722F82209006E
:10036000F5CF18FB0A00F5CF19FB0B011C5101E07A
:1003700086D01DCB1AFB1ECB1BFB270E176A16253A
:10038000166E17511722010E1626000E1722165050
:100390001825146E17501921156E010E1426000E23
:1003A000152214501D2715501E231DCB14F01ECBF3
:1003B00015F0166A176AD880FC0E14541F0E1554D7
:1003C000000E1654000E175401E2EFD71CCB44F276
:1003D000270E0B011A250201296F000E0B011B21AC
:1003E00002012A6F29510B01162502012B6F2A5198
:1003F0000B01172102012C6F010E2B27000E2C235D
:100400002B510B01182502012D6F2C510B011921C5
:1004100002012E6F0D0E3F6F409785DE900E146E19
:10042000BF0E156E000E166E14CB17F0186A196AFF
:10043000060E0C6E0D6A0E6A17C007F018C008F0A1
:1004400019C009F0ABEC5EF004C017F005C018F05D
:1004500006C019F014501724F36E15501820F46ECE
:1004600016501920F86EF4CFF7FFF3CFF6FF08000F
:10047000F5CF28F2F9EC16F00B01142BD2D6FFD7EA
:1004800012000B01416B4151146E156A090E145C88
:10049000000E155801E3B3D041CB45F2FDDD0D0E42
:1004A00002013F5D01E0A8D03EDE02014D51285D12
:1004B00001E0A2D0180E256F020E266F4A510CE102
:1004C0004BC212F24CC213F24087040E3F6F4BC274
:1004D00042F24CC243F28DD0000E005D040E015971
:1004E00006E3880ED8800055130E015503E2006B19
:1004F000040E016F00C212F201C213F2002B000EB3
:1005000001234BC210F24CC211F23BEC5EF006C06C
:1005100037F207C038F208C039F209C03AF20201D6
:1005200040894A51040A26E0070A01E062D0485196
:100530004625166E49514721176E16504B25146EED
:1005400017504C21156E14501219426F1550131983
:10055000436F46C218F247C219F248C21AF249C2A2
:100560001BF2276B270E026F036B046B056B020EE9
:100570003F6F3FD046C2E9FF47C2EAFF020EE926BD
:10058000000EEA22EECF18F0EFCF19F046C2E9FFD5
:1005900047C2EAFF1850EE24166E1950EE20176E6F
:1005A00016504B25146E17504C21156E145012190D
:1005B000426F15501319436F0A0EE66EE66A46C283
:1005C000E6FF47C2E6FF180EE66E020EE66EB8ECD6
:1005D0005AF0146E060EE15E14500201050E3F6FD4
:1005E0000201010EAE6F0201020EAD6FA3EC10F01E
:1005F00000D00B01415105D00B01412B44D7FE0E19
:1006000000D012004EC245F247DD020141A903D0DD
:100610004199010E02D0000E00D012004FC245F2E7
:100620003BDD070E02013F5D02E0000E01D0010E2E
:1006300000D0120050C245F22FDD33C235F234C271
:1006400036F202013F51080A47E0010A45E0050A77
:1006500043E0020A3EE0050A26E00D0A0EE0010A28
:100660000CE0070A07E0020A05E0010A03E0060AB7
:1006700001E032D0F9EC16F039D00201010EAE6F74
:100680000201110EAD6FA3EC10F00201145115110F
:1006900001E106D00E512F1902E10F513019EDE1A1
:1006A000080E3F6F23D00201010EAE6F0201110E42
:1006B000AD6FA3EC10F002011451151101E106D049
:1006C0000E512F1902E10F513019EDE10C0E3F6F61
:1006D0000DD00D0E3F6F0AD00201AE6B0201140E59
:1006E000AD6FA3EC10F0F9EC16F000D0120051C27F
:1006F00045F2D2DC0201409751C250F21AEF03F0EA
:1007000052C245F2C9DC0FDD0A0EE66EE66A180E2B
:10071000E66E020EE66E530EE66E020EE66EB8EC64
:100720005AF0146E060EE15E145010C25DF211C252
:100730005EF2530E146E020E156E14C0F3FF15C058
:10074000F4FF00D012005FC245F2A6DCECDC02012F
:100750000E512F1902E10F51301908E00201010E6C
:10076000AE6F0201100EAD6FA3EC10F0120060C26C
:1007700045F292DC3FC204FB070E0B01045D06E06C
:100780000B0E045D03E0F36AF46A2FD002013151CD
:100790002F5D325130591BE329512B5D166E2C51C0
:1007A0002A55176E1606000E175A31512F5D186E16
:1007B00030513255196E1850165C146E1950175876
:1007C000156E14C0F3FF15C0F4FF0FD00ED02F51DB
:1007D000315D146E32513055156E1406000E155AE7
:1007E00014C0F3FF15C0F4FF00D0120061C245F23F
:1007F00053DC61C260F2BBDFF3CF28FBF4CF29FBEF
:100800000B012851291103E1000E63D008D0010E1D
:10081000281901E1295103E161C25FF294DF02016D
:100820004151010B14E129512B5D146E2C512A55B5
:10083000156ED890153214320B012851145C2951D1
:10084000155805E361C25FF27EDF02014181010EAE
:100850000201C56FC66B0201C46F0201620EC26F56
:10086000020EC36F44C2C1F22FC2BFF230C2C0F247
:10087000B0EC20F002012F2B000E30232B512F5D06
:100880002C51305904E329C22FF22AC230F20B0155
:10089000010E281901E1295104E161C25FF253DF21
:1008A00016D0020140BB13D0408B46EC5EF006C070
:1008B00014F007C015F0166A176A060E1426000E0B
:1008C00015221622172214C03BF215C03CF2010E6D
:1008D00000D012000B01756B766B63C245F24CECD5
:1008E00000F063C260F243DFF3CF73FBF4CF74FB1D
:1008F0000B017351741106E163C25FF224DFF36AE6
:10090000F46AADD073CB71FB74CB72FB73510201EF
:10091000665D0B0174510201675904E266C271FB06
:1009200067C272FB4151010B14E129512B5D146E1A
:100930002C512A55156ED890153214320B01735173
:10094000145C7451155805E363C25FF2FCDE0201CA
:10095000418102012F510B017125146E02013051AA
:100960000B017221156E02012B51145C2C5115588C
:100970002DE32F512B5D0B01756F020130512C5966
:100980000B01766F75CBC5F276CBC6F20201010E74
:10099000C46F64C2C2F265C2C3F244C2C1F22FC2C4
:1009A000BFF230C2C0F2B0EC20F00B017551020171
:1009B00064270B017651020165230B017551715FAC
:1009C0007651725B29C22FF22AC230F271CBC5F286
:1009D00072CBC6F20201010EC46F64C2C2F265C2DC
:1009E000C3F244C2C1F22FC2BFF230C2C0F2B0ECB7
:1009F00020F00B01715102012F270B0172510201EE
:100A000030230B0173510201665D0B017451020129
:100A1000675904E363C25FF296DE15D040BB13D082
:100A2000408B46EC5EF006C014F007C015F0166A65
:100A3000176A060E1426000E15221622172214C05D
:100A40003BF215C03CF20B0171517525146E7251C9
:100A50007621156E14C0F3FF15C0F4FF00D012000C
:100A60000B012C6B2D6B68C245F24CEC00F068C298
:100A700060F27DDEF3CF2AFBF4CF2BFB0B012A5172
:100A80002B1106E168C25FF25EDEF36AF46AB0D051
:100A900002014151010B14E129512B5D146E2C51BF
:100AA0002A55156ED890153214320B012A51145C58
:100AB0002B51155805E368C25FF245DE0201418102
:100AC0002ACB28FB2BCB29FB0B012A5102016C5DA1
:100AD0000B012B5102016D5904E26CC228FB6DC25F
:100AE00029FB2F510B012825146E020130510B01F7
:100AF0002921156E02012B51145C2C51155830E33D
:100B00002F512B5D0B012C6F020130512C590B0121
:100B10002D6F2CCBCDF22DCBCEF269C2CAF26AC2B8
:100B2000CBF26BC2CCF244C2C9F22FC2C7F230C2C0
:100B3000C8F214EC21F02CCB14F02DCB15F0166A72
:100B400014500201692715506A2316506B230B01BC
:100B50002C51285F2D51295B29C22FF22AC230F275
:100B600028CBCDF229CBCEF269C2CAF26AC2CBF24F
:100B70006BC2CCF244C2C9F22FC2C7F230C2C8F273
:100B800014EC21F00B01285102012F270B012951F0
:100B9000020130230B012A5102016C5D0B012B5124
:100BA00002016D5904E368C25FF2CDDD15D040BB90
:100BB00013D0408B46EC5EF006C014F007C015F071
:100BC000166A176A060E1426000E15221622172220
:100BD00014C03BF215C03CF20B0128512C25146EB9
:100BE00029512D21156E14C0F3FF15C0F4FF00D05C
:100BF00012006FC2E6FF70C2E6FF39EC5BF0E5520F
:100C0000E552F3CF66F2F4CF67F26FC264F270C2BE
:100C100065F26EC263F25EDE02016F51F324146E60
:100C20007051F420156E14C0F3FF15C0F4FF00D00E
:100C3000120072C2E6FF73C2E6FF74C2E6FF47EC21
:100C40005BF0E552E552E55207C06CF208C06DF268
:100C500072C269F273C26AF274C26BF271C268F254
:100C6000FFDEF3CF17F0F4CF18F0196A02017251CA
:100C70001724146E73511820156E74511920166EB6
:100C800014C007F015C008F016C009F000D012001B
:100C900075C245F24CEC00F0020129512B5D0B01AD
:100CA000026F02012A512C590B01036F010E025FE2
:100CB000000E035B75C260F25ADDF3CF00FBF4CF88
:100CC00001FB0B010051025D146E03510155156EBD
:100CD00014C0F3FF15C0F4FF00D0120076C277F203
:100CE00018D8F3CF14F0F4CF15F01450151010E00D
:100CF00076C245F24CEC00F033C235F234C236F223
:100D00000201010EAE6F0201100EAD6FA3EC10F0E8
:100D1000120077C245F24CEC00F002013551335D10
:100D2000365134590CE33551335D146E3451365518
:100D3000156E14C0F3FF15C0F4FF1CD01BD0355145
:100D40002D5D166E2E513655176E010E1626000EAD
:100D500017222B51335D186E34512C55196E1650D5
:100D60001824146E17501920156E14C0F3FF15C007
:100D7000F4FF00D0120078C277F2CBDFF3CF00FB94
:100D8000F4CF01FB0B010051011102E1000E48D02C
:100D900078C245F24CEC00F0020179517A1112E070
:100DA000010E0201C56FC66B44C2C4F235C2C2F265
:100DB00036C2C3F20201C16F79C2BFF27AC2C0F279
:100DC000B0EC20F00201352B000E362335512D5D9D
:100DD00036512E5904E22BC235F22CC236F20B01E9
:100DE000010E001901E1015103E10201418516D014
:100DF000020140BB13D0408B46EC5EF006C014F0FD
:100E000007C015F0166A176A1F0E1426000E152269
:100E10001622172214C03BF215C03CF2010E00D07E
:100E200012000B01026B036B7BC277F272DFF3CF10
:100E300000FBF4CF01FB0B010051011103E1F36A48
:100E4000F46AA1D07BC245F24CEC00F002017E5165
:100E50000B01005D02017F510B01015904E200CB3F
:100E60007EF201CB7FF2020135517E25146E3651A0
:100E70007F21156E14502D5D15502E5938E23551D5
:100E80002D5D0B01026F020136512E590B01036FCC
:100E9000010E0227000E032302017C517D111BE08D
:100EA00002CBC5F203CBC6F244C2C4F235C2C2F2D1
:100EB00036C2C3F20201010EC16F7CC2BFF27DC215
:100EC000C0F2B0EC20F00B01025102017C270B01B3
:100ED000035102017D230B01025102017E5F0B01D0
:100EE000035102017F5B2BC235F22CC236F27C51DA
:100EF0007D1113E07EC2C5F27FC2C6F244C2C4F2C5
:100F000035C2C2F236C2C3F20201010EC16F7CC209
:100F1000BFF27DC2C0F2B0EC20F002017E51352755
:100F20007F5136230B01025102017E270B01035131
:100F300002017F237E510B01005D146E01510201FD
:100F40007F55156E14507E5D15507F5902E3418523
:100F500015D040BB13D0408B46EC5EF006C014F0B9
:100F600007C015F0166A176A1F0E1426000E152208
:100F70001622172214C03BF215C03CF27EC2F3FFCA
:100F80007FC2F4FF00D0120080C245F24CEC00F0AA
:100F900002012B512D5D0B01026F02012C512E59C4
:100FA0000B01036F80C277F2B4DEF3CF00FBF4CF06
:100FB00001FB0B010051025D146E03510155156ECA
:100FC00014C0F3FF15C0F4FF00D0120002018451D9
:100FD000851103E1F36AF46AABD081C245F24CECAF
:100FE00000F081C277F295DEF3CF02FBF4CF03FB72
:100FF000020186518425146E87518521156E0B01DF
:101000001450025D155003590BE2020186510B0189
:10101000025D0201846F87510B0103590201856F44
:101020000201355186250B01006F020136518721DF
:101030000B01016F005102012D5D0B0101510201F5
:101040002E590FE22B512D5D146E2E512C55156E1D
:10105000010E1426000E152214500B01005F1550CE
:10106000015B0B01005102012D5D0B01046F015169
:1010700002012E590B01056F010E0427000E0523F6
:10108000020184510B01045D020185510B010559D8
:1010900014E384C2C5F285C2C6F244C2C4F200CBD6
:1010A000C2F201CBC3F20201010EC16F82C2BFF2D4
:1010B00083C2C0F2B0EC20F036D004CBC5F205CB31
:1010C000C6F244C2C4F200CBC2F201CBC3F20201A9
:1010D000010EC16F82C2BFF283C2C0F2B0EC20F039
:1010E0000B0104510201845D0201C56F0B01055122
:1010F000020185590201C66F44C2C4F22BC2C2F27A
:101100002CC2C3F20201010EC16F020182510B0118
:1011100004250201BF6F020183510B010521020169
:10112000C06FB0EC20F084C2F3FF85C2F4FF00D0A2
:10113000120089C286F28AC287F2010E0201846F10
:10114000856B0201060E826F0B0E836F88C281F2DF
:101150003DDF0B01065100D0120002018E518F11AC
:1011600003E1F36AF46AB2D18BC245F24CEC00F0B1
:101170008BC277F2CEDD02019051F35C0B01026F5E
:1011800002019151F4580B01036F02018E510B01C2
:10119000025D02018F510B01035903E2F368F46809
:1011A00095D10201925193110DE00B010251020100
:1011B000925D0B0103510201935904E292C202FBBA
:1011C00093C203FB355190250B01066F0201365186
:1011D00091210B01076F065102012D5D0B01075193
:1011E00002012E590FE22B512D5D146E2E512C55FC
:1011F000156E010E1426000E152214500B01065F09
:101200001550075B06CB00FB07CB01FB0B0106511A
:1012100002012D5D0B01046F075102012E590B01D4
:10122000056F010E0427000E052390C206FB91C234
:1012300007FB8EC208FB8FC209FB8CC20AFB8DC262
:101240000BFB02018CC2E9FF8DC2EAFF8C2B8D23C0
:10125000EFCF0DFB0B010F6B0201945109E0610E02
:101260000B010D5D05E30D517A0802E3E00E0D2739
:101270000B01200E0E6F0E51045D000E055902E2A7
:1012800004CB0EFB0E51025D000E035902E202CBAD
:101290000EFB0E510201C56FC66B44C2C4F200CBF7
:1012A000C2F201CBC3F20201010EC16F0201100EA6
:1012B000BF6F0B0EC06FB0EC20F00B010E51146E1F
:1012C000156A14500027155001230E51146E156A2B
:1012D0001450045F1550055B0451051106E12BC243
:1012E00000FB2CC201FB046905690201945101E174
:1012F00081D00B010C6B0E510C5D01E37AD00C51C7
:10130000EA6A100FE96E0B0EEA22EFCF14F0610EBD
:10131000145C13E30C51EA6A100FE96E0B0EEA221B
:10132000EF507A080AE3E00E146E0C51EA6A100FCF
:10133000E96E0B0EEA221450EF260C51EA6A100FE8
:10134000E96E0B0EEA22EF500D5D33E102018E07CC
:10135000000E8F5B8E518F1117E10B010851065D56
:10136000166E07510955176E0C5100011624146EA4
:10137000000E1720156E010E1426000E152214C043
:10138000F3FF15C0F4FFA2D08CC2E9FF8DC2EAFFC3
:101390008C2B000E8D23EFCF0DFB0B01010E0F6F79
:1013A000610E0D5D05E30D517A0802E3E00E0D2795
:1013B0001ED008CB8EF209CB8FF20F5118E00ACB6A
:1013C0008CF20BCB8DF202018CC2E9FF8DC2EAFFD9
:1013D0008C2B000E8D23EFCF0DFB610E0B010D5DED
:1013E00005E30D517A0802E3E00E0D270F6B0C2B7D
:1013F00082D751D00B010C6B0E510C5D4CE20C519D
:10140000EA6A100FE96E0B0EEA22EF500D5D2BE138
:1014100002018E07000E8F5B8E518F1117E10B01B9
:101420000851065D166E07510955176E0C510001E3
:101430001624146E000E1720156E010E1426000ED1
:10144000152214C0F3FF15C0F4FF40D08CC2E9FF91
:101450008DC2EAFF8C2B000E8D23EFCF0DFB0B010D
:10146000010E0F6F16D008CB8EF209CB8FF20F5101
:1014700010E00ACB8CF20BCB8DF202018CC2E9FF9B
:101480008DC2EAFF8C2B000E8D23EFCF0DFB0B01DD
:101490000F6B0C2BB1D70E51146E156A1450025FEE
:1014A0001550035B02018E510B01025D02018F5149
:1014B0000B01035903E2F368F46808D00E51146E6F
:1014C000156A1450062715500723D2D612000201C0
:1014D00099519A1103E1F36AF46ACCD195C245F2AD
:1014E0004CEC00F095C277F214DC02019B51F35CE6
:1014F0000B01026F02019C51F4580B01036F0201B2
:1015000099510B01025D02019A510B01035903E24B
:10151000F368F468AFD102019D519E110DE00B01FB
:10152000025102019D5D0B01035102019E5904E22B
:101530009DC202FB9EC203FB35519B250B01066F2A
:10154000020136519C210B01076F065102012D5DEE
:101550000B01075102012E590FE22B512D5D146E24
:101560002E512C55156E010E1426000E1522145006
:101570000B01065F1550075B06CB00FB07CB01FB99
:101580000B01065102012D5D0B01046F0751020191
:101590002E590B01056F010E0427000E05239BC277
:1015A00006FB9CC207FB99C208FB9AC209FB96C2C4
:1015B0000AFB97C20BFB98C20CFB020196C2F6FF16
:1015C000962B97C2F7FF972398C2F8FF982308003D
:1015D000F5CF0EFB0B01106B02019F5109E0610E6C
:1015E0000B010E5D05E30E517A0802E3E00E0E27B3
:1015F0000B01200E0F6F0F51045D000E055902E222
:1016000004CB0FFB0F51025D000E035902E202CB27
:101610000FFB0F510201C56FC66B44C2C4F200CB71
:10162000C2F201CBC3F20201010EC16F0201110E21
:10163000BF6F0B0EC06FB0EC20F00B010F51146E9A
:10164000156A14500027155001230F51146E156AA6
:101650001450045F1550055B0451051106E12BC2BF
:1016600000FB2CC201FB0469056902019F5101E1E5
:101670008BD00B010D6B0F510D5D01E384D00D512B
:10168000EA6A110FE96E0B0EEA22EFCF14F0610E39
:10169000145C13E30D51EA6A110FE96E0B0EEA2296
:1016A000EF507A080AE3E00E146E0D51EA6A110F4A
:1016B000E96E0B0EEA221450EF260D51EA6A110F63
:1016C000E96E0B0EEA22EF500E5D37E10201990739
:1016D000000E9A5B99519A1117E10B010851065DB2
:1016E000166E07510955176E0D5100011624146E20
:1016F000000E1720156E010E1426000E152214C0C0
:10170000F3FF15C0F4FFB6D096C2F6FF962B97C232
:10171000F7FF000E972398C2F8FF98230800F5CF33
:101720000EFB0B01010E106F610E0E5D05E30E51F5
:101730007A0802E3E00E0E2724D008CB99F209CBF9
:101740009AF210511EE00ACB96F20BCB97F20CCB1B
:1017500098F2020196C2F6FF962B97C2F7FF000E91
:10176000972398C2F8FF98230800F5CF0EFB610E6F
:101770000B010E5D05E30E517A0802E3E00E0E2721
:10178000106B0D2B78D75BD00B010D6B0F510D5DDE
:1017900056E20D51EA6A110FE96E0B0EEA22EF5084
:1017A0000E5D2FE102019907000E9A5B99519A1183
:1017B00017E10B010851065D166E07510955176EAA
:1017C0000D5100011624146E000E1720156E010E27
:1017D0001426000E152214C0F3FF15C0F4FF4AD0E2
:1017E00096C2F6FF962B97C2F7FF000E972398C27A
:1017F000F8FF98230800F5CF0EFB0B01010E106FC8
:101800001CD008CB99F209CB9AF2105116E00ACB02
:1018100096F20BCB97F20CCB98F2020196C2F6FF30
:10182000962B97C2F7FF000E972398C2F8FF9823D4
:101830000800F5CF0EFB0B01106B0D2BA7D70F5136
:10184000146E156A1450025F1550035B0201995122
:101850000B01025D02019A510B01035903E2F36887
:10186000F46808D00F51146E156A145006271550ED
:101870000723BED61200A6C294F2A4C292F2A5C259
:1018800093F2A2C290F2A3C291F2010E02018E6FF6
:101890008F6B0201A10E8C6F020E8D6FA0C28BF2B6
:1018A0005CDC00D012000B01286B2851146E156A05
:1018B000090E145C000E155801E300D328CB45F245
:1018C0004CEC00F00B012B6B296B2A6B0201415190
:1018D000020B03E14151040B0EE0F7EC3CF0000970
:1018E0000AE00B01100E2B6F02014151040B01E0C5
:1018F000010E0B01296F020140AB13D046EC5EF0E4
:10190000020106503B5D146E07503C59156E1534AC
:1019100004E214500008000E155403E30B01100EEE
:101920002B6F020140AD13D046EC5EF00201065071
:101930003D5D146E07503E59156E153404E2145087
:101940000008000E155403E30B01100E2B6F0B0E55
:1019500002013F5D16E146EC5EF0020106503D5D7E
:10196000146E07503E59156E153404E214500008E9
:10197000000E155406E30B01110E2B6F02010C0E25
:101980003F6F040E3F5D01E00AD10B012C6B2D6B04
:10199000030E2C5D000E2D5901E301D12CCBE9FF84
:1019A0002DCBEAFF140EEA02F3CFEAFFE902F3CFF0
:1019B000E9FFF450EA26000EE926040EEA22100E92
:1019C000E926000EEA22EE50ED1001E1E8D02CCB22
:1019D000E9FF2DCBEAFF140EEA02F3CFEAFFE9029A
:1019E000F3CFE9FFF450EA26000EE926040EEA22BE
:1019F000100EE926000EEA22EECF14F0EFCF15F01C
:101A000002014251141802E14351151801E0C2D0FD
:101A100093EC00F00A0EE66EE66A2CCBE9FF2DCBC4
:101A2000EAFF140EEA02F3CFEAFFE902F3CFE9FF7F
:101A3000F450EA26000EE926040EEA22E9CF14F05B
:101A4000EACF15F014C0E6FF15C0E6FF180EE66EEB
:101A5000020EE66EB8EC5AF0166E060EE15E1650F7
:101A60002CCBE9FF2DCBEAFF140EEA02F3CFEAFFFD
:101A7000E902F3CFE9FFF450EA26000EE926040E4E
:101A8000EA220A0EE926000EEA22EECF10F2EDCF8E
:101A900011F22CCBE9FF2DCBEAFF140EEA02F3CFB3
:101AA000EAFFE902F3CFE9FFF450EA26000EE92647
:101AB000040EEA220C0EE926000EEA22EECF0AF20C
:101AC000EECF0BF2EECF0CF2EFCF0DF202010A2BAC
:101AD0000B230C230D231A511825166E1B511921A7
:101AE000176E16501025146E17501121156E1450D4
:101AF0001219426F15501319436F0B01120E2B6F01
:101B00000201060E3F6F2CCBC5F22DCBC6F20201AF
:101B1000020ED880C557000EC657140EC603F3CF69
:101B2000C6F2C503F3CFC5F2F450C6270201010E79
:101B3000C46F0B012C250201C26F000E0B012D2179
:101B40000201C36F140EC303F3CFC3F2C203F3CF7A
:101B5000C2F2F450C327000EC227040EC3230201B1
:101B6000010EC16F140E086E096A2CCB0DF02DCB3F
:101B70000EF08DEC5EF006C0BFF207C0C0F2000EA2
:101B80000201BF27040EC023B0EC20F00401386B23
:101B9000396B05D00B012C2B000E2D23F9D60B0130
:101BA0002B510AE0295102E0000E01D0010E020182
:101BB000AE6F2BCBADF2C7DA020140B94ED0070EA3
:101BC0003F5D4AE13BEC5EF002013751065C146E6A
:101BD00038510758156E39510858166E3A51095840
:101BE000176E0001800E171401E065D1020140510B
:101BF000070B060815E14051080B01E0010E0B012F
:101C00002B6F28CB50F21AEC03F028CB50F21AECD1
:101C100003F00B012B5103E102010E0E3F6F4BD17C
:101C200093EC00F00201020EAE6F0201100EAD6FD8
:101C30008ADA3BEC5EF006C037F207C038F208C023
:101C400039F209C03AF2740E02013727350E3823F3
:101C5000060E3923000E3A232ED13BEC5EF0020132
:101C60003751065C146E38510758156E39510858B3
:101C7000166E3A510958176E0001800E171401E0D4
:101C80001AD193EC00F002013F510C0A01E1B2D0ED
:101C9000060A01E1A0D0030A01E197D0010A01E19F
:101CA00085D00F0A74E00C0A72E00D0A5BE0030AAB
:101CB00046E0060A14E0010A01E0ABD046EC5EF013
:101CC00006C03BF207C03CF20401180EA46F020EDE
:101CD000A56F7CEC50F00201030E3F6F9AD0040117
:101CE0001C0EA86F020EA96F0401180EA66F020E3B
:101CF000A76FC0EC50F000091AE146EC5EF002015B
:101D00003B51065C146E3C510758156E1450025D31
:101D1000155003590BE2060E275D06E2272BD890DB
:101D20000237033704370537020E3F6F72D00B01BD
:101D3000020E2B6F296B0201050E3F6F6AD00B015B
:101D4000020E2B6F010E296F040E0201275D09E3BD
:101D5000040E276F200E026FEF0E036F090E046F43
:101D6000056B57D0020E275D06E20B01120E2B6F9A
:101D7000010E296F0BD040A706D00B01140E2B6F5C
:101D8000010E2A6F03D00B01020E2B6F42D0050EFD
:101D9000275D06E20B01100E2B6F010E296F05D097
:101DA000080E3F6F0B01110E2B6F33D0050E275D10
:101DB00006E20B01110E2B6F010E296F05D00B01EE
:101DC000140E2B6F010E2A6F24D00B01140E2B6FF3
:101DD000010E2A6F1ED0050E275D06E20B01100EC4
:101DE0002B6F010E296F05D00B01140E2B6F010E06
:101DF0002A6F0FD0050E275D06E20B01110E2B6F27
:101E0000010E296F05D00B01140E2B6F010E2A6FE6
:101E100000D00B012B514AE0295142E00201272B4F
:101E2000D890023703370437053731510E5D0B0167
:101E30002C6F020132510F590B012D6F02013151EC
:101E40000E5D32510F590BE229512B5D146E2C514E
:101E50002A55156E14500B012C2715502D232CCB11
:101E600014F02DCB15F0166A176A14500201065FA4
:101E70001550075B1650085B1750095B0B012C517E
:101E8000020114270B012D510201152331C20EF25C
:101E900032C20FF20201AE6B2BCBADF254D906D099
:101EA0000201010EAE6F2BCBADF24DD90B012A51C1
:101EB00002E0F9EC16F00B01282BF7D42C6B2D6BFC
:101EC000030E2C5D000E2D5901E399D02CCBE9FFB8
:101ED0002DCBEAFF140EEA02F3CFEAFFE902F3CFBB
:101EE000E9FFF450EA26000EE926040EEA22100E5D
:101EF000E926000EEA22EE50ED1001E180D02CCB55
:101F0000E9FF2DCBEAFF140EEA02F3CFEAFFE90264
:101F1000F3CFE9FFF450EA26000EE926040EEA2288
:101F2000120EE926000EEA22EECF16F0EFCF17F0E0
:101F300016C0E6FF17C0E6FF46EC5EF0E552E7CFBD
:101F400017F0E552E7CF16F01650065C146E1750E6
:101F50000758156EDC0ED8801454010E15544AE251
:101F60002CCBC5F22DCBC6F20201020ED880C5578C
:101F7000000EC657140EC603F3CFC6F2C503F3CF47
:101F8000C5F2F450C6270201010EC46F0B012C25C7
:101F90000201C26F000E0B012D210201C36F140E4E
:101FA000C303F3CFC3F2C203F3CFC2F2F450C3278B
:101FB000000EC227040EC3230201010EC16F140ECE
:101FC000086E096A2CCB0DF02DCB0EF08DEC5EF077
:101FD00006C0BFF207C0C0F2000E0201BF27040E08
:101FE000C023B0EC20F00401386B396B0B012C07D7
:101FF000000E2D5B0B012C2B000E2D2361D7120040
:10200000A7C2E9FFA8C2EAFFEECF3CFBEECF3DFB43
:10201000EECF3EFBEFCF3FFBA9C2E9FFAAC2EAFF2A
:10202000EECF40FBEECF41FBEECF42FBEFCF43FBC9
:102030000B01446B060E456FABC246FBACC247FBBF
:1020400046CB56F447CB57F4FFEC44F0F3CF46FBB6
:10205000F4CF47FB0C0E04015E6F5F6B04013C0E76
:102060005C6F0B0E5D6F26EC45F0F3CF48FBF4CFB1
:1020700049FB0B01481F491FABC2E5F3ACC2E6F3B5
:102080002BEC3FF0F3CF4AFBF4CF4BFB0B014A5153
:10209000481902E14B51491904E014EC3DF0010EDE
:1020A00051D005010E6B0F6B30EC57F0140E03018D
:1020B000EF6FF06B0301280EED6F0B0EEE6F95ECDA
:1020C00040F00201280EB36F0B0EB46F1EEC16F039
:1020D0000B013451F00BE842E842E842E842040DBB
:1020E000F350146E156A140E145E000E155A14C0C7
:1020F0004CFB4C51146E156A14500201AB5DAB6F72
:102100001550AC59AC6F140EAB5F000EAC5BA7C2A0
:10211000B1F2A8C2B2F20201280EAF6F0B0EB06F7F
:10212000E3DA00090BE0ABC2B7F2ACC2B8F20201CD
:10213000280EB56F0B0EB66FC2EC17F014EC3DF025
:10214000010E00D0120093EC00F00201ADA102D00C
:102150004187AD91409B409D409F41934195419166
:10216000F7EC3CF0000901E1FBD7060E0201AD15CA
:1021700004E00B01266B276BFBD00E512F1902E1F7
:102180000F51301904E10B01266B276BD9D02F5169
:102190000E5D30510F593FE20E512F5D0B01266F3E
:1021A00002010F5130590B01276F26510201145DB6
:1021B0000B0127510201155904E214C226FB15C276
:1021C00027FB0B0126510201255D0B01275102015E
:1021D000265905E225C226FB26C227FB418526CBD0
:1021E000C5F227CBC6F244C2C4F20EC2C2F20FC27D
:1021F000C3F20201C16B0201050EBF6F0B0EC06F6F
:10220000B0EC20F00B01265102010E270B012751E3
:1022100002010F2395D00E512B5D0B01246F02019B
:102220000F512C590B01256F245102012F25146EDB
:102230000B01255102013021156E2951145C0B014F
:10224000266F02012A5115580B01276F26510201F2
:10225000145D0B0127510201155904E214C226FB3B
:1022600015C227FB0B0126510201255D0B012751E9
:102270000201265905E225C226FB26C227FB41851D
:102280000B012451265D2551275904E226CB24FB5E
:1022900027CB25FB24CBC5F225CBC6F244C2C4F222
:1022A0000EC2C2F20FC2C3F20201C16B0201050EDF
:1022B000BF6F0B0EC06FB0EC20F00B012451265DF8
:1022C000246F25512759256F2451251122E024CB55
:1022D000C5F225CBC6F244C2C4F229C2C2F22AC258
:1022E000C3F20201C16B02010E512B5D146E2C5121
:1022F0000F55156E166A176A050E14260B0E152259
:10230000000E1622172214C0BFF215C0C0F2B0ECA6
:1023100020F00B01265102010E270B01275102016B
:102320000F232B510E5D2C510F590AE329512B5DC0
:10233000146E2C512A55156E14500E5F15500F5BFC
:10234000020141A715D014510B01261904E1020125
:1023500015510B0127190CE0020125510B0126191B
:1023600004E1020126510B01271902E00201AD81AF
:102370000B012651271104E1030E0201AD1529E0DE
:102380000B0126510201145F0B0127510201155B5D
:102390000B012651271102E00201AD870201AEA117
:1023A00007D0276BF20E026F9E0E036F046B056B56
:1023B0003BEC5EF0065002010225376F0750032107
:1023C000386F08500421396F095005213A6F408950
:1023D00038D0AEA31BD0400EE96E020EEA6EEF506D
:1023E000070BE82AF36EF350070BF36EF46EF80E4A
:1023F000EF14F310EF6EF4500607000E075B085B56
:10240000095B010E0B01266F276B1BD040A919D069
:10241000AEB108D0275106E02707D8900533043322
:10242000033302333BEC5EF0065002010225376FA6
:1024300007500321386F08500421396F09500521D6
:102440003A6F12C202FB13C203FB10C204FB11C29B
:1024500005FB06C206FB07C207FB08C208FB09C250
:1024600009FB0AC20AFB0BC20BFB0CC20CFB0DC220
:102470000DFB0B010F9D0F9F0E910E930E950E9766
:10248000ADC20FFB146B156B2651020106270B0121
:10249000275102010723000E08230923ADA315D0FD
:1024A000ADB905D00B010A6B0B6B0C6B0D6B020108
:1024B00024A306D00B010607075B085B095B05D068
:1024C000062B07230823092324830201ADA10DD085
:1024D00024A106D00B010607075B085B095B05D04A
:1024E000062B072308230923248102013551335D7C
:1024F0003651345914E32B512D5D146E2E512C5549
:10250000156E3551335D166E34513655176E0B010D
:102510001650145C106F17501558116F0DD03351B1
:10252000355D0B01106F0201345136590B01116FEB
:10253000010E105F000E115B4AEC3DF0F3CF00FB83
:10254000F4CF01FB0B01400E005F000E015B800E1B
:10255000011502E0006B016B1051005D1151015932
:1025600004E200CB10FB01CB11FB0201020EB36FA2
:102570000B0EB46F63DB140E0B012627000E27230E
:102580000E890E9B0E8D0E9F0201ADA326D0040E68
:102590000B012627000E2723020E166F040E176F5D
:1025A000020E186F180E196F010E146E0E0EE96EE2
:1025B0000B0EEA6EEF50F00BE842E842E842E842C8
:1025C00014240F0BF36EF46EF346F346F346F34612
:1025D0000F0EEF14F310EF6EF45000C31AFB01C39B
:1025E0001BFB02C31CFB03C31DFB18C21EFB19C24D
:1025F0001FFB1AC220FB1BC221FB0B01226B060E24
:10260000236F26CB24FB27CB25FB24CB56F425CBED
:1026100057F4FFEC44F0F3CF24FBF4CF25FB0C0E72
:1026200004015E6F5F6B04011A0E5C6F0B0E5D6F31
:1026300026EC45F0F3CF12FBF4CF13FB0B01121F76
:10264000131F0301DD0EDD6F0A0EDE6FD0EC3EF0CE
:1026500026CB0CF527CB0DF50501060E0B6F0501FA
:10266000180E096F020E0A6FBCEC56F0140E03012F
:10267000F46FF56B0301020EF26F0B0EF36FCDECEE
:1026800040F00201ADA30BD0040E0301F46FF56B13
:102690000301160EF26F0B0EF36FCDEC40F0030149
:1026A000F10EDF6F0A0EE06FDEEC3EF026CBE5F3B5
:1026B00027CBE6F32BEC3FF0F3CF00FBF4CF01FB8D
:1026C0000301010EDD6F0B0EDE6FD0EC3EF0020E4B
:1026D0000301F46FF56B0301000EF26F0B0EF36F45
:1026E000CDEC40F081EF3EF0AFC2E9FFB0C2EAFFAF
:1026F000020EE926000EEA22EE50ED1002E1000E75
:102700009CD20B01FE0E016FB1C2E9FFB2C2EAFF1B
:10271000020EE926000EEA22EECF18F0EFCF19F0F4
:10272000B1C2E9FFB2C2EAFF1850EE24166E19508A
:10273000EE20176EAFC2E9FFB0C2EAFF1650EE24DA
:10274000146E1750EE20156EAFC2E9FFB0C2EAFF5B
:10275000020EE926000EEA221450EE18026F155000
:10276000EE18036F006B0051146E156A090E145CAD
:10277000000E155867E200CB45F24CEC00F00D0E50
:1027800002013F5D02E15BD024D0040E3F5D16E103
:10279000AFC2E9FFB0C2EAFF020EE926000EEA224C
:1027A000EECF14F0EFCF15F01450421902E115509E
:1027B000431902E100CB01FB42D00BD00B010251C7
:1027C0000201421904E10B0103510201431901E026
:1027D00036D093EC00F0AFC2E9FFB0C2EAFF020EC0
:1027E000E926000EEA22EECF14F0EFCF15F0020139
:1027F0001251141802E11351151821E1AFC2E9FF7B
:10280000B0C2EAFFEECF16F0EFCF17F01051161856
:1028100002E11151171813E1B1C2E9FFB2C2EAFF98
:10282000EE50181909E1EE50191906E1EE501A1987
:1028300003E1EE501B1900E102E1010EFED10B0194
:10284000002B91D7FE0E015D39E001CB45F24CEC37
:1028500000F093EC00F0FE0E0B01015D2FE002CBC7
:1028600042F203CB43F20A0EE66EE66AB1C2E6FF1D
:10287000B2C2E6FF180EE66E020EE66EB8EC5AF033
:10288000146E060EE15E1450AFC2E9FFB0C2EAFF5B
:10289000EECF10F2EDCF11F2AFC2E9FFB0C2EAFF06
:1028A000020EE926000EEA22EECF12F2EDCF13F26D
:1028B00029C20EF22AC20FF2010EBFD1AFC2E9FF48
:1028C000B0C2EAFF0D0EE926000EEA22EF50020B1D
:1028D00002E1000EB2D104013851391102E0000EBC
:1028E000ACD10B01046B056B030E045D000E0559A2
:1028F00001E3BED004CBE9FF05CBEAFF140EEA02E8
:10290000F3CFEAFFE902F3CFE9FFF450EA26000E25
:10291000E926040EEA22100EE926000EEA22EE5005
:10292000ED1001E1A5D004CBE9FF05CBEAFF140EC1
:10293000EA02F3CFEAFFE902F3CFE9FFF450EA2617
:10294000000EE926040EEA22100EE926000EEA2205
:10295000EECF14F0EFCF15F0AFC2E9FFB0C2EAFF3F
:10296000020EE926000EEA22EECF16F0EFCF17F0A6
:102970001650141802E11750151801E074D004CB5A
:10298000E9FF05CBEAFF140EEA02F3CFEAFFE90202
:10299000F3CFE9FFF450EA26000EE926040EEA22FE
:1029A0000A0EE926000EEA22EECF14F0EFCF15F062
:1029B000AFC2E9FFB0C2EAFFEECF16F0EFCF17F0DB
:1029C0001650141802E11750151801E04CD0B1C28E
:1029D000E9FFB2C2EAFFEECF14F0EECF15F0EECF72
:1029E00016F0EFCF17F004CBE9FF05CBEAFF140E8A
:1029F000EA02F3CFEAFFE902F3CFE9FFF450EA2657
:102A0000000EE926040EEA22EE500001141809E136
:102A1000EE50151806E1EE50161803E1EE501718A7
:102A200000E101E020D046EC5EF006C014F007C0E3
:102A300015F004CBE9FF05CBEAFF140EEA02F3CF51
:102A4000EAFFE902F3CFE9FFF450EA26000EE92697
:102A5000040EEA22120EE926000EEA2214C0EEFF4E
:102A600015C0EDFFEAD00B01042B000E05233CD767
:102A7000006B0051146E156A090E145C000E155897
:102A800001E3D9D000CB45F24CEC00F0020140A7A5
:102A9000CFD093EC00F0AFC2E9FFB0C2EAFF020E64
:102AA000E926000EEA22EECF14F0EFCF15F0145015
:102AB0000201121902E11550131901E0B9D00A0EF2
:102AC000E66EE66AB1C2E6FFB2C2E6FF04CBE9FFFA
:102AD00005CBEAFF140EEA02F3CFEAFFE902F3CFD7
:102AE000E9FFF450EA26000EE926040EEA22E9CFB7
:102AF00014F0EACF15F014C0E6FF15C0E6FFB8ECFD
:102B00005AF0166E060EE15E1650AFC2E9FFB0C273
:102B1000EAFFEECF14F0EFCF15F004CBE9FF05CBC1
:102B2000EAFF140EEA02F3CFEAFFE902F3CFE9FF6E
:102B3000F450EA26000EE926040EEA220A0EE926DF
:102B4000000EEA2214C0EEFF15C0EDFFAFC2E9FF90
:102B5000B0C2EAFF040EE926000EEA22EECF14F01E
:102B6000EECF15F0EECF16F0EFCF17F004CBE9FF64
:102B700005CBEAFF140EEA02F3CFEAFFE902F3CF36
:102B8000E9FFF450EA26000EE926040EEA220C0EB4
:102B9000E926000EEA2214C0EEFF15C0EEFF16C0B3
:102BA000EEFF17C0EEFFAFC2E9FFB0C2EAFF020EB0
:102BB000E926000EEA22EECF14F0EFCF15F004CB99
:102BC000E9FF05CBEAFF140EEA02F3CFEAFFE902C0
:102BD000F3CFE9FFF450EA26000EE926040EEA22BC
:102BE000100EE926000EEA2214C0EEFF15C0EDFF1C
:102BF00046EC5EF006C014F007C015F004CBE9FF08
:102C000005CBEAFF140EEA02F3CFEAFFE902F3CFA5
:102C1000E9FFF450EA26000EE926040EEA22120E1D
:102C2000E926000EEA2214C0EEFF15C0EDFF05D024
:102C30000B01002B1ED7000E00D01200B3C2E9FF1B
:102C4000B4C2EAFFEECF56F4EDCF57F4FFEC44F0F8
:102C5000F3CF14F0F4CF15F0B3C2E9FFB4C2EAFF2A
:102C600014C0EEFF15C0EDFFB3C2E9FFB4C2EAFF26
:102C7000020EE926000EEA22EECF56F4EDCF57F40D
:102C8000FFEC44F0F3CF14F0F4CF15F0B3C2E9FF3A
:102C9000B4C2EAFF020E14C0EBFF030E15C0EBFF37
:102CA000B3C2E9FFB4C2EAFF040EE926000EEA222D
:102CB000EECF58F4EECF59F4EECF5AF4EFCF5BF4E9
:102CC0000FEC45F006C014F007C015F008C016F070
:102CD00009C017F0B3C2E9FFB4C2EAFF040EE92647
:102CE000000EEA2214C0EEFF15C0EEFF16C0EEFF84
:102CF00017C0EEFFB3C2E9FFB4C2EAFF080EE9262F
:102D0000000EEA22EECF58F4EECF59F4EECF5AF48B
:102D1000EFCF5BF40FEC45F006C014F007C015F0E0
:102D200008C016F009C017F0B3C2E9FFB4C2EAFF49
:102D3000080EE926000EEA2214C0EEFF15C0EEFFD1
:102D400016C0EEFF17C0EEFFB3C2E9FFB4C2EAFF40
:102D50000E0EE926000EEA22EECF56F4EDCF57F420
:102D6000FFEC44F0F3CF14F0F4CF15F0B3C2E9FF59
:102D7000B4C2EAFF0E0E14C0EBFF0F0E15C0EBFF3E
:102D8000B3C2E9FFB4C2EAFF100EE926000EEA2240
:102D9000EECF56F4EDCF57F4FFEC44F0F3CF14F040
:102DA000F4CF15F0B3C2E9FFB4C2EAFF100E14C0AD
:102DB000EBFF110E15C0EBFFB3C2E9FFB4C2EAFF8F
:102DC000120EE926000EEA22EECF56F4EDCF57F4AC
:102DD000FFEC44F0F3CF14F0F4CF15F0B3C2E9FFE9
:102DE000B4C2EAFF120E14C0EBFF130E15C0EBFFC6
:102DF000120093EC00F012C242F213C243F229C255
:102E00002FF22AC230F229C231F22AC232F22BC288
:102E100033F22CC234F22BC235F22CC236F202014C
:102E20004051080B02E0040E01D00D0E3F6F40919F
:102E3000409340954099409B409D409F41914193D4
:102E4000419541974189249124932497249929C23B
:102E50000EF22AC20FF272EC41F0F3CF06F2F4CF79
:102E600007F272EC41F0F3CF08F2F4CF09F202015D
:102E700022692369010E146F156B12000C0E0501F7
:102E80000E6F0F6B30EC57F092EC40F00B01006FBF
:102E9000F00E0015E840E8403F0B146E156A140E62
:102EA000145E000E155A14C000FB005105E1180E07
:102EB000F36E020EF46E65D0070E0301EF6FF06B38
:102EC0000301ED6BEE6B95EC40F00B010051000738
:102ED000000952E092EC40F00B01016F015101E159
:102EE0004BD0010501E1F1D7020E015D2CE1030E8B
:102EF000005D01E241D0026B036B92EC40F00B01EC
:102F0000016F040E015D08E192EC40F00B01036FCC
:102F100092EC40F00B01026F180E025D020E035995
:102F200001E22AD0B40ED8800255050E035506E200
:102F3000B40EF36E050EF46E24D01DD002CBF3FF59
:102F400003CBF4FF1ED0020E005D01E215D092EC1F
:102F500040F00B01016F0151005D01E20DD0015104
:102F60000301EF6FF06B0301ED6BEE6B95EC40F03E
:102F70000B010151005FA9D7180EF36E020EF46E1B
:102F800000D01200B5C2E9FFB6C2EAFF0D0EE92675
:102F9000000EEA22EFCF79FBB5C2E9FFB6C2EAFF25
:102FA000080EE926000EEA22EECF7AFBEECF7BFB7D
:102FB000EECF7CFBEFCF7DFBB5C2E9FFB6C2EAFFE7
:102FC000040EE926000EEA22EECF7EFBEECF7FFB59
:102FD000EECF80FBEFCF81FB020140914093409503
:102FE00040B913D03BEC5EF006C037F207C038F2B0
:102FF00008C039F209C03AF2740E02013727350EC3
:103000003823060E3923000E3A233F51050A48E0C3
:10301000010A08E0B7C282FBB8C283FB0B0179A1A9
:10302000CFD0CBD00B0179A503D0E3DE83EF1FF027
:1030300079A912D07ACB06F27BCB07F27CCB08F2CF
:103040007DCB09F20201AE6B0201040EAD6FA3EC61
:1030500010F0CFDE83EF1FF079A31FD07ECB0AF2F2
:103060007FCB0BF280CB0CF281CB0DF202010A2B4D
:10307000000E0B230C230D2301DFF3CF25F2F4CF39
:1030800026F20201010EAE6F0201120EAD6FA3EC2B
:1030900010F00201060E3F6F01D0ABDE83EF1FF090
:1030A0000B0179A502D083EF1FF079A934D07A0EF5
:1030B000E96E0B0EEA6EEE500201061909E1EE50C0
:1030C000071906E1EE50081903E1EE50091900E175
:1030D00022E006C27EFB07C27FFB08C280FB09C25A
:1030E00081FB7ACB06F27BCB07F27CCB08F27DCB5F
:1030F00009F20201010EAE6F0201040EAD6FA3ECE6
:1031000010F07ECB06F27FCB07F280CB08F281CBAA
:1031100009F283EF1FF00B0179A34DD07ECB0AF2A9
:103120007FCB0BF280CB0CF281CB0DF202010A2B8C
:10313000000E0B230C230D23B5C2E9FFB6C2EAFF34
:103140000E0EE926000EEA22EECF14F2EDCF15F2B4
:1031500095DEF3CF25F2F4CF26F20B0179A920D02A
:103160000201010EAE6F0201100EAD6FA3EC10F064
:103170000201070E3F6F3BEC5EF006C037F207C05E
:1031800038F208C039F209C03AF2740E020137274A
:10319000350E3823060E3923000E3A2340990BD002
:1031A0000201010EAE6F0201120EAD6FA3EC10F022
:1031B0000201060E3F6F83EF1FF0822B000E832368
:1031C00079A303D0822B000E832302013551335D96
:1031D0003651345914E32B512D5D146E2E512C555C
:1031E000156E3551335D166E34513655176E0B0121
:1031F0001650145C776F17501558786F0DD03351F7
:10320000355D0B01776F0201345136590B01786F30
:10321000010E775F000E785B0A0EE96E020EEA6E11
:10322000EE507E5D716FEE507F59726FEE50805997
:10323000736FEE508159746F71CB75FB72CB76FB57
:10324000846B8251831101E17BD07751781101E1C8
:1032500076D0800E741512E177CB14F078CB15F090
:10326000166A176A1450715D1550725916507359C9
:103270001750745903E2010E846F3DD082CB14F0D5
:1032800083CB15F0166A176A710EE96E0B0EEA6EA3
:10329000EE501426EE501522EE501622EE50172254
:1032A0001734000E171809E6D880000E1454000ECB
:1032B0001554000E1654000E17541DE28251775D0E
:1032C000186E78518355196E1A6A1B6A19AE02D0AE
:1032D0001A681B681B507419E8AE02D0743508D008
:1032E0007151185C7251195873511A5874511B5806
:1032F00002E3010E846F77CB14F078CB15F0166AD9
:10330000176A74511718E8AE02D0173408D0145059
:10331000715D1550725916507359175074590FE258
:1033200075518225186E76518321196E193404E285
:1033300018500008000E195402E2010E846F1CD0D0
:10334000715172117311741103E1010E846F14D065
:10335000800E741511E177CB14F078CB15F0166A56
:10336000176A1450715D15507259165073591750E1
:10337000745902E2010E846F84510CE179B508D0D2
:103380000201010EAE6F0201100EAD6FA3EC10F042
:1033900083EF1FF0060E791503E02BDD83EF1FF09E
:1033A00079B902D083EF1FF002013F510C0A01E10D
:1033B0007ED20B0A40E00F0A3EE0010A3CE0020A1E
:1033C0003AE0010A38E00C0A01E086D27A0EE96E92
:1033D0000B0EEA6EEE50061909E1EE50071906E1F0
:1033E000EE50081903E1EE50091900E122E006C28F
:1033F0007EFB07C27FFB08C280FB09C281FB7ACB40
:1034000006F27BCB07F27CCB08F27DCB09F20201FE
:10341000010EAE6F0201040EAD6FA3EC10F07ECB77
:1034200006F27FCB07F280CB08F281CB09F283EF63
:103430001FF0070E3F6F0E512F5D0B016F6F0201E2
:103440000F5130590B01706F800E70150CE00201A6
:1034500029512B5D146E2C512A55156E14500B01F9
:103460006F27155070236FCB14F070CB15F0166AD0
:10347000176A060EE96E020EEA6EEE5014246B6FA8
:10348000EE5015206C6FEE5016206D6FEE50172029
:103490006E6F7A0EE96E0B0EEA6EEE506B5D146E77
:1034A000EE506C59156EEE506D59166EEE506E5909
:1034B000176E0001800E171409E00201AE6B0201C5
:1034C000100EAD6FA3EC10F083EF1FF0020131512D
:1034D0000E5D146E0F513255156E166A176A15AED1
:1034E00002D016681768060EE96E020EEA6E1450D6
:1034F000EE5C0B016B6F1550EE586C6F1650EE586A
:103500006D6F1750EE586E6F020131510E5D3251E2
:103510000F5911E229512B5D146E2C512A55156E4D
:10352000166A176A14500B016B5F15506C5B1650CE
:103530006D5B17506E5B6B0EE96E0B0EEA6EEE5014
:103540000B017A5D6B6FEE507B596C6FEE507C59BE
:103550006D6FEE507D596E6F6E35000E6E1909E677
:10356000D880000E6B55000E6C55000E6D55000E88
:103570006E5501E397D0020129512B5D146E2C5139
:103580002A55156E166A176A0B016B51145C6C5143
:1035900015586D5116586E51175801E283D002012B
:1035A00024972499419131C26FFB32C270FB0B0109
:1035B0006B51020131270B016C51020132230B01C7
:1035C0006F5102010E5D0B01705102010F591BE397
:1035D00031510E5D32510F5915E20E51315D146EAD
:1035E00032510F55156E00011450020106270001DB
:1035F000155002010723000E0823092331C20EF2E1
:1036000032C20FF22FD029512B5D146E2C512A5546
:10361000156E0E5114240B016F6F02010F5115200E
:103620000B01706F020131510B016F5D02013251CC
:103630000B01705917E26F510201315D146E325166
:103640000B017055156E0001145002010627000190
:10365000155002010723000E0823092331C20EF280
:1036600032C20FF202012B51315D2C5132590AE363
:1036700029512B5D146E2C512A55156E1450315F53
:103680001550325B2B510E5D2C510F590AE3295115
:103690002B5D146E2C512A55156E14500E5F15506B
:1036A0000F5B3FD002010E51311902E10F51321967
:1036B00038E024A735D024A932D031510E5D146EE4
:1036C0000F513255156E166A176A15AE02D016687C
:1036D00017681450065F1550075B1650085B1750AB
:1036E000095B31510E5D32510F5914E229512B5DA6
:1036F000146E2C512A55156E166A176A15AE02D033
:10370000166817681450065F1550075B1650085B63
:103710001750095B31C20EF232C20FF24185248983
:1037200024872F51311902E1305132192FE141B76D
:1037300015D03BEC5EF006C037F207C038F208C087
:1037400039F209C03AF2740E02013727350E3823D8
:10375000060E3923000E3A23409918D0060EE96E62
:10376000020EEA6EEE500B017A1909E1EE507B1958
:1037700006E1EE507C1903E1EE507D1900E106E10F
:1037800002012451010B02E0409941977A0EE96E43
:103790000B0EEA6EEE500201065D146EEE500759F4
:1037A000156EEE500859166EEE500959176EB5C2D7
:1037B000E9FFB6C2EAFF0E0EE926000EEA220B016F
:1037C0001450EE5C856F1550EE58866F020114514F
:1037D000151106E10B018551861102E002014183BA
:1037E00085CB14F286CB15F2080E02013F5D2DE168
:1037F000060EE96E020EEA6EEE500B017A1909E12F
:10380000EE507B1906E1EE507C1903E1EE507D1974
:1038100000E11AE102012451010B16E03BEC5EF0DD
:1038200006C037F207C038F208C039F209C03AF2D0
:10383000BA0E020137271A0E3823030E3923000E61
:103840003A234089090E3F6F31D0090E3F5D16E1E2
:103850000B0179B112D07ACB06F27BCB07F27CCB8D
:1038600008F27DCB09F20201AE6B0201140EAD6FBE
:10387000A3EC10F0F9EC16F046D318D00A0E3F5D19
:1038800015E1060EE96E020EEA6EEE500B017A1992
:1038900009E1EE507B1906E1EE507C1903E1EE5090
:1038A0007D1900E102E1F9EC16F02DD316D0060ED9
:1038B000E96E020EEA6EEE500B017A1909E1EE5044
:1038C0007B1906E1EE507C1903E1EE507D1900E111
:1038D00002E1F9EC16F017D300D00B0179BB13D33A
:1038E0000B0E02013F5D01E10ED30A0E3F5D01E1C7
:1038F0000AD30C0E3F5D01E106D3B751B81101E1C7
:103900004ED20B01763504E275510008000E765553
:1039100001E2E8D0B5C2E9FFB6C2EAFF0C0EE92623
:10392000000EEA22EF50F00BE842E842E842E8429B
:10393000040DF350146E156A7551145C05010E6F79
:103940000B017651155805010F6F30EC57F00B0144
:1039500075510201B7270B0176510201B823B75107
:103960000B01775D0201B8510B01785904E277CB66
:10397000B7F278CBB8F20201B7510A27B8510B233E
:10398000000E0C230D233351B725146E3451B8218A
:10399000156E14502D5D15502E5946E233512D5D94
:1039A0000B016F6F020134512E590B01706F010E24
:1039B0006F27000E70236FCBC5F270CBC6F20201E9
:1039C000C46B0201C269C36944C2C1F233C2BFF20F
:1039D00034C2C0F2C5DB0B016F510201B75D0201B9
:1039E000C56F0B0170510201B8590201C66F020187
:1039F000C46B0201C269C36944C2C1F22BC2BFF2E7
:103A00002CC2C0F2ADDB0B016F510201B75D146E29
:103A1000B8510B017055156E02012B511424336FF0
:103A20002C511520346F15D0B7C2C5F2B8C2C6F2FA
:103A30000201C46B0201C269C36944C2C1F233C24C
:103A4000BFF234C2C0F28CDB0201B7513327B85148
:103A50003423221D01E1231D44E0B751225FB851F8
:103A6000235B165122250B016F6F02011751232191
:103A70000B01706F800E701504E00201226923694A
:103A800030D00201233504E222510008000E2355F4
:103A900028E30B016F5102010A270B01705102014B
:103AA0000B23000E0C230D230B016F510201332752
:103AB0000B0170510201342333512D5D34512E59C5
:103AC0000EE22B512D5D146E2E512C55156E010EEC
:103AD0001426000E15221450335F1550345B2269F2
:103AE00023695DD1763504E275510008000E7655E4
:103AF00001E355D10201B7510B017525146E020186
:103B0000B8510B017621156E1450775D1550785918
:103B100009E27551775D0201B76F0B017651785953
:103B20000201B86FB5C2E9FFB6C2EAFF0C0EE92682
:103B3000000EEA22EF50F00BE842E842E842E84289
:103B4000040DF35005010E6F0F6B30EC57F00201BE
:103B500033510B017525166E020134510B0176218C
:103B6000176E16500201B725146E1750B821156E46
:103B700014502D5D15502E596EE233512D5D146E8B
:103B80002E513455156E010E1426000E15220B0110
:103B90007551145C6F6F76511558706F800E7015EB
:103BA00031E16FCBC5F270CBC6F20201C46B0201EA
:103BB000C269C36944C2C1F2020133510B017525C8
:103BC0000201BF6F020134510B0176210201C06F67
:103BD000C7DA0B016F510201B75D0201C56F0B011E
:103BE00070510201B8590201C66F0201C46B020193
:103BF000C269C36944C2C1F22BC2BFF22CC2C0F277
:103C0000AFDA28D0B7C2C5F2B8C2C6F20201C46B9F
:103C10000201C269C36944C2C1F2020133510B01FE
:103C20007525146E020134510B017621156E0201C7
:103C30002B512D5D166E2E512C55176E010E16262A
:103C4000000E172202011650145CBF6F1750155852
:103C5000C06F86DA18D0B7C2C5F2B8C2C6F2020188
:103C6000C46B0201C269C36944C2C1F2020133518B
:103C70000B0175250201BF6F020134510B01762142
:103C80000201C06F6DDA0201221D01E1231D09E16D
:103C900075CB22F276CB23F2B7C216F2B8C217F276
:103CA0007ED022510B01755D020123510B01765923
:103CB0003DE275510201B725146E0B0176510201E8
:103CC000B821156E22511625166E23511721176E35
:103CD0001450165C155017580FE30B017551020173
:103CE000B725186E0B0176510201B821196E2251C9
:103CF000185C2351195805E2B7C216F2B8C217F280
:103D000010D022511625146E23511721156E0B0168
:103D10007551145C0201166F0B01765115580201A2
:103D2000176F75CB22F276CB23F239D07551020191
:103D3000B725146E0B0176510201B821156E225180
:103D40001625166E23511721176E1450165C155048
:103D5000175825E222511625146E23511721156E8E
:103D60000B017551145C7651155819E37551020118
:103D7000B725186E0B0176510201B821196E225138
:103D8000185C166E23511958176E1651165C146E76
:103D900017511758156E14501627155017230B017D
:103DA0008251831124E0070E02013F5D04E033C21B
:103DB00035F234C236F240AF0BD00201010EAE6FC5
:103DC0000201100EAD6FA3EC10F093EC00F00FD0D9
:103DD000408F40BD0CD0408D46EC5EF006C03DF2F9
:103DE00007C03EF20F0E02013D27000E3E230B01DD
:103DF00079A189D00AC214F00BC215F00CC216F0DA
:103E00000DC217F0142A000E15221622172282CB9B
:103E100018F083CB19F01A6A1B6A7E0EE96E0B0E3E
:103E2000EA6EEE501826EE501922EE501A22EE508D
:103E30001B221450181809E11550191806E11650E4
:103E40001A1803E117501B1800E15DE102010A2B6B
:103E5000000E0B230C230D233F51090A41E0010AF8
:103E60001EE00F0A0EE0010A01E044D00C0E3F6F85
:103E70000201010EAE6F0201110EAD6FA3EC10F046
:103E800042D00B0E3F6F46EC5EF006C03DF207C01D
:103E90003EF21F0E02013D27000E3E232CD0060EDF
:103EA000E96E020EEA6EEE500B017A1909E1EE504E
:103EB0007B1906E1EE507C1903E1EE507D1900E11B
:103EC0000BE10201AE6B0201100EAD6FA3EC10F01E
:103ED000F9EC16F018D003D002010A0E3F6F0BD098
:103EE0000201AE6B0201100EAD6FA3EC10F0F9EC05
:103EF00016F009D000D00201010EAE6F0201100EC3
:103F0000AD6FA3EC10F01200B9C245F24CEC00F01A
:103F10000201BA51BB1103E1010EBA6FBB6B29510B
:103F20002D5D0B01286F02012A512E590B01296FBB
:103F3000010E285F000E295B0201BA51BC25146EE8
:103F4000BB51BD21156E0B011450285D1550295928
:103F500002E2000E04D193EC00F0030E0201BE1544
:103F600002E1030EBE13BCC22CFBBDC22DFBBA5135
:103F7000BC25146EBB51BD21156E14500B01285F7A
:103F80001550295B0201BEA314D0BEA10DD028CBD1
:103F900014F029CB15F0D8901532143214500B01BF
:103FA0002C2715502D2305D00B0128512C272951E2
:103FB0002D23020129510B012C25286F02012A51C2
:103FC0000B012D21296F010E2827000E292333C252
:103FD0002AFB34C22BFB0201221D01E1231D22E03A
:103FE00022511625146E23511721156E14500B0102
:103FF0002A2715502B232A5102012D5D0B012B512D
:1040000002012E590FE22B512D5D146E2E512C55AD
:10401000156E010E1426000E152214500B012A5F96
:1040200015502B5B0B012A510201355D0B012B5101
:104030000201365917E20B0128510201355D0B01CF
:104040002951020136590DE2BEA503D0000E87D0DA
:1040500008D028CB35F229CB36F228CB33F229CB46
:1040600034F226D035510B012A5D020136510B0185
:104070002B5916E2285102012B5D0B012951020137
:104080002C590DE2BEA503D0000E69D008D028CB74
:1040900035F229CB36F228CB33F229CB34F208D0D3
:1040A00028CB35F229CB36F228CB33F229CB34F2A8
:1040B000020135510B012A5D020136510B012B59CA
:1040C00030E2040E0201BE152CE02B510B012A5DDB
:1040D0000201C56F02012C510B012B590201C66F61
:1040E00044C2C4F22BC2C2F22CC2C3F244C2C1F217
:1040F00028CBBFF229CBC0F233D802013551335D52
:10410000365134590EE20B01285102012B5D146E19
:104110002C510B012955156E14500201335F1550B7
:10412000345B28CB2BF229CB2CF229C20EF22AC207
:104130000FF229C231F22AC232F229C22FF22AC268
:1041400030F2070E02013F5D08E10201010EAE6F81
:104150000201100EAD6FA3EC10F0010E00D01200A2
:104160000201C45131E0010A01E05DD0C15116E005
:10417000010A01E028D0C5C2E6FFC6C2E6FFC2C2FE
:10418000E6FFC3C2E6FFBFC2E6FFC0C2E6FFB8EC6F
:104190005AF0146E060EE15E145015D0BF1D01E1F9
:1041A000C01D06E0BFC2DDF3C0C2DEF3D0EC3EF0BE
:1041B000C5C2F4F3C6C2F5F3C2C2F2F3C3C2F3F34D
:1041C000CDEC40F000D02FD0C15118E0010A01E041
:1041D00029D0C21D01E1C31D06E0C2C2DFF3C3C284
:1041E000E0F3DEEC3EF0C5C2EFF3C6C2F0F3BFC2AF
:1041F000EDF3C0C2EEF395EC40F014D0C5C2EBF382
:10420000C6C2ECF3C2C2E9F3C3C2EAF3BFC2E7F32A
:10421000C0C2E8F3B7EC3FF08BEC40F0000901E1DD
:10422000FBD700D000D012000201C95118E0010AEA
:1042300001E069D0CDC2E6FFCEC2E6FFCAC2E6FF0A
:10424000CBC2E6FFCCC2E6FFC7C2E6FFC8C2E6FFAC
:10425000E3EC5AF0146E070EE15E145054D0C71D03
:1042600001E1C81D06E0C7C2DDF3C8C2DEF3D0EC31
:104270003EF0100E0B01106F116B0201CD51CE11EB
:1042800041E00B0110510201CD5D0B011151020102
:10429000CE5904E2CDC210FBCEC211FB10CBE6FF1B
:1042A00011CBE6FFCAC2E6FFCBC2E6FFCCC2E6FFF7
:1042B000000EE66E0B0EE66EE3EC5AF0146E070E7F
:1042C000E15E145010CBF4F311CBF5F30301000EB3
:1042D000F26F0B0EF36FCDEC40F010CB14F011CB5E
:1042E00015F0166A14500201CA271550CB23165038
:1042F000CC230B0110510201CD5F0B0111510201C2
:08430000CE5BBBD700D0120018
:084308000B01010E006F00CB58
:1043100014F0156A166A176AD880070E1454000E36
:104320001554000E1654000E175410E300510A0DD8
:10433000F3CFE9FFF4CFEAFF600EE926000EEA2290
:10434000EE68EE68EE68EE68002BE1D7FEEC4CF00C
:104350000001CB69CC69CD69CE69A9EC2CF00001D4
:10436000B06B12000B01176BCFC0E9FFD0C0EAFFA2
:10437000EF5003E00001B00502E1FF0E30D10B0168
:10438000016B026BCFC015FBD0C016FB15CBE9FF4C
:1043900016CBEAFFEF5016E015CBE9FF16CBEAFF8C
:1043A000EF50146E156A1450012715500223010EA8
:1043B000D89001370237E806FBE10B01152B000E00
:1043C0001623E4D7010E006F00CB14F0156A166AAD
:1043D000176AD880070E1454000E1554000E165498
:1043E000000E175419E300510A0DF3CFE9FFF4CF83
:1043F000EAFF600EE926000EEA22E868EE1808E1FE
:10440000E868EE1805E1E868EE1802E1E868EE18E1
:1044100001E102D0002BD8D700CB14F0156A166A40
:10442000176A070E141805E1155003E1165001E153
:10443000175002E1FF0ED3D0036B046B0001C9518A
:104440000B01035D0001CA510B01045901E3C5D002
:104450000351070B24E1020E086E096A03CB0DF02D
:1044600004CB0EF08DEC5EF006C060F007C061F08A
:10447000080E00016027000E6123626B636B100E53
:10448000646F656B666B676B0001DD6FDE6B00014F
:10449000050EDB6F0B0EDC6F0001DA6B87DB070E9E
:1044A0000B010315E96EEA6A010ED890E936EA3687
:1044B000E806FBE1050EE9260B0EEA22EECF14F02A
:1044C000EFCF15F00B010151141802E1025115183C
:1044D00001E07FD003CBEEF004CBEFF085EC29F0C8
:1044E000B1C060F0B2C061F0B3C062F0B4C063F0BC
:1044F00000016469656B666B676BCFC015FBD0C04C
:1045000016FB15CBE9FF16CBEAFFEF5015E00001D3
:10451000170ED86F0B0ED96F0001D76B5FDA15CB72
:10452000E9FF16CBEAFFEF500B01175D01E004D065
:10453000152B000E1623E5D70001170ED86F0B0EB2
:10454000D96F0001D76B4ADA0B01175142E115CB45
:10455000E9FF16CBEAFFEF503CE100510A0DF3CF23
:10456000E9FFF4CFEAFF600EE926000EEA22B5C0AB
:10457000EEFFB6C0EEFFB7C0EEFFB8C0EEFF0051D1
:104580000A0DF3CFE9FFF4CFEAFF600EE926000E33
:10459000EA22040EE926000EEA22B9C0EEFFBAC0F4
:1045A000EEFFBBC0EEFFBCC0EEFF00510A0DF3CF23
:1045B000E9FFF4CFEAFF600EE926000EEA22080EBA
:1045C000E926000EEA2203CBEEFF04CBEDFF0051FB
:1045D00006D0032B000E042331D7FF0E00D01200AB
:1045E000D1C0F6FFD2C0F7FFD3C0F8FF0800F550E6
:1045F00003E00001B00502E1FF0E45D10B01016BA4
:10460000026BD1C015FBD2C016FBD3C017FB15CB74
:10461000F6FF16CBF7FF17CBF8FF0800F5501AE0AE
:1046200015CBF6FF16CBF7FF17CBF8FF0800F550B8
:10463000146E156A1450012715500223010ED890EC
:1046400001370237E806FBE10B01152B000E16239C
:104650001723DDD7010E006F00CB14F0156A166A20
:10466000176AD880070E1454000E1554000E165405
:10467000000E175419E300510A0DF3CFE9FFF4CFF0
:10468000EAFF600EE926000EEA22E868EE1808E16B
:10469000E868EE1805E1E868EE1802E1E868EE184F
:1046A00001E102D0002BD8D700CB14F0156A166AAE
:1046B000176A070E141805E1155003E1165001E1C1
:1046C000175002E1FF0EDFD0036B046B0001C951EC
:1046D0000B01035D0001CA510B01045901E3D1D064
:1046E0000351070B24E1020E086E096A03CB0DF09B
:1046F00004CB0EF08DEC5EF006C060F007C061F0F8
:10470000080E00016027000E6123626B636B100EC0
:10471000646F656B666B676B0001DD6FDE6B0001BC
:10472000050EDB6F0B0EDC6F0001DA6B3FDA070E54
:104730000B010315E96EEA6A010ED890E936EA36F4
:10474000E806FBE1050EE9260B0EEA22EECF14F097
:10475000EFCF15F00B010151141802E102511518A9
:1047600001E08BD003CBEEF004CBEFF085EC29F029
:10477000B1C060F0B2C061F0B3C062F0B4C063F029
:1047800000016469656B666B676BD1C015FBD2C0B5
:1047900016FBD3C017FB15CBF6FF16CBF7FF17CBD5
:1047A000F8FF0800F55019E00001180ED86F0B0E45
:1047B000D96F0001D76B12D915CBF6FF16CBF7FFD7
:1047C00017CBF8FF0800F5500B01185D01E005D08C
:1047D000152B000E16231723DED70001180ED86FF5
:1047E0000B0ED96F0001D76BF9D80B01185145E1B9
:1047F00015CBF6FF16CBF7FF17CBF8FF0800F550E7
:104800003CE100510A0DF3CFE9FFF4CFEAFF600E5F
:10481000E926000EEA22B5C0EEFFB6C0EEFFB7C033
:10482000EEFFB8C0EEFF00510A0DF3CFE9FFF4CF61
:10483000EAFF600EE926000EEA22040EE926000EC9
:10484000EA22B9C0EEFFBAC0EEFFBBC0EEFFBCC0AB
:10485000EEFF00510A0DF3CFE9FFF4CFEAFF600E3F
:10486000E926000EEA22080EE926000EEA2203CB12
:10487000EEFF04CBEDFF005106D0032B000E042306
:1048800025D7FF0E00D012000001B00505E0D4517D
:10489000C95DD551CA5902E2FF0E7ED00B01010E4F
:1048A000006F00CB14F0156A166A176AD880070EDD
:1048B0001454000E1554000E1654000E175419E32C
:1048C00000510A0DF3CFE9FFF4CFEAFF600EE926AD
:1048D000000EEA22E868EE1808E1E868EE1805E143
:1048E000E868EE1802E1E868EE1801E102D0002B5A
:1048F000D8D700CB14F0156A166A176A070E141879
:1049000005E1155003E1165001E1175002E1FF0ED9
:1049100043D0D4C0EEF0D5C0EFF085EC29F00B0108
:1049200000510A0DF3CFE9FFF4CFEAFF600EE9264C
:10493000000EEA22080EE926000EEA22D4C0EEFF9D
:10494000D5C0EDFF00510A0DF3CFE9FFF4CFEAFF28
:10495000600EE926000EEA22B5C0EEFFB6C0EEFFFB
:10496000B7C0EEFFB8C0EEFF00510A0DF3CFE9FF6C
:10497000F4CFEAFF600EE926000EEA22040EE926D3
:10498000000EEA22B9C0EEFFBAC0EEFFBBC0EEFFD8
:10499000BCC0EEFF005100D012000001D6511DE056
:1049A000D6C014F0156A166A176AD880070E145418
:1049B000000E1554000E1654000E17540EE3D65177
:1049C0000A0DF3CFE9FFF4CFEAFF600EE926000EEF
:1049D000EA22EE68EE68EE68EE681200D7C014F0C6
:1049E000156A166A176AD880070E1454000E1554FB
:1049F000000E1654000E175402E2000ED6D000012D
:104A0000D7510A0DF3CFE9FFF4CFEAFF600EE92694
:104A1000000EEA22E868EE1808E1E868EE1805E101
:104A2000E868EE1802E1E868EE181BE0D7510A0DBD
:104A3000F3CFE9FFF4CFEAFF600EE926000EEA2289
:104A4000040EE926000EEA22EECF14F0EECF15F0A8
:104A5000EECF16F0EFCF17F01450151016101710F8
:104A600002E1000EA2D0D851D91123E1D7510A0D8D
:104A7000F3CFE9FFF4CFEAFF600EE926000EEA2249
:104A8000EE2A000EEE22EE22EE22D7510A0DF3CFCF
:104A9000E9FFF4CFEAFF600EE926000EEA22040ED9
:104AA000E926000EEA22EE06EE5AEE5AEE5A010E02
:104AB0007CD0CBC014F0CCC015F0CDC016F0CEC069
:104AC00017F0142A000E152216221722D7510A0DAC
:104AD000F3CFE9FFF4CFEAFF600EE926000EEA22E9
:104AE000EE50141809E1EE50151806E1EE501618B4
:104AF00003E1EE50171800E11BE0D7510A0DF3CF88
:104B0000E9FFF4CFEAFF600EE926000EEA22EECFBD
:104B10005AFEEECF5BFEEECF5CFEEFCF5DFE890E60
:104B20000E015A27000E5B235C235D230CEC4DF035
:104B30001CEC4DF0D8C0E9FFD9C0EAFFEF6E0001D0
:104B4000D7510A0DF3CFE9FFF4CFEAFF600EE92653
:104B5000000EEA22EECFCBF0EECFCCF0EECFCDF0D0
:104B6000EFCFCEF0D7510A0DF3CFE9FFF4CFEAFF34
:104B7000600EE926000EEA22EE2A000EEE22EE2258
:104B8000EE22D7510A0DF3CFE9FFF4CFEAFF600E12
:104B9000E926000EEA22040EE926000EEA22EE06BD
:104BA000EE5AEE5AEE5A010E00D01200DAC014F09E
:104BB000156A166A176AD880070E1454000E155429
:104BC000000E1654000E175403E2F36AF46AE7D09D
:104BD000DDC014F0DEC015F0166A176A0001DA5164
:104BE0000A0DF3CFE9FFF4CFEAFF600EE926000ECD
:104BF000EA22040EE926000EEA221450EE5C15505B
:104C0000EE581650EE581750EE5812E2DA510A0DCF
:104C1000F3CFE9FFF4CFEAFF600EE926000EEA22A7
:104C2000040EE926000EEA22EECFDDF0EDCFDEF035
:104C3000DA510A0DF3CFE9FFF4CFEAFF600EE9265F
:104C4000000EEA22E868EE1808E1E868EE1805E1CF
:104C5000E868EE1802E1E868EE1803E0DD51DE11C5
:104C600003E1F36AF46A9BD0DB51DC1139E1DDC06A
:104C700014F0DEC015F0166A176ADA510A0DF3CF88
:104C8000E9FFF4CFEAFF600EE926000EEA22145095
:104C9000EE261550EE221650EE221750EE22DDC001
:104CA00014F0DEC015F0166A176ADA510A0DF3CF58
:104CB000E9FFF4CFEAFF600EE926000EEA22040EB7
:104CC000E926000EEA221450EE5E1550EE5A1650F8
:104CD000EE5A1750EE5ADDC0F3FFDEC0F4FF5FD08E
:104CE000DDC064FEDBC062FEDCC063FEDA510A0D8B
:104CF000F3CFE9FFF4CFEAFF600EE926000EEA22C7
:104D0000EECF5EFEEECF5FFEEECF60FEEFCF61FE38
:104D1000890E0E015E27000E5F23602361234CEC99
:104D20004DF0DDC014F0DEC015F0166A176A000100
:104D3000DA510A0DF3CFE9FFF4CFEAFF600EE9265E
:104D4000000EEA221450EE261550EE221650EE22E6
:104D50001750EE22DDC014F0DEC015F0166A176A97
:104D6000DA510A0DF3CFE9FFF4CFEAFF600EE9262E
:104D7000000EEA22040EE926000EEA221450EE5E2E
:104D80001550EE5A1650EE5A1750EE5ACB69CC69B0
:104D9000CD69CE69DDC0F3FFDEC0F4FF00D01200A4
:104DA000040E0001DD6FDE6BE0C0DBF0E1C0DCF083
:104DB000DFC0DAF0FBDEF3CF14F0F4CF15F0040E11
:104DC000141801E1155002E0000E01D0010E00D0D0
:104DD0001200E2C014F0156A166A176AD880070E2E
:104DE0001454000E1554000E1654000E175402E20F
:104DF000000E82D10001E2510A0DF3CFE9FFF4CF9A
:104E0000EAFF600EE926000EEA22E868EE1808E1E3
:104E1000E868EE1805E1E868EE1802E1E868EE18C7
:104E200002E1000E69D1E751010A01E110D1020A45
:104E300001E1B1D0010A6CE0020A02E0000E5CD18F
:104E4000E2C0F3F084DB06C000FB07C001FB08C032
:104E500002FB09C003FBE30EE96E000EEA6EEE50A2
:104E60000B01005DEE500159EE500259EE5003590E
:104E700002E2000E41D1E2C0F5F044EC2BF0065006
:104E80000001E325146E0750E421156E0850E5215A
:104E9000166E0950E621176EE2510A0DF3CFE9FFB5
:104EA000F4CFEAFF600EE926000EEA2214C0EEFFFE
:104EB00015C0EEFF16C0EEFF17C0EEFFE30EE96E61
:104EC000000EEA6EEE500B01005D146EEE500159BB
:104ED000156EEE500259166EEE500359176E000112
:104EE000E2510A0DF3CFE9FFF4CFEAFF600EE926A5
:104EF000000EEA22040EE926000EEA2214C0EEFF9C
:104F000015C0EEFF16C0EEFF17C0EEFF010EF4D085
:104F1000E2510A0DF3CFE9FFF4CFEAFF600EE92674
:104F2000000EEA22040EE926000EEA22E351EE5CAE
:104F3000E451EE58E551EE58E651EE5802E2000E0B
:104F4000DBD0E2510A0DF3CFE9FFF4CFEAFF600EA8
:104F5000E926000EEA22E351EE26E451EE22E55165
:104F6000EE22E651EE22E2510A0DF3CFE9FFF4CF33
:104F7000EAFF600EE926000EEA22040EE926000E82
:104F8000EA22E351EE5EE451EE5AE551EE5AE65163
:104F9000EE5A010EB1D0E2C0F5F076DB06C000FBA0
:104FA00007C001FB08C002FB09C003FBE30EE96E6A
:104FB000000EEA6E0B010051EE24146E0151EE203A
:104FC000156E0251EE20166E0351EE20176E000191
:104FD000E2510A0DF3CFE9FFF4CFEAFF600EE926B4
:104FE000000EEA221450EE5C1550EE581650EE58A2
:104FF0001750EE5802E2000E7FD0E2510A0DF3CFB7
:10500000E9FFF4CFEAFF600EE926000EEA22E35141
:10501000EE5EE451EE5AE551EE5AE651EE5AE25197
:105020000A0DF3CFE9FFF4CFEAFF600EE926000E88
:10503000EA22040EE926000EEA22E351EE26E451AC
:10504000EE22E551EE22E651EE22010E55D0E2C0ED
:10505000F3F07DDA06C000FB07C001FB08C002FBCD
:1050600009C003FBE30EE96E000EEA6EEE500B0181
:10507000005DEE500159EE500259EE50035902E224
:10508000000E3AD0E2C0F6F04CDB0001E351065CC2
:10509000146EE4510758156EE5510858166EE65126
:1050A0000958176EE2510A0DF3CFE9FFF4CFEAFF7A
:1050B000600EE926000EEA2214C0EEFF15C0EEFFD6
:1050C00016C0EEFF17C0EEFFE2510A0DF3CFE9FF65
:1050D000F4CFEAFF600EE926000EEA22040EE9266C
:1050E000000EEA22E3C0EEFFE4C0EEFFE5C0EEFFF3
:1050F000E6C0EEFF010E00D012000B01006B00CBEA
:1051000014F0156A166A176A070E145C000E15581B
:10511000000E1658000E175810E200510A0DF3CF7A
:10512000E9FFF4CFEAFF600EE926000EEA22EE68FE
:10513000EE68EE68EE68002BE2D70001010EB06F5A
:10514000606B616B626B636B68696969400E146EBA
:10515000156A166A176A60C018F0196A1A6A1B6A1B
:10516000890E1826000E19221A221B223F0E18162D
:10517000196A1A6A1B6A1850145C646F1950155822
:10518000656F1A501658666F1B501758676F60C0CE
:1051900065FE61C066FE62C067FE63C068FE890E80
:1051A0000E016527000E662367236823BEEC4DF0D1
:1051B000000902E1000E02D0FF0E00D012000B0128
:1051C000006B016B0001EB510B01005D0001EC5124
:1051D0000B01015901E385D00001E9510B010025C4
:1051E000E96E0001EA510B010121EA6EEFCF69FE81
:1051F000D0EC4DF00001E8510A0DF3CFE9FFF4CFF8
:10520000EAFF600EE926000EEA22EE2A000EEE22E8
:10521000EE22EE22E8510A0DF3CFE9FFF4CFEAFFC8
:10522000600EE926000EEA22040EE926000EEA22AC
:10523000EE06EE5AEE5AEE5AE8510A0DF3CFE9FFA8
:10524000F4CFEAFF600EE926000EEA22040EE926FA
:10525000000EEA22EECF14F0EECF15F0EECF16F0EE
:10526000EFCF17F0145015101610171035E100018C
:10527000ED6B3DD80001010EB06FE8510A0DF3CF80
:10528000E9FFF4CFEAFF600EE926000EEA22EECF36
:1052900065FEEECF66FEEECF67FEEFCF68FE890EAD
:1052A0000E016527000E662367236823BEEC4DF0D0
:1052B0000001E8510A0DF3CFE9FFF4CFEAFF600ED9
:1052C000E926000EEA22040EE926000EEA22400E2C
:1052D000EE6EEE6AEE6AEE6A0B01002B000E012301
:1052E00071D700CBF3FF01CBF4FF00D01200000117
:1052F000B06B3FEC4EF077EC4EF0000901E0FBD7CD
:105300000001ED5101E025DB12000001C751EE194B
:1053100002E1C851EF1905E0C951EE5DCA51EF59DC
:1053200001E335D0160E646F656B666B676BC9C0A1
:1053300014F0CAC015F0010ED89014361536E806E0
:10534000FBE1080E1426000E1522160E086E096ADF
:10535000EEC00DF0EFC00EF08DEC5EF014500624A0
:105360000001606F15500720616F626B636B160E52
:105370000001DD6FDE6B0001B10EDB6F000EDC6F34
:105380000001DA6B13DCEEC0C7F0EFC0C8F012000A
:10539000F0C014F0156A166A176AD880070E145404
:1053A000000E1554000E1654000E175405E2066A3E
:1053B000076A086A096A38D00001F0510A0DF3CF74
:1053C000E9FFF4CFEAFF600EE926000EEA22E86862
:1053D000EE1808E1E868EE1805E1E868EE1802E169
:1053E000E868EE1805E1066A076A086A096A1CD0CF
:1053F000F0510A0DF3CFE9FFF4CFEAFF600EE92682
:10540000000EEA22080EE926000EEA22EECFEEF0A8
:10541000EDCFEFF07ADFBDC006F0BEC007F0BFC031
:1054200008F0C0C009F000D01200F1C014F0156AF5
:10543000166A176AD880070E1454000E1554000E11
:105440001654000E175405E2066A076A086A096ACC
:1054500038D00001F1510A0DF3CFE9FFF4CFEAFF94
:10546000600EE926000EEA22E868EE1808E1E86816
:10547000EE1805E1E868EE1802E1E868EE1805E1CB
:10548000066A076A086A096A1CD0F1510A0DF3CF4F
:10549000E9FFF4CFEAFF600EE926000EEA22080ECB
:1054A000E926000EEA22EECFEEF0EDCFEFF02DDF91
:1054B000C1C006F0C2C007F0C3C008F0C4C009F004
:1054C00000D01200F2C014F0156A166A176AD8806C
:1054D000070E1454000E1554000E1654000E1754E7
:1054E00003E2F36AF46A32D00001F2510A0DF3CFFD
:1054F000E9FFF4CFEAFF600EE926000EEA22E86831
:10550000EE1808E1E868EE1805E1E868EE1802E137
:10551000E868EE1803E1F36AF46A18D0F2510A0D54
:10552000F3CFE9FFF4CFEAFF600EE926000EEA228E
:10553000080EE926000EEA22EECFEEF0EDCFEFF0F6
:10554000E4DEC5C0F3FFC6C0F4FF00D01200F3C014
:1055500014F0156A166A176AD880070E1454000EE4
:105560001554000E1654000E175405E2066A076A19
:10557000086A096A38D00001F3510A0DF3CFE9FF38
:10558000F4CFEAFF600EE926000EEA22E868EE1882
:1055900008E1E868EE1805E1E868EE1802E1E8685D
:1055A000EE1805E1066A076A086A096A1CD0F35119
:1055B0000A0DF3CFE9FFF4CFEAFF600EE926000EF3
:1055C000EA22080EE926000EEA22EECFEEF0EDCF39
:1055D000EFF09BDEB9C006F0BAC007F0BBC008F020
:1055E000BCC009F000D01200F4C014F0156A166AAD
:1055F000176AD880070E1454000E1554000E165466
:10560000000E175405E2066A076A086A096A3BD069
:105610000001F4510A0DF3CFE9FFF4CFEAFF600E69
:10562000E926000EEA22E868EE1808E1E868EE18BC
:1056300005E1E868EE1802E1E868EE1805E1066A9F
:10564000076A086A096A1FD0F4510A0DF3CFE9FF0F
:10565000F4CFEAFF600EE926000EEA22040EE926E6
:10566000000EEA22EECF14F0EECF15F0EECF16F0DA
:10567000EFCF17F014C006F015C007F016C008F001
:1056800017C009F000D01200F5C014F0156A166AB0
:10569000176AD880070E1454000E1554000E1654C5
:1056A000000E175405E2066A076A086A096A38D0CC
:1056B0000001F5510A0DF3CFE9FFF4CFEAFF600EC8
:1056C000E926000EEA22E868EE1808E1E868EE181C
:1056D00005E1E868EE1802E1E868EE1805E1066801
:1056E0000768086809681CD0F5510A0DF3CFE9FF77
:1056F000F4CFEAFF600EE926000EEA22080EE92642
:10570000000EEA22EECFEEF0EDCFEFF0FEDDB5C0F9
:1057100006F0B6C007F0B7C008F0B8C009F000D076
:105720001200F6C014F0156A166A176AD880070EC0
:105730001454000E1554000E1654000E175405E2B2
:10574000066807680868096849D00001F6510A0D23
:10575000F3CFE9FFF4CFEAFF600EE926000EEA225C
:10576000E868EE1808E1E868EE1805E1E868EE1868
:1057700002E1E868EE1805E106680768086809684C
:105780002DD0F6510A0DF3CFE9FFF4CFEAFF600EFA
:10579000E926000EEA22080EE926000EEA22EECFE4
:1057A000EEF0EDCFEFF0B1DDB90EE96E000EEA6E6E
:1057B0000001B551EE24146EB651EE20156EB751AE
:1057C000EE20166EB851EE20176E14C006F015C00C
:1057D00007F016C008F017C009F000D01200F7C09B
:1057E00014F0156A166A176AD880070E1454000E52
:1057F0001554000E1654000E175402E2000E4FD03E
:105800000001F7510A0DF3CFE9FFF4CFEAFF600E74
:10581000E926000EEA22E868EE1808E1E868EE18CA
:1058200005E1E868EE1802E1E868EE1802E1000E12
:1058300036D0F7510A0DF3CFE9FFF4CFEAFF600E3F
:10584000E926000EEA22080EE926000EEA22EECF33
:10585000EEF0EDCFEFF059DDB1C000FBB2C001FBBF
:10586000B3C002FBB4C003FB00CB60F001CB61F01E
:1058700002CB62F003CB63F000016469656B666B79
:10588000676BFAC0DDF0FBC0DEF0F8C0DBF0F9C0FA
:10589000DCF00001DA6BD6EC25F0010E00D012002E
:1058A0000001FC510A0DF3CFE9FFF4CFEAFF600ECF
:1058B000E926000EEA22EECF18F0EECF19F0EECF77
:1058C0001AF0EFCF1BF018C0E6FF19C0E6FF1AC0B0
:1058D000E6FF1BC0E6FFFCC0F5F0D6DEE552E7CFE1
:1058E0001BF0E552E7CF1AF0E552E7CF19F0E55289
:1058F000E7CF18F00650185C146E07501958156E53
:1059000008501A58166E09501B58176E14C006F02E
:1059100015C007F016C008F017C009F000D012003B
:105920000001FD510A0DF3CFE9FFF4CFEAFF600E4D
:10593000E926000EEA22080EE926000EEA22EECF42
:1059400014F0EFCF15F014C0F3FF15C0F4FF00D032
:1059500012000001606B616B626B636B080E646F19
:10596000656B666B676B060E0001DD6FDE6B000119
:10597000B10EDB6F000EDC6F0001DA6BD6EC25F0A8
:10598000060EE66EE66A4F0EE66EAF0EE66E000E8F
:10599000E66EB10EE66E000EE66E99EC5AF0146EED
:1059A000070EE15E145000090EE1020E0001DD6FEA
:1059B000DE6B0001C90EDB6F000EDC6F0001DA6BDD
:1059C000D6EC25F003D00001C96BCA6B0001C76992
:0459D000C869120090
:0C59D4000B01006B016B020E005D000E69
:1059E00001591EE20F0E086E096A00CB0DF001CBC3
:1059F0000EF08DEC5EF006C002FB07C003FB700EDC
:105A00000B010227040E032302CBE9FF03CBEAFFBD
:105A1000020EE926000EEA22EF6A002B0123DDD7F1
:105A200012000B01700E106F040E116F0E01020EAA
:105A3000001901E1015102E0FE0E52D00B01126B80
:105A4000020E125D4BE210CBE9FF11CBEAFF020E12
:105A5000EB50000901E03BD010CBE9FF11CBEAFF8E
:105A600002CEEEFF03CEEDFF0E016E0E021901E134
:105A7000035113E1110E041901E105510EE110CBA0
:105A8000E9FF11CBEAFF020EE926000EEA22010E21
:105A9000EF6E0B01125124D01AD0640E021901E1ED
:105AA000035113E1060E041901E105510EE110CB7B
